{
  "_format": "hh-sol-artifact-1",
  "contractName": "Voting",
  "sourceName": "contracts/Voting.sol",
  "abi": [
    {
      "anonymous": false,
      "inputs": [
        {
          "indexed": true,
          "internalType": "address",
          "name": "previousOwner",
          "type": "address"
        },
        {
          "indexed": true,
          "internalType": "address",
          "name": "newOwner",
          "type": "address"
        }
      ],
      "name": "OwnershipTransferred",
      "type": "event"
    },
    {
      "anonymous": false,
      "inputs": [
        {
          "indexed": false,
          "internalType": "uint256",
          "name": "proposalId",
          "type": "uint256"
        }
      ],
      "name": "ProposalRegistered",
      "type": "event"
    },
    {
      "anonymous": false,
      "inputs": [
        {
          "indexed": false,
          "internalType": "address",
          "name": "voter",
          "type": "address"
        },
        {
          "indexed": false,
          "internalType": "uint8",
          "name": "proposalId",
          "type": "uint8"
        }
      ],
      "name": "Voted",
      "type": "event"
    },
    {
      "anonymous": false,
      "inputs": [
        {
          "indexed": false,
          "internalType": "address",
          "name": "voterAddress",
          "type": "address"
        }
      ],
      "name": "VoterRegistered",
      "type": "event"
    },
    {
      "anonymous": false,
      "inputs": [
        {
          "indexed": false,
          "internalType": "enum Voting.WorkflowStatus",
          "name": "previousStatus",
          "type": "uint8"
        },
        {
          "indexed": false,
          "internalType": "enum Voting.WorkflowStatus",
          "name": "newStatus",
          "type": "uint8"
        }
      ],
      "name": "WorkflowStatusChange",
      "type": "event"
    },
    {
      "inputs": [
        {
          "internalType": "string",
          "name": "_desc",
          "type": "string"
        }
      ],
      "name": "addProposal",
      "outputs": [],
      "stateMutability": "nonpayable",
      "type": "function"
    },
    {
      "inputs": [
        {
          "internalType": "address",
          "name": "_addr",
          "type": "address"
        }
      ],
      "name": "addVoter",
      "outputs": [],
      "stateMutability": "nonpayable",
      "type": "function"
    },
    {
      "inputs": [],
      "name": "endProposalsRegistering",
      "outputs": [],
      "stateMutability": "nonpayable",
      "type": "function"
    },
    {
      "inputs": [],
      "name": "endVotingSession",
      "outputs": [],
      "stateMutability": "nonpayable",
      "type": "function"
    },
    {
      "inputs": [
        {
          "internalType": "uint8",
          "name": "_id",
          "type": "uint8"
        }
      ],
      "name": "getOneProposal",
      "outputs": [
        {
          "components": [
            {
              "internalType": "string",
              "name": "description",
              "type": "string"
            },
            {
              "internalType": "uint256",
              "name": "voteCount",
              "type": "uint256"
            }
          ],
          "internalType": "struct Voting.Proposal",
          "name": "",
          "type": "tuple"
        }
      ],
      "stateMutability": "view",
      "type": "function"
    },
    {
      "inputs": [
        {
          "internalType": "address",
          "name": "_addr",
          "type": "address"
        }
      ],
      "name": "getVoter",
      "outputs": [
        {
          "components": [
            {
              "internalType": "bool",
              "name": "isRegistered",
              "type": "bool"
            },
            {
              "internalType": "bool",
              "name": "hasVoted",
              "type": "bool"
            },
            {
              "internalType": "uint256",
              "name": "votedProposalId",
              "type": "uint256"
            }
          ],
          "internalType": "struct Voting.Voter",
          "name": "",
          "type": "tuple"
        }
      ],
      "stateMutability": "view",
      "type": "function"
    },
    {
      "inputs": [],
      "name": "owner",
      "outputs": [
        {
          "internalType": "address",
          "name": "",
          "type": "address"
        }
      ],
      "stateMutability": "view",
      "type": "function"
    },
    {
      "inputs": [],
      "name": "renounceOwnership",
      "outputs": [],
      "stateMutability": "nonpayable",
      "type": "function"
    },
    {
      "inputs": [
        {
          "internalType": "uint8",
          "name": "_id",
          "type": "uint8"
        }
      ],
      "name": "setVote",
      "outputs": [],
      "stateMutability": "nonpayable",
      "type": "function"
    },
    {
      "inputs": [],
      "name": "startProposalsRegistering",
      "outputs": [],
      "stateMutability": "nonpayable",
      "type": "function"
    },
    {
      "inputs": [],
      "name": "startVotingSession",
      "outputs": [],
      "stateMutability": "nonpayable",
      "type": "function"
    },
    {
      "inputs": [],
      "name": "tallyVotes",
      "outputs": [],
      "stateMutability": "nonpayable",
      "type": "function"
    },
    {
      "inputs": [
        {
          "internalType": "address",
          "name": "newOwner",
          "type": "address"
        }
      ],
      "name": "transferOwnership",
      "outputs": [],
      "stateMutability": "nonpayable",
      "type": "function"
    },
    {
      "inputs": [],
      "name": "winningProposalID",
      "outputs": [
        {
          "internalType": "uint256",
          "name": "",
          "type": "uint256"
        }
      ],
      "stateMutability": "view",
      "type": "function"
    },
    {
      "inputs": [],
      "name": "workflowStatus",
      "outputs": [
        {
          "internalType": "enum Voting.WorkflowStatus",
          "name": "",
          "type": "uint8"
        }
      ],
      "stateMutability": "view",
      "type": "function"
    }
  ],
  "bytecode": "0x60806040523480156200001157600080fd5b5062000032620000266200003860201b60201c565b6200004060201b60201c565b62000104565b600033905090565b60008060009054906101000a900473ffffffffffffffffffffffffffffffffffffffff169050816000806101000a81548173ffffffffffffffffffffffffffffffffffffffff021916908373ffffffffffffffffffffffffffffffffffffffff1602179055508173ffffffffffffffffffffffffffffffffffffffff168173ffffffffffffffffffffffffffffffffffffffff167f8be0079c531659141344cd1fd0a4f28419497f9722a3daafe3b4186f6b6457e060405160405180910390a35050565b612e0580620001146000396000f3fe608060405234801561001057600080fd5b50600436106100f55760003560e01c8063bdc0143111610097578063ee74c67811610066578063ee74c67814610202578063f2fde38b1461020c578063f4ab9adf14610228578063f6c28b3b14610244576100f5565b8063bdc01431146101a0578063c7038a4e146101be578063c88af42f146101c8578063d4f50f98146101d2576100f5565b80638da5cb5b116100d35780638da5cb5b1461012a57806391e9b21f14610148578063a1edffa214610178578063a7bfab1614610196576100f5565b80632fdae3c5146100fa578063378a217814610116578063715018a614610120575b600080fd5b610114600480360381019061010f9190612144565b610260565b005b61011e61071f565b005b610128610a06565b005b610132610a1a565b60405161013f91906121d2565b60405180910390f35b610162600480360381019061015d9190612226565b610a43565b60405161016f9190612342565b60405180910390f35b610180610c80565b60405161018d91906123db565b60405180910390f35b61019e610c93565b005b6101a8610e41565b6040516101b59190612405565b60405180910390f35b6101c6610e47565b005b6101d06110fd565b005b6101ec60048036038101906101e7919061244c565b6112aa565b6040516101f991906124d6565b60405180910390f35b61020a6114b0565b005b6102266004803603810190610221919061244c565b61165e565b005b610242600480360381019061023d919061244c565b6116e1565b005b61025e60048036038101906102599190612226565b6119a4565b005b61027467070dcbd2fbb82bfe60c01b611ea6565b61028867efdf8dbdc98dea1860c01b611ea6565b61029c671006353f712b123e60c01b611ea6565b6102b0675ab92180c766e8dc60c01b611ea6565b6102c467ee819141a51fb1a660c01b611ea6565b61020260003373ffffffffffffffffffffffffffffffffffffffff1673ffffffffffffffffffffffffffffffffffffffff16815260200190815260200160002060000160009054906101000a900460ff16610354576040517f08c379a000000000000000000000000000000000000000000000000000000000815260040161034b9061254e565b60405180910390fd5b6103686739b786c4c922e7a060c01b611ea6565b61037c6737ebaf0455bbfb0160c01b611ea6565b610390674ed41033b781c49160c01b611ea6565b6103a4671f2fc7d2b74359ea60c01b611ea6565b6103b867ae4bd523220ad11860c01b611ea6565b6103cc67134c05c8d8863c5460c01b611ea6565b6103e0677be184bc72076b0a60c01b611ea6565b600160058111156103f4576103f3612364565b5b600260009054906101000a900460ff16600581111561041657610415612364565b5b14610456576040517f08c379a000000000000000000000000000000000000000000000000000000000815260040161044d906125ba565b60405180910390fd5b61046a6747fceb11fab76aaf60c01b611ea6565b61047e6748794ab98883f6fd60c01b611ea6565b610492671fcfde6862d7763860c01b611ea6565b6104a66702eae2daecd67e8960c01b611ea6565b600082829050116104ec576040517f08c379a00000000000000000000000000000000000000000000000000000000081526004016104e390612626565b60405180910390fd5b6105006768323d9d2bad209a60c01b611ea6565b61051467d0bb9752c250d32e60c01b611ea6565b6105286738438b1d814803b860c01b611ea6565b61053c6704a97cf573670ab160c01b611ea6565b60ff6102015410610582576040517f08c379a000000000000000000000000000000000000000000000000000000000815260040161057990612692565b60405180910390fd5b6105966739e1e223e2fb753760c01b611ea6565b6105aa67258f65ceaa168a8560c01b611ea6565b6105be67db72884b8eaa526a60c01b611ea6565b6105c6611ff3565b6105da6772c3c839a5c5f6d560c01b611ea6565b82828080601f016020809104026020016040519081016040528093929190818152602001838380828437600081840152601f19601f82011690508083019250505050505050816000018190525061063b675b25ea67909adc4e60c01b611ea6565b8060036102015460ff8110610653576106526126b2565b5b60020201600082015181600001908051906020019061067392919061200d565b5060208201518160010155905050610695677f27880bf34e36e160c01b611ea6565b610201600081546106a590612710565b919050819055506106c067796319230cae5c1760c01b611ea6565b6106d467666c3254a0b54ee560c01b611ea6565b7f92e393e9b54e2f801d3ea4beb0c5e71a21cc34a5d34b77d0fb8a3aa1650dc18f6001610201546107059190612758565b6040516107129190612405565b60405180910390a1505050565b61073367f355a3c5c218f2db60c01b611ea6565b61073b611ea9565b61074f67d95728e696e4203060c01b611ea6565b61076367b492dc9bb28119e060c01b611ea6565b61077767213abdf3e1836cd960c01b611ea6565b61078b677efe05ef47a200ba60c01b611ea6565b61079f67abc723f7837a728d60c01b611ea6565b600460058111156107b3576107b2612364565b5b600260009054906101000a900460ff1660058111156107d5576107d4612364565b5b14610815576040517f08c379a000000000000000000000000000000000000000000000000000000000815260040161080c906127d8565b60405180910390fd5b61082967cb355bc56235136260c01b611ea6565b61083d67e9d720a9004b422560c01b611ea6565b610851677fb1454c11db2e5660c01b611ea6565b6000610867671dbba4539dc4f2ac60c01b611ea6565b61087b6764e255c146cf4f2d60c01b611ea6565b60005b610201548110156109455761089d67a20b3fe06c56469960c01b611ea6565b6108b16745836e469ffd9a9460c01b611ea6565b60038260ff81106108c5576108c46126b2565b5b600202016001015460038260ff81106108e1576108e06126b2565b5b6002020160010154111561091f57610903678fa5a322883c1a2160c01b611ea6565b610917676922d41ae290a9f060c01b611ea6565b809150610934565b61093367278fc41a4f32418d60c01b611ea6565b5b8061093e90612710565b905061087e565b5061095a67c80eb7c307bfe59260c01b611ea6565b8060018190555061097567c4b6f7dde1353efb60c01b611ea6565b6005600260006101000a81548160ff0219169083600581111561099b5761099a612364565b5b02179055506109b467ca7baf9bbb4d26b060c01b611ea6565b6109c867fe9e66377402f73860c01b611ea6565b7f0a97a4ee45751e2abf3e4fc8946939630b11b371ea8ae39ccdc3056e98f5cc3f600460056040516109fb9291906127f8565b60405180910390a150565b610a0e611ea9565b610a186000611f27565b565b60008060009054906101000a900473ffffffffffffffffffffffffffffffffffffffff16905090565b610a4b611ff3565b610a5f67259bb72b1b46084e60c01b611ea6565b610a7367efdf8dbdc98dea1860c01b611ea6565b610a87671006353f712b123e60c01b611ea6565b610a9b675ab92180c766e8dc60c01b611ea6565b610aaf67ee819141a51fb1a660c01b611ea6565b61020260003373ffffffffffffffffffffffffffffffffffffffff1673ffffffffffffffffffffffffffffffffffffffff16815260200190815260200160002060000160009054906101000a900460ff16610b3f576040517f08c379a0000000000000000000000000000000000000000000000000000000008152600401610b369061254e565b60405180910390fd5b610b536739b786c4c922e7a060c01b611ea6565b610b676737ebaf0455bbfb0160c01b611ea6565b610b7b67dd026a75096d74a460c01b611ea6565b610b8f67ed4d3e5be5a7e72b60c01b611ea6565b610ba36704b4619238904b8560c01b611ea6565b610bb7677dd280d56e8e896e60c01b611ea6565b60038260ff1660ff8110610bce57610bcd6126b2565b5b60020201604051806040016040529081600082018054610bed90612850565b80601f0160208091040260200160405190810160405280929190818152602001828054610c1990612850565b8015610c665780601f10610c3b57610100808354040283529160200191610c66565b820191906000526020600020905b815481529060010190602001808311610c4957829003601f168201915b505050505081526020016001820154815250509050919050565b600260009054906101000a900460ff1681565b610ca7671a5bfdc93ca2487360c01b611ea6565b610caf611ea9565b610cc367ec81e1ad9b51af1a60c01b611ea6565b610cd76738fde74d5a0c173a60c01b611ea6565b610ceb6708e32842ba72c5b360c01b611ea6565b610cff675cb492d99bd1a02b60c01b611ea6565b610d1367fac35a4abc5ec4ef60c01b611ea6565b60036005811115610d2757610d26612364565b5b600260009054906101000a900460ff166005811115610d4957610d48612364565b5b14610d89576040517f08c379a0000000000000000000000000000000000000000000000000000000008152600401610d80906128cd565b60405180910390fd5b610d9d679ba0d3222da8713760c01b611ea6565b610db167ebf32b8d0bde679160c01b611ea6565b6004600260006101000a81548160ff02191690836005811115610dd757610dd6612364565b5b0217905550610df067115da1a61bca9f8660c01b611ea6565b610e04671036121a15e35a5660c01b611ea6565b7f0a97a4ee45751e2abf3e4fc8946939630b11b371ea8ae39ccdc3056e98f5cc3f60036004604051610e379291906127f8565b60405180910390a1565b60015481565b610e5b67a343a1f67fd51e1060c01b611ea6565b610e63611ea9565b610e7767353a4e20add0865960c01b611ea6565b610e8b67913b02f93f744ac060c01b611ea6565b610e9f671bd4004f389ebacc60c01b611ea6565b610eb367ba42c8cbc37cc12360c01b611ea6565b610ec767f85b47122e2cd44d60c01b611ea6565b60006005811115610edb57610eda612364565b5b600260009054906101000a900460ff166005811115610efd57610efc612364565b5b14610f3d576040517f08c379a0000000000000000000000000000000000000000000000000000000008152600401610f349061295f565b60405180910390fd5b610f5167e7783be2fcc96dee60c01b611ea6565b610f6567b11671b540bd9c1c60c01b611ea6565b6001600260006101000a81548160ff02191690836005811115610f8b57610f8a612364565b5b0217905550610fa4677fd351be814e4ebd60c01b611ea6565b610fb867ad6bfc4f392cd1db60c01b611ea6565b610fc0611ff3565b610fd467096a3ff0794e11c260c01b611ea6565b6040518060400160405280600781526020017f47454e45534953000000000000000000000000000000000000000000000000008152508160000181905250611026676b6245f42b35e56060c01b611ea6565b8060036102015460ff811061103e5761103d6126b2565b5b60020201600082015181600001908051906020019061105e92919061200d565b50602082015181600101559050506110806752f18c1cf6652fb160c01b611ea6565b6102016000815461109090612710565b919050819055506110ab67e66c65bae6899abf60c01b611ea6565b6110bf6709b78938be81aa7a60c01b611ea6565b7f0a97a4ee45751e2abf3e4fc8946939630b11b371ea8ae39ccdc3056e98f5cc3f600060016040516110f29291906127f8565b60405180910390a150565b61111167243f019a454ec0dc60c01b611ea6565b611119611ea9565b61112d67189043006ee8ade860c01b611ea6565b611141672ba58de890baf83560c01b611ea6565b61115567950acfe5aa1d4bc760c01b611ea6565b611169670cafc0871669a79760c01b611ea6565b61117d67f25ea8cab4df898260c01b611ea6565b6001600581111561119157611190612364565b5b600260009054906101000a900460ff1660058111156111b3576111b2612364565b5b146111f3576040517f08c379a00000000000000000000000000000000000000000000000000000000081526004016111ea906129f1565b60405180910390fd5b611207677d0d2b10cff9980660c01b611ea6565b61121b678c028ef4d80a639460c01b611ea6565b60028060006101000a81548160ff021916908360058111156112405761123f612364565b5b0217905550611259678a3c18a73abdd3e160c01b611ea6565b61126d67233562b2cfdf02c360c01b611ea6565b7f0a97a4ee45751e2abf3e4fc8946939630b11b371ea8ae39ccdc3056e98f5cc3f600160026040516112a09291906127f8565b60405180910390a1565b6112b2612093565b6112c667375b728621e92fc460c01b611ea6565b6112da67efdf8dbdc98dea1860c01b611ea6565b6112ee671006353f712b123e60c01b611ea6565b611302675ab92180c766e8dc60c01b611ea6565b61131667ee819141a51fb1a660c01b611ea6565b61020260003373ffffffffffffffffffffffffffffffffffffffff1673ffffffffffffffffffffffffffffffffffffffff16815260200190815260200160002060000160009054906101000a900460ff166113a6576040517f08c379a000000000000000000000000000000000000000000000000000000000815260040161139d9061254e565b60405180910390fd5b6113ba6739b786c4c922e7a060c01b611ea6565b6113ce6737ebaf0455bbfb0160c01b611ea6565b6113e2672ab2929faff38c6260c01b611ea6565b6113f667b2ae30984496b48d60c01b611ea6565b61140a67fcc54a79806961eb60c01b611ea6565b61141e67c467052260bd74e560c01b611ea6565b61020260008373ffffffffffffffffffffffffffffffffffffffff1673ffffffffffffffffffffffffffffffffffffffff1681526020019081526020016000206040518060600160405290816000820160009054906101000a900460ff161515151581526020016000820160019054906101000a900460ff161515151581526020016001820154815250509050919050565b6114c4675cc990139e8c054760c01b611ea6565b6114cc611ea9565b6114e067efcf2436eeb4f92360c01b611ea6565b6114f467bf5a8e4cf7b4808460c01b611ea6565b611508675c4d79aa6a25551860c01b611ea6565b61151c67accdf00a1057c30b60c01b611ea6565b611530679b0eba54e90e510b60c01b611ea6565b6002600581111561154457611543612364565b5b600260009054906101000a900460ff16600581111561156657611565612364565b5b146115a6576040517f08c379a000000000000000000000000000000000000000000000000000000000815260040161159d90612a5d565b60405180910390fd5b6115ba67d3bba18573a7c38260c01b611ea6565b6115ce67ac2123c80913895960c01b611ea6565b6003600260006101000a81548160ff021916908360058111156115f4576115f3612364565b5b021790555061160d67a566dd7283361ed260c01b611ea6565b61162167d7edf430890dfb5b60c01b611ea6565b7f0a97a4ee45751e2abf3e4fc8946939630b11b371ea8ae39ccdc3056e98f5cc3f600260036040516116549291906127f8565b60405180910390a1565b611666611ea9565b600073ffffffffffffffffffffffffffffffffffffffff168173ffffffffffffffffffffffffffffffffffffffff16036116d5576040517f08c379a00000000000000000000000000000000000000000000000000000000081526004016116cc90612aef565b60405180910390fd5b6116de81611f27565b50565b6116f567562838e5573b49b760c01b611ea6565b6116fd611ea9565b61171167936faa8225372b6e60c01b611ea6565b611725675bcb758e7a1889e460c01b611ea6565b6117396715af94629f86e11b60c01b611ea6565b61174d679a98a7fc890a928b60c01b611ea6565b611761675d54211c170cd8a260c01b611ea6565b6000600581111561177557611774612364565b5b600260009054906101000a900460ff16600581111561179757611796612364565b5b146117d7576040517f08c379a00000000000000000000000000000000000000000000000000000000081526004016117ce90612b5b565b60405180910390fd5b6117eb6716c9e23ca485d0b060c01b611ea6565b6117ff671b540bb234c0051f60c01b611ea6565b61181367fd309191f441436c60c01b611ea6565b6118276715cce0167da6d5d060c01b611ea6565b6001151561020260008373ffffffffffffffffffffffffffffffffffffffff1673ffffffffffffffffffffffffffffffffffffffff16815260200190815260200160002060000160009054906101000a900460ff161515036118be576040517f08c379a00000000000000000000000000000000000000000000000000000000081526004016118b590612bc7565b60405180910390fd5b6118d2670fca1706cb782cfd60c01b611ea6565b6118e66777a3a16b338b260060c01b611ea6565b600161020260008373ffffffffffffffffffffffffffffffffffffffff1673ffffffffffffffffffffffffffffffffffffffff16815260200190815260200160002060000160006101000a81548160ff02191690831515021790555061195667cc6a5d9e9d06ab6a60c01b611ea6565b61196a67b30e466390caa26960c01b611ea6565b7fb6be2187d059cc2a55fe29e0e503b566e1e0f8c8780096e185429350acffd3dd8160405161199991906121d2565b60405180910390a150565b6119b86748eb83aa82ac47ad60c01b611ea6565b6119cc67efdf8dbdc98dea1860c01b611ea6565b6119e0671006353f712b123e60c01b611ea6565b6119f4675ab92180c766e8dc60c01b611ea6565b611a0867ee819141a51fb1a660c01b611ea6565b61020260003373ffffffffffffffffffffffffffffffffffffffff1673ffffffffffffffffffffffffffffffffffffffff16815260200190815260200160002060000160009054906101000a900460ff16611a98576040517f08c379a0000000000000000000000000000000000000000000000000000000008152600401611a8f9061254e565b60405180910390fd5b611aac6739b786c4c922e7a060c01b611ea6565b611ac06737ebaf0455bbfb0160c01b611ea6565b611ad467a637edbc40af260260c01b611ea6565b611ae86738abdce9757992f260c01b611ea6565b611afc678bd1b911187e6d4c60c01b611ea6565b611b1067bce0c29cf39c56f460c01b611ea6565b611b2467dcba4e0e2afea58460c01b611ea6565b60036005811115611b3857611b37612364565b5b600260009054906101000a900460ff166005811115611b5a57611b59612364565b5b14611b9a576040517f08c379a0000000000000000000000000000000000000000000000000000000008152600401611b9190612c33565b60405180910390fd5b611bae6737b237239e3f8c2960c01b611ea6565b611bc2674440e466f83bc28560c01b611ea6565b611bd6673f9079e8c96b15f160c01b611ea6565b611bea672557c7795a99e33060c01b611ea6565b6001151561020260003373ffffffffffffffffffffffffffffffffffffffff1673ffffffffffffffffffffffffffffffffffffffff16815260200190815260200160002060000160019054906101000a900460ff16151503611c81576040517f08c379a0000000000000000000000000000000000000000000000000000000008152600401611c7890612c9f565b60405180910390fd5b611c956735721a649ff037cf60c01b611ea6565b611ca967d10f7629a3b86a5060c01b611ea6565b611cbd67e568353e4a21eb7760c01b611ea6565b611cd1673744723a19e0cd9960c01b611ea6565b610201548160ff1610611d19576040517f08c379a0000000000000000000000000000000000000000000000000000000008152600401611d1090612d0b565b60405180910390fd5b611d2d67b3711e3f97e27eae60c01b611ea6565b611d41670fb1b40d2433627c60c01b611ea6565b8060ff1661020260003373ffffffffffffffffffffffffffffffffffffffff1673ffffffffffffffffffffffffffffffffffffffff16815260200190815260200160002060010181905550611da067d92efa1e9d1699c260c01b611ea6565b600161020260003373ffffffffffffffffffffffffffffffffffffffff1673ffffffffffffffffffffffffffffffffffffffff16815260200190815260200160002060000160016101000a81548160ff021916908315150217905550611e106714153860a76dc6a660c01b611ea6565b60038160ff1660ff8110611e2757611e266126b2565b5b6002020160010160008154611e3b90612710565b91905081905550611e5667cd23ef7058f2cbf160c01b611ea6565b611e6a679a020e7c071a96b360c01b611ea6565b7f14075e33dffdc00c1fcaf75d0f86d667170be57fb566b12b41b499e5fa53b1253382604051611e9b929190612d3a565b60405180910390a150565b50565b611eb1611feb565b73ffffffffffffffffffffffffffffffffffffffff16611ecf610a1a565b73ffffffffffffffffffffffffffffffffffffffff1614611f25576040517f08c379a0000000000000000000000000000000000000000000000000000000008152600401611f1c90612daf565b60405180910390fd5b565b60008060009054906101000a900473ffffffffffffffffffffffffffffffffffffffff169050816000806101000a81548173ffffffffffffffffffffffffffffffffffffffff021916908373ffffffffffffffffffffffffffffffffffffffff1602179055508173ffffffffffffffffffffffffffffffffffffffff168173ffffffffffffffffffffffffffffffffffffffff167f8be0079c531659141344cd1fd0a4f28419497f9722a3daafe3b4186f6b6457e060405160405180910390a35050565b600033905090565b604051806040016040528060608152602001600081525090565b82805461201990612850565b90600052602060002090601f01602090048101928261203b5760008555612082565b82601f1061205457805160ff1916838001178555612082565b82800160010185558215612082579182015b82811115612081578251825591602001919060010190612066565b5b50905061208f91906120b8565b5090565b6040518060600160405280600015158152602001600015158152602001600081525090565b5b808211156120d15760008160009055506001016120b9565b5090565b600080fd5b600080fd5b600080fd5b600080fd5b600080fd5b60008083601f840112612104576121036120df565b5b8235905067ffffffffffffffff811115612121576121206120e4565b5b60208301915083600182028301111561213d5761213c6120e9565b5b9250929050565b6000806020838503121561215b5761215a6120d5565b5b600083013567ffffffffffffffff811115612179576121786120da565b5b612185858286016120ee565b92509250509250929050565b600073ffffffffffffffffffffffffffffffffffffffff82169050919050565b60006121bc82612191565b9050919050565b6121cc816121b1565b82525050565b60006020820190506121e760008301846121c3565b92915050565b600060ff82169050919050565b612203816121ed565b811461220e57600080fd5b50565b600081359050612220816121fa565b92915050565b60006020828403121561223c5761223b6120d5565b5b600061224a84828501612211565b91505092915050565b600081519050919050565b600082825260208201905092915050565b60005b8381101561228d578082015181840152602081019050612272565b8381111561229c576000848401525b50505050565b6000601f19601f8301169050919050565b60006122be82612253565b6122c8818561225e565b93506122d881856020860161226f565b6122e1816122a2565b840191505092915050565b6000819050919050565b6122ff816122ec565b82525050565b6000604083016000830151848203600086015261232282826122b3565b915050602083015161233760208601826122f6565b508091505092915050565b6000602082019050818103600083015261235c8184612305565b905092915050565b7f4e487b7100000000000000000000000000000000000000000000000000000000600052602160045260246000fd5b600681106123a4576123a3612364565b5b50565b60008190506123b582612393565b919050565b60006123c5826123a7565b9050919050565b6123d5816123ba565b82525050565b60006020820190506123f060008301846123cc565b92915050565b6123ff816122ec565b82525050565b600060208201905061241a60008301846123f6565b92915050565b612429816121b1565b811461243457600080fd5b50565b60008135905061244681612420565b92915050565b600060208284031215612462576124616120d5565b5b600061247084828501612437565b91505092915050565b60008115159050919050565b61248e81612479565b82525050565b6060820160008201516124aa6000850182612485565b5060208201516124bd6020850182612485565b5060408201516124d060408501826122f6565b50505050565b60006060820190506124eb6000830184612494565b92915050565b600082825260208201905092915050565b7f4e6f74206120766f746572000000000000000000000000000000000000000000600082015250565b6000612538600b836124f1565b915061254382612502565b602082019050919050565b600060208201905081810360008301526125678161252b565b9050919050565b7f50726f706f73616c732073657373696f6e206e6f74206f70656e000000000000600082015250565b60006125a4601a836124f1565b91506125af8261256e565b602082019050919050565b600060208201905081810360008301526125d381612597565b9050919050565b7f4d697373696e67206465736372697074696f6e00000000000000000000000000600082015250565b60006126106013836124f1565b915061261b826125da565b602082019050919050565b6000602082019050818103600083015261263f81612603565b9050919050565b7f4d61782070726f706f73616c7320726561636865640000000000000000000000600082015250565b600061267c6015836124f1565b915061268782612646565b602082019050919050565b600060208201905081810360008301526126ab8161266f565b9050919050565b7f4e487b7100000000000000000000000000000000000000000000000000000000600052603260045260246000fd5b7f4e487b7100000000000000000000000000000000000000000000000000000000600052601160045260246000fd5b600061271b826122ec565b91507fffffffffffffffffffffffffffffffffffffffffffffffffffffffffffffffff820361274d5761274c6126e1565b5b600182019050919050565b6000612763826122ec565b915061276e836122ec565b925082821015612781576127806126e1565b5b828203905092915050565b7f54616c6c7920766f7465732063616e74206265206e6f77000000000000000000600082015250565b60006127c26017836124f1565b91506127cd8261278c565b602082019050919050565b600060208201905081810360008301526127f1816127b5565b9050919050565b600060408201905061280d60008301856123cc565b61281a60208301846123cc565b9392505050565b7f4e487b7100000000000000000000000000000000000000000000000000000000600052602260045260246000fd5b6000600282049050600182168061286857607f821691505b60208210810361287b5761287a612821565b5b50919050565b7f456e6420766f74696e672063616e74206265206e6f7700000000000000000000600082015250565b60006128b76016836124f1565b91506128c282612881565b602082019050919050565b600060208201905081810360008301526128e6816128aa565b9050919050565b7f5265676973746572696e672070726f706f73616c732063616e74206265206e6f60008201527f7700000000000000000000000000000000000000000000000000000000000000602082015250565b60006129496021836124f1565b9150612954826128ed565b604082019050919050565b600060208201905081810360008301526129788161293c565b9050919050565b7f456e64207265676973746572696e672070726f706f73616c732063616e74206260008201527f65206e6f77000000000000000000000000000000000000000000000000000000602082015250565b60006129db6025836124f1565b91506129e68261297f565b604082019050919050565b60006020820190508181036000830152612a0a816129ce565b9050919050565b7f566f74696e672063616e74206265206e6f770000000000000000000000000000600082015250565b6000612a476012836124f1565b9150612a5282612a11565b602082019050919050565b60006020820190508181036000830152612a7681612a3a565b9050919050565b7f4f776e61626c653a206e6577206f776e657220697320746865207a65726f206160008201527f6464726573730000000000000000000000000000000000000000000000000000602082015250565b6000612ad96026836124f1565b9150612ae482612a7d565b604082019050919050565b60006020820190508181036000830152612b0881612acc565b9050919050565b7f566f7465727320726567697374726174696f6e206e6f74206f70656e00000000600082015250565b6000612b45601c836124f1565b9150612b5082612b0f565b602082019050919050565b60006020820190508181036000830152612b7481612b38565b9050919050565b7f416c726561647920726567697374657265640000000000000000000000000000600082015250565b6000612bb16012836124f1565b9150612bbc82612b7b565b602082019050919050565b60006020820190508181036000830152612be081612ba4565b9050919050565b7f566f74696e67206e6f74206f70656e0000000000000000000000000000000000600082015250565b6000612c1d600f836124f1565b9150612c2882612be7565b602082019050919050565b60006020820190508181036000830152612c4c81612c10565b9050919050565b7f416c726561647920766f74656400000000000000000000000000000000000000600082015250565b6000612c89600d836124f1565b9150612c9482612c53565b602082019050919050565b60006020820190508181036000830152612cb881612c7c565b9050919050565b7f4d697373696e672070726f706f73616c00000000000000000000000000000000600082015250565b6000612cf56010836124f1565b9150612d0082612cbf565b602082019050919050565b60006020820190508181036000830152612d2481612ce8565b9050919050565b612d34816121ed565b82525050565b6000604082019050612d4f60008301856121c3565b612d5c6020830184612d2b565b9392505050565b7f4f776e61626c653a2063616c6c6572206973206e6f7420746865206f776e6572600082015250565b6000612d996020836124f1565b9150612da482612d63565b602082019050919050565b60006020820190508181036000830152612dc881612d8c565b905091905056fea2646970667358221220515a02846c0fa2bc0b204611fd992744497e16d3f83dad752341dd57531a894a64736f6c634300080d0033",
  "linkReferences": {},
  "deployedLinkReferences": {}
}