{
  "_format": "hh-sol-artifact-1",
  "contractName": "Collection",
  "sourceName": "contracts/Collection.sol",
  "abi": [
    {
      "inputs": [
        {
          "internalType": "string",
          "name": "name_",
          "type": "string"
        },
        {
          "internalType": "string",
          "name": "symbol_",
          "type": "string"
        },
        {
          "internalType": "address[]",
          "name": "_team",
          "type": "address[]"
        }
      ],
      "stateMutability": "payable",
      "type": "constructor"
    },
    {
      "anonymous": false,
      "inputs": [
        {
          "indexed": true,
          "internalType": "address",
          "name": "owner",
          "type": "address"
        },
        {
          "indexed": true,
          "internalType": "address",
          "name": "approved",
          "type": "address"
        },
        {
          "indexed": true,
          "internalType": "uint256",
          "name": "tokenId",
          "type": "uint256"
        }
      ],
      "name": "Approval",
      "type": "event"
    },
    {
      "anonymous": false,
      "inputs": [
        {
          "indexed": true,
          "internalType": "address",
          "name": "owner",
          "type": "address"
        },
        {
          "indexed": true,
          "internalType": "address",
          "name": "operator",
          "type": "address"
        },
        {
          "indexed": false,
          "internalType": "bool",
          "name": "approved",
          "type": "bool"
        }
      ],
      "name": "ApprovalForAll",
      "type": "event"
    },
    {
      "anonymous": false,
      "inputs": [
        {
          "indexed": true,
          "internalType": "contract IERC20",
          "name": "token",
          "type": "address"
        },
        {
          "indexed": false,
          "internalType": "address",
          "name": "to",
          "type": "address"
        },
        {
          "indexed": false,
          "internalType": "uint256",
          "name": "amount",
          "type": "uint256"
        }
      ],
      "name": "ERC20PaymentReleased",
      "type": "event"
    },
    {
      "anonymous": false,
      "inputs": [
        {
          "indexed": true,
          "internalType": "address",
          "name": "minter",
          "type": "address"
        },
        {
          "indexed": false,
          "internalType": "uint256",
          "name": "tokenId",
          "type": "uint256"
        }
      ],
      "name": "Mint",
      "type": "event"
    },
    {
      "anonymous": false,
      "inputs": [
        {
          "indexed": true,
          "internalType": "address",
          "name": "previousOwner",
          "type": "address"
        },
        {
          "indexed": true,
          "internalType": "address",
          "name": "newOwner",
          "type": "address"
        }
      ],
      "name": "OwnershipTransferred",
      "type": "event"
    },
    {
      "anonymous": false,
      "inputs": [
        {
          "indexed": false,
          "internalType": "address",
          "name": "account",
          "type": "address"
        },
        {
          "indexed": false,
          "internalType": "uint256",
          "name": "shares",
          "type": "uint256"
        }
      ],
      "name": "PayeeAdded",
      "type": "event"
    },
    {
      "anonymous": false,
      "inputs": [
        {
          "indexed": false,
          "internalType": "address",
          "name": "from",
          "type": "address"
        },
        {
          "indexed": false,
          "internalType": "uint256",
          "name": "amount",
          "type": "uint256"
        }
      ],
      "name": "PaymentReceived",
      "type": "event"
    },
    {
      "anonymous": false,
      "inputs": [
        {
          "indexed": false,
          "internalType": "address",
          "name": "to",
          "type": "address"
        },
        {
          "indexed": false,
          "internalType": "uint256",
          "name": "amount",
          "type": "uint256"
        }
      ],
      "name": "PaymentReleased",
      "type": "event"
    },
    {
      "anonymous": false,
      "inputs": [
        {
          "indexed": true,
          "internalType": "address",
          "name": "from",
          "type": "address"
        },
        {
          "indexed": true,
          "internalType": "address",
          "name": "to",
          "type": "address"
        },
        {
          "indexed": true,
          "internalType": "uint256",
          "name": "tokenId",
          "type": "uint256"
        }
      ],
      "name": "Transfer",
      "type": "event"
    },
    {
      "inputs": [
        {
          "internalType": "address",
          "name": "to",
          "type": "address"
        },
        {
          "internalType": "uint256",
          "name": "tokenId",
          "type": "uint256"
        }
      ],
      "name": "approve",
      "outputs": [],
      "stateMutability": "nonpayable",
      "type": "function"
    },
    {
      "inputs": [
        {
          "internalType": "address",
          "name": "owner",
          "type": "address"
        }
      ],
      "name": "balanceOf",
      "outputs": [
        {
          "internalType": "uint256",
          "name": "",
          "type": "uint256"
        }
      ],
      "stateMutability": "view",
      "type": "function"
    },
    {
      "inputs": [
        {
          "internalType": "uint256",
          "name": "tokenId",
          "type": "uint256"
        }
      ],
      "name": "getApproved",
      "outputs": [
        {
          "internalType": "address",
          "name": "",
          "type": "address"
        }
      ],
      "stateMutability": "view",
      "type": "function"
    },
    {
      "inputs": [
        {
          "internalType": "uint256",
          "name": "_maxSupply",
          "type": "uint256"
        },
        {
          "internalType": "uint256",
          "name": "_price",
          "type": "uint256"
        },
        {
          "internalType": "string",
          "name": "_baseURI",
          "type": "string"
        }
      ],
      "name": "init",
      "outputs": [],
      "stateMutability": "nonpayable",
      "type": "function"
    },
    {
      "inputs": [
        {
          "internalType": "address",
          "name": "owner",
          "type": "address"
        },
        {
          "internalType": "address",
          "name": "operator",
          "type": "address"
        }
      ],
      "name": "isApprovedForAll",
      "outputs": [
        {
          "internalType": "bool",
          "name": "",
          "type": "bool"
        }
      ],
      "stateMutability": "view",
      "type": "function"
    },
    {
      "inputs": [
        {
          "internalType": "uint256",
          "name": "_quantity",
          "type": "uint256"
        }
      ],
      "name": "mint",
      "outputs": [],
      "stateMutability": "payable",
      "type": "function"
    },
    {
      "inputs": [],
      "name": "name",
      "outputs": [
        {
          "internalType": "string",
          "name": "",
          "type": "string"
        }
      ],
      "stateMutability": "view",
      "type": "function"
    },
    {
      "inputs": [],
      "name": "owner",
      "outputs": [
        {
          "internalType": "address",
          "name": "",
          "type": "address"
        }
      ],
      "stateMutability": "view",
      "type": "function"
    },
    {
      "inputs": [
        {
          "internalType": "uint256",
          "name": "tokenId",
          "type": "uint256"
        }
      ],
      "name": "ownerOf",
      "outputs": [
        {
          "internalType": "address",
          "name": "",
          "type": "address"
        }
      ],
      "stateMutability": "view",
      "type": "function"
    },
    {
      "inputs": [
        {
          "internalType": "uint256",
          "name": "index",
          "type": "uint256"
        }
      ],
      "name": "payee",
      "outputs": [
        {
          "internalType": "address",
          "name": "",
          "type": "address"
        }
      ],
      "stateMutability": "view",
      "type": "function"
    },
    {
      "inputs": [
        {
          "internalType": "address",
          "name": "account",
          "type": "address"
        }
      ],
      "name": "releasable",
      "outputs": [
        {
          "internalType": "uint256",
          "name": "",
          "type": "uint256"
        }
      ],
      "stateMutability": "view",
      "type": "function"
    },
    {
      "inputs": [
        {
          "internalType": "contract IERC20",
          "name": "token",
          "type": "address"
        },
        {
          "internalType": "address",
          "name": "account",
          "type": "address"
        }
      ],
      "name": "releasable",
      "outputs": [
        {
          "internalType": "uint256",
          "name": "",
          "type": "uint256"
        }
      ],
      "stateMutability": "view",
      "type": "function"
    },
    {
      "inputs": [
        {
          "internalType": "address payable",
          "name": "account",
          "type": "address"
        }
      ],
      "name": "release",
      "outputs": [],
      "stateMutability": "nonpayable",
      "type": "function"
    },
    {
      "inputs": [
        {
          "internalType": "contract IERC20",
          "name": "token",
          "type": "address"
        },
        {
          "internalType": "address",
          "name": "account",
          "type": "address"
        }
      ],
      "name": "release",
      "outputs": [],
      "stateMutability": "nonpayable",
      "type": "function"
    },
    {
      "inputs": [],
      "name": "releaseAll",
      "outputs": [],
      "stateMutability": "nonpayable",
      "type": "function"
    },
    {
      "inputs": [
        {
          "internalType": "contract IERC20",
          "name": "token",
          "type": "address"
        },
        {
          "internalType": "address",
          "name": "account",
          "type": "address"
        }
      ],
      "name": "released",
      "outputs": [
        {
          "internalType": "uint256",
          "name": "",
          "type": "uint256"
        }
      ],
      "stateMutability": "view",
      "type": "function"
    },
    {
      "inputs": [
        {
          "internalType": "address",
          "name": "account",
          "type": "address"
        }
      ],
      "name": "released",
      "outputs": [
        {
          "internalType": "uint256",
          "name": "",
          "type": "uint256"
        }
      ],
      "stateMutability": "view",
      "type": "function"
    },
    {
      "inputs": [],
      "name": "renounceOwnership",
      "outputs": [],
      "stateMutability": "nonpayable",
      "type": "function"
    },
    {
      "inputs": [
        {
          "internalType": "uint256",
          "name": "_tokenId",
          "type": "uint256"
        },
        {
          "internalType": "uint256",
          "name": "_salePrice",
          "type": "uint256"
        }
      ],
      "name": "royaltyInfo",
      "outputs": [
        {
          "internalType": "address",
          "name": "",
          "type": "address"
        },
        {
          "internalType": "uint256",
          "name": "",
          "type": "uint256"
        }
      ],
      "stateMutability": "view",
      "type": "function"
    },
    {
      "inputs": [
        {
          "internalType": "address",
          "name": "from",
          "type": "address"
        },
        {
          "internalType": "address",
          "name": "to",
          "type": "address"
        },
        {
          "internalType": "uint256",
          "name": "tokenId",
          "type": "uint256"
        }
      ],
      "name": "safeTransferFrom",
      "outputs": [],
      "stateMutability": "nonpayable",
      "type": "function"
    },
    {
      "inputs": [
        {
          "internalType": "address",
          "name": "from",
          "type": "address"
        },
        {
          "internalType": "address",
          "name": "to",
          "type": "address"
        },
        {
          "internalType": "uint256",
          "name": "tokenId",
          "type": "uint256"
        },
        {
          "internalType": "bytes",
          "name": "data",
          "type": "bytes"
        }
      ],
      "name": "safeTransferFrom",
      "outputs": [],
      "stateMutability": "nonpayable",
      "type": "function"
    },
    {
      "inputs": [
        {
          "internalType": "address",
          "name": "operator",
          "type": "address"
        },
        {
          "internalType": "bool",
          "name": "approved",
          "type": "bool"
        }
      ],
      "name": "setApprovalForAll",
      "outputs": [],
      "stateMutability": "nonpayable",
      "type": "function"
    },
    {
      "inputs": [
        {
          "internalType": "string",
          "name": "_baseURI",
          "type": "string"
        }
      ],
      "name": "setBaseURI",
      "outputs": [],
      "stateMutability": "nonpayable",
      "type": "function"
    },
    {
      "inputs": [
        {
          "internalType": "address",
          "name": "account",
          "type": "address"
        }
      ],
      "name": "shares",
      "outputs": [
        {
          "internalType": "uint256",
          "name": "",
          "type": "uint256"
        }
      ],
      "stateMutability": "view",
      "type": "function"
    },
    {
      "inputs": [
        {
          "internalType": "bytes4",
          "name": "interfaceId",
          "type": "bytes4"
        }
      ],
      "name": "supportsInterface",
      "outputs": [
        {
          "internalType": "bool",
          "name": "",
          "type": "bool"
        }
      ],
      "stateMutability": "view",
      "type": "function"
    },
    {
      "inputs": [],
      "name": "symbol",
      "outputs": [
        {
          "internalType": "string",
          "name": "",
          "type": "string"
        }
      ],
      "stateMutability": "view",
      "type": "function"
    },
    {
      "inputs": [
        {
          "internalType": "uint256",
          "name": "index",
          "type": "uint256"
        }
      ],
      "name": "tokenByIndex",
      "outputs": [
        {
          "internalType": "uint256",
          "name": "",
          "type": "uint256"
        }
      ],
      "stateMutability": "view",
      "type": "function"
    },
    {
      "inputs": [
        {
          "internalType": "address",
          "name": "owner",
          "type": "address"
        },
        {
          "internalType": "uint256",
          "name": "index",
          "type": "uint256"
        }
      ],
      "name": "tokenOfOwnerByIndex",
      "outputs": [
        {
          "internalType": "uint256",
          "name": "",
          "type": "uint256"
        }
      ],
      "stateMutability": "view",
      "type": "function"
    },
    {
      "inputs": [
        {
          "internalType": "uint256",
          "name": "_tokenId",
          "type": "uint256"
        }
      ],
      "name": "tokenURI",
      "outputs": [
        {
          "internalType": "string",
          "name": "",
          "type": "string"
        }
      ],
      "stateMutability": "view",
      "type": "function"
    },
    {
      "inputs": [
        {
          "internalType": "contract IERC20",
          "name": "token",
          "type": "address"
        }
      ],
      "name": "totalReleased",
      "outputs": [
        {
          "internalType": "uint256",
          "name": "",
          "type": "uint256"
        }
      ],
      "stateMutability": "view",
      "type": "function"
    },
    {
      "inputs": [],
      "name": "totalReleased",
      "outputs": [
        {
          "internalType": "uint256",
          "name": "",
          "type": "uint256"
        }
      ],
      "stateMutability": "view",
      "type": "function"
    },
    {
      "inputs": [],
      "name": "totalShares",
      "outputs": [
        {
          "internalType": "uint256",
          "name": "",
          "type": "uint256"
        }
      ],
      "stateMutability": "view",
      "type": "function"
    },
    {
      "inputs": [],
      "name": "totalSupply",
      "outputs": [
        {
          "internalType": "uint256",
          "name": "",
          "type": "uint256"
        }
      ],
      "stateMutability": "view",
      "type": "function"
    },
    {
      "inputs": [
        {
          "internalType": "address",
          "name": "from",
          "type": "address"
        },
        {
          "internalType": "address",
          "name": "to",
          "type": "address"
        },
        {
          "internalType": "uint256",
          "name": "tokenId",
          "type": "uint256"
        }
      ],
      "name": "transferFrom",
      "outputs": [],
      "stateMutability": "nonpayable",
      "type": "function"
    },
    {
      "inputs": [
        {
          "internalType": "address",
          "name": "newOwner",
          "type": "address"
        }
      ],
      "name": "transferOwnership",
      "outputs": [],
      "stateMutability": "nonpayable",
      "type": "function"
    },
    {
      "stateMutability": "payable",
      "type": "receive"
    }
  ],
  "bytecode": "0x60e0604052606160a0908152600360c052620000209060189060026200047a565b5060405162003d7b38038062003d7b8339810160408190526200004391620005bc565b8060188054806020026020016040519081016040528092919081815260200182805480156200009257602002820191906000526020600020905b8154815260200190600101908083116200007d575b505050505060405180602001604052806000815250604051806020016040528060008152508160009081620000c8919062000762565b506001620000d7828262000762565b50505080518251146200014c5760405162461bcd60e51b815260206004820152603260248201527f5061796d656e7453706c69747465723a2070617965657320616e6420736861726044820152710cae640d8cadccee8d040dad2e6dac2e8c6d60731b60648201526084015b60405180910390fd5b60008251116200019f5760405162461bcd60e51b815260206004820152601a60248201527f5061796d656e7453706c69747465723a206e6f20706179656573000000000000604482015260640162000143565b60005b82518110156200020b57620001f6838281518110620001c557620001c56200082e565b6020026020010151838381518110620001e257620001e26200082e565b60200260200101516200023660201b60201c565b8062000202816200085a565b915050620001a2565b50505062000228620002226200042460201b60201c565b62000428565b505060326080525062000892565b6001600160a01b038216620002a35760405162461bcd60e51b815260206004820152602c60248201527f5061796d656e7453706c69747465723a206163636f756e74206973207468652060448201526b7a65726f206164647265737360a01b606482015260840162000143565b60008111620002f55760405162461bcd60e51b815260206004820152601d60248201527f5061796d656e7453706c69747465723a20736861726573206172652030000000604482015260640162000143565b6001600160a01b0382166000908152600e602052604090205415620003715760405162461bcd60e51b815260206004820152602b60248201527f5061796d656e7453706c69747465723a206163636f756e7420616c726561647960448201526a206861732073686172657360a81b606482015260840162000143565b60108054600181019091557f1b6847dc741a1b0cd08d278845f9d819d87b734759afb55fe2de5cb82a9ae6720180546001600160a01b0319166001600160a01b0384169081179091556000908152600e60205260409020819055600c54620003db90829062000876565b600c55604080516001600160a01b0384168152602081018390527f40c340f65e17194d14ddddb073d3c9f888e3cb52b5aae0c6c7706b4fbc905fac910160405180910390a15050565b3390565b601380546001600160a01b038381166001600160a01b0319831681179093556040519116919082907f8be0079c531659141344cd1fd0a4f28419497f9722a3daafe3b4186f6b6457e090600090a35050565b828054828255906000526020600020908101928215620004bd579160200282015b82811115620004bd578251829060ff169055916020019190600101906200049b565b50620004cb929150620004cf565b5090565b5b80821115620004cb5760008155600101620004d0565b634e487b7160e01b600052604160045260246000fd5b604051601f8201601f191681016001600160401b0381118282101715620005275762000527620004e6565b604052919050565b600082601f8301126200054157600080fd5b81516001600160401b038111156200055d576200055d620004e6565b602062000573601f8301601f19168201620004fc565b82815285828487010111156200058857600080fd5b60005b83811015620005a85785810183015182820184015282016200058b565b506000928101909101919091529392505050565b600080600060608486031215620005d257600080fd5b83516001600160401b0380821115620005ea57600080fd5b620005f8878388016200052f565b94506020915081860151818111156200061057600080fd5b6200061e888289016200052f565b9450506040860151818111156200063457600080fd5b8601601f810188136200064657600080fd5b8051828111156200065b576200065b620004e6565b8060051b92506200066e848401620004fc565b818152928201840192848101908a8511156200068957600080fd5b928501925b84841015620006c357835192506001600160a01b0383168314620006b25760008081fd5b82825292850192908501906200068e565b8096505050505050509250925092565b600181811c90821680620006e857607f821691505b6020821081036200070957634e487b7160e01b600052602260045260246000fd5b50919050565b601f8211156200075d57600081815260208120601f850160051c81016020861015620007385750805b601f850160051c820191505b81811015620007595782815560010162000744565b5050505b505050565b81516001600160401b038111156200077e576200077e620004e6565b62000796816200078f8454620006d3565b846200070f565b602080601f831160018114620007ce5760008415620007b55750858301515b600019600386901b1c1916600185901b17855562000759565b600085815260208120601f198616915b82811015620007ff57888601518255948401946001909101908401620007de565b50858210156200081e5787850151600019600388901b60f8161c191681555b5050505050600190811b01905550565b634e487b7160e01b600052603260045260246000fd5b634e487b7160e01b600052601160045260246000fd5b6000600182016200086f576200086f62000844565b5060010190565b808201808211156200088c576200088c62000844565b92915050565b6080516134cd620008ae60003960006111c401526134cd6000f3fe6080604052600436106102385760003560e01c80636352211e11610138578063a3f8eace116100b0578063ce7c2ac21161007f578063e33b7de311610064578063e33b7de314610702578063e985e9c514610717578063f2fde38b1461076057600080fd5b8063ce7c2ac214610696578063d79779b2146106cc57600080fd5b8063a3f8eace14610616578063b88d4fde14610636578063c45ac05014610656578063c87b56dd1461067657600080fd5b80638da5cb5b116101075780639852595c116100ec5780639852595c146105ad578063a0712d68146105e3578063a22cb465146105f657600080fd5b80638da5cb5b1461057a57806395d89b411461059857600080fd5b80636352211e1461050557806370a0823114610525578063715018a6146105455780638b83209b1461055a57600080fd5b80632b54ef8e116101cb57806342842e0e1161019a5780634f6ccce71161017f5780634f6ccce7146104b057806355f804b3146104d05780635be7fde8146104f057600080fd5b806342842e0e1461047057806348b750441461049057600080fd5b80632b54ef8e146103d55780632f745c59146103f55780633a98ef3914610415578063406072a91461042a57600080fd5b806318160ddd1161020757806318160ddd14610337578063191655871461035657806323b872dd146103765780632a55205a1461039657600080fd5b806301ffc9a71461028657806306fdde03146102bb578063081812fc146102dd578063095ea7b31461031557600080fd5b36610281577f6ef95f06320e7a25a04a175ca677b7052bdd97131872c2192525a629f51be77033604080516001600160a01b0390921682523460208301520160405180910390a1005b600080fd5b34801561029257600080fd5b506102a66102a1366004612c52565b610780565b60405190151581526020015b60405180910390f35b3480156102c757600080fd5b506102d0610791565b6040516102b29190612cdd565b3480156102e957600080fd5b506102fd6102f8366004612cf0565b610823565b6040516001600160a01b0390911681526020016102b2565b34801561032157600080fd5b50610335610330366004612d1e565b61084a565b005b34801561034357600080fd5b506008545b6040519081526020016102b2565b34801561036257600080fd5b50610335610371366004612d4a565b610980565b34801561038257600080fd5b50610335610391366004612d67565b610b13565b3480156103a257600080fd5b506103b66103b1366004612da8565b610b9a565b604080516001600160a01b0390931683526020830191909152016102b2565b3480156103e157600080fd5b506103356103f0366004612ead565b610c77565b34801561040157600080fd5b50610348610410366004612d1e565b610ca2565b34801561042157600080fd5b50600c54610348565b34801561043657600080fd5b50610348610445366004612efd565b6001600160a01b03918216600090815260126020908152604080832093909416825291909152205490565b34801561047c57600080fd5b5061033561048b366004612d67565b610d4a565b34801561049c57600080fd5b506103356104ab366004612efd565b610d65565b3480156104bc57600080fd5b506103486104cb366004612cf0565b610f22565b3480156104dc57600080fd5b506103356104eb366004612f36565b610fc6565b3480156104fc57600080fd5b50610335610fde565b34801561051157600080fd5b506102fd610520366004612cf0565b61100b565b34801561053157600080fd5b50610348610540366004612d4a565b611070565b34801561055157600080fd5b5061033561110a565b34801561056657600080fd5b506102fd610575366004612cf0565b61111e565b34801561058657600080fd5b506013546001600160a01b03166102fd565b3480156105a457600080fd5b506102d061114e565b3480156105b957600080fd5b506103486105c8366004612d4a565b6001600160a01b03166000908152600f602052604090205490565b6103356105f1366004612cf0565b61115d565b34801561060257600080fd5b50610335610611366004612f79565b611304565b34801561062257600080fd5b50610348610631366004612d4a565b61130f565b34801561064257600080fd5b50610335610651366004612fa7565b611357565b34801561066257600080fd5b50610348610671366004612efd565b6113e5565b34801561068257600080fd5b506102d0610691366004612cf0565b6114c9565b3480156106a257600080fd5b506103486106b1366004612d4a565b6001600160a01b03166000908152600e602052604090205490565b3480156106d857600080fd5b506103486106e7366004612d4a565b6001600160a01b031660009081526011602052604090205490565b34801561070e57600080fd5b50600d54610348565b34801561072357600080fd5b506102a6610732366004612efd565b6001600160a01b03918216600090815260056020908152604080832093909416825291909152205460ff1690565b34801561076c57600080fd5b5061033561077b366004612d4a565b611562565b600061078b826115ef565b92915050565b6060600080546107a090613027565b80601f01602080910402602001604051908101604052809291908181526020018280546107cc90613027565b80156108195780601f106107ee57610100808354040283529160200191610819565b820191906000526020600020905b8154815290600101906020018083116107fc57829003601f168201915b5050505050905090565b600061082e82611645565b506000908152600460205260409020546001600160a01b031690565b60006108558261100b565b9050806001600160a01b0316836001600160a01b0316036108e35760405162461bcd60e51b815260206004820152602160248201527f4552433732313a20617070726f76616c20746f2063757272656e74206f776e6560448201527f720000000000000000000000000000000000000000000000000000000000000060648201526084015b60405180910390fd5b336001600160a01b03821614806108ff57506108ff8133610732565b6109715760405162461bcd60e51b815260206004820152603d60248201527f4552433732313a20617070726f76652063616c6c6572206973206e6f7420746f60448201527f6b656e206f776e6572206f7220617070726f76656420666f7220616c6c00000060648201526084016108da565b61097b83836116a9565b505050565b6001600160a01b0381166000908152600e6020526040902054610a0b5760405162461bcd60e51b815260206004820152602660248201527f5061796d656e7453706c69747465723a206163636f756e7420686173206e6f2060448201527f736861726573000000000000000000000000000000000000000000000000000060648201526084016108da565b6000610a168261130f565b905080600003610a8e5760405162461bcd60e51b815260206004820152602b60248201527f5061796d656e7453706c69747465723a206163636f756e74206973206e6f742060448201527f647565207061796d656e7400000000000000000000000000000000000000000060648201526084016108da565b80600d6000828254610aa091906130a9565b90915550506001600160a01b0382166000908152600f60205260409020805482019055610acd828261172f565b604080516001600160a01b0384168152602081018390527fdf20fd1e76bc69d672e4814fafb2c449bba3a5369d8359adf9e05e6fde87b056910160405180910390a15050565b610b1d3382611848565b610b8f5760405162461bcd60e51b815260206004820152602d60248201527f4552433732313a2063616c6c6572206973206e6f7420746f6b656e206f776e6560448201527f72206f7220617070726f7665640000000000000000000000000000000000000060648201526084016108da565b61097b8383836118c6565b6000828152600b602090815260408083208151808301909252546001600160a01b038116808352740100000000000000000000000000000000000000009091046bffffffffffffffffffffffff16928201929092528291610c3b575060408051808201909152600a546001600160a01b03811682527401000000000000000000000000000000000000000090046bffffffffffffffffffffffff1660208201525b602081015160009061271090610c5f906bffffffffffffffffffffffff16876130bc565b610c6991906130d3565b915196919550909350505050565b610c7f611b32565b601483905560178290556015610c95828261315c565b5061097b306101f4611b8c565b6000610cad83611070565b8210610d215760405162461bcd60e51b815260206004820152602b60248201527f455243373231456e756d657261626c653a206f776e657220696e646578206f7560448201527f74206f6620626f756e647300000000000000000000000000000000000000000060648201526084016108da565b506001600160a01b03919091166000908152600660209081526040808320938352929052205490565b61097b83838360405180602001604052806000815250611357565b6001600160a01b0381166000908152600e6020526040902054610df05760405162461bcd60e51b815260206004820152602660248201527f5061796d656e7453706c69747465723a206163636f756e7420686173206e6f2060448201527f736861726573000000000000000000000000000000000000000000000000000060648201526084016108da565b6000610dfc83836113e5565b905080600003610e745760405162461bcd60e51b815260206004820152602b60248201527f5061796d656e7453706c69747465723a206163636f756e74206973206e6f742060448201527f647565207061796d656e7400000000000000000000000000000000000000000060648201526084016108da565b6001600160a01b03831660009081526011602052604081208054839290610e9c9084906130a9565b90915550506001600160a01b038084166000908152601260209081526040808320938616835292905220805482019055610ed7838383611cb7565b604080516001600160a01b038481168252602082018490528516917f3be5b7a71e84ed12875d241991c70855ac5817d847039e17a9d895c1ceb0f18a910160405180910390a2505050565b6000610f2d60085490565b8210610fa15760405162461bcd60e51b815260206004820152602c60248201527f455243373231456e756d657261626c653a20676c6f62616c20696e646578206f60448201527f7574206f6620626f756e6473000000000000000000000000000000000000000060648201526084016108da565b60088281548110610fb457610fb4613276565b90600052602060002001549050919050565b610fce611b32565b6015610fda828261315c565b5050565b60005b600281101561100857610ff66103718261111e565b80611000816132a5565b915050610fe1565b50565b6000818152600260205260408120546001600160a01b03168061078b5760405162461bcd60e51b815260206004820152601860248201527f4552433732313a20696e76616c696420746f6b656e204944000000000000000060448201526064016108da565b60006001600160a01b0382166110ee5760405162461bcd60e51b815260206004820152602960248201527f4552433732313a2061646472657373207a65726f206973206e6f74206120766160448201527f6c6964206f776e6572000000000000000000000000000000000000000000000060648201526084016108da565b506001600160a01b031660009081526003602052604090205490565b611112611b32565b61111c6000611d37565b565b60006010828154811061113357611133613276565b6000918252602090912001546001600160a01b031692915050565b6060600180546107a090613027565b6014548161116a60085490565b61117491906130a9565b11156111c25760405162461bcd60e51b815260206004820152600860248201527f536f6c64206f757400000000000000000000000000000000000000000000000060448201526064016108da565b7f000000000000000000000000000000000000000000000000000000000000000060ff168111156112355760405162461bcd60e51b815260206004820152601660248201527f4d617820353020706572207472616e73616374696f6e0000000000000000000060448201526064016108da565b60175461124290826130bc565b3410156112915760405162461bcd60e51b815260206004820152601060248201527f4e6f7420656e6f7567682066756e64730000000000000000000000000000000060448201526064016108da565b6000805b828110156112ca5760165491506112b0601680546001019055565b6112ba3383611da1565b6112c3816132a5565b9050611295565b5060405181815233907f0f6798a560793a54c3bcfe86a93cde1e73087d944c0ea20544137d41213968859060200160405180910390a25050565b610fda338383611dbb565b60008061131b600d5490565b61132590476130a9565b9050611350838261134b866001600160a01b03166000908152600f602052604090205490565b611ea7565b9392505050565b6113613383611848565b6113d35760405162461bcd60e51b815260206004820152602d60248201527f4552433732313a2063616c6c6572206973206e6f7420746f6b656e206f776e6560448201527f72206f7220617070726f7665640000000000000000000000000000000000000060648201526084016108da565b6113df84848484611ee5565b50505050565b6001600160a01b03821660009081526011602052604081205481906040517f70a082310000000000000000000000000000000000000000000000000000000081523060048201526001600160a01b038616906370a0823190602401602060405180830381865afa15801561145d573d6000803e3d6000fd5b505050506040513d601f19601f8201168201806040525081019061148191906132dd565b61148b91906130a9565b6001600160a01b038086166000908152601260209081526040808320938816835292905220549091506114c19084908390611ea7565b949350505050565b6000818152600260205260409020546060906001600160a01b03166115305760405162461bcd60e51b815260206004820152601f60248201527f55524920717565727920666f72206e6f6e6578697374656e7420746f6b656e0060448201526064016108da565b601561153b83611f6e565b60405160200161154c9291906132f6565b6040516020818303038152906040529050919050565b61156a611b32565b6001600160a01b0381166115e65760405162461bcd60e51b815260206004820152602660248201527f4f776e61626c653a206e6577206f776e657220697320746865207a65726f206160448201527f646472657373000000000000000000000000000000000000000000000000000060648201526084016108da565b61100881611d37565b60007fffffffff0000000000000000000000000000000000000000000000000000000082167f2a55205a00000000000000000000000000000000000000000000000000000000148061078b575061078b8261202c565b6000818152600260205260409020546001600160a01b03166110085760405162461bcd60e51b815260206004820152601860248201527f4552433732313a20696e76616c696420746f6b656e204944000000000000000060448201526064016108da565b600081815260046020526040902080547fffffffffffffffffffffffff0000000000000000000000000000000000000000166001600160a01b03841690811790915581906116f68261100b565b6001600160a01b03167f8c5be1e5ebec7d5bd14f71427d1e84f3dd0314c0f7b2291e5b200ac8c7c3b92560405160405180910390a45050565b8047101561177f5760405162461bcd60e51b815260206004820152601d60248201527f416464726573733a20696e73756666696369656e742062616c616e636500000060448201526064016108da565b6000826001600160a01b03168260405160006040518083038185875af1925050503d80600081146117cc576040519150601f19603f3d011682016040523d82523d6000602084013e6117d1565b606091505b505090508061097b5760405162461bcd60e51b815260206004820152603a60248201527f416464726573733a20756e61626c6520746f2073656e642076616c75652c207260448201527f6563697069656e74206d6179206861766520726576657274656400000000000060648201526084016108da565b6000806118548361100b565b9050806001600160a01b0316846001600160a01b0316148061189b57506001600160a01b0380821660009081526005602090815260408083209388168352929052205460ff165b806114c15750836001600160a01b03166118b484610823565b6001600160a01b031614949350505050565b826001600160a01b03166118d98261100b565b6001600160a01b0316146119555760405162461bcd60e51b815260206004820152602560248201527f4552433732313a207472616e736665722066726f6d20696e636f72726563742060448201527f6f776e657200000000000000000000000000000000000000000000000000000060648201526084016108da565b6001600160a01b0382166119d05760405162461bcd60e51b8152602060048201526024808201527f4552433732313a207472616e7366657220746f20746865207a65726f2061646460448201527f726573730000000000000000000000000000000000000000000000000000000060648201526084016108da565b6119dd8383836001612082565b826001600160a01b03166119f08261100b565b6001600160a01b031614611a6c5760405162461bcd60e51b815260206004820152602560248201527f4552433732313a207472616e736665722066726f6d20696e636f72726563742060448201527f6f776e657200000000000000000000000000000000000000000000000000000060648201526084016108da565b600081815260046020908152604080832080547fffffffffffffffffffffffff00000000000000000000000000000000000000009081169091556001600160a01b038781168086526003855283862080547fffffffffffffffffffffffffffffffffffffffffffffffffffffffffffffffff01905590871680865283862080546001019055868652600290945282852080549092168417909155905184937fddf252ad1be2c89b69c2b068fc378daa952ba7f163c4a11628f55a4df523b3ef91a4505050565b6013546001600160a01b0316331461111c5760405162461bcd60e51b815260206004820181905260248201527f4f776e61626c653a2063616c6c6572206973206e6f7420746865206f776e657260448201526064016108da565b6127106bffffffffffffffffffffffff82161115611c125760405162461bcd60e51b815260206004820152602a60248201527f455243323938313a20726f79616c7479206665652077696c6c2065786365656460448201527f2073616c6550726963650000000000000000000000000000000000000000000060648201526084016108da565b6001600160a01b038216611c685760405162461bcd60e51b815260206004820152601960248201527f455243323938313a20696e76616c69642072656365697665720000000000000060448201526064016108da565b604080518082019091526001600160a01b039092168083526bffffffffffffffffffffffff90911660209092018290527401000000000000000000000000000000000000000090910217600a55565b604080516001600160a01b038416602482015260448082018490528251808303909101815260649091019091526020810180517bffffffffffffffffffffffffffffffffffffffffffffffffffffffff167fa9059cbb0000000000000000000000000000000000000000000000000000000017905261097b9084906121ca565b601380546001600160a01b038381167fffffffffffffffffffffffff0000000000000000000000000000000000000000831681179093556040519116919082907f8be0079c531659141344cd1fd0a4f28419497f9722a3daafe3b4186f6b6457e090600090a35050565b610fda8282604051806020016040528060008152506122af565b816001600160a01b0316836001600160a01b031603611e1c5760405162461bcd60e51b815260206004820152601960248201527f4552433732313a20617070726f766520746f2063616c6c65720000000000000060448201526064016108da565b6001600160a01b0383811660008181526005602090815260408083209487168084529482529182902080547fffffffffffffffffffffffffffffffffffffffffffffffffffffffffffffff001686151590811790915591519182527f17307eab39ab6107e8899845ad3d59bd9653f200f220920489ca2b5937696c31910160405180910390a3505050565b600c546001600160a01b0384166000908152600e602052604081205490918391611ed190866130bc565b611edb91906130d3565b6114c191906133c3565b611ef08484846118c6565b611efc84848484612338565b6113df5760405162461bcd60e51b815260206004820152603260248201527f4552433732313a207472616e7366657220746f206e6f6e20455243373231526560448201527f63656976657220696d706c656d656e746572000000000000000000000000000060648201526084016108da565b60606000611f7b836124f7565b600101905060008167ffffffffffffffff811115611f9b57611f9b612dca565b6040519080825280601f01601f191660200182016040528015611fc5576020820181803683370190505b5090508181016020015b7fffffffffffffffffffffffffffffffffffffffffffffffffffffffffffffffff017f3031323334353637383961626364656600000000000000000000000000000000600a86061a8153600a8504945084611fcf57509392505050565b60007fffffffff0000000000000000000000000000000000000000000000000000000082167f780e9d6300000000000000000000000000000000000000000000000000000000148061078b575061078b826125d9565b61208e848484846126bc565b60018111156121055760405162461bcd60e51b815260206004820152603560248201527f455243373231456e756d657261626c653a20636f6e736563757469766520747260448201527f616e7366657273206e6f7420737570706f72746564000000000000000000000060648201526084016108da565b816001600160a01b0385166121615761215c81600880546000838152600960205260408120829055600182018355919091527ff3f7a9fe364faab93b216da50a3214154f22a0a2b415b23a84c8169e8b636ee30155565b612184565b836001600160a01b0316856001600160a01b031614612184576121848582612744565b6001600160a01b0384166121a05761219b816127e1565b6121c3565b846001600160a01b0316846001600160a01b0316146121c3576121c38482612890565b5050505050565b600061221f826040518060400160405280602081526020017f5361666545524332303a206c6f772d6c6576656c2063616c6c206661696c6564815250856001600160a01b03166128d49092919063ffffffff16565b80519091501561097b578080602001905181019061223d91906133d6565b61097b5760405162461bcd60e51b815260206004820152602a60248201527f5361666545524332303a204552433230206f7065726174696f6e20646964206e60448201527f6f7420737563636565640000000000000000000000000000000000000000000060648201526084016108da565b6122b983836128e3565b6122c66000848484612338565b61097b5760405162461bcd60e51b815260206004820152603260248201527f4552433732313a207472616e7366657220746f206e6f6e20455243373231526560448201527f63656976657220696d706c656d656e746572000000000000000000000000000060648201526084016108da565b60006001600160a01b0384163b156124ec576040517f150b7a020000000000000000000000000000000000000000000000000000000081526001600160a01b0385169063150b7a02906123959033908990889088906004016133f3565b6020604051808303816000875af19250505080156123ee575060408051601f3d9081017fffffffffffffffffffffffffffffffffffffffffffffffffffffffffffffffe01682019092526123eb9181019061342f565b60015b6124a1573d80801561241c576040519150601f19603f3d011682016040523d82523d6000602084013e612421565b606091505b5080516000036124995760405162461bcd60e51b815260206004820152603260248201527f4552433732313a207472616e7366657220746f206e6f6e20455243373231526560448201527f63656976657220696d706c656d656e746572000000000000000000000000000060648201526084016108da565b805181602001fd5b7fffffffff00000000000000000000000000000000000000000000000000000000167f150b7a02000000000000000000000000000000000000000000000000000000001490506114c1565b506001949350505050565b6000807a184f03e93ff9f4daa797ed6e38ed64bf6a1f0100000000000000008310612540577a184f03e93ff9f4daa797ed6e38ed64bf6a1f010000000000000000830492506040015b6d04ee2d6d415b85acef8100000000831061256c576d04ee2d6d415b85acef8100000000830492506020015b662386f26fc10000831061258a57662386f26fc10000830492506010015b6305f5e10083106125a2576305f5e100830492506008015b61271083106125b657612710830492506004015b606483106125c8576064830492506002015b600a831061078b5760010192915050565b60007fffffffff0000000000000000000000000000000000000000000000000000000082167f80ac58cd00000000000000000000000000000000000000000000000000000000148061266c57507fffffffff0000000000000000000000000000000000000000000000000000000082167f5b5e139f00000000000000000000000000000000000000000000000000000000145b8061078b57507f01ffc9a7000000000000000000000000000000000000000000000000000000007fffffffff0000000000000000000000000000000000000000000000000000000083161461078b565b60018111156113df576001600160a01b03841615612702576001600160a01b038416600090815260036020526040812080548392906126fc9084906133c3565b90915550505b6001600160a01b038316156113df576001600160a01b038316600090815260036020526040812080548392906127399084906130a9565b909155505050505050565b6000600161275184611070565b61275b91906133c3565b6000838152600760205260409020549091508082146127ae576001600160a01b03841660009081526006602090815260408083208584528252808320548484528184208190558352600790915290208190555b5060009182526007602090815260408084208490556001600160a01b039094168352600681528383209183525290812055565b6008546000906127f3906001906133c3565b6000838152600960205260408120546008805493945090928490811061281b5761281b613276565b90600052602060002001549050806008838154811061283c5761283c613276565b60009182526020808320909101929092558281526009909152604080822084905585825281205560088054806128745761287461344c565b6001900381819060005260206000200160009055905550505050565b600061289b83611070565b6001600160a01b039093166000908152600660209081526040808320868452825280832085905593825260079052919091209190915550565b60606114c18484600085612a94565b6001600160a01b0382166129395760405162461bcd60e51b815260206004820181905260248201527f4552433732313a206d696e7420746f20746865207a65726f206164647265737360448201526064016108da565b6000818152600260205260409020546001600160a01b03161561299e5760405162461bcd60e51b815260206004820152601c60248201527f4552433732313a20746f6b656e20616c7265616479206d696e7465640000000060448201526064016108da565b6129ac600083836001612082565b6000818152600260205260409020546001600160a01b031615612a115760405162461bcd60e51b815260206004820152601c60248201527f4552433732313a20746f6b656e20616c7265616479206d696e7465640000000060448201526064016108da565b6001600160a01b038216600081815260036020908152604080832080546001019055848352600290915280822080547fffffffffffffffffffffffff0000000000000000000000000000000000000000168417905551839291907fddf252ad1be2c89b69c2b068fc378daa952ba7f163c4a11628f55a4df523b3ef908290a45050565b606082471015612b0c5760405162461bcd60e51b815260206004820152602660248201527f416464726573733a20696e73756666696369656e742062616c616e636520666f60448201527f722063616c6c000000000000000000000000000000000000000000000000000060648201526084016108da565b600080866001600160a01b03168587604051612b28919061347b565b60006040518083038185875af1925050503d8060008114612b65576040519150601f19603f3d011682016040523d82523d6000602084013e612b6a565b606091505b5091509150612b7b87838387612b86565b979650505050505050565b60608315612bf5578251600003612bee576001600160a01b0385163b612bee5760405162461bcd60e51b815260206004820152601d60248201527f416464726573733a2063616c6c20746f206e6f6e2d636f6e747261637400000060448201526064016108da565b50816114c1565b6114c18383815115612c0a5781518083602001fd5b8060405162461bcd60e51b81526004016108da9190612cdd565b7fffffffff000000000000000000000000000000000000000000000000000000008116811461100857600080fd5b600060208284031215612c6457600080fd5b813561135081612c24565b60005b83811015612c8a578181015183820152602001612c72565b50506000910152565b60008151808452612cab816020860160208601612c6f565b601f017fffffffffffffffffffffffffffffffffffffffffffffffffffffffffffffffe0169290920160200192915050565b6020815260006113506020830184612c93565b600060208284031215612d0257600080fd5b5035919050565b6001600160a01b038116811461100857600080fd5b60008060408385031215612d3157600080fd5b8235612d3c81612d09565b946020939093013593505050565b600060208284031215612d5c57600080fd5b813561135081612d09565b600080600060608486031215612d7c57600080fd5b8335612d8781612d09565b92506020840135612d9781612d09565b929592945050506040919091013590565b60008060408385031215612dbb57600080fd5b50508035926020909101359150565b7f4e487b7100000000000000000000000000000000000000000000000000000000600052604160045260246000fd5b600067ffffffffffffffff80841115612e1457612e14612dca565b604051601f85017fffffffffffffffffffffffffffffffffffffffffffffffffffffffffffffffe0908116603f01168101908282118183101715612e5a57612e5a612dca565b81604052809350858152868686011115612e7357600080fd5b858560208301376000602087830101525050509392505050565b600082601f830112612e9e57600080fd5b61135083833560208501612df9565b600080600060608486031215612ec257600080fd5b8335925060208401359150604084013567ffffffffffffffff811115612ee757600080fd5b612ef386828701612e8d565b9150509250925092565b60008060408385031215612f1057600080fd5b8235612f1b81612d09565b91506020830135612f2b81612d09565b809150509250929050565b600060208284031215612f4857600080fd5b813567ffffffffffffffff811115612f5f57600080fd5b6114c184828501612e8d565b801515811461100857600080fd5b60008060408385031215612f8c57600080fd5b8235612f9781612d09565b91506020830135612f2b81612f6b565b60008060008060808587031215612fbd57600080fd5b8435612fc881612d09565b93506020850135612fd881612d09565b925060408501359150606085013567ffffffffffffffff811115612ffb57600080fd5b8501601f8101871361300c57600080fd5b61301b87823560208401612df9565b91505092959194509250565b600181811c9082168061303b57607f821691505b602082108103613074577f4e487b7100000000000000000000000000000000000000000000000000000000600052602260045260246000fd5b50919050565b7f4e487b7100000000000000000000000000000000000000000000000000000000600052601160045260246000fd5b8082018082111561078b5761078b61307a565b808202811582820484141761078b5761078b61307a565b600082613109577f4e487b7100000000000000000000000000000000000000000000000000000000600052601260045260246000fd5b500490565b601f82111561097b57600081815260208120601f850160051c810160208610156131355750805b601f850160051c820191505b8181101561315457828155600101613141565b505050505050565b815167ffffffffffffffff81111561317657613176612dca565b61318a816131848454613027565b8461310e565b602080601f8311600181146131dd57600084156131a75750858301515b7fffffffffffffffffffffffffffffffffffffffffffffffffffffffffffffffff600386901b1c1916600185901b178555613154565b6000858152602081207fffffffffffffffffffffffffffffffffffffffffffffffffffffffffffffffe08616915b8281101561322a5788860151825594840194600190910190840161320b565b508582101561326657878501517fffffffffffffffffffffffffffffffffffffffffffffffffffffffffffffffff600388901b60f8161c191681555b5050505050600190811b01905550565b7f4e487b7100000000000000000000000000000000000000000000000000000000600052603260045260246000fd5b60007fffffffffffffffffffffffffffffffffffffffffffffffffffffffffffffffff82036132d6576132d661307a565b5060010190565b6000602082840312156132ef57600080fd5b5051919050565b600080845461330481613027565b6001828116801561331c576001811461334f5761337e565b7fffffffffffffffffffffffffffffffffffffffffffffffffffffffffffffff008416875282151583028701945061337e565b8860005260208060002060005b858110156133755781548a82015290840190820161335c565b50505082870194505b505050508351613392818360208801612c6f565b7f2e6a736f6e0000000000000000000000000000000000000000000000000000009101908152600501949350505050565b8181038181111561078b5761078b61307a565b6000602082840312156133e857600080fd5b815161135081612f6b565b60006001600160a01b038087168352808616602084015250836040830152608060608301526134256080830184612c93565b9695505050505050565b60006020828403121561344157600080fd5b815161135081612c24565b7f4e487b7100000000000000000000000000000000000000000000000000000000600052603160045260246000fd5b6000825161348d818460208701612c6f565b919091019291505056fea264697066735822122013b63aa9e585c68450586225c8d39b0592205a79aa475eb2258cbd8c7200da6c64736f6c63430008110033",
  "linkReferences": {},
  "deployedLinkReferences": {}
}