{
  "_format": "hh-sol-artifact-1",
  "contractName": "Factory",
  "sourceName": "contracts/Factory.sol",
  "abi": [
    {
      "anonymous": false,
      "inputs": [
        {
          "indexed": false,
          "internalType": "string",
          "name": "name",
          "type": "string"
        },
        {
          "indexed": true,
          "internalType": "address",
          "name": "addressCollection",
          "type": "address"
        },
        {
          "indexed": false,
          "internalType": "uint256",
          "name": "timestamp",
          "type": "uint256"
        },
        {
          "indexed": true,
          "internalType": "address",
          "name": "seller",
          "type": "address"
        }
      ],
      "name": "CollectionCreated",
      "type": "event"
    },
    {
      "anonymous": false,
      "inputs": [
        {
          "indexed": true,
          "internalType": "address",
          "name": "previousOwner",
          "type": "address"
        },
        {
          "indexed": true,
          "internalType": "address",
          "name": "newOwner",
          "type": "address"
        }
      ],
      "name": "OwnershipTransferred",
      "type": "event"
    },
    {
      "anonymous": false,
      "inputs": [
        {
          "indexed": true,
          "internalType": "address",
          "name": "seller",
          "type": "address"
        },
        {
          "indexed": false,
          "internalType": "string",
          "name": "name",
          "type": "string"
        },
        {
          "indexed": false,
          "internalType": "string",
          "name": "symbol",
          "type": "string"
        }
      ],
      "name": "SubsidiaryAdded",
      "type": "event"
    },
    {
      "anonymous": false,
      "inputs": [
        {
          "indexed": true,
          "internalType": "address",
          "name": "seller",
          "type": "address"
        },
        {
          "indexed": false,
          "internalType": "string",
          "name": "name",
          "type": "string"
        },
        {
          "indexed": false,
          "internalType": "string",
          "name": "symbol",
          "type": "string"
        }
      ],
      "name": "SubsidiaryDeactivated",
      "type": "event"
    },
    {
      "anonymous": false,
      "inputs": [
        {
          "indexed": true,
          "internalType": "address",
          "name": "_seller",
          "type": "address"
        },
        {
          "indexed": false,
          "internalType": "string",
          "name": "_name",
          "type": "string"
        },
        {
          "indexed": false,
          "internalType": "string",
          "name": "_symbol",
          "type": "string"
        }
      ],
      "name": "SubsidiaryUpdated",
      "type": "event"
    },
    {
      "inputs": [
        {
          "internalType": "uint256",
          "name": "_maxSupply",
          "type": "uint256"
        },
        {
          "internalType": "uint256",
          "name": "_price",
          "type": "uint256"
        },
        {
          "internalType": "string",
          "name": "_baseURI",
          "type": "string"
        }
      ],
      "name": "createNFTCollection",
      "outputs": [
        {
          "internalType": "address",
          "name": "collectionAddress",
          "type": "address"
        }
      ],
      "stateMutability": "nonpayable",
      "type": "function"
    },
    {
      "inputs": [
        {
          "internalType": "address",
          "name": "_seller",
          "type": "address"
        }
      ],
      "name": "deactivateSubsidiary",
      "outputs": [],
      "stateMutability": "nonpayable",
      "type": "function"
    },
    {
      "inputs": [
        {
          "internalType": "address",
          "name": "_seller",
          "type": "address"
        }
      ],
      "name": "getSubsidiary",
      "outputs": [
        {
          "components": [
            {
              "internalType": "string",
              "name": "name",
              "type": "string"
            },
            {
              "internalType": "string",
              "name": "symbol",
              "type": "string"
            },
            {
              "internalType": "address[]",
              "name": "team",
              "type": "address[]"
            },
            {
              "internalType": "bool",
              "name": "isActive",
              "type": "bool"
            },
            {
              "internalType": "uint256",
              "name": "counter",
              "type": "uint256"
            }
          ],
          "internalType": "struct Factory.Subsidiary",
          "name": "",
          "type": "tuple"
        }
      ],
      "stateMutability": "view",
      "type": "function"
    },
    {
      "inputs": [],
      "name": "owner",
      "outputs": [
        {
          "internalType": "address",
          "name": "",
          "type": "address"
        }
      ],
      "stateMutability": "view",
      "type": "function"
    },
    {
      "inputs": [],
      "name": "renounceOwnership",
      "outputs": [],
      "stateMutability": "nonpayable",
      "type": "function"
    },
    {
      "inputs": [
        {
          "internalType": "address",
          "name": "_seller",
          "type": "address"
        },
        {
          "internalType": "string",
          "name": "_name",
          "type": "string"
        },
        {
          "internalType": "string",
          "name": "_symbol",
          "type": "string"
        }
      ],
      "name": "setSubsidiary",
      "outputs": [],
      "stateMutability": "nonpayable",
      "type": "function"
    },
    {
      "inputs": [
        {
          "internalType": "address",
          "name": "newOwner",
          "type": "address"
        }
      ],
      "name": "transferOwnership",
      "outputs": [],
      "stateMutability": "nonpayable",
      "type": "function"
    },
    {
      "inputs": [
        {
          "internalType": "address",
          "name": "_seller",
          "type": "address"
        },
        {
          "internalType": "string",
          "name": "_name",
          "type": "string"
        },
        {
          "internalType": "string",
          "name": "_symbol",
          "type": "string"
        }
      ],
      "name": "updateSubsidiary",
      "outputs": [],
      "stateMutability": "nonpayable",
      "type": "function"
    }
  ],
  "bytecode": "0x60806040523480156200001157600080fd5b5062000032620000266200003860201b60201c565b6200004060201b60201c565b62000104565b600033905090565b60008060009054906101000a900473ffffffffffffffffffffffffffffffffffffffff169050816000806101000a81548173ffffffffffffffffffffffffffffffffffffffff021916908373ffffffffffffffffffffffffffffffffffffffff1602179055508173ffffffffffffffffffffffffffffffffffffffff168173ffffffffffffffffffffffffffffffffffffffff167f8be0079c531659141344cd1fd0a4f28419497f9722a3daafe3b4186f6b6457e060405160405180910390a35050565b61976880620001146000396000f3fe60806040523480156200001157600080fd5b5060043610620000945760003560e01c8063d101b0461162000063578063d101b046146200011d578063d76c15eb146200013d578063d83b4c131462000173578063f2fde38b14620001935762000094565b806325dfa3bf1462000099578063715018a614620000b95780638da5cb5b14620000c5578063b2a1e31214620000e7575b600080fd5b620000b76004803603810190620000b19190620017e1565b620001b3565b005b620000c3620005e0565b005b620000cf620005f8565b604051620000de919062001896565b60405180910390f35b620001056004803603810190620000ff9190620018b3565b62000621565b60405162000114919062001b13565b60405180910390f35b6200013b6004803603810190620001359190620017e1565b620008a7565b005b6200015b600480360381019062000155919062001b68565b62000a50565b6040516200016a919062001896565b60405180910390f35b6200019160048036038101906200018b9190620018b3565b62001035565b005b620001b16004803603810190620001ab9190620018b3565b620011f4565b005b620001c967c51d792467a5930a60c01b6200127e565b620001d362001281565b620001e96722743dc4538e31fc60c01b6200127e565b620001ff6780414a7152211b3c60c01b6200127e565b62000215673a2ba26aa0742be160c01b6200127e565b6200022b67b6c864155de9a1e160c01b6200127e565b620002416725457d24f7f130cd60c01b6200127e565b6000600160008773ffffffffffffffffffffffffffffffffffffffff1673ffffffffffffffffffffffffffffffffffffffff168152602001908152602001600020600401541115620002ca576040517f08c379a0000000000000000000000000000000000000000000000000000000008152600401620002c19062001c49565b60405180910390fd5b620002e067cd23fbbe67d6780a60c01b6200127e565b620002f667996c18bfdeb5de9160c01b6200127e565b8383600160008873ffffffffffffffffffffffffffffffffffffffff1673ffffffffffffffffffffffffffffffffffffffff16815260200190815260200160002060000191826200034992919062001edb565b5062000360676a784d547fe4f3a360c01b6200127e565b8181600160008873ffffffffffffffffffffffffffffffffffffffff1673ffffffffffffffffffffffffffffffffffffffff1681526020019081526020016000206001019182620003b392919062001edb565b50620003ca67cd9509f64bc3390160c01b6200127e565b60018060008773ffffffffffffffffffffffffffffffffffffffff1673ffffffffffffffffffffffffffffffffffffffff16815260200190815260200160002060030160006101000a81548160ff0219169083151502179055506200043a672440fa0ba74aaa2160c01b6200127e565b60018060008773ffffffffffffffffffffffffffffffffffffffff1673ffffffffffffffffffffffffffffffffffffffff1681526020019081526020016000206004018190555062000497672511933f847f2ab260c01b6200127e565b60405180604001604052808673ffffffffffffffffffffffffffffffffffffffff1673ffffffffffffffffffffffffffffffffffffffff1681526020013373ffffffffffffffffffffffffffffffffffffffff1673ffffffffffffffffffffffffffffffffffffffff16815250600160008773ffffffffffffffffffffffffffffffffffffffff1673ffffffffffffffffffffffffffffffffffffffff1681526020019081526020016000206002019060026200055692919062001617565b506200056d67244ca5ff73b921e060c01b6200127e565b6200058367157ebdee9496d34560c01b6200127e565b8473ffffffffffffffffffffffffffffffffffffffff167f43d54c5357a32b70e16cbc1a1521df5ec2d71c30ced1f2531b400181501e42de85858585604051620005d1949392919062002002565b60405180910390a25050505050565b620005ea62001281565b620005f6600062001306565b565b60008060009054906101000a900473ffffffffffffffffffffffffffffffffffffffff16905090565b6200062b620016a6565b6200064167454b1348f32ad04760c01b6200127e565b62000657678719011b0ec3b46f60c01b6200127e565b6200066d6729f71e724dd30e3360c01b6200127e565b600160008373ffffffffffffffffffffffffffffffffffffffff1673ffffffffffffffffffffffffffffffffffffffff1681526020019081526020016000206040518060a0016040529081600082018054620006c99062001cd4565b80601f0160208091040260200160405190810160405280929190818152602001828054620006f79062001cd4565b8015620007485780601f106200071c5761010080835404028352916020019162000748565b820191906000526020600020905b8154815290600101906020018083116200072a57829003601f168201915b50505050508152602001600182018054620007639062001cd4565b80601f0160208091040260200160405190810160405280929190818152602001828054620007919062001cd4565b8015620007e25780601f10620007b657610100808354040283529160200191620007e2565b820191906000526020600020905b815481529060010190602001808311620007c457829003601f168201915b50505050508152602001600282018054806020026020016040519081016040528092919081815260200182805480156200087257602002820191906000526020600020905b8160009054906101000a900473ffffffffffffffffffffffffffffffffffffffff1673ffffffffffffffffffffffffffffffffffffffff168152602001906001019080831162000827575b505050505081526020016003820160009054906101000a900460ff161515151581526020016004820154815250509050919050565b620008bd67b5418e188776292960c01b6200127e565b620008c762001281565b620008dd6706b1c2974895803460c01b6200127e565b620008f3676956704e7b4d449160c01b6200127e565b6200090967f97169b979cbddad60c01b6200127e565b8383600160008873ffffffffffffffffffffffffffffffffffffffff1673ffffffffffffffffffffffffffffffffffffffff16815260200190815260200160002060000191826200095c92919062001edb565b506200097367065cb8209e018c9060c01b6200127e565b8181600160008873ffffffffffffffffffffffffffffffffffffffff1673ffffffffffffffffffffffffffffffffffffffff1681526020019081526020016000206001019182620009c692919062001edb565b50620009dd671ad063bb1b6615e160c01b6200127e565b620009f367465003a083ef99c760c01b6200127e565b8473ffffffffffffffffffffffffffffffffffffffff167fed9b4cee8fc87a38b2859b6bb549b06e8d56b2c3beac94da06e97aeb90b38cad8585858560405162000a41949392919062002002565b60405180910390a25050505050565b600062000a686724dd8ad42dc7111260c01b6200127e565b62000a7e67a6487eb10c624ed760c01b6200127e565b62000a94679490da0bbaaa2cbc60c01b6200127e565b62000aaa67c8507885e22c227f60c01b6200127e565b62000ac0672378ee69ce03c1e660c01b6200127e565b600160003373ffffffffffffffffffffffffffffffffffffffff1673ffffffffffffffffffffffffffffffffffffffff16815260200190815260200160002060030160009054906101000a900460ff1662000b52576040517f08c379a000000000000000000000000000000000000000000000000000000000815260040162000b499062002091565b60405180910390fd5b62000b68677d59530ffe3a667860c01b6200127e565b62000b7e67335535efa1ba8f6c60c01b6200127e565b62000b9467a7cc027d79c73bb560c01b6200127e565b62000baa6760824eac96be71c460c01b6200127e565b62000bc067f6e00ed9ea0a40f960c01b6200127e565b62000bd667d00b84bc2213189860c01b6200127e565b6000600160003373ffffffffffffffffffffffffffffffffffffffff1673ffffffffffffffffffffffffffffffffffffffff16815260200190815260200160002060000162000c67600160003373ffffffffffffffffffffffffffffffffffffffff1673ffffffffffffffffffffffffffffffffffffffff16815260200190815260200160002060040154620013ca565b60405160200162000c7a929190620021aa565b604051602081830303815290604052905062000ca16706071a6919641b4960c01b6200127e565b62000cb76719d7d1d1c01e5be360c01b6200127e565b60008160405160200162000ccc9190620021e3565b60405160208183030381529060405280519060200120905062000cfa6789c5f3454b20690660c01b6200127e565b8082600160003373ffffffffffffffffffffffffffffffffffffffff1673ffffffffffffffffffffffffffffffffffffffff168152602001908152602001600020600101600160003373ffffffffffffffffffffffffffffffffffffffff1673ffffffffffffffffffffffffffffffffffffffff16815260200190815260200160002060020160405162000d8e90620016d7565b62000d9c93929190620023de565b8190604051809103906000f590508015801562000dbd573d6000803e3d6000fd5b50925062000dd667e86567cf38a21d2a60c01b6200127e565b62000dec6779c16075e9ba8b7660c01b6200127e565b8273ffffffffffffffffffffffffffffffffffffffff16632b54ef8e888888886040518563ffffffff1660e01b815260040162000e2d949392919062002441565b600060405180830381600087803b15801562000e4857600080fd5b505af115801562000e5d573d6000803e3d6000fd5b5050505062000e7767f97cf7b1814a7bea60c01b6200127e565b600160003373ffffffffffffffffffffffffffffffffffffffff1673ffffffffffffffffffffffffffffffffffffffff1681526020019081526020016000206004016000815462000ec890620024b6565b9190508190555062000ee5677d39f33188cf5f4960c01b6200127e565b62000efb673af636a45df81e0560c01b6200127e565b3373ffffffffffffffffffffffffffffffffffffffff168373ffffffffffffffffffffffffffffffffffffffff167ff4c6dcb500688d4d21a1203be837d78930d6dcd031f8af724c3f9518b6dc76a8844260405162000f5c92919062002503565b60405180910390a362000f7a67df057d510de1a7db60c01b6200127e565b62000f9067a9ed7821f4cce61b60c01b6200127e565b8273ffffffffffffffffffffffffffffffffffffffff1663f2fde38b336040518263ffffffff1660e01b815260040162000fcb919062001896565b600060405180830381600087803b15801562000fe657600080fd5b505af115801562000ffb573d6000803e3d6000fd5b505050506200101567380e15065f32698d60c01b6200127e565b6200102b6799daf9837c7abacd60c01b6200127e565b5050949350505050565b6200104b67f6e968dcdd7aa9c260c01b6200127e565b6200105562001281565b6200106a667e368ae8fb11e660c01b6200127e565b62001080674d5cbc2bfce8ad6b60c01b6200127e565b6200109667cfd6c193461e4a8060c01b6200127e565b6000600160008373ffffffffffffffffffffffffffffffffffffffff1673ffffffffffffffffffffffffffffffffffffffff16815260200190815260200160002060030160006101000a81548160ff0219169083151502179055506200110767b842fe5991d9e11760c01b6200127e565b6200111d671197fda6670749f660c01b6200127e565b8073ffffffffffffffffffffffffffffffffffffffff167f54806b42e02a75124e46da56cf9c28f12548df8024e7dc98a2db59d0483602bb600160008473ffffffffffffffffffffffffffffffffffffffff1673ffffffffffffffffffffffffffffffffffffffff168152602001908152602001600020600001600160008573ffffffffffffffffffffffffffffffffffffffff1673ffffffffffffffffffffffffffffffffffffffff168152602001908152602001600020600101604051620011e992919062002537565b60405180910390a250565b620011fe62001281565b600073ffffffffffffffffffffffffffffffffffffffff168173ffffffffffffffffffffffffffffffffffffffff160362001270576040517f08c379a00000000000000000000000000000000000000000000000000000000081526004016200126790620025e8565b60405180910390fd5b6200127b8162001306565b50565b50565b6200128b620014a3565b73ffffffffffffffffffffffffffffffffffffffff16620012ab620005f8565b73ffffffffffffffffffffffffffffffffffffffff161462001304576040517f08c379a0000000000000000000000000000000000000000000000000000000008152600401620012fb906200265a565b60405180910390fd5b565b60008060009054906101000a900473ffffffffffffffffffffffffffffffffffffffff169050816000806101000a81548173ffffffffffffffffffffffffffffffffffffffff021916908373ffffffffffffffffffffffffffffffffffffffff1602179055508173ffffffffffffffffffffffffffffffffffffffff168173ffffffffffffffffffffffffffffffffffffffff167f8be0079c531659141344cd1fd0a4f28419497f9722a3daafe3b4186f6b6457e060405160405180910390a35050565b606060006001620013db84620014ab565b01905060008167ffffffffffffffff811115620013fd57620013fc62001c76565b5b6040519080825280601f01601f191660200182016040528015620014305781602001600182028036833780820191505090505b509050600082602001820190505b60011562001498578080600190039150507f3031323334353637383961626364656600000000000000000000000000000000600a86061a8153600a85816200148b576200148a6200267c565b5b049450600085036200143e575b819350505050919050565b600033905090565b600080600090507a184f03e93ff9f4daa797ed6e38ed64bf6a1f01000000000000000083106200150d577a184f03e93ff9f4daa797ed6e38ed64bf6a1f01000000000000000083816200150357620015026200267c565b5b0492506040810190505b6d04ee2d6d415b85acef810000000083106200154e576d04ee2d6d415b85acef810000000083816200154457620015436200267c565b5b0492506020810190505b662386f26fc1000083106200158157662386f26fc1000083816200157757620015766200267c565b5b0492506010810190505b6305f5e1008310620015ae576305f5e1008381620015a457620015a36200267c565b5b0492506008810190505b6127108310620015d7576127108381620015cd57620015cc6200267c565b5b0492506004810190505b60648310620015fe5760648381620015f457620015f36200267c565b5b0492506002810190505b600a83106200160e576001810190505b80915050919050565b82805482825590600052602060002090810192821562001693579160200282015b82811115620016925782518260006101000a81548173ffffffffffffffffffffffffffffffffffffffff021916908373ffffffffffffffffffffffffffffffffffffffff1602179055509160200191906001019062001638565b5b509050620016a29190620016e5565b5090565b6040518060a00160405280606081526020016060815260200160608152602001600015158152602001600081525090565b61708780620026ac83390190565b5b8082111562001700576000816000905550600101620016e6565b5090565b600080fd5b600080fd5b600073ffffffffffffffffffffffffffffffffffffffff82169050919050565b60006200173b826200170e565b9050919050565b6200174d816200172e565b81146200175957600080fd5b50565b6000813590506200176d8162001742565b92915050565b600080fd5b600080fd5b600080fd5b60008083601f8401126200179b576200179a62001773565b5b8235905067ffffffffffffffff811115620017bb57620017ba62001778565b5b602083019150836001820283011115620017da57620017d96200177d565b5b9250929050565b6000806000806000606086880312156200180057620017ff62001704565b5b600062001810888289016200175c565b955050602086013567ffffffffffffffff81111562001834576200183362001709565b5b620018428882890162001782565b9450945050604086013567ffffffffffffffff81111562001868576200186762001709565b5b620018768882890162001782565b92509250509295509295909350565b62001890816200172e565b82525050565b6000602082019050620018ad600083018462001885565b92915050565b600060208284031215620018cc57620018cb62001704565b5b6000620018dc848285016200175c565b91505092915050565b600081519050919050565b600082825260208201905092915050565b60005b838110156200192157808201518184015260208101905062001904565b60008484015250505050565b6000601f19601f8301169050919050565b60006200194b82620018e5565b620019578185620018f0565b93506200196981856020860162001901565b62001974816200192d565b840191505092915050565b600081519050919050565b600082825260208201905092915050565b6000819050602082019050919050565b620019b6816200172e565b82525050565b6000620019ca8383620019ab565b60208301905092915050565b6000602082019050919050565b6000620019f0826200197f565b620019fc81856200198a565b935062001a09836200199b565b8060005b8381101562001a4057815162001a248882620019bc565b975062001a3183620019d6565b92505060018101905062001a0d565b5085935050505092915050565b60008115159050919050565b62001a648162001a4d565b82525050565b6000819050919050565b62001a7f8162001a6a565b82525050565b600060a083016000830151848203600086015262001aa482826200193e565b9150506020830151848203602086015262001ac082826200193e565b9150506040830151848203604086015262001adc8282620019e3565b915050606083015162001af3606086018262001a59565b50608083015162001b08608086018262001a74565b508091505092915050565b6000602082019050818103600083015262001b2f818462001a85565b905092915050565b62001b428162001a6a565b811462001b4e57600080fd5b50565b60008135905062001b628162001b37565b92915050565b6000806000806060858703121562001b855762001b8462001704565b5b600062001b958782880162001b51565b945050602062001ba88782880162001b51565b935050604085013567ffffffffffffffff81111562001bcc5762001bcb62001709565b5b62001bda8782880162001782565b925092505092959194509250565b600082825260208201905092915050565b7f416c726561647920612073756273696469617279000000000000000000000000600082015250565b600062001c3160148362001be8565b915062001c3e8262001bf9565b602082019050919050565b6000602082019050818103600083015262001c648162001c22565b9050919050565b600082905092915050565b7f4e487b7100000000000000000000000000000000000000000000000000000000600052604160045260246000fd5b7f4e487b7100000000000000000000000000000000000000000000000000000000600052602260045260246000fd5b6000600282049050600182168062001ced57607f821691505b60208210810362001d035762001d0262001ca5565b5b50919050565b60008190508160005260206000209050919050565b60006020601f8301049050919050565b600082821b905092915050565b60006008830262001d6d7fffffffffffffffffffffffffffffffffffffffffffffffffffffffffffffffff8262001d2e565b62001d79868362001d2e565b95508019841693508086168417925050509392505050565b6000819050919050565b600062001dbc62001db662001db08462001a6a565b62001d91565b62001a6a565b9050919050565b6000819050919050565b62001dd88362001d9b565b62001df062001de78262001dc3565b84845462001d3b565b825550505050565b600090565b62001e0762001df8565b62001e1481848462001dcd565b505050565b5b8181101562001e3c5762001e3060008262001dfd565b60018101905062001e1a565b5050565b601f82111562001e8b5762001e558162001d09565b62001e608462001d1e565b8101602085101562001e70578190505b62001e8862001e7f8562001d1e565b83018262001e19565b50505b505050565b600082821c905092915050565b600062001eb06000198460080262001e90565b1980831691505092915050565b600062001ecb838362001e9d565b9150826002028217905092915050565b62001ee7838362001c6b565b67ffffffffffffffff81111562001f035762001f0262001c76565b5b62001f0f825462001cd4565b62001f1c82828562001e40565b6000601f83116001811462001f50576000841562001f3b578287013590505b62001f47858262001ebd565b86555062001fb7565b601f19841662001f608662001d09565b60005b8281101562001f8a5784890135825560018201915060208501945060208101905062001f63565b8683101562001faa578489013562001fa6601f89168262001e9d565b8355505b6001600288020188555050505b50505050505050565b82818337600083830152505050565b600062001fdd838562001be8565b935062001fec83858462001fc0565b62001ff7836200192d565b840190509392505050565b600060408201905081810360008301526200201f81868862001fcf565b905081810360208301526200203681848662001fcf565b905095945050505050565b7f4e6f7420612073656c6c65720000000000000000000000000000000000000000600082015250565b600062002079600c8362001be8565b9150620020868262002041565b602082019050919050565b60006020820190508181036000830152620020ac816200206a565b9050919050565b600081905092915050565b60008154620020cd8162001cd4565b620020d98186620020b3565b94506001821660008114620020f757600181146200210d5762002144565b60ff198316865281151582028601935062002144565b620021188562001d09565b60005b838110156200213c578154818901526001820191506020810190506200211b565b838801955050505b50505092915050565b7f202d200000000000000000000000000000000000000000000000000000000000815250565b60006200218082620018e5565b6200218c8185620020b3565b93506200219e81856020860162001901565b80840191505092915050565b6000620021b88285620020be565b9150620021c5826200214d565b600382019150620021d7828462002173565b91508190509392505050565b6000620021f1828462002173565b915081905092915050565b60006200220982620018e5565b62002215818562001be8565b93506200222781856020860162001901565b62002232816200192d565b840191505092915050565b600081546200224c8162001cd4565b62002258818662001be8565b945060018216600081146200227657600181146200228d57620022c4565b60ff198316865281151560200286019350620022c4565b620022988562001d09565b60005b83811015620022bc578154818901526001820191506020810190506200229b565b808801955050505b50505092915050565b600081549050919050565b600082825260208201905092915050565b60008190508160005260206000209050919050565b60008160001c9050919050565b600073ffffffffffffffffffffffffffffffffffffffff82169050919050565b6000620023426200233c83620022fe565b6200230b565b9050919050565b60006200235782546200232b565b9050919050565b6000600182019050919050565b60006200237882620022cd565b620023848185620022d8565b93506200239183620022e9565b8060005b83811015620023d157620023a98262002349565b620023b58882620019bc565b9750620023c2836200235e565b92505060018101905062002395565b5085935050505092915050565b60006060820190508181036000830152620023fa8186620021fc565b905081810360208301526200241081856200223d565b905081810360408301526200242681846200236b565b9050949350505050565b6200243b8162001a6a565b82525050565b600060608201905062002458600083018762002430565b62002467602083018662002430565b81810360408301526200247c81848662001fcf565b905095945050505050565b7f4e487b7100000000000000000000000000000000000000000000000000000000600052601160045260246000fd5b6000620024c38262001a6a565b91507fffffffffffffffffffffffffffffffffffffffffffffffffffffffffffffffff8203620024f857620024f762002487565b5b600182019050919050565b600060408201905081810360008301526200251f8185620021fc565b905062002530602083018462002430565b9392505050565b600060408201905081810360008301526200255381856200223d565b905081810360208301526200256981846200223d565b90509392505050565b7f4f776e61626c653a206e6577206f776e657220697320746865207a65726f206160008201527f6464726573730000000000000000000000000000000000000000000000000000602082015250565b6000620025d060268362001be8565b9150620025dd8262002572565b604082019050919050565b600060208201905081810360008301526200260381620025c1565b9050919050565b7f4f776e61626c653a2063616c6c6572206973206e6f7420746865206f776e6572600082015250565b60006200264260208362001be8565b91506200264f826200260a565b602082019050919050565b60006020820190508181036000830152620026758162002633565b9050919050565b7f4e487b7100000000000000000000000000000000000000000000000000000000600052601260045260246000fdfe60a06040526040518060400160405280606160ff168152602001600360ff16815250601890600262000033929190620005a5565b5060405162007087380380620070878339818101604052810190620000599190620008ee565b806018805480602002602001604051908101604052809291908181526020018280548015620000a857602002820191906000526020600020905b81548152602001906001019080831162000093575b505050505060405180602001604052806000815250604051806020016040528060008152508160009081620000de919062000bf2565b508060019081620000f0919062000bf2565b50505080518251146200013a576040517f08c379a0000000000000000000000000000000000000000000000000000000008152600401620001319062000d60565b60405180910390fd5b600082511162000181576040517f08c379a0000000000000000000000000000000000000000000000000000000008152600401620001789062000dd2565b60405180910390fd5b60005b8251811015620001f057620001da838281518110620001a857620001a762000df4565b5b6020026020010151838381518110620001c657620001c562000df4565b5b60200260200101516200029b60201b60201c565b8080620001e79062000e52565b91505062000184565b5050506200021362000207620004d460201b60201c565b620004dc60201b60201c565b6200022f674c02361995e6403f60c01b620005a260201b60201c565b6200024b67857b404e73824f0b60c01b620005a260201b60201c565b6200026767222dd08b6b4754fa60c01b620005a260201b60201c565b6200028367f9fd1fac425d6bff60c01b620005a260201b60201c565b603260ff1660808160ff1681525050505050620010cb565b600073ffffffffffffffffffffffffffffffffffffffff168273ffffffffffffffffffffffffffffffffffffffff16036200030d576040517f08c379a0000000000000000000000000000000000000000000000000000000008152600401620003049062000f15565b60405180910390fd5b6000811162000353576040517f08c379a00000000000000000000000000000000000000000000000000000000081526004016200034a9062000f87565b60405180910390fd5b6000600e60008473ffffffffffffffffffffffffffffffffffffffff1673ffffffffffffffffffffffffffffffffffffffff1681526020019081526020016000205414620003d8576040517f08c379a0000000000000000000000000000000000000000000000000000000008152600401620003cf906200101f565b60405180910390fd5b6010829080600181540180825580915050600190039060005260206000200160009091909190916101000a81548173ffffffffffffffffffffffffffffffffffffffff021916908373ffffffffffffffffffffffffffffffffffffffff16021790555080600e60008473ffffffffffffffffffffffffffffffffffffffff1673ffffffffffffffffffffffffffffffffffffffff1681526020019081526020016000208190555080600c546200048f919062001041565b600c819055507f40c340f65e17194d14ddddb073d3c9f888e3cb52b5aae0c6c7706b4fbc905fac8282604051620004c89291906200109e565b60405180910390a15050565b600033905090565b6000601360009054906101000a900473ffffffffffffffffffffffffffffffffffffffff16905081601360006101000a81548173ffffffffffffffffffffffffffffffffffffffff021916908373ffffffffffffffffffffffffffffffffffffffff1602179055508173ffffffffffffffffffffffffffffffffffffffff168173ffffffffffffffffffffffffffffffffffffffff167f8be0079c531659141344cd1fd0a4f28419497f9722a3daafe3b4186f6b6457e060405160405180910390a35050565b50565b828054828255906000526020600020908101928215620005e9579160200282015b82811115620005e8578251829060ff16905591602001919060010190620005c6565b5b509050620005f89190620005fc565b5090565b5b8082111562000617576000816000905550600101620005fd565b5090565b6000604051905090565b600080fd5b600080fd5b600080fd5b600080fd5b6000601f19601f8301169050919050565b7f4e487b7100000000000000000000000000000000000000000000000000000000600052604160045260246000fd5b620006848262000639565b810181811067ffffffffffffffff82111715620006a657620006a56200064a565b5b80604052505050565b6000620006bb6200061b565b9050620006c9828262000679565b919050565b600067ffffffffffffffff821115620006ec57620006eb6200064a565b5b620006f78262000639565b9050602081019050919050565b60005b838110156200072457808201518184015260208101905062000707565b60008484015250505050565b6000620007476200074184620006ce565b620006af565b90508281526020810184848401111562000766576200076562000634565b5b6200077384828562000704565b509392505050565b600082601f8301126200079357620007926200062f565b5b8151620007a584826020860162000730565b91505092915050565b600067ffffffffffffffff821115620007cc57620007cb6200064a565b5b602082029050602081019050919050565b600080fd5b600073ffffffffffffffffffffffffffffffffffffffff82169050919050565b60006200080f82620007e2565b9050919050565b620008218162000802565b81146200082d57600080fd5b50565b600081519050620008418162000816565b92915050565b60006200085e6200085884620007ae565b620006af565b90508083825260208201905060208402830185811115620008845762000883620007dd565b5b835b81811015620008b157806200089c888262000830565b84526020840193505060208101905062000886565b5050509392505050565b600082601f830112620008d357620008d26200062f565b5b8151620008e584826020860162000847565b91505092915050565b6000806000606084860312156200090a576200090962000625565b5b600084015167ffffffffffffffff8111156200092b576200092a6200062a565b5b62000939868287016200077b565b935050602084015167ffffffffffffffff8111156200095d576200095c6200062a565b5b6200096b868287016200077b565b925050604084015167ffffffffffffffff8111156200098f576200098e6200062a565b5b6200099d86828701620008bb565b9150509250925092565b600081519050919050565b7f4e487b7100000000000000000000000000000000000000000000000000000000600052602260045260246000fd5b60006002820490506001821680620009fa57607f821691505b60208210810362000a105762000a0f620009b2565b5b50919050565b60008190508160005260206000209050919050565b60006020601f8301049050919050565b600082821b905092915050565b60006008830262000a7a7fffffffffffffffffffffffffffffffffffffffffffffffffffffffffffffffff8262000a3b565b62000a86868362000a3b565b95508019841693508086168417925050509392505050565b6000819050919050565b6000819050919050565b600062000ad362000acd62000ac78462000a9e565b62000aa8565b62000a9e565b9050919050565b6000819050919050565b62000aef8362000ab2565b62000b0762000afe8262000ada565b84845462000a48565b825550505050565b600090565b62000b1e62000b0f565b62000b2b81848462000ae4565b505050565b5b8181101562000b535762000b4760008262000b14565b60018101905062000b31565b5050565b601f82111562000ba25762000b6c8162000a16565b62000b778462000a2b565b8101602085101562000b87578190505b62000b9f62000b968562000a2b565b83018262000b30565b50505b505050565b600082821c905092915050565b600062000bc76000198460080262000ba7565b1980831691505092915050565b600062000be2838362000bb4565b9150826002028217905092915050565b62000bfd82620009a7565b67ffffffffffffffff81111562000c195762000c186200064a565b5b62000c258254620009e1565b62000c3282828562000b57565b600060209050601f83116001811462000c6a576000841562000c55578287015190505b62000c61858262000bd4565b86555062000cd1565b601f19841662000c7a8662000a16565b60005b8281101562000ca45784890151825560018201915060208501945060208101905062000c7d565b8683101562000cc4578489015162000cc0601f89168262000bb4565b8355505b6001600288020188555050505b505050505050565b600082825260208201905092915050565b7f5061796d656e7453706c69747465723a2070617965657320616e64207368617260008201527f6573206c656e677468206d69736d617463680000000000000000000000000000602082015250565b600062000d4860328362000cd9565b915062000d558262000cea565b604082019050919050565b6000602082019050818103600083015262000d7b8162000d39565b9050919050565b7f5061796d656e7453706c69747465723a206e6f20706179656573000000000000600082015250565b600062000dba601a8362000cd9565b915062000dc78262000d82565b602082019050919050565b6000602082019050818103600083015262000ded8162000dab565b9050919050565b7f4e487b7100000000000000000000000000000000000000000000000000000000600052603260045260246000fd5b7f4e487b7100000000000000000000000000000000000000000000000000000000600052601160045260246000fd5b600062000e5f8262000a9e565b91507fffffffffffffffffffffffffffffffffffffffffffffffffffffffffffffffff820362000e945762000e9362000e23565b5b600182019050919050565b7f5061796d656e7453706c69747465723a206163636f756e74206973207468652060008201527f7a65726f20616464726573730000000000000000000000000000000000000000602082015250565b600062000efd602c8362000cd9565b915062000f0a8262000e9f565b604082019050919050565b6000602082019050818103600083015262000f308162000eee565b9050919050565b7f5061796d656e7453706c69747465723a20736861726573206172652030000000600082015250565b600062000f6f601d8362000cd9565b915062000f7c8262000f37565b602082019050919050565b6000602082019050818103600083015262000fa28162000f60565b9050919050565b7f5061796d656e7453706c69747465723a206163636f756e7420616c726561647960008201527f2068617320736861726573000000000000000000000000000000000000000000602082015250565b600062001007602b8362000cd9565b9150620010148262000fa9565b604082019050919050565b600060208201905081810360008301526200103a8162000ff8565b9050919050565b60006200104e8262000a9e565b91506200105b8362000a9e565b925082820190508082111562001076576200107562000e23565b5b92915050565b620010878162000802565b82525050565b620010988162000a9e565b82525050565b6000604082019050620010b560008301856200107c565b620010c460208301846200108d565b9392505050565b608051615fa0620010e76000396000611c2b0152615fa06000f3fe6080604052600436106102a45760003560e01c806370a082311161016e578063a3f8eace116100cb578063d79779b21161007f578063e3fa569f11610064578063e3fa569f146109c2578063e985e9c5146109ed578063f2fde38b14610a2a576102eb565b8063d79779b21461095a578063e33b7de314610997576102eb565b8063c45ac050116100b0578063c45ac050146108a3578063c87b56dd146108e0578063ce7c2ac21461091d576102eb565b8063a3f8eace1461083d578063b88d4fde1461087a576102eb565b806395d89b411161012257806398d5fdca1161010757806398d5fdca146107cd578063a0712d68146107f8578063a22cb46514610814576102eb565b806395d89b41146107655780639852595c14610790576102eb565b8063715018a611610153578063715018a6146106e65780638b83209b146106fd5780638da5cb5b1461073a576102eb565b806370a082311461067e578063714c5398146106bb576102eb565b80632f745c591161021c5780634c0f38c2116101d057806355f804b3116101b557806355f804b3146106015780635be7fde81461062a5780636352211e14610641576102eb565b80634c0f38c2146105995780634f6ccce7146105c4576102eb565b8063406072a911610201578063406072a91461050a57806342842e0e1461054757806348b7504414610570576102eb565b80632f745c59146104a25780633a98ef39146104df576102eb565b806318160ddd1161027357806323b872dd1161025857806323b872dd146104125780632a55205a1461043b5780632b54ef8e14610479576102eb565b806318160ddd146103be57806319165587146103e9576102eb565b806301ffc9a7146102f057806306fdde031461032d578063081812fc14610358578063095ea7b314610395576102eb565b366102eb577f6ef95f06320e7a25a04a175ca677b7052bdd97131872c2192525a629f51be7706102d2610a53565b346040516102e1929190613fcf565b60405180910390a1005b600080fd5b3480156102fc57600080fd5b5061031760048036038101906103129190614064565b610a5b565b60405161032491906140ac565b60405180910390f35b34801561033957600080fd5b50610342610aa9565b60405161034f9190614157565b60405180910390f35b34801561036457600080fd5b5061037f600480360381019061037a91906141a5565b610b3b565b60405161038c91906141d2565b60405180910390f35b3480156103a157600080fd5b506103bc60048036038101906103b79190614219565b610b81565b005b3480156103ca57600080fd5b506103d3610c98565b6040516103e09190614259565b60405180910390f35b3480156103f557600080fd5b50610410600480360381019061040b91906142b2565b610ca5565b005b34801561041e57600080fd5b50610439600480360381019061043491906142df565b610e24565b005b34801561044757600080fd5b50610462600480360381019061045d9190614332565b610e84565b604051610470929190613fcf565b60405180910390f35b34801561048557600080fd5b506104a0600480360381019061049b91906144a7565b61106e565b005b3480156104ae57600080fd5b506104c960048036038101906104c49190614219565b611145565b6040516104d69190614259565b60405180910390f35b3480156104eb57600080fd5b506104f46111ea565b6040516105019190614259565b60405180910390f35b34801561051657600080fd5b50610531600480360381019061052c9190614554565b6111f4565b60405161053e9190614259565b60405180910390f35b34801561055357600080fd5b5061056e600480360381019061056991906142df565b61127b565b005b34801561057c57600080fd5b5061059760048036038101906105929190614554565b61129b565b005b3480156105a557600080fd5b506105ae6114ae565b6040516105bb9190614259565b60405180910390f35b3480156105d057600080fd5b506105eb60048036038101906105e691906141a5565b6114f4565b6040516105f89190614259565b60405180910390f35b34801561060d57600080fd5b5061062860048036038101906106239190614594565b611565565b005b34801561063657600080fd5b5061063f6116e9565b005b34801561064d57600080fd5b50610668600480360381019061066391906141a5565b611780565b60405161067591906141d2565b60405180910390f35b34801561068a57600080fd5b506106a560048036038101906106a091906145dd565b611806565b6040516106b29190614259565b60405180910390f35b3480156106c757600080fd5b506106d06118bd565b6040516106dd9190614157565b60405180910390f35b3480156106f257600080fd5b506106fb61198b565b005b34801561070957600080fd5b50610724600480360381019061071f91906141a5565b61199f565b60405161073191906141d2565b60405180910390f35b34801561074657600080fd5b5061074f6119e7565b60405161075c91906141d2565b60405180910390f35b34801561077157600080fd5b5061077a611a11565b6040516107879190614157565b60405180910390f35b34801561079c57600080fd5b506107b760048036038101906107b291906145dd565b611aa3565b6040516107c49190614259565b60405180910390f35b3480156107d957600080fd5b506107e2611aec565b6040516107ef9190614259565b60405180910390f35b610812600480360381019061080d91906141a5565b611b32565b005b34801561082057600080fd5b5061083b60048036038101906108369190614636565b611eb0565b005b34801561084957600080fd5b50610864600480360381019061085f91906145dd565b611ec6565b6040516108719190614259565b60405180910390f35b34801561088657600080fd5b506108a1600480360381019061089c9190614717565b611ef9565b005b3480156108af57600080fd5b506108ca60048036038101906108c59190614554565b611f5b565b6040516108d79190614259565b60405180910390f35b3480156108ec57600080fd5b50610907600480360381019061090291906141a5565b61200a565b6040516109149190614157565b60405180910390f35b34801561092957600080fd5b50610944600480360381019061093f91906145dd565b612112565b6040516109519190614259565b60405180910390f35b34801561096657600080fd5b50610981600480360381019061097c919061479a565b61215b565b60405161098e9190614259565b60405180910390f35b3480156109a357600080fd5b506109ac6121a4565b6040516109b99190614259565b60405180910390f35b3480156109ce57600080fd5b506109d76121ae565b6040516109e49190614259565b60405180910390f35b3480156109f957600080fd5b50610a146004803603810190610a0f91906147c7565b6121f2565b604051610a2191906140ac565b60405180910390f35b348015610a3657600080fd5b50610a516004803603810190610a4c91906145dd565b612286565b005b600033905090565b6000610a71670906097c4322416c60c01b612309565b610a85670217d9964d34cc6060c01b612309565b610a99673387cea022e79d1960c01b612309565b610aa28261230c565b9050919050565b606060008054610ab890614836565b80601f0160208091040260200160405190810160405280929190818152602001828054610ae490614836565b8015610b315780601f10610b0657610100808354040283529160200191610b31565b820191906000526020600020905b815481529060010190602001808311610b1457829003601f168201915b5050505050905090565b6000610b4682612386565b6004600083815260200190815260200160002060009054906101000a900473ffffffffffffffffffffffffffffffffffffffff169050919050565b6000610b8c82611780565b90508073ffffffffffffffffffffffffffffffffffffffff168373ffffffffffffffffffffffffffffffffffffffff1603610bfc576040517f08c379a0000000000000000000000000000000000000000000000000000000008152600401610bf3906148d9565b60405180910390fd5b8073ffffffffffffffffffffffffffffffffffffffff16610c1b610a53565b73ffffffffffffffffffffffffffffffffffffffff161480610c4a5750610c4981610c44610a53565b6121f2565b5b610c89576040517f08c379a0000000000000000000000000000000000000000000000000000000008152600401610c809061496b565b60405180910390fd5b610c9383836123d1565b505050565b6000600880549050905090565b6000600e60008373ffffffffffffffffffffffffffffffffffffffff1673ffffffffffffffffffffffffffffffffffffffff1681526020019081526020016000205411610d27576040517f08c379a0000000000000000000000000000000000000000000000000000000008152600401610d1e906149fd565b60405180910390fd5b6000610d3282611ec6565b905060008103610d77576040517f08c379a0000000000000000000000000000000000000000000000000000000008152600401610d6e90614a8f565b60405180910390fd5b80600d6000828254610d899190614ade565b9250508190555080600f60008473ffffffffffffffffffffffffffffffffffffffff1673ffffffffffffffffffffffffffffffffffffffff16815260200190815260200160002060008282540192505081905550610de7828261248a565b7fdf20fd1e76bc69d672e4814fafb2c449bba3a5369d8359adf9e05e6fde87b0568282604051610e18929190614b71565b60405180910390a15050565b610e35610e2f610a53565b8261257e565b610e74576040517f08c379a0000000000000000000000000000000000000000000000000000000008152600401610e6b90614c0c565b60405180910390fd5b610e7f838383612613565b505050565b6000806000600b60008681526020019081526020016000206040518060400160405290816000820160009054906101000a900473ffffffffffffffffffffffffffffffffffffffff1673ffffffffffffffffffffffffffffffffffffffff1673ffffffffffffffffffffffffffffffffffffffff1681526020016000820160149054906101000a90046bffffffffffffffffffffffff166bffffffffffffffffffffffff166bffffffffffffffffffffffff16815250509050600073ffffffffffffffffffffffffffffffffffffffff16816000015173ffffffffffffffffffffffffffffffffffffffff160361101957600a6040518060400160405290816000820160009054906101000a900473ffffffffffffffffffffffffffffffffffffffff1673ffffffffffffffffffffffffffffffffffffffff1673ffffffffffffffffffffffffffffffffffffffff1681526020016000820160149054906101000a90046bffffffffffffffffffffffff166bffffffffffffffffffffffff166bffffffffffffffffffffffff168152505090505b600061102361290c565b6bffffffffffffffffffffffff1682602001516bffffffffffffffffffffffff168661104f9190614c2c565b6110599190614c9d565b90508160000151819350935050509250929050565b6110826792c03493ec373bb760c01b612309565b61108a612916565b61109e67c1a93ddb3cc2a10a60c01b612309565b6110b2674ad93aabc98c072e60c01b612309565b6110c6670a4883b8575bc21f60c01b612309565b826014819055506110e1673e25b0b31c36056b60c01b612309565b816017819055506110fc671016124e600183d660c01b612309565b806015908161110b9190614e70565b50611120678ce9339aae41197a60c01b612309565b611134674d986c949bbedfcd60c01b612309565b611140306101f4612994565b505050565b600061115083611806565b8210611191576040517f08c379a000000000000000000000000000000000000000000000000000000000815260040161118890614fb4565b60405180910390fd5b600660008473ffffffffffffffffffffffffffffffffffffffff1673ffffffffffffffffffffffffffffffffffffffff168152602001908152602001600020600083815260200190815260200160002054905092915050565b6000600c54905090565b6000601260008473ffffffffffffffffffffffffffffffffffffffff1673ffffffffffffffffffffffffffffffffffffffff16815260200190815260200160002060008373ffffffffffffffffffffffffffffffffffffffff1673ffffffffffffffffffffffffffffffffffffffff16815260200190815260200160002054905092915050565b61129683838360405180602001604052806000815250611ef9565b505050565b6000600e60008373ffffffffffffffffffffffffffffffffffffffff1673ffffffffffffffffffffffffffffffffffffffff168152602001908152602001600020541161131d576040517f08c379a0000000000000000000000000000000000000000000000000000000008152600401611314906149fd565b60405180910390fd5b60006113298383611f5b565b90506000810361136e576040517f08c379a000000000000000000000000000000000000000000000000000000000815260040161136590614a8f565b60405180910390fd5b80601160008573ffffffffffffffffffffffffffffffffffffffff1673ffffffffffffffffffffffffffffffffffffffff16815260200190815260200160002060008282546113bd9190614ade565b9250508190555080601260008573ffffffffffffffffffffffffffffffffffffffff1673ffffffffffffffffffffffffffffffffffffffff16815260200190815260200160002060008473ffffffffffffffffffffffffffffffffffffffff1673ffffffffffffffffffffffffffffffffffffffff16815260200190815260200160002060008282540192505081905550611459838383612b29565b8273ffffffffffffffffffffffffffffffffffffffff167f3be5b7a71e84ed12875d241991c70855ac5817d847039e17a9d895c1ceb0f18a83836040516114a1929190613fcf565b60405180910390a2505050565b60006114c4673960a7cf5f3380e660c01b612309565b6114d867c9dc5e5c326ee47560c01b612309565b6114ec67e147166e8143d5d460c01b612309565b601454905090565b60006114fe610c98565b821061153f576040517f08c379a000000000000000000000000000000000000000000000000000000000815260040161153690615046565b60405180910390fd5b6008828154811061155357611552615066565b5b90600052602060002001549050919050565b611579673fb2be744c2252d360c01b612309565b611581612916565b6115956775faaf001c1add2c60c01b612309565b6115a967ce8539d40a8f7eae60c01b612309565b6115bd67774f97480ddfe7cb60c01b612309565b6115d1674ee17f65bbc1e10560c01b612309565b6000601580546115e090614836565b80601f016020809104026020016040519081016040528092919081815260200182805461160c90614836565b80156116595780601f1061162e57610100808354040283529160200191611659565b820191906000526020600020905b81548152906001019060200180831161163c57829003601f168201915b50505050509050611674672726c8111d1f374460c01b612309565b81601590816116839190614e70565b506116986789f2b9849e2ad39360c01b612309565b6116ac67cc0bb00f04341abf60c01b612309565b7fc41b7cb64e5be01af4afc2641afc861432136270f4206b7773f229b658b9669982826040516116dd929190615095565b60405180910390a15050565b6116fd675eacd304f91c206c60c01b612309565b61171167291aec04affcd16760c01b612309565b61172567b4923a7807a8b5a160c01b612309565b60005b600281101561177d5761174567e0e4afa644df842d60c01b612309565b61175967097b6898947946f360c01b612309565b61176a6117658261199f565b610ca5565b8080611775906150cc565b915050611728565b50565b60008061178c83612baf565b9050600073ffffffffffffffffffffffffffffffffffffffff168173ffffffffffffffffffffffffffffffffffffffff16036117fd576040517f08c379a00000000000000000000000000000000000000000000000000000000081526004016117f490615160565b60405180910390fd5b80915050919050565b60008073ffffffffffffffffffffffffffffffffffffffff168273ffffffffffffffffffffffffffffffffffffffff1603611876576040517f08c379a000000000000000000000000000000000000000000000000000000000815260040161186d906151f2565b60405180910390fd5b600360008373ffffffffffffffffffffffffffffffffffffffff1673ffffffffffffffffffffffffffffffffffffffff168152602001908152602001600020549050919050565b60606118d367b5bf39727baef38360c01b612309565b6118e7677b835d88718bb26660c01b612309565b6118fb6770c64e922a45539b60c01b612309565b6015805461190890614836565b80601f016020809104026020016040519081016040528092919081815260200182805461193490614836565b80156119815780601f1061195657610100808354040283529160200191611981565b820191906000526020600020905b81548152906001019060200180831161196457829003601f168201915b5050505050905090565b611993612916565b61199d6000612bec565b565b6000601082815481106119b5576119b4615066565b5b9060005260206000200160009054906101000a900473ffffffffffffffffffffffffffffffffffffffff169050919050565b6000601360009054906101000a900473ffffffffffffffffffffffffffffffffffffffff16905090565b606060018054611a2090614836565b80601f0160208091040260200160405190810160405280929190818152602001828054611a4c90614836565b8015611a995780601f10611a6e57610100808354040283529160200191611a99565b820191906000526020600020905b815481529060010190602001808311611a7c57829003601f168201915b5050505050905090565b6000600f60008373ffffffffffffffffffffffffffffffffffffffff1673ffffffffffffffffffffffffffffffffffffffff168152602001908152602001600020549050919050565b6000611b026748f7ea1b334a603660c01b612309565b611b1667477ceba3a9d7730160c01b612309565b611b2a6766b0c306785870d760c01b612309565b601754905090565b611b466796db5c076e7b8ec560c01b612309565b611b5a67ecbd4402c6380de260c01b612309565b611b6e67aacaeaeb01e650d960c01b612309565b611b8267324b85594151458260c01b612309565b60145481611b8e610c98565b611b989190614ade565b1115611bd9576040517f08c379a0000000000000000000000000000000000000000000000000000000008152600401611bd09061525e565b60405180910390fd5b611bed677b0086b05cf7194960c01b612309565b611c0167fc098fe9444046d660c01b612309565b611c156753b7726dd95ad62360c01b612309565b611c2967d4768baa841d129560c01b612309565b7f000000000000000000000000000000000000000000000000000000000000000060ff16811115611c8f576040517f08c379a0000000000000000000000000000000000000000000000000000000008152600401611c86906152ca565b60405180910390fd5b611ca367bc9ba2d7f071da8460c01b612309565b611cb767028be68dc8a1aa0460c01b612309565b611ccb672f03de7c5693a64a60c01b612309565b611cdf67a235273c63449ec860c01b612309565b60175481611ced9190614c2c565b341015611d2f576040517f08c379a0000000000000000000000000000000000000000000000000000000008152600401611d2690615336565b60405180910390fd5b611d4367087b7f950718df7760c01b612309565b611d5767b364b0e0e45b544060c01b612309565b611d6b673384d46bd10b60dc60c01b612309565b6000611d8167daa9d6216d0377b460c01b612309565b611d956708f1f9c81e3978e960c01b612309565b60005b82811015611e3557611db467904340fad8a9ed1f60c01b612309565b611dbe6016612cb2565b9150611dd467272651000870e9a860c01b612309565b611de867a4052fee32cf9bc560c01b612309565b611df26016612cc0565b611e0667cbde7742106802f860c01b612309565b611e1a67f83f86ef7ea8dc8260c01b612309565b611e243383612cd6565b80611e2e906150cc565b9050611d98565b50611e4a67d5cc3506825172ea60c01b612309565b611e5e675f67caa536be63d060c01b612309565b3373ffffffffffffffffffffffffffffffffffffffff167f0f6798a560793a54c3bcfe86a93cde1e73087d944c0ea20544137d412139688582604051611ea49190614259565b60405180910390a25050565b611ec2611ebb610a53565b8383612cf4565b5050565b600080611ed16121a4565b47611edc9190614ade565b9050611ef18382611eec86611aa3565b612e60565b915050919050565b611f0a611f04610a53565b8361257e565b611f49576040517f08c379a0000000000000000000000000000000000000000000000000000000008152600401611f4090614c0c565b60405180910390fd5b611f5584848484612ece565b50505050565b600080611f678461215b565b8473ffffffffffffffffffffffffffffffffffffffff166370a08231306040518263ffffffff1660e01b8152600401611fa091906141d2565b602060405180830381865afa158015611fbd573d6000803e3d6000fd5b505050506040513d601f19601f82011682018060405250810190611fe1919061536b565b611feb9190614ade565b90506120018382611ffc87876111f4565b612e60565b91505092915050565b6060612020675f70bb11486790aa60c01b612309565b6120346754078a96b96e952f60c01b612309565b61204867b1664a87bc0c8c3e60c01b612309565b61205c67e1299e532158234960c01b612309565b61206582612f2a565b6120a4576040517f08c379a000000000000000000000000000000000000000000000000000000000815260040161209b906153e4565b60405180910390fd5b6120b8676ebe9635685a2b3360c01b612309565b6120cc67d1b7c25ba48d665c60c01b612309565b6120e0679b749e6899dc4ba860c01b612309565b60156120eb83612f6b565b6040516020016120fc92919061550f565b6040516020818303038152906040529050919050565b6000600e60008373ffffffffffffffffffffffffffffffffffffffff1673ffffffffffffffffffffffffffffffffffffffff168152602001908152602001600020549050919050565b6000601160008373ffffffffffffffffffffffffffffffffffffffff1673ffffffffffffffffffffffffffffffffffffffff168152602001908152602001600020549050919050565b6000600d54905090565b60006121c366c8768c1346e22e60c01b612309565b6121d7679a148525023ad64160c01b612309565b6121eb67e120413bcb58ad9b60c01b612309565b6032905090565b6000600560008473ffffffffffffffffffffffffffffffffffffffff1673ffffffffffffffffffffffffffffffffffffffff16815260200190815260200160002060008373ffffffffffffffffffffffffffffffffffffffff1673ffffffffffffffffffffffffffffffffffffffff16815260200190815260200160002060009054906101000a900460ff16905092915050565b61228e612916565b600073ffffffffffffffffffffffffffffffffffffffff168173ffffffffffffffffffffffffffffffffffffffff16036122fd576040517f08c379a00000000000000000000000000000000000000000000000000000000081526004016122f4906155b0565b60405180910390fd5b61230681612bec565b50565b50565b60007f2a55205a000000000000000000000000000000000000000000000000000000007bffffffffffffffffffffffffffffffffffffffffffffffffffffffff1916827bffffffffffffffffffffffffffffffffffffffffffffffffffffffff1916148061237f575061237e82613039565b5b9050919050565b61238f81612f2a565b6123ce576040517f08c379a00000000000000000000000000000000000000000000000000000000081526004016123c590615160565b60405180910390fd5b50565b816004600083815260200190815260200160002060006101000a81548173ffffffffffffffffffffffffffffffffffffffff021916908373ffffffffffffffffffffffffffffffffffffffff160217905550808273ffffffffffffffffffffffffffffffffffffffff1661244483611780565b73ffffffffffffffffffffffffffffffffffffffff167f8c5be1e5ebec7d5bd14f71427d1e84f3dd0314c0f7b2291e5b200ac8c7c3b92560405160405180910390a45050565b804710156124cd576040517f08c379a00000000000000000000000000000000000000000000000000000000081526004016124c49061561c565b60405180910390fd5b60008273ffffffffffffffffffffffffffffffffffffffff16826040516124f39061566d565b60006040518083038185875af1925050503d8060008114612530576040519150601f19603f3d011682016040523d82523d6000602084013e612535565b606091505b5050905080612579576040517f08c379a0000000000000000000000000000000000000000000000000000000008152600401612570906156f4565b60405180910390fd5b505050565b60008061258a83611780565b90508073ffffffffffffffffffffffffffffffffffffffff168473ffffffffffffffffffffffffffffffffffffffff1614806125cc57506125cb81856121f2565b5b8061260a57508373ffffffffffffffffffffffffffffffffffffffff166125f284610b3b565b73ffffffffffffffffffffffffffffffffffffffff16145b91505092915050565b8273ffffffffffffffffffffffffffffffffffffffff1661263382611780565b73ffffffffffffffffffffffffffffffffffffffff1614612689576040517f08c379a000000000000000000000000000000000000000000000000000000000815260040161268090615786565b60405180910390fd5b600073ffffffffffffffffffffffffffffffffffffffff168273ffffffffffffffffffffffffffffffffffffffff16036126f8576040517f08c379a00000000000000000000000000000000000000000000000000000000081526004016126ef90615818565b60405180910390fd5b61270583838360016130b3565b8273ffffffffffffffffffffffffffffffffffffffff1661272582611780565b73ffffffffffffffffffffffffffffffffffffffff161461277b576040517f08c379a000000000000000000000000000000000000000000000000000000000815260040161277290615786565b60405180910390fd5b6004600082815260200190815260200160002060006101000a81549073ffffffffffffffffffffffffffffffffffffffff02191690556001600360008573ffffffffffffffffffffffffffffffffffffffff1673ffffffffffffffffffffffffffffffffffffffff168152602001908152602001600020600082825403925050819055506001600360008473ffffffffffffffffffffffffffffffffffffffff1673ffffffffffffffffffffffffffffffffffffffff16815260200190815260200160002060008282540192505081905550816002600083815260200190815260200160002060006101000a81548173ffffffffffffffffffffffffffffffffffffffff021916908373ffffffffffffffffffffffffffffffffffffffff160217905550808273ffffffffffffffffffffffffffffffffffffffff168473ffffffffffffffffffffffffffffffffffffffff167fddf252ad1be2c89b69c2b068fc378daa952ba7f163c4a11628f55a4df523b3ef60405160405180910390a46129078383836001613211565b505050565b6000612710905090565b61291e610a53565b73ffffffffffffffffffffffffffffffffffffffff1661293c6119e7565b73ffffffffffffffffffffffffffffffffffffffff1614612992576040517f08c379a000000000000000000000000000000000000000000000000000000000815260040161298990615884565b60405180910390fd5b565b61299c61290c565b6bffffffffffffffffffffffff16816bffffffffffffffffffffffff1611156129fa576040517f08c379a00000000000000000000000000000000000000000000000000000000081526004016129f190615916565b60405180910390fd5b600073ffffffffffffffffffffffffffffffffffffffff168273ffffffffffffffffffffffffffffffffffffffff1603612a69576040517f08c379a0000000000000000000000000000000000000000000000000000000008152600401612a6090615982565b60405180910390fd5b60405180604001604052808373ffffffffffffffffffffffffffffffffffffffff168152602001826bffffffffffffffffffffffff16815250600a60008201518160000160006101000a81548173ffffffffffffffffffffffffffffffffffffffff021916908373ffffffffffffffffffffffffffffffffffffffff16021790555060208201518160000160146101000a8154816bffffffffffffffffffffffff02191690836bffffffffffffffffffffffff1602179055509050505050565b612baa8363a9059cbb60e01b8484604051602401612b48929190613fcf565b604051602081830303815290604052907bffffffffffffffffffffffffffffffffffffffffffffffffffffffff19166020820180517bffffffffffffffffffffffffffffffffffffffffffffffffffffffff8381831617835250505050613217565b505050565b60006002600083815260200190815260200160002060009054906101000a900473ffffffffffffffffffffffffffffffffffffffff169050919050565b6000601360009054906101000a900473ffffffffffffffffffffffffffffffffffffffff16905081601360006101000a81548173ffffffffffffffffffffffffffffffffffffffff021916908373ffffffffffffffffffffffffffffffffffffffff1602179055508173ffffffffffffffffffffffffffffffffffffffff168173ffffffffffffffffffffffffffffffffffffffff167f8be0079c531659141344cd1fd0a4f28419497f9722a3daafe3b4186f6b6457e060405160405180910390a35050565b600081600001549050919050565b6001816000016000828254019250508190555050565b612cf08282604051806020016040528060008152506132de565b5050565b8173ffffffffffffffffffffffffffffffffffffffff168373ffffffffffffffffffffffffffffffffffffffff1603612d62576040517f08c379a0000000000000000000000000000000000000000000000000000000008152600401612d59906159ee565b60405180910390fd5b80600560008573ffffffffffffffffffffffffffffffffffffffff1673ffffffffffffffffffffffffffffffffffffffff16815260200190815260200160002060008473ffffffffffffffffffffffffffffffffffffffff1673ffffffffffffffffffffffffffffffffffffffff16815260200190815260200160002060006101000a81548160ff0219169083151502179055508173ffffffffffffffffffffffffffffffffffffffff168373ffffffffffffffffffffffffffffffffffffffff167f17307eab39ab6107e8899845ad3d59bd9653f200f220920489ca2b5937696c3183604051612e5391906140ac565b60405180910390a3505050565b600081600c54600e60008773ffffffffffffffffffffffffffffffffffffffff1673ffffffffffffffffffffffffffffffffffffffff1681526020019081526020016000205485612eb19190614c2c565b612ebb9190614c9d565b612ec59190615a0e565b90509392505050565b612ed9848484612613565b612ee584848484613339565b612f24576040517f08c379a0000000000000000000000000000000000000000000000000000000008152600401612f1b90615ab4565b60405180910390fd5b50505050565b60008073ffffffffffffffffffffffffffffffffffffffff16612f4c83612baf565b73ffffffffffffffffffffffffffffffffffffffff1614159050919050565b606060006001612f7a846134c0565b01905060008167ffffffffffffffff811115612f9957612f9861437c565b5b6040519080825280601f01601f191660200182016040528015612fcb5781602001600182028036833780820191505090505b509050600082602001820190505b60011561302e578080600190039150507f3031323334353637383961626364656600000000000000000000000000000000600a86061a8153600a858161302257613021614c6e565b5b04945060008503612fd9575b819350505050919050565b60007f780e9d63000000000000000000000000000000000000000000000000000000007bffffffffffffffffffffffffffffffffffffffffffffffffffffffff1916827bffffffffffffffffffffffffffffffffffffffffffffffffffffffff191614806130ac57506130ab82613613565b5b9050919050565b6130bf848484846136f5565b6001811115613103576040517f08c379a00000000000000000000000000000000000000000000000000000000081526004016130fa90615b46565b60405180910390fd5b6000829050600073ffffffffffffffffffffffffffffffffffffffff168573ffffffffffffffffffffffffffffffffffffffff160361314a576131458161381b565b613189565b8373ffffffffffffffffffffffffffffffffffffffff168573ffffffffffffffffffffffffffffffffffffffff1614613188576131878582613864565b5b5b600073ffffffffffffffffffffffffffffffffffffffff168473ffffffffffffffffffffffffffffffffffffffff16036131cb576131c6816139d1565b61320a565b8473ffffffffffffffffffffffffffffffffffffffff168473ffffffffffffffffffffffffffffffffffffffff1614613209576132088482613aa2565b5b5b5050505050565b50505050565b6000613279826040518060400160405280602081526020017f5361666545524332303a206c6f772d6c6576656c2063616c6c206661696c65648152508573ffffffffffffffffffffffffffffffffffffffff16613b219092919063ffffffff16565b90506000815111156132d957808060200190518101906132999190615b7b565b6132d8576040517f08c379a00000000000000000000000000000000000000000000000000000000081526004016132cf90615c1a565b60405180910390fd5b5b505050565b6132e88383613b39565b6132f56000848484613339565b613334576040517f08c379a000000000000000000000000000000000000000000000000000000000815260040161332b90615ab4565b60405180910390fd5b505050565b600061335a8473ffffffffffffffffffffffffffffffffffffffff16613d56565b156134b3578373ffffffffffffffffffffffffffffffffffffffff1663150b7a02613383610a53565b8786866040518563ffffffff1660e01b81526004016133a59493929190615c8f565b6020604051808303816000875af19250505080156133e157506040513d601f19601f820116820180604052508101906133de9190615cf0565b60015b613463573d8060008114613411576040519150601f19603f3d011682016040523d82523d6000602084013e613416565b606091505b50600081510361345b576040517f08c379a000000000000000000000000000000000000000000000000000000000815260040161345290615ab4565b60405180910390fd5b805181602001fd5b63150b7a0260e01b7bffffffffffffffffffffffffffffffffffffffffffffffffffffffff1916817bffffffffffffffffffffffffffffffffffffffffffffffffffffffff1916149150506134b8565b600190505b949350505050565b600080600090507a184f03e93ff9f4daa797ed6e38ed64bf6a1f010000000000000000831061351e577a184f03e93ff9f4daa797ed6e38ed64bf6a1f010000000000000000838161351457613513614c6e565b5b0492506040810190505b6d04ee2d6d415b85acef8100000000831061355b576d04ee2d6d415b85acef8100000000838161355157613550614c6e565b5b0492506020810190505b662386f26fc10000831061358a57662386f26fc1000083816135805761357f614c6e565b5b0492506010810190505b6305f5e10083106135b3576305f5e10083816135a9576135a8614c6e565b5b0492506008810190505b61271083106135d85761271083816135ce576135cd614c6e565b5b0492506004810190505b606483106135fb57606483816135f1576135f0614c6e565b5b0492506002810190505b600a831061360a576001810190505b80915050919050565b60007f80ac58cd000000000000000000000000000000000000000000000000000000007bffffffffffffffffffffffffffffffffffffffffffffffffffffffff1916827bffffffffffffffffffffffffffffffffffffffffffffffffffffffff191614806136de57507f5b5e139f000000000000000000000000000000000000000000000000000000007bffffffffffffffffffffffffffffffffffffffffffffffffffffffff1916827bffffffffffffffffffffffffffffffffffffffffffffffffffffffff1916145b806136ee57506136ed82613d79565b5b9050919050565b600181111561381557600073ffffffffffffffffffffffffffffffffffffffff168473ffffffffffffffffffffffffffffffffffffffff16146137895780600360008673ffffffffffffffffffffffffffffffffffffffff1673ffffffffffffffffffffffffffffffffffffffff16815260200190815260200160002060008282546137819190615a0e565b925050819055505b600073ffffffffffffffffffffffffffffffffffffffff168373ffffffffffffffffffffffffffffffffffffffff16146138145780600360008573ffffffffffffffffffffffffffffffffffffffff1673ffffffffffffffffffffffffffffffffffffffff168152602001908152602001600020600082825461380c9190614ade565b925050819055505b5b50505050565b6008805490506009600083815260200190815260200160002081905550600881908060018154018082558091505060019003906000526020600020016000909190919091505550565b6000600161387184611806565b61387b9190615a0e565b9050600060076000848152602001908152602001600020549050818114613960576000600660008673ffffffffffffffffffffffffffffffffffffffff1673ffffffffffffffffffffffffffffffffffffffff168152602001908152602001600020600084815260200190815260200160002054905080600660008773ffffffffffffffffffffffffffffffffffffffff1673ffffffffffffffffffffffffffffffffffffffff168152602001908152602001600020600084815260200190815260200160002081905550816007600083815260200190815260200160002081905550505b6007600084815260200190815260200160002060009055600660008573ffffffffffffffffffffffffffffffffffffffff1673ffffffffffffffffffffffffffffffffffffffff16815260200190815260200160002060008381526020019081526020016000206000905550505050565b600060016008805490506139e59190615a0e565b9050600060096000848152602001908152602001600020549050600060088381548110613a1557613a14615066565b5b906000526020600020015490508060088381548110613a3757613a36615066565b5b906000526020600020018190555081600960008381526020019081526020016000208190555060096000858152602001908152602001600020600090556008805480613a8657613a85615d1d565b5b6001900381819060005260206000200160009055905550505050565b6000613aad83611806565b905081600660008573ffffffffffffffffffffffffffffffffffffffff1673ffffffffffffffffffffffffffffffffffffffff168152602001908152602001600020600083815260200190815260200160002081905550806007600084815260200190815260200160002081905550505050565b6060613b308484600085613de3565b90509392505050565b600073ffffffffffffffffffffffffffffffffffffffff168273ffffffffffffffffffffffffffffffffffffffff1603613ba8576040517f08c379a0000000000000000000000000000000000000000000000000000000008152600401613b9f90615d98565b60405180910390fd5b613bb181612f2a565b15613bf1576040517f08c379a0000000000000000000000000000000000000000000000000000000008152600401613be890615e04565b60405180910390fd5b613bff6000838360016130b3565b613c0881612f2a565b15613c48576040517f08c379a0000000000000000000000000000000000000000000000000000000008152600401613c3f90615e04565b60405180910390fd5b6001600360008473ffffffffffffffffffffffffffffffffffffffff1673ffffffffffffffffffffffffffffffffffffffff16815260200190815260200160002060008282540192505081905550816002600083815260200190815260200160002060006101000a81548173ffffffffffffffffffffffffffffffffffffffff021916908373ffffffffffffffffffffffffffffffffffffffff160217905550808273ffffffffffffffffffffffffffffffffffffffff16600073ffffffffffffffffffffffffffffffffffffffff167fddf252ad1be2c89b69c2b068fc378daa952ba7f163c4a11628f55a4df523b3ef60405160405180910390a4613d52600083836001613211565b5050565b6000808273ffffffffffffffffffffffffffffffffffffffff163b119050919050565b60007f01ffc9a7000000000000000000000000000000000000000000000000000000007bffffffffffffffffffffffffffffffffffffffffffffffffffffffff1916827bffffffffffffffffffffffffffffffffffffffffffffffffffffffff1916149050919050565b606082471015613e28576040517f08c379a0000000000000000000000000000000000000000000000000000000008152600401613e1f90615e96565b60405180910390fd5b6000808673ffffffffffffffffffffffffffffffffffffffff168587604051613e519190615ee7565b60006040518083038185875af1925050503d8060008114613e8e576040519150601f19603f3d011682016040523d82523d6000602084013e613e93565b606091505b5091509150613ea487838387613eb0565b92505050949350505050565b60608315613f12576000835103613f0a57613eca85613d56565b613f09576040517f08c379a0000000000000000000000000000000000000000000000000000000008152600401613f0090615f4a565b60405180910390fd5b5b829050613f1d565b613f1c8383613f25565b5b949350505050565b600082511115613f385781518083602001fd5b806040517f08c379a0000000000000000000000000000000000000000000000000000000008152600401613f6c9190614157565b60405180910390fd5b600073ffffffffffffffffffffffffffffffffffffffff82169050919050565b6000613fa082613f75565b9050919050565b613fb081613f95565b82525050565b6000819050919050565b613fc981613fb6565b82525050565b6000604082019050613fe46000830185613fa7565b613ff16020830184613fc0565b9392505050565b6000604051905090565b600080fd5b600080fd5b60007fffffffff0000000000000000000000000000000000000000000000000000000082169050919050565b6140418161400c565b811461404c57600080fd5b50565b60008135905061405e81614038565b92915050565b60006020828403121561407a57614079614002565b5b60006140888482850161404f565b91505092915050565b60008115159050919050565b6140a681614091565b82525050565b60006020820190506140c1600083018461409d565b92915050565b600081519050919050565b600082825260208201905092915050565b60005b838110156141015780820151818401526020810190506140e6565b60008484015250505050565b6000601f19601f8301169050919050565b6000614129826140c7565b61413381856140d2565b93506141438185602086016140e3565b61414c8161410d565b840191505092915050565b60006020820190508181036000830152614171818461411e565b905092915050565b61418281613fb6565b811461418d57600080fd5b50565b60008135905061419f81614179565b92915050565b6000602082840312156141bb576141ba614002565b5b60006141c984828501614190565b91505092915050565b60006020820190506141e76000830184613fa7565b92915050565b6141f681613f95565b811461420157600080fd5b50565b600081359050614213816141ed565b92915050565b600080604083850312156142305761422f614002565b5b600061423e85828601614204565b925050602061424f85828601614190565b9150509250929050565b600060208201905061426e6000830184613fc0565b92915050565b600061427f82613f75565b9050919050565b61428f81614274565b811461429a57600080fd5b50565b6000813590506142ac81614286565b92915050565b6000602082840312156142c8576142c7614002565b5b60006142d68482850161429d565b91505092915050565b6000806000606084860312156142f8576142f7614002565b5b600061430686828701614204565b935050602061431786828701614204565b925050604061432886828701614190565b9150509250925092565b6000806040838503121561434957614348614002565b5b600061435785828601614190565b925050602061436885828601614190565b9150509250929050565b600080fd5b600080fd5b7f4e487b7100000000000000000000000000000000000000000000000000000000600052604160045260246000fd5b6143b48261410d565b810181811067ffffffffffffffff821117156143d3576143d261437c565b5b80604052505050565b60006143e6613ff8565b90506143f282826143ab565b919050565b600067ffffffffffffffff8211156144125761441161437c565b5b61441b8261410d565b9050602081019050919050565b82818337600083830152505050565b600061444a614445846143f7565b6143dc565b90508281526020810184848401111561446657614465614377565b5b614471848285614428565b509392505050565b600082601f83011261448e5761448d614372565b5b813561449e848260208601614437565b91505092915050565b6000806000606084860312156144c0576144bf614002565b5b60006144ce86828701614190565b93505060206144df86828701614190565b925050604084013567ffffffffffffffff811115614500576144ff614007565b5b61450c86828701614479565b9150509250925092565b600061452182613f95565b9050919050565b61453181614516565b811461453c57600080fd5b50565b60008135905061454e81614528565b92915050565b6000806040838503121561456b5761456a614002565b5b60006145798582860161453f565b925050602061458a85828601614204565b9150509250929050565b6000602082840312156145aa576145a9614002565b5b600082013567ffffffffffffffff8111156145c8576145c7614007565b5b6145d484828501614479565b91505092915050565b6000602082840312156145f3576145f2614002565b5b600061460184828501614204565b91505092915050565b61461381614091565b811461461e57600080fd5b50565b6000813590506146308161460a565b92915050565b6000806040838503121561464d5761464c614002565b5b600061465b85828601614204565b925050602061466c85828601614621565b9150509250929050565b600067ffffffffffffffff8211156146915761469061437c565b5b61469a8261410d565b9050602081019050919050565b60006146ba6146b584614676565b6143dc565b9050828152602081018484840111156146d6576146d5614377565b5b6146e1848285614428565b509392505050565b600082601f8301126146fe576146fd614372565b5b813561470e8482602086016146a7565b91505092915050565b6000806000806080858703121561473157614730614002565b5b600061473f87828801614204565b945050602061475087828801614204565b935050604061476187828801614190565b925050606085013567ffffffffffffffff81111561478257614781614007565b5b61478e878288016146e9565b91505092959194509250565b6000602082840312156147b0576147af614002565b5b60006147be8482850161453f565b91505092915050565b600080604083850312156147de576147dd614002565b5b60006147ec85828601614204565b92505060206147fd85828601614204565b9150509250929050565b7f4e487b7100000000000000000000000000000000000000000000000000000000600052602260045260246000fd5b6000600282049050600182168061484e57607f821691505b60208210810361486157614860614807565b5b50919050565b7f4552433732313a20617070726f76616c20746f2063757272656e74206f776e6560008201527f7200000000000000000000000000000000000000000000000000000000000000602082015250565b60006148c36021836140d2565b91506148ce82614867565b604082019050919050565b600060208201905081810360008301526148f2816148b6565b9050919050565b7f4552433732313a20617070726f76652063616c6c6572206973206e6f7420746f60008201527f6b656e206f776e6572206f7220617070726f76656420666f7220616c6c000000602082015250565b6000614955603d836140d2565b9150614960826148f9565b604082019050919050565b6000602082019050818103600083015261498481614948565b9050919050565b7f5061796d656e7453706c69747465723a206163636f756e7420686173206e6f2060008201527f7368617265730000000000000000000000000000000000000000000000000000602082015250565b60006149e76026836140d2565b91506149f28261498b565b604082019050919050565b60006020820190508181036000830152614a16816149da565b9050919050565b7f5061796d656e7453706c69747465723a206163636f756e74206973206e6f742060008201527f647565207061796d656e74000000000000000000000000000000000000000000602082015250565b6000614a79602b836140d2565b9150614a8482614a1d565b604082019050919050565b60006020820190508181036000830152614aa881614a6c565b9050919050565b7f4e487b7100000000000000000000000000000000000000000000000000000000600052601160045260246000fd5b6000614ae982613fb6565b9150614af483613fb6565b9250828201905080821115614b0c57614b0b614aaf565b5b92915050565b6000819050919050565b6000614b37614b32614b2d84613f75565b614b12565b613f75565b9050919050565b6000614b4982614b1c565b9050919050565b6000614b5b82614b3e565b9050919050565b614b6b81614b50565b82525050565b6000604082019050614b866000830185614b62565b614b936020830184613fc0565b9392505050565b7f4552433732313a2063616c6c6572206973206e6f7420746f6b656e206f776e6560008201527f72206f7220617070726f76656400000000000000000000000000000000000000602082015250565b6000614bf6602d836140d2565b9150614c0182614b9a565b604082019050919050565b60006020820190508181036000830152614c2581614be9565b9050919050565b6000614c3782613fb6565b9150614c4283613fb6565b9250828202614c5081613fb6565b91508282048414831517614c6757614c66614aaf565b5b5092915050565b7f4e487b7100000000000000000000000000000000000000000000000000000000600052601260045260246000fd5b6000614ca882613fb6565b9150614cb383613fb6565b925082614cc357614cc2614c6e565b5b828204905092915050565b60008190508160005260206000209050919050565b60006020601f8301049050919050565b600082821b905092915050565b600060088302614d307fffffffffffffffffffffffffffffffffffffffffffffffffffffffffffffffff82614cf3565b614d3a8683614cf3565b95508019841693508086168417925050509392505050565b6000614d6d614d68614d6384613fb6565b614b12565b613fb6565b9050919050565b6000819050919050565b614d8783614d52565b614d9b614d9382614d74565b848454614d00565b825550505050565b600090565b614db0614da3565b614dbb818484614d7e565b505050565b5b81811015614ddf57614dd4600082614da8565b600181019050614dc1565b5050565b601f821115614e2457614df581614cce565b614dfe84614ce3565b81016020851015614e0d578190505b614e21614e1985614ce3565b830182614dc0565b50505b505050565b600082821c905092915050565b6000614e4760001984600802614e29565b1980831691505092915050565b6000614e608383614e36565b9150826002028217905092915050565b614e79826140c7565b67ffffffffffffffff811115614e9257614e9161437c565b5b614e9c8254614836565b614ea7828285614de3565b600060209050601f831160018114614eda5760008415614ec8578287015190505b614ed28582614e54565b865550614f3a565b601f198416614ee886614cce565b60005b82811015614f1057848901518255600182019150602085019450602081019050614eeb565b86831015614f2d5784890151614f29601f891682614e36565b8355505b6001600288020188555050505b505050505050565b7f455243373231456e756d657261626c653a206f776e657220696e646578206f7560008201527f74206f6620626f756e6473000000000000000000000000000000000000000000602082015250565b6000614f9e602b836140d2565b9150614fa982614f42565b604082019050919050565b60006020820190508181036000830152614fcd81614f91565b9050919050565b7f455243373231456e756d657261626c653a20676c6f62616c20696e646578206f60008201527f7574206f6620626f756e64730000000000000000000000000000000000000000602082015250565b6000615030602c836140d2565b915061503b82614fd4565b604082019050919050565b6000602082019050818103600083015261505f81615023565b9050919050565b7f4e487b7100000000000000000000000000000000000000000000000000000000600052603260045260246000fd5b600060408201905081810360008301526150af818561411e565b905081810360208301526150c3818461411e565b90509392505050565b60006150d782613fb6565b91507fffffffffffffffffffffffffffffffffffffffffffffffffffffffffffffffff820361510957615108614aaf565b5b600182019050919050565b7f4552433732313a20696e76616c696420746f6b656e2049440000000000000000600082015250565b600061514a6018836140d2565b915061515582615114565b602082019050919050565b600060208201905081810360008301526151798161513d565b9050919050565b7f4552433732313a2061646472657373207a65726f206973206e6f74206120766160008201527f6c6964206f776e65720000000000000000000000000000000000000000000000602082015250565b60006151dc6029836140d2565b91506151e782615180565b604082019050919050565b6000602082019050818103600083015261520b816151cf565b9050919050565b7f536f6c64206f7574000000000000000000000000000000000000000000000000600082015250565b60006152486008836140d2565b915061525382615212565b602082019050919050565b600060208201905081810360008301526152778161523b565b9050919050565b7f4d617820353020706572207472616e73616374696f6e00000000000000000000600082015250565b60006152b46016836140d2565b91506152bf8261527e565b602082019050919050565b600060208201905081810360008301526152e3816152a7565b9050919050565b7f4e6f7420656e6f7567682066756e647300000000000000000000000000000000600082015250565b60006153206010836140d2565b915061532b826152ea565b602082019050919050565b6000602082019050818103600083015261534f81615313565b9050919050565b60008151905061536581614179565b92915050565b60006020828403121561538157615380614002565b5b600061538f84828501615356565b91505092915050565b7f4e6f6e206578697374696e6720746f6b656e0000000000000000000000000000600082015250565b60006153ce6012836140d2565b91506153d982615398565b602082019050919050565b600060208201905081810360008301526153fd816153c1565b9050919050565b600081905092915050565b6000815461541c81614836565b6154268186615404565b94506001821660008114615441576001811461545657615489565b60ff1983168652811515820286019350615489565b61545f85614cce565b60005b8381101561548157815481890152600182019150602081019050615462565b838801955050505b50505092915050565b600061549d826140c7565b6154a78185615404565b93506154b78185602086016140e3565b80840191505092915050565b7f2e6a736f6e000000000000000000000000000000000000000000000000000000600082015250565b60006154f9600583615404565b9150615504826154c3565b600582019050919050565b600061551b828561540f565b91506155278284615492565b9150615532826154ec565b91508190509392505050565b7f4f776e61626c653a206e6577206f776e657220697320746865207a65726f206160008201527f6464726573730000000000000000000000000000000000000000000000000000602082015250565b600061559a6026836140d2565b91506155a58261553e565b604082019050919050565b600060208201905081810360008301526155c98161558d565b9050919050565b7f416464726573733a20696e73756666696369656e742062616c616e6365000000600082015250565b6000615606601d836140d2565b9150615611826155d0565b602082019050919050565b60006020820190508181036000830152615635816155f9565b9050919050565b600081905092915050565b50565b600061565760008361563c565b915061566282615647565b600082019050919050565b60006156788261564a565b9150819050919050565b7f416464726573733a20756e61626c6520746f2073656e642076616c75652c207260008201527f6563697069656e74206d61792068617665207265766572746564000000000000602082015250565b60006156de603a836140d2565b91506156e982615682565b604082019050919050565b6000602082019050818103600083015261570d816156d1565b9050919050565b7f4552433732313a207472616e736665722066726f6d20696e636f72726563742060008201527f6f776e6572000000000000000000000000000000000000000000000000000000602082015250565b60006157706025836140d2565b915061577b82615714565b604082019050919050565b6000602082019050818103600083015261579f81615763565b9050919050565b7f4552433732313a207472616e7366657220746f20746865207a65726f2061646460008201527f7265737300000000000000000000000000000000000000000000000000000000602082015250565b60006158026024836140d2565b915061580d826157a6565b604082019050919050565b60006020820190508181036000830152615831816157f5565b9050919050565b7f4f776e61626c653a2063616c6c6572206973206e6f7420746865206f776e6572600082015250565b600061586e6020836140d2565b915061587982615838565b602082019050919050565b6000602082019050818103600083015261589d81615861565b9050919050565b7f455243323938313a20726f79616c7479206665652077696c6c2065786365656460008201527f2073616c65507269636500000000000000000000000000000000000000000000602082015250565b6000615900602a836140d2565b915061590b826158a4565b604082019050919050565b6000602082019050818103600083015261592f816158f3565b9050919050565b7f455243323938313a20696e76616c696420726563656976657200000000000000600082015250565b600061596c6019836140d2565b915061597782615936565b602082019050919050565b6000602082019050818103600083015261599b8161595f565b9050919050565b7f4552433732313a20617070726f766520746f2063616c6c657200000000000000600082015250565b60006159d86019836140d2565b91506159e3826159a2565b602082019050919050565b60006020820190508181036000830152615a07816159cb565b9050919050565b6000615a1982613fb6565b9150615a2483613fb6565b9250828203905081811115615a3c57615a3b614aaf565b5b92915050565b7f4552433732313a207472616e7366657220746f206e6f6e20455243373231526560008201527f63656976657220696d706c656d656e7465720000000000000000000000000000602082015250565b6000615a9e6032836140d2565b9150615aa982615a42565b604082019050919050565b60006020820190508181036000830152615acd81615a91565b9050919050565b7f455243373231456e756d657261626c653a20636f6e736563757469766520747260008201527f616e7366657273206e6f7420737570706f727465640000000000000000000000602082015250565b6000615b306035836140d2565b9150615b3b82615ad4565b604082019050919050565b60006020820190508181036000830152615b5f81615b23565b9050919050565b600081519050615b758161460a565b92915050565b600060208284031215615b9157615b90614002565b5b6000615b9f84828501615b66565b91505092915050565b7f5361666545524332303a204552433230206f7065726174696f6e20646964206e60008201527f6f74207375636365656400000000000000000000000000000000000000000000602082015250565b6000615c04602a836140d2565b9150615c0f82615ba8565b604082019050919050565b60006020820190508181036000830152615c3381615bf7565b9050919050565b600081519050919050565b600082825260208201905092915050565b6000615c6182615c3a565b615c6b8185615c45565b9350615c7b8185602086016140e3565b615c848161410d565b840191505092915050565b6000608082019050615ca46000830187613fa7565b615cb16020830186613fa7565b615cbe6040830185613fc0565b8181036060830152615cd08184615c56565b905095945050505050565b600081519050615cea81614038565b92915050565b600060208284031215615d0657615d05614002565b5b6000615d1484828501615cdb565b91505092915050565b7f4e487b7100000000000000000000000000000000000000000000000000000000600052603160045260246000fd5b7f4552433732313a206d696e7420746f20746865207a65726f2061646472657373600082015250565b6000615d826020836140d2565b9150615d8d82615d4c565b602082019050919050565b60006020820190508181036000830152615db181615d75565b9050919050565b7f4552433732313a20746f6b656e20616c7265616479206d696e74656400000000600082015250565b6000615dee601c836140d2565b9150615df982615db8565b602082019050919050565b60006020820190508181036000830152615e1d81615de1565b9050919050565b7f416464726573733a20696e73756666696369656e742062616c616e636520666f60008201527f722063616c6c0000000000000000000000000000000000000000000000000000602082015250565b6000615e806026836140d2565b9150615e8b82615e24565b604082019050919050565b60006020820190508181036000830152615eaf81615e73565b9050919050565b6000615ec182615c3a565b615ecb818561563c565b9350615edb8185602086016140e3565b80840191505092915050565b6000615ef38284615eb6565b915081905092915050565b7f416464726573733a2063616c6c20746f206e6f6e2d636f6e7472616374000000600082015250565b6000615f34601d836140d2565b9150615f3f82615efe565b602082019050919050565b60006020820190508181036000830152615f6381615f27565b905091905056fea26469706673582212205577d46a70e0965b7cd308a545e06868d5cc6854f6a618ee0d472ee81e7ca8bf64736f6c63430008110033a264697066735822122086ab37db5854a58cfd2a39e23653b200fdc07c20272743fb4b24650e4990b11564736f6c63430008110033",
  "linkReferences": {},
  "deployedLinkReferences": {}
}