{
  "_format": "hh-sol-artifact-1",
  "contractName": "Factory",
  "sourceName": "contracts/Factory.sol",
  "abi": [
    {
      "anonymous": false,
      "inputs": [
        {
          "indexed": false,
          "internalType": "string",
          "name": "name",
          "type": "string"
        },
        {
          "indexed": true,
          "internalType": "address",
          "name": "addressCollection",
          "type": "address"
        },
        {
          "indexed": false,
          "internalType": "uint256",
          "name": "timestamp",
          "type": "uint256"
        },
        {
          "indexed": true,
          "internalType": "address",
          "name": "seller",
          "type": "address"
        }
      ],
      "name": "CollectionCreated",
      "type": "event"
    },
    {
      "anonymous": false,
      "inputs": [
        {
          "indexed": true,
          "internalType": "address",
          "name": "previousOwner",
          "type": "address"
        },
        {
          "indexed": true,
          "internalType": "address",
          "name": "newOwner",
          "type": "address"
        }
      ],
      "name": "OwnershipTransferred",
      "type": "event"
    },
    {
      "anonymous": false,
      "inputs": [
        {
          "indexed": true,
          "internalType": "address",
          "name": "seller",
          "type": "address"
        },
        {
          "indexed": false,
          "internalType": "string",
          "name": "name",
          "type": "string"
        },
        {
          "indexed": false,
          "internalType": "string",
          "name": "symbol",
          "type": "string"
        }
      ],
      "name": "SubsidiaryAdded",
      "type": "event"
    },
    {
      "anonymous": false,
      "inputs": [
        {
          "indexed": true,
          "internalType": "address",
          "name": "seller",
          "type": "address"
        },
        {
          "indexed": false,
          "internalType": "string",
          "name": "name",
          "type": "string"
        },
        {
          "indexed": false,
          "internalType": "string",
          "name": "symbol",
          "type": "string"
        }
      ],
      "name": "SubsidiaryDeactivated",
      "type": "event"
    },
    {
      "anonymous": false,
      "inputs": [
        {
          "indexed": true,
          "internalType": "address",
          "name": "_seller",
          "type": "address"
        },
        {
          "indexed": false,
          "internalType": "string",
          "name": "_name",
          "type": "string"
        },
        {
          "indexed": false,
          "internalType": "string",
          "name": "_symbol",
          "type": "string"
        }
      ],
      "name": "SubsidiaryUpdated",
      "type": "event"
    },
    {
      "inputs": [
        {
          "internalType": "uint256",
          "name": "_maxSupply",
          "type": "uint256"
        },
        {
          "internalType": "uint256",
          "name": "_price",
          "type": "uint256"
        },
        {
          "internalType": "string",
          "name": "_baseURI",
          "type": "string"
        }
      ],
      "name": "createNFTCollection",
      "outputs": [
        {
          "internalType": "address",
          "name": "collectionAddress",
          "type": "address"
        }
      ],
      "stateMutability": "nonpayable",
      "type": "function"
    },
    {
      "inputs": [
        {
          "internalType": "address",
          "name": "_seller",
          "type": "address"
        }
      ],
      "name": "deactivateSubsidiary",
      "outputs": [],
      "stateMutability": "nonpayable",
      "type": "function"
    },
    {
      "inputs": [
        {
          "internalType": "address",
          "name": "_seller",
          "type": "address"
        }
      ],
      "name": "getSubsidiary",
      "outputs": [
        {
          "components": [
            {
              "internalType": "string",
              "name": "name",
              "type": "string"
            },
            {
              "internalType": "string",
              "name": "symbol",
              "type": "string"
            },
            {
              "internalType": "address[]",
              "name": "team",
              "type": "address[]"
            },
            {
              "internalType": "bool",
              "name": "isActive",
              "type": "bool"
            },
            {
              "internalType": "uint256",
              "name": "counter",
              "type": "uint256"
            }
          ],
          "internalType": "struct Factory.Subsidiary",
          "name": "",
          "type": "tuple"
        }
      ],
      "stateMutability": "view",
      "type": "function"
    },
    {
      "inputs": [],
      "name": "owner",
      "outputs": [
        {
          "internalType": "address",
          "name": "",
          "type": "address"
        }
      ],
      "stateMutability": "view",
      "type": "function"
    },
    {
      "inputs": [],
      "name": "renounceOwnership",
      "outputs": [],
      "stateMutability": "nonpayable",
      "type": "function"
    },
    {
      "inputs": [
        {
          "internalType": "address",
          "name": "_seller",
          "type": "address"
        },
        {
          "internalType": "string",
          "name": "_name",
          "type": "string"
        },
        {
          "internalType": "string",
          "name": "_symbol",
          "type": "string"
        }
      ],
      "name": "setSubsidiary",
      "outputs": [],
      "stateMutability": "nonpayable",
      "type": "function"
    },
    {
      "inputs": [
        {
          "internalType": "address",
          "name": "newOwner",
          "type": "address"
        }
      ],
      "name": "transferOwnership",
      "outputs": [],
      "stateMutability": "nonpayable",
      "type": "function"
    },
    {
      "inputs": [
        {
          "internalType": "address",
          "name": "_seller",
          "type": "address"
        },
        {
          "internalType": "string",
          "name": "_name",
          "type": "string"
        },
        {
          "internalType": "string",
          "name": "_symbol",
          "type": "string"
        }
      ],
      "name": "updateSubsidiary",
      "outputs": [],
      "stateMutability": "nonpayable",
      "type": "function"
    }
  ],
  "bytecode": "0x608060405234801561001057600080fd5b5061001a3361001f565b61006f565b600080546001600160a01b038381166001600160a01b0319831681178455604051919092169283917f8be0079c531659141344cd1fd0a4f28419497f9722a3daafe3b4186f6b6457e09190a35050565b6155da8061007e6000396000f3fe60806040523480156200001157600080fd5b5060043610620000935760003560e01c8063d101b0461162000062578063d101b0461462000125578063d76c15eb146200013c578063d83b4c131462000153578063f2fde38b146200016a57600080fd5b806325dfa3bf1462000098578063715018a614620000b15780638da5cb5b14620000bb578063b2a1e31214620000ff575b600080fd5b620000af620000a936600462000e98565b62000181565b005b620000af6200036b565b60005473ffffffffffffffffffffffffffffffffffffffff165b60405173ffffffffffffffffffffffffffffffffffffffff90911681526020015b60405180910390f35b620001166200011036600462000f22565b62000383565b604051620000f6919062000fb9565b620000af6200013636600462000e98565b620005ac565b620000d56200014d36600462001095565b6200066e565b620000af6200016436600462000f22565b6200096d565b620000af6200017b36600462000f22565b62000a0a565b6200018b62000ac7565b73ffffffffffffffffffffffffffffffffffffffff85166000908152600160205260409020600401541562000221576040517f08c379a000000000000000000000000000000000000000000000000000000000815260206004820152601460248201527f416c72656164792061207375627369646961727900000000000000000000000060448201526064015b60405180910390fd5b73ffffffffffffffffffffffffffffffffffffffff8516600090815260016020526040902062000253848683620011c3565b5073ffffffffffffffffffffffffffffffffffffffff85166000908152600160208190526040909120016200028a828483620011c3565b5073ffffffffffffffffffffffffffffffffffffffff851660008181526001602081815260408084206003810180547fffffffffffffffffffffffffffffffffffffffffffffffffffffffffffffff001685179055600481018490558151808301909252858252338284015294909352526200030d916002908101919062000d6e565b508473ffffffffffffffffffffffffffffffffffffffff167f43d54c5357a32b70e16cbc1a1521df5ec2d71c30ced1f2531b400181501e42de858585856040516200035c949392919062001334565b60405180910390a25050505050565b6200037562000ac7565b62000381600062000b4a565b565b620003b86040518060a00160405280606081526020016060815260200160608152602001600015158152602001600081525090565b73ffffffffffffffffffffffffffffffffffffffff821660009081526001602052604090819020815160a08101909252805482908290620003f9906200111b565b80601f016020809104026020016040519081016040528092919081815260200182805462000427906200111b565b8015620004785780601f106200044c5761010080835404028352916020019162000478565b820191906000526020600020905b8154815290600101906020018083116200045a57829003601f168201915b5050505050815260200160018201805462000493906200111b565b80601f0160208091040260200160405190810160405280929190818152602001828054620004c1906200111b565b8015620005125780601f10620004e65761010080835404028352916020019162000512565b820191906000526020600020905b815481529060010190602001808311620004f457829003601f168201915b50505050508152602001600282018054806020026020016040519081016040528092919081815260200182805480156200058357602002820191906000526020600020905b815473ffffffffffffffffffffffffffffffffffffffff16815260019091019060200180831162000557575b5050509183525050600382015460ff161515602082015260049091015460409091015292915050565b620005b662000ac7565b73ffffffffffffffffffffffffffffffffffffffff85166000908152600160205260409020620005e8848683620011c3565b5073ffffffffffffffffffffffffffffffffffffffff85166000908152600160208190526040909120016200061f828483620011c3565b508473ffffffffffffffffffffffffffffffffffffffff167fed9b4cee8fc87a38b2859b6bb549b06e8d56b2c3beac94da06e97aeb90b38cad858585856040516200035c949392919062001334565b3360009081526001602052604081206003015460ff16620006ec576040517f08c379a000000000000000000000000000000000000000000000000000000000815260206004820152600c60248201527f4e6f7420612073656c6c65720000000000000000000000000000000000000000604482015260640162000218565b33600090815260016020526040812060048101546200070b9062000bbf565b6040516020016200071e9291906200136a565b604051602081830303815290604052905060008160405160200162000744919062001442565b604080517fffffffffffffffffffffffffffffffffffffffffffffffffffffffffffffffe0818403018152828252805160209182012033600090815260019283905292909220919350839285929182019160020190620007a49062000dfd565b620007b29392919062001503565b8190604051809103906000f5905080158015620007d3573d6000803e3d6000fd5b506040517f2b54ef8e00000000000000000000000000000000000000000000000000000000815290935073ffffffffffffffffffffffffffffffffffffffff841690632b54ef8e9062000831908a908a908a908a906004016200158b565b600060405180830381600087803b1580156200084c57600080fd5b505af115801562000861573d6000803e3d6000fd5b505033600090815260016020526040812060040180549093509091506200088890620015b7565b90915550604051339073ffffffffffffffffffffffffffffffffffffffff8516907ff4c6dcb500688d4d21a1203be837d78930d6dcd031f8af724c3f9518b6dc76a890620008da908690429062001617565b60405180910390a36040517ff2fde38b00000000000000000000000000000000000000000000000000000000815233600482015273ffffffffffffffffffffffffffffffffffffffff84169063f2fde38b90602401600060405180830381600087803b1580156200094a57600080fd5b505af11580156200095f573d6000803e3d6000fd5b505050505050949350505050565b6200097762000ac7565b73ffffffffffffffffffffffffffffffffffffffff81166000818152600160208190526040918290206003810180547fffffffffffffffffffffffffffffffffffffffffffffffffffffffffffffff0016905591517f54806b42e02a75124e46da56cf9c28f12548df8024e7dc98a2db59d0483602bb92620009ff929091908201906200163b565b60405180910390a250565b62000a1462000ac7565b73ffffffffffffffffffffffffffffffffffffffff811662000ab9576040517f08c379a000000000000000000000000000000000000000000000000000000000815260206004820152602660248201527f4f776e61626c653a206e6577206f776e657220697320746865207a65726f206160448201527f6464726573730000000000000000000000000000000000000000000000000000606482015260840162000218565b62000ac48162000b4a565b50565b60005473ffffffffffffffffffffffffffffffffffffffff16331462000381576040517f08c379a000000000000000000000000000000000000000000000000000000000815260206004820181905260248201527f4f776e61626c653a2063616c6c6572206973206e6f7420746865206f776e6572604482015260640162000218565b6000805473ffffffffffffffffffffffffffffffffffffffff8381167fffffffffffffffffffffffff0000000000000000000000000000000000000000831681178455604051919092169283917f8be0079c531659141344cd1fd0a4f28419497f9722a3daafe3b4186f6b6457e09190a35050565b6060600062000bce8362000c84565b600101905060008167ffffffffffffffff81111562000bf15762000bf1620010ec565b6040519080825280601f01601f19166020018201604052801562000c1c576020820181803683370190505b5090508181016020015b7fffffffffffffffffffffffffffffffffffffffffffffffffffffffffffffffff017f3031323334353637383961626364656600000000000000000000000000000000600a86061a8153600a850494508462000c2657509392505050565b6000807a184f03e93ff9f4daa797ed6e38ed64bf6a1f010000000000000000831062000cce577a184f03e93ff9f4daa797ed6e38ed64bf6a1f010000000000000000830492506040015b6d04ee2d6d415b85acef8100000000831062000cfb576d04ee2d6d415b85acef8100000000830492506020015b662386f26fc10000831062000d1a57662386f26fc10000830492506010015b6305f5e100831062000d33576305f5e100830492506008015b612710831062000d4857612710830492506004015b6064831062000d5b576064830492506002015b600a831062000d68576001015b92915050565b82805482825590600052602060002090810192821562000deb579160200282015b8281111562000deb57825182547fffffffffffffffffffffffff00000000000000000000000000000000000000001673ffffffffffffffffffffffffffffffffffffffff90911617825560209092019160019091019062000d8f565b5062000df992915062000e0b565b5090565b613f37806200166e83390190565b5b8082111562000df9576000815560010162000e0c565b803573ffffffffffffffffffffffffffffffffffffffff8116811462000e4757600080fd5b919050565b60008083601f84011262000e5f57600080fd5b50813567ffffffffffffffff81111562000e7857600080fd5b60208301915083602082850101111562000e9157600080fd5b9250929050565b60008060008060006060868803121562000eb157600080fd5b62000ebc8662000e22565b9450602086013567ffffffffffffffff8082111562000eda57600080fd5b62000ee889838a0162000e4c565b9096509450604088013591508082111562000f0257600080fd5b5062000f118882890162000e4c565b969995985093965092949392505050565b60006020828403121562000f3557600080fd5b62000f408262000e22565b9392505050565b60005b8381101562000f6457818101518382015260200162000f4a565b50506000910152565b6000815180845262000f8781602086016020860162000f47565b601f017fffffffffffffffffffffffffffffffffffffffffffffffffffffffffffffffe0169290920160200192915050565b60006020808352835160a08285015262000fd760c085018262000f6d565b9050818501517fffffffffffffffffffffffffffffffffffffffffffffffffffffffffffffffe08086840301604087015262001014838362000f6d565b6040880151878203909201606088015281518082529185019350600092508401905b808310156200106e57835173ffffffffffffffffffffffffffffffffffffffff16825292840192600192909201919084019062001036565b50606087015180151560808801529350608087015160a08701528094505050505092915050565b60008060008060608587031215620010ac57600080fd5b8435935060208501359250604085013567ffffffffffffffff811115620010d257600080fd5b620010e08782880162000e4c565b95989497509550505050565b7f4e487b7100000000000000000000000000000000000000000000000000000000600052604160045260246000fd5b600181811c908216806200113057607f821691505b6020821081036200116a577f4e487b7100000000000000000000000000000000000000000000000000000000600052602260045260246000fd5b50919050565b601f821115620011be57600081815260208120601f850160051c81016020861015620011995750805b601f850160051c820191505b81811015620011ba57828155600101620011a5565b5050505b505050565b67ffffffffffffffff831115620011de57620011de620010ec565b620011f683620011ef83546200111b565b8362001170565b6000601f8411600181146200124b5760008515620012145750838201355b7fffffffffffffffffffffffffffffffffffffffffffffffffffffffffffffffff600387901b1c1916600186901b178355620012e4565b6000838152602090207fffffffffffffffffffffffffffffffffffffffffffffffffffffffffffffffe0861690835b828110156200129c57868501358255602094850194600190920191016200127a565b5086821015620012d8577fffffffffffffffffffffffffffffffffffffffffffffffffffffffffffffffff60f88860031b161c19848701351681555b505060018560011b0183555b5050505050565b8183528181602085013750600060208284010152600060207fffffffffffffffffffffffffffffffffffffffffffffffffffffffffffffffe0601f840116840101905092915050565b6040815260006200134a604083018688620012eb565b82810360208401526200135f818587620012eb565b979650505050505050565b60008084546200137a816200111b565b60018281168015620013955760018114620013c957620013fa565b7fffffffffffffffffffffffffffffffffffffffffffffffffffffffffffffff0084168752821515830287019450620013fa565b8860005260208060002060005b85811015620013f15781548a820152908401908201620013d6565b50505082870194505b505050507f202d200000000000000000000000000000000000000000000000000000000000815283516200143681600384016020880162000f47565b01600301949350505050565b600082516200145681846020870162000f47565b9190910192915050565b600081546200146f816200111b565b8085526020600183811680156200148f5760018114620014c857620014f8565b7fffffffffffffffffffffffffffffffffffffffffffffffffffffffffffffff008516838901528284151560051b8901019550620014f8565b866000528260002060005b85811015620014f05781548a8201860152908301908401620014d3565b890184019650505b505050505092915050565b60608152600062001518606083018662000f6d565b6020838203818501526200152d828762001460565b8481036040860152855480825260008781528381209450918301915b818110156200157d57845473ffffffffffffffffffffffffffffffffffffffff168352600194850194928401920162001549565b509098975050505050505050565b848152836020820152606060408201526000620015ad606083018486620012eb565b9695505050505050565b60007fffffffffffffffffffffffffffffffffffffffffffffffffffffffffffffffff820362001610577f4e487b7100000000000000000000000000000000000000000000000000000000600052601160045260246000fd5b5060010190565b6040815260006200162c604083018562000f6d565b90508260208301529392505050565b60408152600062001650604083018562001460565b828103602084015262001664818562001460565b9594505050505056fe60e0604052606160a0908152600360c052620000209060189060026200047a565b5060405162003f3738038062003f378339810160408190526200004391620005bc565b8060188054806020026020016040519081016040528092919081815260200182805480156200009257602002820191906000526020600020905b8154815260200190600101908083116200007d575b505050505060405180602001604052806000815250604051806020016040528060008152508160009081620000c8919062000762565b506001620000d7828262000762565b50505080518251146200014c5760405162461bcd60e51b815260206004820152603260248201527f5061796d656e7453706c69747465723a2070617965657320616e6420736861726044820152710cae640d8cadccee8d040dad2e6dac2e8c6d60731b60648201526084015b60405180910390fd5b60008251116200019f5760405162461bcd60e51b815260206004820152601a60248201527f5061796d656e7453706c69747465723a206e6f20706179656573000000000000604482015260640162000143565b60005b82518110156200020b57620001f6838281518110620001c557620001c56200082e565b6020026020010151838381518110620001e257620001e26200082e565b60200260200101516200023660201b60201c565b8062000202816200085a565b915050620001a2565b50505062000228620002226200042460201b60201c565b62000428565b505060326080525062000892565b6001600160a01b038216620002a35760405162461bcd60e51b815260206004820152602c60248201527f5061796d656e7453706c69747465723a206163636f756e74206973207468652060448201526b7a65726f206164647265737360a01b606482015260840162000143565b60008111620002f55760405162461bcd60e51b815260206004820152601d60248201527f5061796d656e7453706c69747465723a20736861726573206172652030000000604482015260640162000143565b6001600160a01b0382166000908152600e602052604090205415620003715760405162461bcd60e51b815260206004820152602b60248201527f5061796d656e7453706c69747465723a206163636f756e7420616c726561647960448201526a206861732073686172657360a81b606482015260840162000143565b60108054600181019091557f1b6847dc741a1b0cd08d278845f9d819d87b734759afb55fe2de5cb82a9ae6720180546001600160a01b0319166001600160a01b0384169081179091556000908152600e60205260409020819055600c54620003db90829062000876565b600c55604080516001600160a01b0384168152602081018390527f40c340f65e17194d14ddddb073d3c9f888e3cb52b5aae0c6c7706b4fbc905fac910160405180910390a15050565b3390565b601380546001600160a01b038381166001600160a01b0319831681179093556040519116919082907f8be0079c531659141344cd1fd0a4f28419497f9722a3daafe3b4186f6b6457e090600090a35050565b828054828255906000526020600020908101928215620004bd579160200282015b82811115620004bd578251829060ff169055916020019190600101906200049b565b50620004cb929150620004cf565b5090565b5b80821115620004cb5760008155600101620004d0565b634e487b7160e01b600052604160045260246000fd5b604051601f8201601f191681016001600160401b0381118282101715620005275762000527620004e6565b604052919050565b600082601f8301126200054157600080fd5b81516001600160401b038111156200055d576200055d620004e6565b602062000573601f8301601f19168201620004fc565b82815285828487010111156200058857600080fd5b60005b83811015620005a85785810183015182820184015282016200058b565b506000928101909101919091529392505050565b600080600060608486031215620005d257600080fd5b83516001600160401b0380821115620005ea57600080fd5b620005f8878388016200052f565b94506020915081860151818111156200061057600080fd5b6200061e888289016200052f565b9450506040860151818111156200063457600080fd5b8601601f810188136200064657600080fd5b8051828111156200065b576200065b620004e6565b8060051b92506200066e848401620004fc565b818152928201840192848101908a8511156200068957600080fd5b928501925b84841015620006c357835192506001600160a01b0383168314620006b25760008081fd5b82825292850192908501906200068e565b8096505050505050509250925092565b600181811c90821680620006e857607f821691505b6020821081036200070957634e487b7160e01b600052602260045260246000fd5b50919050565b601f8211156200075d57600081815260208120601f850160051c81016020861015620007385750805b601f850160051c820191505b81811015620007595782815560010162000744565b5050505b505050565b81516001600160401b038111156200077e576200077e620004e6565b62000796816200078f8454620006d3565b846200070f565b602080601f831160018114620007ce5760008415620007b55750858301515b600019600386901b1c1916600185901b17855562000759565b600085815260208120601f198616915b82811015620007ff57888601518255948401946001909101908401620007de565b50858210156200081e5787850151600019600388901b60f8161c191681555b5050505050600190811b01905550565b634e487b7160e01b600052603260045260246000fd5b634e487b7160e01b600052601160045260246000fd5b6000600182016200086f576200086f62000844565b5060010190565b808201808211156200088c576200088c62000844565b92915050565b608051613689620008ae600039600061135101526136896000f3fe6080604052600436106102a45760003560e01c806370a082311161016e578063a3f8eace116100cb578063d79779b21161007f578063e3fa569f11610064578063e3fa569f146107c2578063e985e9c5146107d6578063f2fde38b1461081f57600080fd5b8063d79779b214610777578063e33b7de3146107ad57600080fd5b8063c45ac050116100b0578063c45ac05014610701578063c87b56dd14610721578063ce7c2ac21461074157600080fd5b8063a3f8eace146106c1578063b88d4fde146106e157600080fd5b806395d89b411161012257806398d5fdca1161010757806398d5fdca14610679578063a0712d681461068e578063a22cb465146106a157600080fd5b806395d89b411461062e5780639852595c1461064357600080fd5b8063715018a611610153578063715018a6146105db5780638b83209b146105f05780638da5cb5b1461061057600080fd5b806370a08231146105a6578063714c5398146105c657600080fd5b80632f745c591161021c5780634c0f38c2116101d057806355f804b3116101b557806355f804b3146105515780635be7fde8146105715780636352211e1461058657600080fd5b80634c0f38c21461051c5780634f6ccce71461053157600080fd5b8063406072a911610201578063406072a91461049657806342842e0e146104dc57806348b75044146104fc57600080fd5b80632f745c59146104615780633a98ef391461048157600080fd5b806318160ddd1161027357806323b872dd1161025857806323b872dd146103e25780632a55205a146104025780632b54ef8e1461044157600080fd5b806318160ddd146103a357806319165587146103c257600080fd5b806301ffc9a7146102f257806306fdde0314610327578063081812fc14610349578063095ea7b31461038157600080fd5b366102ed577f6ef95f06320e7a25a04a175ca677b7052bdd97131872c2192525a629f51be77033604080516001600160a01b0390921682523460208301520160405180910390a1005b600080fd5b3480156102fe57600080fd5b5061031261030d366004612de0565b61083f565b60405190151581526020015b60405180910390f35b34801561033357600080fd5b5061033c610850565b60405161031e9190612e6b565b34801561035557600080fd5b50610369610364366004612e7e565b6108e2565b6040516001600160a01b03909116815260200161031e565b34801561038d57600080fd5b506103a161039c366004612eac565b610909565b005b3480156103af57600080fd5b506008545b60405190815260200161031e565b3480156103ce57600080fd5b506103a16103dd366004612ed8565b610a3f565b3480156103ee57600080fd5b506103a16103fd366004612ef5565b610bd3565b34801561040e57600080fd5b5061042261041d366004612f36565b610c5a565b604080516001600160a01b03909316835260208301919091520161031e565b34801561044d57600080fd5b506103a161045c36600461303b565b610d37565b34801561046d57600080fd5b506103b461047c366004612eac565b610d62565b34801561048d57600080fd5b50600c546103b4565b3480156104a257600080fd5b506103b46104b136600461308b565b6001600160a01b03918216600090815260126020908152604080832093909416825291909152205490565b3480156104e857600080fd5b506103a16104f7366004612ef5565b610e0a565b34801561050857600080fd5b506103a161051736600461308b565b610e25565b34801561052857600080fd5b506016546103b4565b34801561053d57600080fd5b506103b461054c366004612e7e565b610fe2565b34801561055d57600080fd5b506103a161056c3660046130c4565b611086565b34801561057d57600080fd5b506103a161115e565b34801561059257600080fd5b506103696105a1366004612e7e565b611189565b3480156105b257600080fd5b506103b46105c1366004612ed8565b6111ee565b3480156105d257600080fd5b5061033c611288565b3480156105e757600080fd5b506103a1611297565b3480156105fc57600080fd5b5061036961060b366004612e7e565b6112ab565b34801561061c57600080fd5b506013546001600160a01b0316610369565b34801561063a57600080fd5b5061033c6112db565b34801561064f57600080fd5b506103b461065e366004612ed8565b6001600160a01b03166000908152600f602052604090205490565b34801561068557600080fd5b506017546103b4565b6103a161069c366004612e7e565b6112ea565b3480156106ad57600080fd5b506103a16106bc366004613107565b61148e565b3480156106cd57600080fd5b506103b46106dc366004612ed8565b61149d565b3480156106ed57600080fd5b506103a16106fc366004613135565b6114e5565b34801561070d57600080fd5b506103b461071c36600461308b565b611573565b34801561072d57600080fd5b5061033c61073c366004612e7e565b611657565b34801561074d57600080fd5b506103b461075c366004612ed8565b6001600160a01b03166000908152600e602052604090205490565b34801561078357600080fd5b506103b4610792366004612ed8565b6001600160a01b031660009081526011602052604090205490565b3480156107b957600080fd5b50600d546103b4565b3480156107ce57600080fd5b5060326103b4565b3480156107e257600080fd5b506103126107f136600461308b565b6001600160a01b03918216600090815260056020908152604080832093909416825291909152205460ff1690565b34801561082b57600080fd5b506103a161083a366004612ed8565b6116f0565b600061084a8261177d565b92915050565b60606000805461085f906131b5565b80601f016020809104026020016040519081016040528092919081815260200182805461088b906131b5565b80156108d85780601f106108ad576101008083540402835291602001916108d8565b820191906000526020600020905b8154815290600101906020018083116108bb57829003601f168201915b5050505050905090565b60006108ed826117d3565b506000908152600460205260409020546001600160a01b031690565b600061091482611189565b9050806001600160a01b0316836001600160a01b0316036109a25760405162461bcd60e51b815260206004820152602160248201527f4552433732313a20617070726f76616c20746f2063757272656e74206f776e6560448201527f720000000000000000000000000000000000000000000000000000000000000060648201526084015b60405180910390fd5b336001600160a01b03821614806109be57506109be81336107f1565b610a305760405162461bcd60e51b815260206004820152603d60248201527f4552433732313a20617070726f76652063616c6c6572206973206e6f7420746f60448201527f6b656e206f776e6572206f7220617070726f76656420666f7220616c6c0000006064820152608401610999565b610a3a8383611837565b505050565b6001600160a01b0381166000908152600e6020526040902054610aca5760405162461bcd60e51b815260206004820152602660248201527f5061796d656e7453706c69747465723a206163636f756e7420686173206e6f2060448201527f73686172657300000000000000000000000000000000000000000000000000006064820152608401610999565b6000610ad58261149d565b905080600003610b4d5760405162461bcd60e51b815260206004820152602b60248201527f5061796d656e7453706c69747465723a206163636f756e74206973206e6f742060448201527f647565207061796d656e740000000000000000000000000000000000000000006064820152608401610999565b80600d6000828254610b5f9190613237565b90915550506001600160a01b0382166000908152600f60205260409020805482019055610b8c82826118bd565b604080516001600160a01b0384168152602081018390527fdf20fd1e76bc69d672e4814fafb2c449bba3a5369d8359adf9e05e6fde87b05691015b60405180910390a15050565b610bdd33826119d6565b610c4f5760405162461bcd60e51b815260206004820152602d60248201527f4552433732313a2063616c6c6572206973206e6f7420746f6b656e206f776e6560448201527f72206f7220617070726f766564000000000000000000000000000000000000006064820152608401610999565b610a3a838383611a54565b6000828152600b602090815260408083208151808301909252546001600160a01b038116808352740100000000000000000000000000000000000000009091046bffffffffffffffffffffffff16928201929092528291610cfb575060408051808201909152600a546001600160a01b03811682527401000000000000000000000000000000000000000090046bffffffffffffffffffffffff1660208201525b602081015160009061271090610d1f906bffffffffffffffffffffffff168761324a565b610d299190613261565b915196919550909350505050565b610d3f611cc0565b601683905560178290556015610d5582826132ea565b50610a3a306101f4611d1a565b6000610d6d836111ee565b8210610de15760405162461bcd60e51b815260206004820152602b60248201527f455243373231456e756d657261626c653a206f776e657220696e646578206f7560448201527f74206f6620626f756e64730000000000000000000000000000000000000000006064820152608401610999565b506001600160a01b03919091166000908152600660209081526040808320938352929052205490565b610a3a838383604051806020016040528060008152506114e5565b6001600160a01b0381166000908152600e6020526040902054610eb05760405162461bcd60e51b815260206004820152602660248201527f5061796d656e7453706c69747465723a206163636f756e7420686173206e6f2060448201527f73686172657300000000000000000000000000000000000000000000000000006064820152608401610999565b6000610ebc8383611573565b905080600003610f345760405162461bcd60e51b815260206004820152602b60248201527f5061796d656e7453706c69747465723a206163636f756e74206973206e6f742060448201527f647565207061796d656e740000000000000000000000000000000000000000006064820152608401610999565b6001600160a01b03831660009081526011602052604081208054839290610f5c908490613237565b90915550506001600160a01b038084166000908152601260209081526040808320938616835292905220805482019055610f97838383611e45565b604080516001600160a01b038481168252602082018490528516917f3be5b7a71e84ed12875d241991c70855ac5817d847039e17a9d895c1ceb0f18a910160405180910390a2505050565b6000610fed60085490565b82106110615760405162461bcd60e51b815260206004820152602c60248201527f455243373231456e756d657261626c653a20676c6f62616c20696e646578206f60448201527f7574206f6620626f756e647300000000000000000000000000000000000000006064820152608401610999565b6008828154811061107457611074613404565b90600052602060002001549050919050565b61108e611cc0565b60006015805461109d906131b5565b80601f01602080910402602001604051908101604052809291908181526020018280546110c9906131b5565b80156111165780601f106110eb57610100808354040283529160200191611116565b820191906000526020600020905b8154815290600101906020018083116110f957829003601f168201915b50505050509050816015908161112c91906132ea565b507fc41b7cb64e5be01af4afc2641afc861432136270f4206b7773f229b658b966998282604051610bc7929190613433565b60005b6002811015611186576111766103dd826112ab565b61117f81613461565b9050611161565b50565b6000818152600260205260408120546001600160a01b03168061084a5760405162461bcd60e51b815260206004820152601860248201527f4552433732313a20696e76616c696420746f6b656e20494400000000000000006044820152606401610999565b60006001600160a01b03821661126c5760405162461bcd60e51b815260206004820152602960248201527f4552433732313a2061646472657373207a65726f206973206e6f74206120766160448201527f6c6964206f776e657200000000000000000000000000000000000000000000006064820152608401610999565b506001600160a01b031660009081526003602052604090205490565b60606015805461085f906131b5565b61129f611cc0565b6112a96000611ec5565b565b6000601082815481106112c0576112c0613404565b6000918252602090912001546001600160a01b031692915050565b60606001805461085f906131b5565b601654816112f760085490565b6113019190613237565b111561134f5760405162461bcd60e51b815260206004820152600860248201527f536f6c64206f75740000000000000000000000000000000000000000000000006044820152606401610999565b7f00000000000000000000000000000000000000000000000000000000000000008111156113bf5760405162461bcd60e51b815260206004820152601660248201527f4d617820353020706572207472616e73616374696f6e000000000000000000006044820152606401610999565b6017546113cc908261324a565b34101561141b5760405162461bcd60e51b815260206004820152601060248201527f4e6f7420656e6f7567682066756e6473000000000000000000000000000000006044820152606401610999565b6000805b8281101561145457601454915061143a601480546001019055565b6114443383611f2f565b61144d81613461565b905061141f565b5060405181815233907f0f6798a560793a54c3bcfe86a93cde1e73087d944c0ea20544137d41213968859060200160405180910390a25050565b611499338383611f49565b5050565b6000806114a9600d5490565b6114b39047613237565b90506114de83826114d9866001600160a01b03166000908152600f602052604090205490565b612035565b9392505050565b6114ef33836119d6565b6115615760405162461bcd60e51b815260206004820152602d60248201527f4552433732313a2063616c6c6572206973206e6f7420746f6b656e206f776e6560448201527f72206f7220617070726f766564000000000000000000000000000000000000006064820152608401610999565b61156d84848484612073565b50505050565b6001600160a01b03821660009081526011602052604081205481906040517f70a082310000000000000000000000000000000000000000000000000000000081523060048201526001600160a01b038616906370a0823190602401602060405180830381865afa1580156115eb573d6000803e3d6000fd5b505050506040513d601f19601f8201168201806040525081019061160f9190613499565b6116199190613237565b6001600160a01b0380861660009081526012602090815260408083209388168352929052205490915061164f9084908390612035565b949350505050565b6000818152600260205260409020546060906001600160a01b03166116be5760405162461bcd60e51b815260206004820152601260248201527f4e6f6e206578697374696e6720746f6b656e00000000000000000000000000006044820152606401610999565b60156116c9836120fc565b6040516020016116da9291906134b2565b6040516020818303038152906040529050919050565b6116f8611cc0565b6001600160a01b0381166117745760405162461bcd60e51b815260206004820152602660248201527f4f776e61626c653a206e6577206f776e657220697320746865207a65726f206160448201527f64647265737300000000000000000000000000000000000000000000000000006064820152608401610999565b61118681611ec5565b60007fffffffff0000000000000000000000000000000000000000000000000000000082167f2a55205a00000000000000000000000000000000000000000000000000000000148061084a575061084a826121ba565b6000818152600260205260409020546001600160a01b03166111865760405162461bcd60e51b815260206004820152601860248201527f4552433732313a20696e76616c696420746f6b656e20494400000000000000006044820152606401610999565b600081815260046020526040902080547fffffffffffffffffffffffff0000000000000000000000000000000000000000166001600160a01b038416908117909155819061188482611189565b6001600160a01b03167f8c5be1e5ebec7d5bd14f71427d1e84f3dd0314c0f7b2291e5b200ac8c7c3b92560405160405180910390a45050565b8047101561190d5760405162461bcd60e51b815260206004820152601d60248201527f416464726573733a20696e73756666696369656e742062616c616e63650000006044820152606401610999565b6000826001600160a01b03168260405160006040518083038185875af1925050503d806000811461195a576040519150601f19603f3d011682016040523d82523d6000602084013e61195f565b606091505b5050905080610a3a5760405162461bcd60e51b815260206004820152603a60248201527f416464726573733a20756e61626c6520746f2073656e642076616c75652c207260448201527f6563697069656e74206d617920686176652072657665727465640000000000006064820152608401610999565b6000806119e283611189565b9050806001600160a01b0316846001600160a01b03161480611a2957506001600160a01b0380821660009081526005602090815260408083209388168352929052205460ff165b8061164f5750836001600160a01b0316611a42846108e2565b6001600160a01b031614949350505050565b826001600160a01b0316611a6782611189565b6001600160a01b031614611ae35760405162461bcd60e51b815260206004820152602560248201527f4552433732313a207472616e736665722066726f6d20696e636f72726563742060448201527f6f776e65720000000000000000000000000000000000000000000000000000006064820152608401610999565b6001600160a01b038216611b5e5760405162461bcd60e51b8152602060048201526024808201527f4552433732313a207472616e7366657220746f20746865207a65726f2061646460448201527f72657373000000000000000000000000000000000000000000000000000000006064820152608401610999565b611b6b8383836001612210565b826001600160a01b0316611b7e82611189565b6001600160a01b031614611bfa5760405162461bcd60e51b815260206004820152602560248201527f4552433732313a207472616e736665722066726f6d20696e636f72726563742060448201527f6f776e65720000000000000000000000000000000000000000000000000000006064820152608401610999565b600081815260046020908152604080832080547fffffffffffffffffffffffff00000000000000000000000000000000000000009081169091556001600160a01b038781168086526003855283862080547fffffffffffffffffffffffffffffffffffffffffffffffffffffffffffffffff01905590871680865283862080546001019055868652600290945282852080549092168417909155905184937fddf252ad1be2c89b69c2b068fc378daa952ba7f163c4a11628f55a4df523b3ef91a4505050565b6013546001600160a01b031633146112a95760405162461bcd60e51b815260206004820181905260248201527f4f776e61626c653a2063616c6c6572206973206e6f7420746865206f776e65726044820152606401610999565b6127106bffffffffffffffffffffffff82161115611da05760405162461bcd60e51b815260206004820152602a60248201527f455243323938313a20726f79616c7479206665652077696c6c2065786365656460448201527f2073616c655072696365000000000000000000000000000000000000000000006064820152608401610999565b6001600160a01b038216611df65760405162461bcd60e51b815260206004820152601960248201527f455243323938313a20696e76616c6964207265636569766572000000000000006044820152606401610999565b604080518082019091526001600160a01b039092168083526bffffffffffffffffffffffff90911660209092018290527401000000000000000000000000000000000000000090910217600a55565b604080516001600160a01b038416602482015260448082018490528251808303909101815260649091019091526020810180517bffffffffffffffffffffffffffffffffffffffffffffffffffffffff167fa9059cbb00000000000000000000000000000000000000000000000000000000179052610a3a908490612358565b601380546001600160a01b038381167fffffffffffffffffffffffff0000000000000000000000000000000000000000831681179093556040519116919082907f8be0079c531659141344cd1fd0a4f28419497f9722a3daafe3b4186f6b6457e090600090a35050565b61149982826040518060200160405280600081525061243d565b816001600160a01b0316836001600160a01b031603611faa5760405162461bcd60e51b815260206004820152601960248201527f4552433732313a20617070726f766520746f2063616c6c6572000000000000006044820152606401610999565b6001600160a01b0383811660008181526005602090815260408083209487168084529482529182902080547fffffffffffffffffffffffffffffffffffffffffffffffffffffffffffffff001686151590811790915591519182527f17307eab39ab6107e8899845ad3d59bd9653f200f220920489ca2b5937696c31910160405180910390a3505050565b600c546001600160a01b0384166000908152600e60205260408120549091839161205f908661324a565b6120699190613261565b61164f919061357f565b61207e848484611a54565b61208a848484846124c6565b61156d5760405162461bcd60e51b815260206004820152603260248201527f4552433732313a207472616e7366657220746f206e6f6e20455243373231526560448201527f63656976657220696d706c656d656e74657200000000000000000000000000006064820152608401610999565b6060600061210983612685565b600101905060008167ffffffffffffffff81111561212957612129612f58565b6040519080825280601f01601f191660200182016040528015612153576020820181803683370190505b5090508181016020015b7fffffffffffffffffffffffffffffffffffffffffffffffffffffffffffffffff017f3031323334353637383961626364656600000000000000000000000000000000600a86061a8153600a850494508461215d57509392505050565b60007fffffffff0000000000000000000000000000000000000000000000000000000082167f780e9d6300000000000000000000000000000000000000000000000000000000148061084a575061084a82612767565b61221c8484848461284a565b60018111156122935760405162461bcd60e51b815260206004820152603560248201527f455243373231456e756d657261626c653a20636f6e736563757469766520747260448201527f616e7366657273206e6f7420737570706f7274656400000000000000000000006064820152608401610999565b816001600160a01b0385166122ef576122ea81600880546000838152600960205260408120829055600182018355919091527ff3f7a9fe364faab93b216da50a3214154f22a0a2b415b23a84c8169e8b636ee30155565b612312565b836001600160a01b0316856001600160a01b0316146123125761231285826128d2565b6001600160a01b03841661232e576123298161296f565b612351565b846001600160a01b0316846001600160a01b031614612351576123518482612a1e565b5050505050565b60006123ad826040518060400160405280602081526020017f5361666545524332303a206c6f772d6c6576656c2063616c6c206661696c6564815250856001600160a01b0316612a629092919063ffffffff16565b805190915015610a3a57808060200190518101906123cb9190613592565b610a3a5760405162461bcd60e51b815260206004820152602a60248201527f5361666545524332303a204552433230206f7065726174696f6e20646964206e60448201527f6f742073756363656564000000000000000000000000000000000000000000006064820152608401610999565b6124478383612a71565b61245460008484846124c6565b610a3a5760405162461bcd60e51b815260206004820152603260248201527f4552433732313a207472616e7366657220746f206e6f6e20455243373231526560448201527f63656976657220696d706c656d656e74657200000000000000000000000000006064820152608401610999565b60006001600160a01b0384163b1561267a576040517f150b7a020000000000000000000000000000000000000000000000000000000081526001600160a01b0385169063150b7a02906125239033908990889088906004016135af565b6020604051808303816000875af192505050801561257c575060408051601f3d9081017fffffffffffffffffffffffffffffffffffffffffffffffffffffffffffffffe0168201909252612579918101906135eb565b60015b61262f573d8080156125aa576040519150601f19603f3d011682016040523d82523d6000602084013e6125af565b606091505b5080516000036126275760405162461bcd60e51b815260206004820152603260248201527f4552433732313a207472616e7366657220746f206e6f6e20455243373231526560448201527f63656976657220696d706c656d656e74657200000000000000000000000000006064820152608401610999565b805181602001fd5b7fffffffff00000000000000000000000000000000000000000000000000000000167f150b7a020000000000000000000000000000000000000000000000000000000014905061164f565b506001949350505050565b6000807a184f03e93ff9f4daa797ed6e38ed64bf6a1f01000000000000000083106126ce577a184f03e93ff9f4daa797ed6e38ed64bf6a1f010000000000000000830492506040015b6d04ee2d6d415b85acef810000000083106126fa576d04ee2d6d415b85acef8100000000830492506020015b662386f26fc10000831061271857662386f26fc10000830492506010015b6305f5e1008310612730576305f5e100830492506008015b612710831061274457612710830492506004015b60648310612756576064830492506002015b600a831061084a5760010192915050565b60007fffffffff0000000000000000000000000000000000000000000000000000000082167f80ac58cd0000000000000000000000000000000000000000000000000000000014806127fa57507fffffffff0000000000000000000000000000000000000000000000000000000082167f5b5e139f00000000000000000000000000000000000000000000000000000000145b8061084a57507f01ffc9a7000000000000000000000000000000000000000000000000000000007fffffffff0000000000000000000000000000000000000000000000000000000083161461084a565b600181111561156d576001600160a01b03841615612890576001600160a01b0384166000908152600360205260408120805483929061288a90849061357f565b90915550505b6001600160a01b0383161561156d576001600160a01b038316600090815260036020526040812080548392906128c7908490613237565b909155505050505050565b600060016128df846111ee565b6128e9919061357f565b60008381526007602052604090205490915080821461293c576001600160a01b03841660009081526006602090815260408083208584528252808320548484528184208190558352600790915290208190555b5060009182526007602090815260408084208490556001600160a01b039094168352600681528383209183525290812055565b6008546000906129819060019061357f565b600083815260096020526040812054600880549394509092849081106129a9576129a9613404565b9060005260206000200154905080600883815481106129ca576129ca613404565b6000918252602080832090910192909255828152600990915260408082208490558582528120556008805480612a0257612a02613608565b6001900381819060005260206000200160009055905550505050565b6000612a29836111ee565b6001600160a01b039093166000908152600660209081526040808320868452825280832085905593825260079052919091209190915550565b606061164f8484600085612c22565b6001600160a01b038216612ac75760405162461bcd60e51b815260206004820181905260248201527f4552433732313a206d696e7420746f20746865207a65726f20616464726573736044820152606401610999565b6000818152600260205260409020546001600160a01b031615612b2c5760405162461bcd60e51b815260206004820152601c60248201527f4552433732313a20746f6b656e20616c7265616479206d696e746564000000006044820152606401610999565b612b3a600083836001612210565b6000818152600260205260409020546001600160a01b031615612b9f5760405162461bcd60e51b815260206004820152601c60248201527f4552433732313a20746f6b656e20616c7265616479206d696e746564000000006044820152606401610999565b6001600160a01b038216600081815260036020908152604080832080546001019055848352600290915280822080547fffffffffffffffffffffffff0000000000000000000000000000000000000000168417905551839291907fddf252ad1be2c89b69c2b068fc378daa952ba7f163c4a11628f55a4df523b3ef908290a45050565b606082471015612c9a5760405162461bcd60e51b815260206004820152602660248201527f416464726573733a20696e73756666696369656e742062616c616e636520666f60448201527f722063616c6c00000000000000000000000000000000000000000000000000006064820152608401610999565b600080866001600160a01b03168587604051612cb69190613637565b60006040518083038185875af1925050503d8060008114612cf3576040519150601f19603f3d011682016040523d82523d6000602084013e612cf8565b606091505b5091509150612d0987838387612d14565b979650505050505050565b60608315612d83578251600003612d7c576001600160a01b0385163b612d7c5760405162461bcd60e51b815260206004820152601d60248201527f416464726573733a2063616c6c20746f206e6f6e2d636f6e74726163740000006044820152606401610999565b508161164f565b61164f8383815115612d985781518083602001fd5b8060405162461bcd60e51b81526004016109999190612e6b565b7fffffffff000000000000000000000000000000000000000000000000000000008116811461118657600080fd5b600060208284031215612df257600080fd5b81356114de81612db2565b60005b83811015612e18578181015183820152602001612e00565b50506000910152565b60008151808452612e39816020860160208601612dfd565b601f017fffffffffffffffffffffffffffffffffffffffffffffffffffffffffffffffe0169290920160200192915050565b6020815260006114de6020830184612e21565b600060208284031215612e9057600080fd5b5035919050565b6001600160a01b038116811461118657600080fd5b60008060408385031215612ebf57600080fd5b8235612eca81612e97565b946020939093013593505050565b600060208284031215612eea57600080fd5b81356114de81612e97565b600080600060608486031215612f0a57600080fd5b8335612f1581612e97565b92506020840135612f2581612e97565b929592945050506040919091013590565b60008060408385031215612f4957600080fd5b50508035926020909101359150565b7f4e487b7100000000000000000000000000000000000000000000000000000000600052604160045260246000fd5b600067ffffffffffffffff80841115612fa257612fa2612f58565b604051601f85017fffffffffffffffffffffffffffffffffffffffffffffffffffffffffffffffe0908116603f01168101908282118183101715612fe857612fe8612f58565b8160405280935085815286868601111561300157600080fd5b858560208301376000602087830101525050509392505050565b600082601f83011261302c57600080fd5b6114de83833560208501612f87565b60008060006060848603121561305057600080fd5b8335925060208401359150604084013567ffffffffffffffff81111561307557600080fd5b6130818682870161301b565b9150509250925092565b6000806040838503121561309e57600080fd5b82356130a981612e97565b915060208301356130b981612e97565b809150509250929050565b6000602082840312156130d657600080fd5b813567ffffffffffffffff8111156130ed57600080fd5b61164f8482850161301b565b801515811461118657600080fd5b6000806040838503121561311a57600080fd5b823561312581612e97565b915060208301356130b9816130f9565b6000806000806080858703121561314b57600080fd5b843561315681612e97565b9350602085013561316681612e97565b925060408501359150606085013567ffffffffffffffff81111561318957600080fd5b8501601f8101871361319a57600080fd5b6131a987823560208401612f87565b91505092959194509250565b600181811c908216806131c957607f821691505b602082108103613202577f4e487b7100000000000000000000000000000000000000000000000000000000600052602260045260246000fd5b50919050565b7f4e487b7100000000000000000000000000000000000000000000000000000000600052601160045260246000fd5b8082018082111561084a5761084a613208565b808202811582820484141761084a5761084a613208565b600082613297577f4e487b7100000000000000000000000000000000000000000000000000000000600052601260045260246000fd5b500490565b601f821115610a3a57600081815260208120601f850160051c810160208610156132c35750805b601f850160051c820191505b818110156132e2578281556001016132cf565b505050505050565b815167ffffffffffffffff81111561330457613304612f58565b6133188161331284546131b5565b8461329c565b602080601f83116001811461336b57600084156133355750858301515b7fffffffffffffffffffffffffffffffffffffffffffffffffffffffffffffffff600386901b1c1916600185901b1785556132e2565b6000858152602081207fffffffffffffffffffffffffffffffffffffffffffffffffffffffffffffffe08616915b828110156133b857888601518255948401946001909101908401613399565b50858210156133f457878501517fffffffffffffffffffffffffffffffffffffffffffffffffffffffffffffffff600388901b60f8161c191681555b5050505050600190811b01905550565b7f4e487b7100000000000000000000000000000000000000000000000000000000600052603260045260246000fd5b6040815260006134466040830185612e21565b82810360208401526134588185612e21565b95945050505050565b60007fffffffffffffffffffffffffffffffffffffffffffffffffffffffffffffffff820361349257613492613208565b5060010190565b6000602082840312156134ab57600080fd5b5051919050565b60008084546134c0816131b5565b600182811680156134d8576001811461350b5761353a565b7fffffffffffffffffffffffffffffffffffffffffffffffffffffffffffffff008416875282151583028701945061353a565b8860005260208060002060005b858110156135315781548a820152908401908201613518565b50505082870194505b50505050835161354e818360208801612dfd565b7f2e6a736f6e0000000000000000000000000000000000000000000000000000009101908152600501949350505050565b8181038181111561084a5761084a613208565b6000602082840312156135a457600080fd5b81516114de816130f9565b60006001600160a01b038087168352808616602084015250836040830152608060608301526135e16080830184612e21565b9695505050505050565b6000602082840312156135fd57600080fd5b81516114de81612db2565b7f4e487b7100000000000000000000000000000000000000000000000000000000600052603160045260246000fd5b60008251613649818460208701612dfd565b919091019291505056fea2646970667358221220a273c7531cc31fa7e30d02f3316b1c91818eee29444420b9b4a820d18412bf3564736f6c63430008110033a2646970667358221220af2ef58e54b52bdccdff23fda2196a4160d00f01621c166dee0d17334a11cf6964736f6c63430008110033",
  "linkReferences": {},
  "deployedLinkReferences": {}
}