{
  "_format": "hh-sol-artifact-1",
  "contractName": "Market",
  "sourceName": "contracts/Market.sol",
  "abi": [
    {
      "inputs": [
        {
          "internalType": "uint256",
          "name": "_minimalPrice",
          "type": "uint256"
        },
        {
          "internalType": "uint256",
          "name": "_fixFee",
          "type": "uint256"
        },
        {
          "internalType": "uint256",
          "name": "_percentFee",
          "type": "uint256"
        }
      ],
      "stateMutability": "nonpayable",
      "type": "constructor"
    },
    {
      "inputs": [
        {
          "internalType": "address",
          "name": "nftAddress",
          "type": "address"
        },
        {
          "internalType": "uint256",
          "name": "tokenId",
          "type": "uint256"
        }
      ],
      "name": "Market_AlreadyOnSale",
      "type": "error"
    },
    {
      "inputs": [
        {
          "internalType": "address",
          "name": "nftAddress",
          "type": "address"
        },
        {
          "internalType": "uint256",
          "name": "tokenId",
          "type": "uint256"
        },
        {
          "internalType": "uint256",
          "name": "price",
          "type": "uint256"
        }
      ],
      "name": "Market_MissingFounds",
      "type": "error"
    },
    {
      "inputs": [],
      "name": "Market_MissingMarketApproval",
      "type": "error"
    },
    {
      "inputs": [],
      "name": "Market_NoEarnings",
      "type": "error"
    },
    {
      "inputs": [
        {
          "internalType": "address",
          "name": "nftAddress",
          "type": "address"
        },
        {
          "internalType": "uint256",
          "name": "tokenId",
          "type": "uint256"
        }
      ],
      "name": "Market_NotOnSale",
      "type": "error"
    },
    {
      "inputs": [],
      "name": "Market_NotOwner",
      "type": "error"
    },
    {
      "inputs": [],
      "name": "Market_PriceTooLow",
      "type": "error"
    },
    {
      "anonymous": false,
      "inputs": [
        {
          "indexed": true,
          "internalType": "address",
          "name": "seller",
          "type": "address"
        },
        {
          "indexed": false,
          "internalType": "uint256",
          "name": "amount",
          "type": "uint256"
        }
      ],
      "name": "EarningsWithdraw",
      "type": "event"
    },
    {
      "anonymous": false,
      "inputs": [
        {
          "indexed": false,
          "internalType": "uint256",
          "name": "newFixFeeSet",
          "type": "uint256"
        },
        {
          "indexed": false,
          "internalType": "uint256",
          "name": "oldFixFeeSet",
          "type": "uint256"
        }
      ],
      "name": "FixFeeSet",
      "type": "event"
    },
    {
      "anonymous": false,
      "inputs": [
        {
          "indexed": true,
          "internalType": "address",
          "name": "owner",
          "type": "address"
        },
        {
          "indexed": false,
          "internalType": "uint256",
          "name": "amountWithdrawed",
          "type": "uint256"
        }
      ],
      "name": "FundsReleased",
      "type": "event"
    },
    {
      "anonymous": false,
      "inputs": [
        {
          "indexed": false,
          "internalType": "uint256",
          "name": "newMinimalPrice",
          "type": "uint256"
        },
        {
          "indexed": false,
          "internalType": "uint256",
          "name": "oldMinimalPrice",
          "type": "uint256"
        }
      ],
      "name": "MinimalPriceSet",
      "type": "event"
    },
    {
      "anonymous": false,
      "inputs": [
        {
          "indexed": true,
          "internalType": "address",
          "name": "seller",
          "type": "address"
        },
        {
          "indexed": true,
          "internalType": "address",
          "name": "nftAddress",
          "type": "address"
        },
        {
          "indexed": true,
          "internalType": "uint256",
          "name": "tokenId",
          "type": "uint256"
        },
        {
          "indexed": false,
          "internalType": "uint256",
          "name": "price",
          "type": "uint256"
        }
      ],
      "name": "NFTOnSale",
      "type": "event"
    },
    {
      "anonymous": false,
      "inputs": [
        {
          "indexed": true,
          "internalType": "address",
          "name": "seller",
          "type": "address"
        },
        {
          "indexed": true,
          "internalType": "address",
          "name": "buyer",
          "type": "address"
        },
        {
          "indexed": true,
          "internalType": "address",
          "name": "nftAddress",
          "type": "address"
        },
        {
          "indexed": false,
          "internalType": "uint256",
          "name": "tokenId",
          "type": "uint256"
        },
        {
          "indexed": false,
          "internalType": "uint256",
          "name": "price",
          "type": "uint256"
        },
        {
          "indexed": false,
          "internalType": "uint256",
          "name": "royalties",
          "type": "uint256"
        }
      ],
      "name": "NFTSold",
      "type": "event"
    },
    {
      "anonymous": false,
      "inputs": [
        {
          "indexed": true,
          "internalType": "address",
          "name": "previousOwner",
          "type": "address"
        },
        {
          "indexed": true,
          "internalType": "address",
          "name": "newOwner",
          "type": "address"
        }
      ],
      "name": "OwnershipTransferred",
      "type": "event"
    },
    {
      "anonymous": false,
      "inputs": [
        {
          "indexed": false,
          "internalType": "uint256",
          "name": "newPercentFee",
          "type": "uint256"
        },
        {
          "indexed": false,
          "internalType": "uint256",
          "name": "oldPercentFee",
          "type": "uint256"
        }
      ],
      "name": "PercentFeeSet",
      "type": "event"
    },
    {
      "anonymous": false,
      "inputs": [
        {
          "indexed": true,
          "internalType": "address",
          "name": "seller",
          "type": "address"
        },
        {
          "indexed": true,
          "internalType": "address",
          "name": "nftAddress",
          "type": "address"
        },
        {
          "indexed": true,
          "internalType": "uint256",
          "name": "tokenId",
          "type": "uint256"
        }
      ],
      "name": "SaleDeleted",
      "type": "event"
    },
    {
      "inputs": [
        {
          "internalType": "address",
          "name": "_nftAddress",
          "type": "address"
        },
        {
          "internalType": "uint256",
          "name": "_tokenId",
          "type": "uint256"
        },
        {
          "internalType": "uint256",
          "name": "_price",
          "type": "uint256"
        }
      ],
      "name": "addToSale",
      "outputs": [],
      "stateMutability": "nonpayable",
      "type": "function"
    },
    {
      "inputs": [
        {
          "internalType": "address",
          "name": "_nftAddress",
          "type": "address"
        },
        {
          "internalType": "uint256",
          "name": "_tokenId",
          "type": "uint256"
        }
      ],
      "name": "buyItem",
      "outputs": [],
      "stateMutability": "payable",
      "type": "function"
    },
    {
      "inputs": [
        {
          "internalType": "address",
          "name": "_nftAddress",
          "type": "address"
        },
        {
          "internalType": "uint256",
          "name": "_tokenId",
          "type": "uint256"
        }
      ],
      "name": "deleteFromSale",
      "outputs": [],
      "stateMutability": "nonpayable",
      "type": "function"
    },
    {
      "inputs": [
        {
          "internalType": "address",
          "name": "_seller",
          "type": "address"
        }
      ],
      "name": "getEarnings",
      "outputs": [
        {
          "internalType": "uint256",
          "name": "",
          "type": "uint256"
        }
      ],
      "stateMutability": "view",
      "type": "function"
    },
    {
      "inputs": [],
      "name": "getFixFee",
      "outputs": [
        {
          "internalType": "uint256",
          "name": "",
          "type": "uint256"
        }
      ],
      "stateMutability": "view",
      "type": "function"
    },
    {
      "inputs": [],
      "name": "getMinimalPrice",
      "outputs": [
        {
          "internalType": "uint256",
          "name": "",
          "type": "uint256"
        }
      ],
      "stateMutability": "view",
      "type": "function"
    },
    {
      "inputs": [],
      "name": "getPercentFee",
      "outputs": [
        {
          "internalType": "uint256",
          "name": "",
          "type": "uint256"
        }
      ],
      "stateMutability": "view",
      "type": "function"
    },
    {
      "inputs": [
        {
          "internalType": "address",
          "name": "_nftAddress",
          "type": "address"
        },
        {
          "internalType": "uint256",
          "name": "_tokenId",
          "type": "uint256"
        }
      ],
      "name": "getSale",
      "outputs": [
        {
          "components": [
            {
              "internalType": "address",
              "name": "seller",
              "type": "address"
            },
            {
              "internalType": "uint256",
              "name": "price",
              "type": "uint256"
            }
          ],
          "internalType": "struct Market.Sale",
          "name": "",
          "type": "tuple"
        }
      ],
      "stateMutability": "view",
      "type": "function"
    },
    {
      "inputs": [],
      "name": "owner",
      "outputs": [
        {
          "internalType": "address",
          "name": "",
          "type": "address"
        }
      ],
      "stateMutability": "view",
      "type": "function"
    },
    {
      "inputs": [],
      "name": "releaseAll",
      "outputs": [],
      "stateMutability": "nonpayable",
      "type": "function"
    },
    {
      "inputs": [],
      "name": "renounceOwnership",
      "outputs": [],
      "stateMutability": "nonpayable",
      "type": "function"
    },
    {
      "inputs": [
        {
          "internalType": "uint256",
          "name": "_fixFee",
          "type": "uint256"
        }
      ],
      "name": "setFixFee",
      "outputs": [],
      "stateMutability": "nonpayable",
      "type": "function"
    },
    {
      "inputs": [
        {
          "internalType": "uint256",
          "name": "_minimalPrice",
          "type": "uint256"
        }
      ],
      "name": "setMinimalPrice",
      "outputs": [],
      "stateMutability": "nonpayable",
      "type": "function"
    },
    {
      "inputs": [
        {
          "internalType": "uint256",
          "name": "_percentFee",
          "type": "uint256"
        }
      ],
      "name": "setPercentFee",
      "outputs": [],
      "stateMutability": "nonpayable",
      "type": "function"
    },
    {
      "inputs": [
        {
          "internalType": "address",
          "name": "newOwner",
          "type": "address"
        }
      ],
      "name": "transferOwnership",
      "outputs": [],
      "stateMutability": "nonpayable",
      "type": "function"
    },
    {
      "inputs": [
        {
          "internalType": "uint256",
          "name": "_newPrice",
          "type": "uint256"
        },
        {
          "internalType": "address",
          "name": "_nftAddress",
          "type": "address"
        },
        {
          "internalType": "uint256",
          "name": "_tokenId",
          "type": "uint256"
        }
      ],
      "name": "updateSalePrice",
      "outputs": [],
      "stateMutability": "nonpayable",
      "type": "function"
    },
    {
      "inputs": [],
      "name": "withdraw",
      "outputs": [],
      "stateMutability": "nonpayable",
      "type": "function"
    }
  ],
  "bytecode": "0x60806040523480156200001157600080fd5b50604051620035ba380380620035ba8339818101604052810190620000379190620001fe565b60016000819055506200005f62000053620000ed60201b60201c565b620000f560201b60201c565b6200007b67e5e28d518fab7d9e60c01b620001bb60201b60201c565b62000097676108eefcb8010b6a60c01b620001bb60201b60201c565b82600281905550620000ba6742fa320d1a44eefc60c01b620001bb60201b60201c565b81600381905550620000dd677663f69b926c377b60c01b620001bb60201b60201c565b806004819055505050506200025a565b600033905090565b6000600160009054906101000a900473ffffffffffffffffffffffffffffffffffffffff16905081600160006101000a81548173ffffffffffffffffffffffffffffffffffffffff021916908373ffffffffffffffffffffffffffffffffffffffff1602179055508173ffffffffffffffffffffffffffffffffffffffff168173ffffffffffffffffffffffffffffffffffffffff167f8be0079c531659141344cd1fd0a4f28419497f9722a3daafe3b4186f6b6457e060405160405180910390a35050565b50565b600080fd5b6000819050919050565b620001d881620001c3565b8114620001e457600080fd5b50565b600081519050620001f881620001cd565b92915050565b6000806000606084860312156200021a5762000219620001be565b5b60006200022a86828701620001e7565b93505060206200023d86828701620001e7565b92505060406200025086828701620001e7565b9150509250925092565b613350806200026a6000396000f3fe60806040526004361061010e5760003560e01c80634edbaadc116100a55780639f37092a11610074578063c5c48b3211610059578063c5c48b321461033c578063f2fde38b14610365578063f7d9a98f1461038e5761010e565b80639f37092a146102f7578063a64947ef146103135761010e565b80634edbaadc146102735780635be7fde81461029e578063715018a6146102b55780638da5cb5b146102cc5761010e565b80633f3ea6f6116100e15780633f3ea6f6146101cd5780633faf04d8146101f65780634225d81a14610221578063462f25181461024a5761010e565b80630550102314610113578063131b9c041461013c578063225c3131146101795780633ccfd60b146101b6575b600080fd5b34801561011f57600080fd5b5061013a60048036038101906101359190612b60565b6103b9565b005b34801561014857600080fd5b50610163600480360381019061015e9190612beb565b61047e565b6040516101709190612c27565b60405180910390f35b34801561018557600080fd5b506101a0600480360381019061019b9190612c42565b610503565b6040516101ad9190612ccf565b60405180910390f35b3480156101c257600080fd5b506101cb61060a565b005b3480156101d957600080fd5b506101f460048036038101906101ef9190612c42565b61095e565b005b34801561020257600080fd5b5061020b610e6d565b6040516102189190612c27565b60405180910390f35b34801561022d57600080fd5b5061024860048036038101906102439190612b60565b610eb3565b005b34801561025657600080fd5b50610271600480360381019061026c9190612cea565b610f78565b005b34801561027f57600080fd5b50610288611541565b6040516102959190612c27565b60405180910390f35b3480156102aa57600080fd5b506102b3611587565b005b3480156102c157600080fd5b506102ca611768565b005b3480156102d857600080fd5b506102e161177c565b6040516102ee9190612d4c565b60405180910390f35b610311600480360381019061030c9190612c42565b6117a6565b005b34801561031f57600080fd5b5061033a60048036038101906103359190612d67565b612046565b005b34801561034857600080fd5b50610363600480360381019061035e9190612b60565b6127bf565b005b34801561037157600080fd5b5061038c60048036038101906103879190612beb565b612884565b005b34801561039a57600080fd5b506103a3612907565b6040516103b09190612c27565b60405180910390f35b6103cd6786dafed97e018cae60c01b61294d565b6103d5612950565b6103e967d0858acc4593756260c01b61294d565b6103fd675f7a8b1202b95c7660c01b61294d565b61041167d3c371f536c1148a60c01b61294d565b6104256725f9070c8e0df2a460c01b61294d565b7f4c93d638f5051d44d02fe8eecc9cc8aa36fac1499b6860052b9845ef57f5b0fb81600454604051610458929190612dba565b60405180910390a1610474677626bd5a3f30aafc60c01b61294d565b8060048190555050565b60006104946701365aa0f9c945c860c01b61294d565b6104a867c9952a36491554b960c01b61294d565b6104bc67f3b08efe3a26f82060c01b61294d565b600660008373ffffffffffffffffffffffffffffffffffffffff1673ffffffffffffffffffffffffffffffffffffffff168152602001908152602001600020549050919050565b61050b612af5565b61051f671e3e6c35e3a03b6360c01b61294d565b61053367fd63d2b42585914760c01b61294d565b61054767e4ef71f523037f7e60c01b61294d565b600560008473ffffffffffffffffffffffffffffffffffffffff1673ffffffffffffffffffffffffffffffffffffffff16815260200190815260200160002060008381526020019081526020016000206040518060400160405290816000820160009054906101000a900473ffffffffffffffffffffffffffffffffffffffff1673ffffffffffffffffffffffffffffffffffffffff1673ffffffffffffffffffffffffffffffffffffffff168152602001600182015481525050905092915050565b61061e6775a35c804410204860c01b61294d565b61063267f9b2b24b3bc9a68e60c01b61294d565b6106466748e8d0a2a92c63aa60c01b61294d565b6000600660003373ffffffffffffffffffffffffffffffffffffffff1673ffffffffffffffffffffffffffffffffffffffff16815260200190815260200160002054116106e7576106a167b91ea83ff8542d2e60c01b61294d565b6106b567dc856f23e089185660c01b61294d565b6040517f48843e4600000000000000000000000000000000000000000000000000000000815260040160405180910390fd5b6106fb6715f127b32aa9601d60c01b61294d565b61070f67fa3208094b6ae71760c01b61294d565b61072367346e2ab4a86dd11a60c01b61294d565b6000600660003373ffffffffffffffffffffffffffffffffffffffff1673ffffffffffffffffffffffffffffffffffffffff16815260200190815260200160002054905061077b6711d200ce1dc527b060c01b61294d565b6000600660003373ffffffffffffffffffffffffffffffffffffffff1673ffffffffffffffffffffffffffffffffffffffff168152602001908152602001600020819055506107d46771a66d119fc05d3260c01b61294d565b6107e867af145949b850cefb60c01b61294d565b3373ffffffffffffffffffffffffffffffffffffffff167f46607c042dac91993c80fe5f71d22be08aa96fe36e08d7bf7262d9ed277c54cf8260405161082e9190612c27565b60405180910390a261084a67cdad663d84a1df6d60c01b61294d565b61085e6750940b5d8d84893a60c01b61294d565b60003373ffffffffffffffffffffffffffffffffffffffff168260405161088490612e14565b60006040518083038185875af1925050503d80600081146108c1576040519150601f19603f3d011682016040523d82523d6000602084013e6108c6565b606091505b505090506108de67dcad8c7f3baea03360c01b61294d565b6108f267ef4e5db532568ece60c01b61294d565b6109066711cb59bc6a9bdeed60c01b61294d565b80610946576040517f08c379a000000000000000000000000000000000000000000000000000000000815260040161093d90612e86565b60405180910390fd5b61095a67c33cff78764aa0c960c01b61294d565b5050565b61097267263ebc2d3492f3f160c01b61294d565b81813361098967e01e6062d6fc22ad60c01b61294d565b61099d678183247ca4ed247660c01b61294d565b6109b167c37d9437586cbb6b60c01b61294d565b60008390506109ca67c345432722fb856a60c01b61294d565b6109de6755faafc6bb72d2ac60c01b61294d565b60008173ffffffffffffffffffffffffffffffffffffffff16636352211e856040518263ffffffff1660e01b8152600401610a199190612c27565b602060405180830381865afa158015610a36573d6000803e3d6000fd5b505050506040513d601f19601f82011682018060405250810190610a5a9190612ebb565b9050610a70678ed602a310fea0a560c01b61294d565b610a8366bf199e4a7b466560c01b61294d565b8073ffffffffffffffffffffffffffffffffffffffff168373ffffffffffffffffffffffffffffffffffffffff1614610b1057610aca671359c07e15f19e4160c01b61294d565b610ade67afb931e2da80dc4860c01b61294d565b6040517f03b1595d00000000000000000000000000000000000000000000000000000000815260040160405180910390fd5b610b2467a3c11864e380e62560c01b61294d565b610b3867f4a95c78ade7963a60c01b61294d565b610b4c67d33d8054f4a5048260c01b61294d565b610b606732855554fdc1dbef60c01b61294d565b8686610b76673daabc3767caad6a60c01b61294d565b610b8a6738d51693dbf7bb7e60c01b61294d565b610b9e670b93d30aaa47405e60c01b61294d565b6000600560008473ffffffffffffffffffffffffffffffffffffffff1673ffffffffffffffffffffffffffffffffffffffff16815260200190815260200160002060008381526020019081526020016000206040518060400160405290816000820160009054906101000a900473ffffffffffffffffffffffffffffffffffffffff1673ffffffffffffffffffffffffffffffffffffffff1673ffffffffffffffffffffffffffffffffffffffff1681526020016001820154815250509050610c7167807c17fe9e240b8560c01b61294d565b610c85671c4c259744e68f7960c01b61294d565b6000816020015111610cf857610ca5678e978bddff1e535960c01b61294d565b610cb967365de99656a462d260c01b61294d565b82826040517fb24fdee9000000000000000000000000000000000000000000000000000000008152600401610cef929190612ee8565b60405180910390fd5b610d0c6708c878fcd989783f60c01b61294d565b610d2067c456efec8565e77660c01b61294d565b610d3467d242127e27229bf560c01b61294d565b610d4867bf6da7e9c062f26e60c01b61294d565b610d5c679c399ea810f6c92460c01b61294d565b600560008b73ffffffffffffffffffffffffffffffffffffffff1673ffffffffffffffffffffffffffffffffffffffff16815260200190815260200160002060008a8152602001908152602001600020600080820160006101000a81549073ffffffffffffffffffffffffffffffffffffffff021916905560018201600090555050610df26732f65496f09820d160c01b61294d565b610e066776ebd7c6a2a9b5fd60c01b61294d565b888a73ffffffffffffffffffffffffffffffffffffffff163373ffffffffffffffffffffffffffffffffffffffff167f295120c833bea1573df28c5fa7e343ff0065dd6882784f70b7708c6ba2754bea60405160405180910390a450505050505050505050565b6000610e8367a0a6b3cf743a003a60c01b61294d565b610e976787ca67d8e84a4c6660c01b61294d565b610eab67841d1a606f030fe260c01b61294d565b600254905090565b610ec7678e33934f2765a61160c01b61294d565b610ecf612950565b610ee367c285fd2c42612dcb60c01b61294d565b610ef767cede78aa1805c53060c01b61294d565b610f0b67b1674c19b0d33f2960c01b61294d565b610f1f67b0d365386c29894360c01b61294d565b7f1c81249f6b23f5a4e0e9fa0faa0a9c04cfd997ae2dddd747237059fca15ddb1581600354604051610f52929190612dba565b60405180910390a1610f6e671265f050c79f44a760c01b61294d565b8060038190555050565b610f8c67dbcdae744107e01060c01b61294d565b8181610fa2673daabc3767caad6a60c01b61294d565b610fb66738d51693dbf7bb7e60c01b61294d565b610fca670b93d30aaa47405e60c01b61294d565b6000600560008473ffffffffffffffffffffffffffffffffffffffff1673ffffffffffffffffffffffffffffffffffffffff16815260200190815260200160002060008381526020019081526020016000206040518060400160405290816000820160009054906101000a900473ffffffffffffffffffffffffffffffffffffffff1673ffffffffffffffffffffffffffffffffffffffff1673ffffffffffffffffffffffffffffffffffffffff168152602001600182015481525050905061109d67807c17fe9e240b8560c01b61294d565b6110b1671c4c259744e68f7960c01b61294d565b6000816020015111611124576110d1678e978bddff1e535960c01b61294d565b6110e567365de99656a462d260c01b61294d565b82826040517fb24fdee900000000000000000000000000000000000000000000000000000000815260040161111b929190612ee8565b60405180910390fd5b6111386708c878fcd989783f60c01b61294d565b61114c67c456efec8565e77660c01b61294d565b61116067f5bca69128b6bc2c60c01b61294d565b6111746771377a3e329ad96560c01b61294d565b84843361118b67e01e6062d6fc22ad60c01b61294d565b61119f678183247ca4ed247660c01b61294d565b6111b367c37d9437586cbb6b60c01b61294d565b60008390506111cc67c345432722fb856a60c01b61294d565b6111e06755faafc6bb72d2ac60c01b61294d565b60008173ffffffffffffffffffffffffffffffffffffffff16636352211e856040518263ffffffff1660e01b815260040161121b9190612c27565b602060405180830381865afa158015611238573d6000803e3d6000fd5b505050506040513d601f19601f8201168201806040525081019061125c9190612ebb565b9050611272678ed602a310fea0a560c01b61294d565b61128566bf199e4a7b466560c01b61294d565b8073ffffffffffffffffffffffffffffffffffffffff168373ffffffffffffffffffffffffffffffffffffffff1614611312576112cc671359c07e15f19e4160c01b61294d565b6112e067afb931e2da80dc4860c01b61294d565b6040517f03b1595d00000000000000000000000000000000000000000000000000000000815260040160405180910390fd5b61132667a3c11864e380e62560c01b61294d565b61133a67f4a95c78ade7963a60c01b61294d565b61134e6790d864a5c324914160c01b61294d565b61136267af06fbc2f6ac10ce60c01b61294d565b61136a6129ce565b61137e6784d50d190b21a34760c01b61294d565b61139267d1fe079618b0590c60c01b61294d565b6113a667e7aec7ade1135f6c60c01b61294d565b6113ba67ed7e009ddd82843160c01b61294d565b6002548b101561141e576113d86760f544a30717fded60c01b61294d565b6113ec67dd26333228903be160c01b61294d565b6040517fb3002c2500000000000000000000000000000000000000000000000000000000815260040160405180910390fd5b611432677f67f8b1c7fa3d6460c01b61294d565b611446678e25cf1527f5046060c01b61294d565b8a600560008c73ffffffffffffffffffffffffffffffffffffffff1673ffffffffffffffffffffffffffffffffffffffff16815260200190815260200160002060008b8152602001908152602001600020600101819055506114b26762276a7a3c0513b960c01b61294d565b6114c6674be51f48f1e11f8d60c01b61294d565b888a73ffffffffffffffffffffffffffffffffffffffff163373ffffffffffffffffffffffffffffffffffffffff167fa74bea88d1b7caecafb1c7bea393f717af76e1f82e711fd05c8d546bee8d8c928e6040516115249190612c27565b60405180910390a4611534612a1d565b5050505050505050505050565b6000611557677257455a5061307b60c01b61294d565b61156b67cbfa62573f8a5b0760c01b61294d565b61157f67a79ddd09b195a97360c01b61294d565b600454905090565b61159b67a7d1e1ba974da07460c01b61294d565b6115a3612950565b6115b767754189db914b604f60c01b61294d565b6115cb67acc84e978b7b04eb60c01b61294d565b6115df679c1703a8ef3c896e60c01b61294d565b6115f367091399bd5a5bd6c160c01b61294d565b3373ffffffffffffffffffffffffffffffffffffffff167f221c08a06b07a64803b3787861a3f276212fcccb51c2e6234077a9b8cb13047a476040516116399190612c27565b60405180910390a261165567bad88b760d951c2460c01b61294d565b61166967d9533ead633dcc3d60c01b61294d565b60003373ffffffffffffffffffffffffffffffffffffffff164760405161168f90612e14565b60006040518083038185875af1925050503d80600081146116cc576040519150601f19603f3d011682016040523d82523d6000602084013e6116d1565b606091505b505090506116e9679cd7e61d5312a7ad60c01b61294d565b6116fd67d566ef6fe70c21af60c01b61294d565b611711678430af7822dbc90a60c01b61294d565b80611751576040517f08c379a000000000000000000000000000000000000000000000000000000000815260040161174890612e86565b60405180910390fd5b61176567ab832bbc9840a04160c01b61294d565b50565b611770612950565b61177a6000612a27565b565b6000600160009054906101000a900473ffffffffffffffffffffffffffffffffffffffff16905090565b6117ba67bca106873f5df37460c01b61294d565b81816117d0673daabc3767caad6a60c01b61294d565b6117e46738d51693dbf7bb7e60c01b61294d565b6117f8670b93d30aaa47405e60c01b61294d565b6000600560008473ffffffffffffffffffffffffffffffffffffffff1673ffffffffffffffffffffffffffffffffffffffff16815260200190815260200160002060008381526020019081526020016000206040518060400160405290816000820160009054906101000a900473ffffffffffffffffffffffffffffffffffffffff1673ffffffffffffffffffffffffffffffffffffffff1673ffffffffffffffffffffffffffffffffffffffff16815260200160018201548152505090506118cb67807c17fe9e240b8560c01b61294d565b6118df671c4c259744e68f7960c01b61294d565b6000816020015111611952576118ff678e978bddff1e535960c01b61294d565b61191367365de99656a462d260c01b61294d565b82826040517fb24fdee9000000000000000000000000000000000000000000000000000000008152600401611949929190612ee8565b60405180910390fd5b6119666708c878fcd989783f60c01b61294d565b61197a67c456efec8565e77660c01b61294d565b61198e6739e8b9210e4cbf5860c01b61294d565b6119a2673ac6d7b8eb1c422060c01b61294d565b6119aa6129ce565b6119be67c7b3c8ea4b45839860c01b61294d565b6119d267055292457680b32760c01b61294d565b6119e6672941ef4c1ea06c7e60c01b61294d565b6119fa67afd63238b757b58260c01b61294d565b6000600560008773ffffffffffffffffffffffffffffffffffffffff1673ffffffffffffffffffffffffffffffffffffffff16815260200190815260200160002060008681526020019081526020016000206040518060400160405290816000820160009054906101000a900473ffffffffffffffffffffffffffffffffffffffff1673ffffffffffffffffffffffffffffffffffffffff1673ffffffffffffffffffffffffffffffffffffffff1681526020016001820154815250509050611acd679c8044b78595c6bb60c01b61294d565b611ae16788941bdc6f4b607360c01b61294d565b8060200151341015611b5a57611b01673f8657b58f79419d60c01b61294d565b611b156796bbd4b6586f43f760c01b61294d565b858582602001516040517f7765475a000000000000000000000000000000000000000000000000000000008152600401611b5193929190612f11565b60405180910390fd5b611b6e674cbc479819d0f38f60c01b61294d565b611b826795176e50f4987c7960c01b61294d565b611b9667603c9c31dced707c60c01b61294d565b600060035461271060045434611bac9190612f77565b611bb69190612fe8565b611bc09190613019565b9050611bd6677200e94bafe0483560c01b61294d565b611bea675b450e3ffd40413160c01b61294d565b6000808873ffffffffffffffffffffffffffffffffffffffff16632a55205a89858760200151611c1a919061304d565b6040518363ffffffff1660e01b8152600401611c37929190612dba565b6040805180830381865afa158015611c53573d6000803e3d6000fd5b505050506040513d601f19601f82011682018060405250810190611c779190613096565b91509150611c8f67760ba73958c9cdc160c01b61294d565b611ca367673f72fd16a675d160c01b61294d565b6000818434611cb2919061304d565b611cbc919061304d565b9050611cd2676368b7fb39a90bd060c01b61294d565b8060066000876000015173ffffffffffffffffffffffffffffffffffffffff1673ffffffffffffffffffffffffffffffffffffffff1681526020019081526020016000206000828254611d259190613019565b92505081905550611d4067864663edca44dd3e60c01b61294d565b611d5467e576f8f7b39ee62960c01b61294d565b60008373ffffffffffffffffffffffffffffffffffffffff1683604051611d7a90612e14565b60006040518083038185875af1925050503d8060008114611db7576040519150601f19603f3d011682016040523d82523d6000602084013e611dbc565b606091505b50509050611dd4677bc05e45dc3deed060c01b61294d565b611de86778cf81ae412fbab960c01b61294d565b611dfc676016ae942bf9bee960c01b61294d565b80611e3c576040517f08c379a0000000000000000000000000000000000000000000000000000000008152600401611e3390613122565b60405180910390fd5b611e5067f5fd8147cd5c075660c01b61294d565b611e646720b4d2d3e3c8942960c01b61294d565b600560008c73ffffffffffffffffffffffffffffffffffffffff1673ffffffffffffffffffffffffffffffffffffffff16815260200190815260200160002060008b8152602001908152602001600020600080820160006101000a81549073ffffffffffffffffffffffffffffffffffffffff021916905560018201600090555050611efa67e9e853f2e2a97c1060c01b61294d565b611f0e6787895e61e53e76cc60c01b61294d565b8a73ffffffffffffffffffffffffffffffffffffffff163373ffffffffffffffffffffffffffffffffffffffff16876000015173ffffffffffffffffffffffffffffffffffffffff167fc0ee60bdfbfcc0a587eefdc276fb48af0b28d280a9d4cb70880e3aed9c995cda8d8a6020015188604051611f8e93929190613142565b60405180910390a4611faa670f7ae166272d95e560c01b61294d565b611fbe67e904b0bdf7826bbb60c01b61294d565b8a73ffffffffffffffffffffffffffffffffffffffff166342842e0e8760000151338d6040518463ffffffff1660e01b8152600401611fff93929190613179565b600060405180830381600087803b15801561201957600080fd5b505af115801561202d573d6000803e3d6000fd5b5050505050505050505061203f612a1d565b5050505050565b61205a6760dadd6a21e485b960c01b61294d565b8282612070674e92abf110e4998460c01b61294d565b612084673eccb505a65944c560c01b61294d565b61209867265ac6e1b1e2d6dc60c01b61294d565b6000600560008473ffffffffffffffffffffffffffffffffffffffff1673ffffffffffffffffffffffffffffffffffffffff16815260200190815260200160002060008381526020019081526020016000206040518060400160405290816000820160009054906101000a900473ffffffffffffffffffffffffffffffffffffffff1673ffffffffffffffffffffffffffffffffffffffff1673ffffffffffffffffffffffffffffffffffffffff168152602001600182015481525050905061216b670f3da6f37907a92b60c01b61294d565b61217f67b7572a6ec571393060c01b61294d565b6000816020015111156121f3576121a0672fd1c0ce1e4cdc4960c01b61294d565b6121b467c24d5b9904aa594260c01b61294d565b82826040517f10fedf5b0000000000000000000000000000000000000000000000000000000081526004016121ea929190612ee8565b60405180910390fd5b61220767ebf4479a2451f7f760c01b61294d565b61221b6748364a0dfd50ae2660c01b61294d565b61222f672a99ac9931a6302e60c01b61294d565b612243675f582240283444fd60c01b61294d565b85853361225a67e01e6062d6fc22ad60c01b61294d565b61226e678183247ca4ed247660c01b61294d565b61228267c37d9437586cbb6b60c01b61294d565b600083905061229b67c345432722fb856a60c01b61294d565b6122af6755faafc6bb72d2ac60c01b61294d565b60008173ffffffffffffffffffffffffffffffffffffffff16636352211e856040518263ffffffff1660e01b81526004016122ea9190612c27565b602060405180830381865afa158015612307573d6000803e3d6000fd5b505050506040513d601f19601f8201168201806040525081019061232b9190612ebb565b9050612341678ed602a310fea0a560c01b61294d565b61235466bf199e4a7b466560c01b61294d565b8073ffffffffffffffffffffffffffffffffffffffff168373ffffffffffffffffffffffffffffffffffffffff16146123e15761239b671359c07e15f19e4160c01b61294d565b6123af67afb931e2da80dc4860c01b61294d565b6040517f03b1595d00000000000000000000000000000000000000000000000000000000815260040160405180910390fd5b6123f567a3c11864e380e62560c01b61294d565b61240967f4a95c78ade7963a60c01b61294d565b61241d67d95945adca2185e960c01b61294d565b61243167a6eb43dfa6e443ee60c01b61294d565b61244567f1bda7c595862a6560c01b61294d565b6124596756c3d5f2bd37ba6c60c01b61294d565b6002548910156124bd57612477677ca533d10a116dcd60c01b61294d565b61248b6765af07380bda02ea60c01b61294d565b6040517fb3002c2500000000000000000000000000000000000000000000000000000000815260040160405180910390fd5b6124d16714e0014eb5af661c60c01b61294d565b6124e5674370bc68bb33552560c01b61294d565b6124f967ddf8a7d0ed9b339360c01b61294d565b60008b905061251267bc7e40a450b6c01860c01b61294d565b61252667a1d22fb06b62017e60c01b61294d565b3073ffffffffffffffffffffffffffffffffffffffff168173ffffffffffffffffffffffffffffffffffffffff1663081812fc8d6040518263ffffffff1660e01b81526004016125769190612c27565b602060405180830381865afa158015612593573d6000803e3d6000fd5b505050506040513d601f19601f820116820180604052508101906125b79190612ebb565b73ffffffffffffffffffffffffffffffffffffffff161461262c576125e667455c0ed3ded3c66760c01b61294d565b6125fa67ab8b3699b3b7628d60c01b61294d565b6040517faf951b1d00000000000000000000000000000000000000000000000000000000815260040160405180910390fd5b6126406754a181d52ef329ec60c01b61294d565b61265467d7c699e73915a51660c01b61294d565b60405180604001604052803373ffffffffffffffffffffffffffffffffffffffff1681526020018b815250600560008e73ffffffffffffffffffffffffffffffffffffffff1673ffffffffffffffffffffffffffffffffffffffff16815260200190815260200160002060008d815260200190815260200160002060008201518160000160006101000a81548173ffffffffffffffffffffffffffffffffffffffff021916908373ffffffffffffffffffffffffffffffffffffffff160217905550602082015181600101559050506127376794fc92a6f6b6e3cd60c01b61294d565b61274b67d7d3c086331adc7560c01b61294d565b8a8c73ffffffffffffffffffffffffffffffffffffffff163373ffffffffffffffffffffffffffffffffffffffff167fa74bea88d1b7caecafb1c7bea393f717af76e1f82e711fd05c8d546bee8d8c928d6040516127a99190612c27565b60405180910390a4505050505050505050505050565b6127d36708375338c2ba932e60c01b61294d565b6127db612950565b6127ef671af696e3c2a0221460c01b61294d565b6128036741926d14a4b7417260c01b61294d565b61281767ec895d2b4538e0bc60c01b61294d565b61282b67c9b2639a8870a72d60c01b61294d565b7fd1a16113d9f9dd90299db45550943a246945c822d1d69d91766b9719fe65ac3a8160025460405161285e929190612dba565b60405180910390a161287a67191fe25247c316ce60c01b61294d565b8060028190555050565b61288c612950565b600073ffffffffffffffffffffffffffffffffffffffff168173ffffffffffffffffffffffffffffffffffffffff16036128fb576040517f08c379a00000000000000000000000000000000000000000000000000000000081526004016128f290613222565b60405180910390fd5b61290481612a27565b50565b600061291d672d50febb3d20117e60c01b61294d565b612931670ddeb0d88c19d0bf60c01b61294d565b612945670aefbeeacfe8928260c01b61294d565b600354905090565b50565b612958612aed565b73ffffffffffffffffffffffffffffffffffffffff1661297661177c565b73ffffffffffffffffffffffffffffffffffffffff16146129cc576040517f08c379a00000000000000000000000000000000000000000000000000000000081526004016129c39061328e565b60405180910390fd5b565b600260005403612a13576040517f08c379a0000000000000000000000000000000000000000000000000000000008152600401612a0a906132fa565b60405180910390fd5b6002600081905550565b6001600081905550565b6000600160009054906101000a900473ffffffffffffffffffffffffffffffffffffffff16905081600160006101000a81548173ffffffffffffffffffffffffffffffffffffffff021916908373ffffffffffffffffffffffffffffffffffffffff1602179055508173ffffffffffffffffffffffffffffffffffffffff168173ffffffffffffffffffffffffffffffffffffffff167f8be0079c531659141344cd1fd0a4f28419497f9722a3daafe3b4186f6b6457e060405160405180910390a35050565b600033905090565b6040518060400160405280600073ffffffffffffffffffffffffffffffffffffffff168152602001600081525090565b600080fd5b6000819050919050565b612b3d81612b2a565b8114612b4857600080fd5b50565b600081359050612b5a81612b34565b92915050565b600060208284031215612b7657612b75612b25565b5b6000612b8484828501612b4b565b91505092915050565b600073ffffffffffffffffffffffffffffffffffffffff82169050919050565b6000612bb882612b8d565b9050919050565b612bc881612bad565b8114612bd357600080fd5b50565b600081359050612be581612bbf565b92915050565b600060208284031215612c0157612c00612b25565b5b6000612c0f84828501612bd6565b91505092915050565b612c2181612b2a565b82525050565b6000602082019050612c3c6000830184612c18565b92915050565b60008060408385031215612c5957612c58612b25565b5b6000612c6785828601612bd6565b9250506020612c7885828601612b4b565b9150509250929050565b612c8b81612bad565b82525050565b612c9a81612b2a565b82525050565b604082016000820151612cb66000850182612c82565b506020820151612cc96020850182612c91565b50505050565b6000604082019050612ce46000830184612ca0565b92915050565b600080600060608486031215612d0357612d02612b25565b5b6000612d1186828701612b4b565b9350506020612d2286828701612bd6565b9250506040612d3386828701612b4b565b9150509250925092565b612d4681612bad565b82525050565b6000602082019050612d616000830184612d3d565b92915050565b600080600060608486031215612d8057612d7f612b25565b5b6000612d8e86828701612bd6565b9350506020612d9f86828701612b4b565b9250506040612db086828701612b4b565b9150509250925092565b6000604082019050612dcf6000830185612c18565b612ddc6020830184612c18565b9392505050565b600081905092915050565b50565b6000612dfe600083612de3565b9150612e0982612dee565b600082019050919050565b6000612e1f82612df1565b9150819050919050565b600082825260208201905092915050565b7f5769746864726177206661696c65640000000000000000000000000000000000600082015250565b6000612e70600f83612e29565b9150612e7b82612e3a565b602082019050919050565b60006020820190508181036000830152612e9f81612e63565b9050919050565b600081519050612eb581612bbf565b92915050565b600060208284031215612ed157612ed0612b25565b5b6000612edf84828501612ea6565b91505092915050565b6000604082019050612efd6000830185612d3d565b612f0a6020830184612c18565b9392505050565b6000606082019050612f266000830186612d3d565b612f336020830185612c18565b612f406040830184612c18565b949350505050565b7f4e487b7100000000000000000000000000000000000000000000000000000000600052601160045260246000fd5b6000612f8282612b2a565b9150612f8d83612b2a565b9250828202612f9b81612b2a565b91508282048414831517612fb257612fb1612f48565b5b5092915050565b7f4e487b7100000000000000000000000000000000000000000000000000000000600052601260045260246000fd5b6000612ff382612b2a565b9150612ffe83612b2a565b92508261300e5761300d612fb9565b5b828204905092915050565b600061302482612b2a565b915061302f83612b2a565b925082820190508082111561304757613046612f48565b5b92915050565b600061305882612b2a565b915061306383612b2a565b925082820390508181111561307b5761307a612f48565b5b92915050565b60008151905061309081612b34565b92915050565b600080604083850312156130ad576130ac612b25565b5b60006130bb85828601612ea6565b92505060206130cc85828601613081565b9150509250929050565b7f526f79616c7479207061796d656e74206661696c656400000000000000000000600082015250565b600061310c601683612e29565b9150613117826130d6565b602082019050919050565b6000602082019050818103600083015261313b816130ff565b9050919050565b60006060820190506131576000830186612c18565b6131646020830185612c18565b6131716040830184612c18565b949350505050565b600060608201905061318e6000830186612d3d565b61319b6020830185612d3d565b6131a86040830184612c18565b949350505050565b7f4f776e61626c653a206e6577206f776e657220697320746865207a65726f206160008201527f6464726573730000000000000000000000000000000000000000000000000000602082015250565b600061320c602683612e29565b9150613217826131b0565b604082019050919050565b6000602082019050818103600083015261323b816131ff565b9050919050565b7f4f776e61626c653a2063616c6c6572206973206e6f7420746865206f776e6572600082015250565b6000613278602083612e29565b915061328382613242565b602082019050919050565b600060208201905081810360008301526132a78161326b565b9050919050565b7f5265656e7472616e637947756172643a207265656e7472616e742063616c6c00600082015250565b60006132e4601f83612e29565b91506132ef826132ae565b602082019050919050565b60006020820190508181036000830152613313816132d7565b905091905056fea264697066735822122046da09c26d68dc9444347f84c4f9b70bf40c8d959815976c1b4dc5c8b2c69d3364736f6c63430008110033",
  "linkReferences": {},
  "deployedLinkReferences": {}
}