{
  "_format": "hh-sol-artifact-1",
  "contractName": "Market",
  "sourceName": "contracts/Market.sol",
  "abi": [
    {
      "inputs": [
        {
          "internalType": "uint256",
          "name": "_minimalPrice",
          "type": "uint256"
        },
        {
          "internalType": "uint256",
          "name": "_fixFee",
          "type": "uint256"
        },
        {
          "internalType": "uint256",
          "name": "_percentFee",
          "type": "uint256"
        }
      ],
      "stateMutability": "nonpayable",
      "type": "constructor"
    },
    {
      "inputs": [
        {
          "internalType": "address",
          "name": "nftAddress",
          "type": "address"
        },
        {
          "internalType": "uint256",
          "name": "tokenId",
          "type": "uint256"
        }
      ],
      "name": "Market_AlreadyOnSale",
      "type": "error"
    },
    {
      "inputs": [
        {
          "internalType": "address",
          "name": "nftAddress",
          "type": "address"
        },
        {
          "internalType": "uint256",
          "name": "tokenId",
          "type": "uint256"
        },
        {
          "internalType": "uint256",
          "name": "price",
          "type": "uint256"
        }
      ],
      "name": "Market_MissingFounds",
      "type": "error"
    },
    {
      "inputs": [],
      "name": "Market_MissingMarketApproval",
      "type": "error"
    },
    {
      "inputs": [],
      "name": "Market_NoEarnings",
      "type": "error"
    },
    {
      "inputs": [
        {
          "internalType": "address",
          "name": "nftAddress",
          "type": "address"
        },
        {
          "internalType": "uint256",
          "name": "tokenId",
          "type": "uint256"
        }
      ],
      "name": "Market_NotOnSale",
      "type": "error"
    },
    {
      "inputs": [],
      "name": "Market_NotOwner",
      "type": "error"
    },
    {
      "inputs": [],
      "name": "Market_PriceTooLow",
      "type": "error"
    },
    {
      "anonymous": false,
      "inputs": [
        {
          "indexed": true,
          "internalType": "address",
          "name": "seller",
          "type": "address"
        },
        {
          "indexed": false,
          "internalType": "uint256",
          "name": "amount",
          "type": "uint256"
        }
      ],
      "name": "EarningsWithdraw",
      "type": "event"
    },
    {
      "anonymous": false,
      "inputs": [
        {
          "indexed": true,
          "internalType": "address",
          "name": "seller",
          "type": "address"
        },
        {
          "indexed": true,
          "internalType": "address",
          "name": "nftAddress",
          "type": "address"
        },
        {
          "indexed": true,
          "internalType": "uint256",
          "name": "tokenId",
          "type": "uint256"
        },
        {
          "indexed": false,
          "internalType": "uint256",
          "name": "price",
          "type": "uint256"
        }
      ],
      "name": "NFTOnSale",
      "type": "event"
    },
    {
      "anonymous": false,
      "inputs": [
        {
          "indexed": true,
          "internalType": "address",
          "name": "seller",
          "type": "address"
        },
        {
          "indexed": true,
          "internalType": "address",
          "name": "buyer",
          "type": "address"
        },
        {
          "indexed": true,
          "internalType": "address",
          "name": "nftAddress",
          "type": "address"
        },
        {
          "indexed": false,
          "internalType": "uint256",
          "name": "tokenId",
          "type": "uint256"
        },
        {
          "indexed": false,
          "internalType": "uint256",
          "name": "price",
          "type": "uint256"
        },
        {
          "indexed": false,
          "internalType": "uint256",
          "name": "royalties",
          "type": "uint256"
        }
      ],
      "name": "NFTSold",
      "type": "event"
    },
    {
      "anonymous": false,
      "inputs": [
        {
          "indexed": true,
          "internalType": "address",
          "name": "previousOwner",
          "type": "address"
        },
        {
          "indexed": true,
          "internalType": "address",
          "name": "newOwner",
          "type": "address"
        }
      ],
      "name": "OwnershipTransferred",
      "type": "event"
    },
    {
      "anonymous": false,
      "inputs": [
        {
          "indexed": true,
          "internalType": "address",
          "name": "seller",
          "type": "address"
        },
        {
          "indexed": true,
          "internalType": "address",
          "name": "nftAddress",
          "type": "address"
        },
        {
          "indexed": true,
          "internalType": "uint256",
          "name": "tokenId",
          "type": "uint256"
        }
      ],
      "name": "SaleDeleted",
      "type": "event"
    },
    {
      "inputs": [
        {
          "internalType": "address",
          "name": "nftAddress",
          "type": "address"
        },
        {
          "internalType": "uint256",
          "name": "tokenId",
          "type": "uint256"
        },
        {
          "internalType": "uint256",
          "name": "price",
          "type": "uint256"
        }
      ],
      "name": "addToSale",
      "outputs": [],
      "stateMutability": "nonpayable",
      "type": "function"
    },
    {
      "inputs": [
        {
          "internalType": "address",
          "name": "nftAddress",
          "type": "address"
        },
        {
          "internalType": "uint256",
          "name": "tokenId",
          "type": "uint256"
        }
      ],
      "name": "buyItem",
      "outputs": [],
      "stateMutability": "payable",
      "type": "function"
    },
    {
      "inputs": [
        {
          "internalType": "address",
          "name": "nftAddress",
          "type": "address"
        },
        {
          "internalType": "uint256",
          "name": "tokenId",
          "type": "uint256"
        }
      ],
      "name": "deleteFromSale",
      "outputs": [],
      "stateMutability": "nonpayable",
      "type": "function"
    },
    {
      "inputs": [
        {
          "internalType": "address",
          "name": "seller",
          "type": "address"
        }
      ],
      "name": "getEarnings",
      "outputs": [
        {
          "internalType": "uint256",
          "name": "",
          "type": "uint256"
        }
      ],
      "stateMutability": "view",
      "type": "function"
    },
    {
      "inputs": [],
      "name": "getFixFee",
      "outputs": [
        {
          "internalType": "uint256",
          "name": "",
          "type": "uint256"
        }
      ],
      "stateMutability": "view",
      "type": "function"
    },
    {
      "inputs": [],
      "name": "getMinimalPrice",
      "outputs": [
        {
          "internalType": "uint256",
          "name": "",
          "type": "uint256"
        }
      ],
      "stateMutability": "view",
      "type": "function"
    },
    {
      "inputs": [],
      "name": "getPercentFee",
      "outputs": [
        {
          "internalType": "uint256",
          "name": "",
          "type": "uint256"
        }
      ],
      "stateMutability": "view",
      "type": "function"
    },
    {
      "inputs": [
        {
          "internalType": "address",
          "name": "nftAddress",
          "type": "address"
        },
        {
          "internalType": "uint256",
          "name": "tokenId",
          "type": "uint256"
        }
      ],
      "name": "getSale",
      "outputs": [
        {
          "components": [
            {
              "internalType": "address",
              "name": "seller",
              "type": "address"
            },
            {
              "internalType": "uint256",
              "name": "price",
              "type": "uint256"
            }
          ],
          "internalType": "struct Market.Sale",
          "name": "",
          "type": "tuple"
        }
      ],
      "stateMutability": "view",
      "type": "function"
    },
    {
      "inputs": [],
      "name": "owner",
      "outputs": [
        {
          "internalType": "address",
          "name": "",
          "type": "address"
        }
      ],
      "stateMutability": "view",
      "type": "function"
    },
    {
      "inputs": [],
      "name": "renounceOwnership",
      "outputs": [],
      "stateMutability": "nonpayable",
      "type": "function"
    },
    {
      "inputs": [
        {
          "internalType": "uint256",
          "name": "_fixFee",
          "type": "uint256"
        }
      ],
      "name": "setFixFee",
      "outputs": [],
      "stateMutability": "nonpayable",
      "type": "function"
    },
    {
      "inputs": [
        {
          "internalType": "uint256",
          "name": "_minimalPrice",
          "type": "uint256"
        }
      ],
      "name": "setMinimalPrice",
      "outputs": [],
      "stateMutability": "nonpayable",
      "type": "function"
    },
    {
      "inputs": [
        {
          "internalType": "uint256",
          "name": "_percentFee",
          "type": "uint256"
        }
      ],
      "name": "setPercentFee",
      "outputs": [],
      "stateMutability": "nonpayable",
      "type": "function"
    },
    {
      "inputs": [
        {
          "internalType": "address",
          "name": "newOwner",
          "type": "address"
        }
      ],
      "name": "transferOwnership",
      "outputs": [],
      "stateMutability": "nonpayable",
      "type": "function"
    },
    {
      "inputs": [
        {
          "internalType": "uint256",
          "name": "newPrice",
          "type": "uint256"
        },
        {
          "internalType": "address",
          "name": "nftAddress",
          "type": "address"
        },
        {
          "internalType": "uint256",
          "name": "tokenId",
          "type": "uint256"
        }
      ],
      "name": "updateSalePrice",
      "outputs": [],
      "stateMutability": "nonpayable",
      "type": "function"
    },
    {
      "inputs": [],
      "name": "withdraw",
      "outputs": [],
      "stateMutability": "nonpayable",
      "type": "function"
    }
  ],
  "bytecode": "0x608060405234801561001057600080fd5b5060405161159938038061159983398101604081905261002f916100a0565b600160005561003d3361004e565b6002929092556003556004556100ce565b600180546001600160a01b038381166001600160a01b0319831681179093556040519116919082907f8be0079c531659141344cd1fd0a4f28419497f9722a3daafe3b4186f6b6457e090600090a35050565b6000806000606084860312156100b557600080fd5b8351925060208401519150604084015190509250925092565b6114bc806100dd6000396000f3fe6080604052600436106100f35760003560e01c80634edbaadc1161008a578063a64947ef11610059578063a64947ef14610296578063c5c48b32146102b6578063f2fde38b146102d6578063f7d9a98f146102f657600080fd5b80634edbaadc14610231578063715018a6146102465780638da5cb5b1461025b5780639f37092a1461028357600080fd5b80633f3ea6f6116100c65780633f3ea6f6146101bc5780633faf04d8146101dc5780634225d81a146101f1578063462f25181461021157600080fd5b806305501023146100f8578063131b9c041461011a578063225c3131146101635780633ccfd60b146101a7575b600080fd5b34801561010457600080fd5b506101186101133660046112a9565b61030b565b005b34801561012657600080fd5b506101506101353660046112d7565b6001600160a01b031660009081526006602052604090205490565b6040519081526020015b60405180910390f35b34801561016f57600080fd5b5061018361017e3660046112fb565b610318565b6040805182516001600160a01b03168152602092830151928101929092520161015a565b3480156101b357600080fd5b50610118610369565b3480156101c857600080fd5b506101186101d73660046112fb565b6104b3565b3480156101e857600080fd5b50600254610150565b3480156101fd57600080fd5b5061011861020c3660046112a9565b6106a0565b34801561021d57600080fd5b5061011861022c366004611327565b6106ad565b34801561023d57600080fd5b50600454610150565b34801561025257600080fd5b506101186108ce565b34801561026757600080fd5b506001546040516001600160a01b03909116815260200161015a565b6101186102913660046112fb565b6108e2565b3480156102a257600080fd5b506101186102b136600461135f565b610d4d565b3480156102c257600080fd5b506101186102d13660046112a9565b6110a1565b3480156102e257600080fd5b506101186102f13660046112d7565b6110ae565b34801561030257600080fd5b50600354610150565b610313611158565b600455565b604080518082018252600080825260209182018190526001600160a01b0385811682526005835283822085835283529083902083518085019094528054909116835260010154908201525b92915050565b336000908152600660205260409020546103af576040517f48843e4600000000000000000000000000000000000000000000000000000000815260040160405180910390fd5b3360008181526006602090815260408083208054939055518281529192917f46607c042dac91993c80fe5f71d22be08aa96fe36e08d7bf7262d9ed277c54cf910160405180910390a2604051600090339083908381818185875af1925050503d806000811461043a576040519150601f19603f3d011682016040523d82523d6000602084013e61043f565b606091505b50509050806104af576040517f08c379a000000000000000000000000000000000000000000000000000000000815260206004820152600f60248201527f5769746864726177206661696c6564000000000000000000000000000000000060448201526064015b60405180910390fd5b5050565b6040517f6352211e0000000000000000000000000000000000000000000000000000000081526004810182905282908290339083906000906001600160a01b03831690636352211e90602401602060405180830381865afa15801561051c573d6000803e3d6000fd5b505050506040513d601f19601f820116820180604052508101906105409190611394565b9050806001600160a01b0316836001600160a01b03161461058d576040517f03b1595d00000000000000000000000000000000000000000000000000000000815260040160405180910390fd5b6001600160a01b0380881660009081526005602090815260408083208a8452825291829020825180840190935280549093168252600190920154918101829052889188919061061a576040517fb24fdee90000000000000000000000000000000000000000000000000000000081526001600160a01b0384166004820152602481018390526044016104a6565b6001600160a01b038a1660008181526005602090815260408083208d845290915280822080547fffffffffffffffffffffffff0000000000000000000000000000000000000000168155600101829055518b929133917f295120c833bea1573df28c5fa7e343ff0065dd6882784f70b7708c6ba2754bea9190a450505050505050505050565b6106a8611158565b600355565b6001600160a01b038083166000908152600560209081526040808320858452825291829020825180840190935280549093168252600190920154918101829052839183919061073a576040517fb24fdee90000000000000000000000000000000000000000000000000000000081526001600160a01b0384166004820152602481018390526044016104a6565b6040517f6352211e0000000000000000000000000000000000000000000000000000000081526004810185905285908590339083906000906001600160a01b03831690636352211e90602401602060405180830381865afa1580156107a3573d6000803e3d6000fd5b505050506040513d601f19601f820116820180604052508101906107c79190611394565b9050806001600160a01b0316836001600160a01b031614610814576040517f03b1595d00000000000000000000000000000000000000000000000000000000815260040160405180910390fd5b61081c6111cc565b6002548b1015610858576040517fb3002c2500000000000000000000000000000000000000000000000000000000815260040160405180910390fd5b6001600160a01b038a1660008181526005602090815260408083208d84528252918290206001018e905590518d81528b929133917fa74bea88d1b7caecafb1c7bea393f717af76e1f82e711fd05c8d546bee8d8c92910160405180910390a46108c16001600055565b5050505050505050505050565b6108d6611158565b6108e0600061123f565b565b6001600160a01b038083166000908152600560209081526040808320858452825291829020825180840190935280549093168252600190920154918101829052839183919061096f576040517fb24fdee90000000000000000000000000000000000000000000000000000000081526001600160a01b0384166004820152602481018390526044016104a6565b6109776111cc565b6001600160a01b03808616600090815260056020908152604080832088845282529182902082518084019093528054909316825260019092015491810182905290341015610a105760208101516040517f7765475a0000000000000000000000000000000000000000000000000000000081526001600160a01b03881660048201526024810187905260448101919091526064016104a6565b600060035461271060045434610a2691906113e0565b610a3091906113f7565b610a3a9190611432565b9050600080886001600160a01b0316632a55205a89858760200151610a5f9190611445565b6040517fffffffff0000000000000000000000000000000000000000000000000000000060e085901b168152600481019290925260248201526044016040805180830381865afa158015610ab7573d6000803e3d6000fd5b505050506040513d601f19601f82011682018060405250810190610adb9190611458565b9092509050600081610aed8534611445565b610af79190611445565b85516001600160a01b0316600090815260066020526040812080549293508392909190610b25908490611432565b90915550506040516000906001600160a01b0385169084908381818185875af1925050503d8060008114610b75576040519150601f19603f3d011682016040523d82523d6000602084013e610b7a565b606091505b5050905080610be5576040517f08c379a000000000000000000000000000000000000000000000000000000000815260206004820152601660248201527f526f79616c7479207061796d656e74206661696c65640000000000000000000060448201526064016104a6565b600560008c6001600160a01b03166001600160a01b0316815260200190815260200160002060008b8152602001908152602001600020600080820160006101000a8154906001600160a01b030219169055600182016000905550508a6001600160a01b0316336001600160a01b031687600001516001600160a01b03167fc0ee60bdfbfcc0a587eefdc276fb48af0b28d280a9d4cb70880e3aed9c995cda8d8a6020015188604051610caa939291909283526020830191909152604082015260600190565b60405180910390a485516040517f42842e0e0000000000000000000000000000000000000000000000000000000081526001600160a01b039182166004820152336024820152604481018c9052908c16906342842e0e90606401600060405180830381600087803b158015610d1e57600080fd5b505af1158015610d32573d6000803e3d6000fd5b50505050505050505050610d466001600055565b5050505050565b6001600160a01b038084166000908152600560209081526040808320868452825291829020825180840190935280549093168252600190920154918101829052849184919015610ddb576040517f10fedf5b0000000000000000000000000000000000000000000000000000000081526001600160a01b0384166004820152602481018390526044016104a6565b6040517f6352211e0000000000000000000000000000000000000000000000000000000081526004810186905286908690339083906000906001600160a01b03831690636352211e90602401602060405180830381865afa158015610e44573d6000803e3d6000fd5b505050506040513d601f19601f82011682018060405250810190610e689190611394565b9050806001600160a01b0316836001600160a01b031614610eb5576040517f03b1595d00000000000000000000000000000000000000000000000000000000815260040160405180910390fd5b600254891015610ef1576040517fb3002c2500000000000000000000000000000000000000000000000000000000815260040160405180910390fd5b6040517f081812fc000000000000000000000000000000000000000000000000000000008152600481018b90528b9030906001600160a01b0383169063081812fc90602401602060405180830381865afa158015610f53573d6000803e3d6000fd5b505050506040513d601f19601f82011682018060405250810190610f779190611394565b6001600160a01b031614610fb7576040517faf951b1d00000000000000000000000000000000000000000000000000000000815260040160405180910390fd5b6040518060400160405280336001600160a01b031681526020018b815250600560008e6001600160a01b03166001600160a01b0316815260200190815260200160002060008d815260200190815260200160002060008201518160000160006101000a8154816001600160a01b0302191690836001600160a01b03160217905550602082015181600101559050508a8c6001600160a01b0316336001600160a01b03167fa74bea88d1b7caecafb1c7bea393f717af76e1f82e711fd05c8d546bee8d8c928d60405161108b91815260200190565b60405180910390a4505050505050505050505050565b6110a9611158565b600255565b6110b6611158565b6001600160a01b03811661114c576040517f08c379a000000000000000000000000000000000000000000000000000000000815260206004820152602660248201527f4f776e61626c653a206e6577206f776e657220697320746865207a65726f206160448201527f646472657373000000000000000000000000000000000000000000000000000060648201526084016104a6565b6111558161123f565b50565b6001546001600160a01b031633146108e0576040517f08c379a000000000000000000000000000000000000000000000000000000000815260206004820181905260248201527f4f776e61626c653a2063616c6c6572206973206e6f7420746865206f776e657260448201526064016104a6565b600260005403611238576040517f08c379a000000000000000000000000000000000000000000000000000000000815260206004820152601f60248201527f5265656e7472616e637947756172643a207265656e7472616e742063616c6c0060448201526064016104a6565b6002600055565b600180546001600160a01b038381167fffffffffffffffffffffffff0000000000000000000000000000000000000000831681179093556040519116919082907f8be0079c531659141344cd1fd0a4f28419497f9722a3daafe3b4186f6b6457e090600090a35050565b6000602082840312156112bb57600080fd5b5035919050565b6001600160a01b038116811461115557600080fd5b6000602082840312156112e957600080fd5b81356112f4816112c2565b9392505050565b6000806040838503121561130e57600080fd5b8235611319816112c2565b946020939093013593505050565b60008060006060848603121561133c57600080fd5b83359250602084013561134e816112c2565b929592945050506040919091013590565b60008060006060848603121561137457600080fd5b833561137f816112c2565b95602085013595506040909401359392505050565b6000602082840312156113a657600080fd5b81516112f4816112c2565b7f4e487b7100000000000000000000000000000000000000000000000000000000600052601160045260246000fd5b8082028115828204841417610363576103636113b1565b60008261142d577f4e487b7100000000000000000000000000000000000000000000000000000000600052601260045260246000fd5b500490565b80820180821115610363576103636113b1565b81810381811115610363576103636113b1565b6000806040838503121561146b57600080fd5b8251611476816112c2565b602093909301519294929350505056fea26469706673582212206507ee0f0d0e9c95ba5bf90cd4660c5f11b8b3a195ba36800d5b88925623e67064736f6c63430008110033",
  "linkReferences": {},
  "deployedLinkReferences": {}
}