{
  "_format": "hh-sol-artifact-1",
  "contractName": "Market",
  "sourceName": "contracts/Market.sol",
  "abi": [
    {
      "inputs": [
        {
          "internalType": "uint256",
          "name": "_minimalPrice",
          "type": "uint256"
        },
        {
          "internalType": "uint256",
          "name": "_fixFee",
          "type": "uint256"
        },
        {
          "internalType": "uint256",
          "name": "_percentFee",
          "type": "uint256"
        }
      ],
      "stateMutability": "nonpayable",
      "type": "constructor"
    },
    {
      "inputs": [
        {
          "internalType": "address",
          "name": "nftAddress",
          "type": "address"
        },
        {
          "internalType": "uint256",
          "name": "tokenId",
          "type": "uint256"
        }
      ],
      "name": "Market_AlreadyOnSale",
      "type": "error"
    },
    {
      "inputs": [
        {
          "internalType": "address",
          "name": "nftAddress",
          "type": "address"
        },
        {
          "internalType": "uint256",
          "name": "tokenId",
          "type": "uint256"
        },
        {
          "internalType": "uint256",
          "name": "price",
          "type": "uint256"
        }
      ],
      "name": "Market_MissingFounds",
      "type": "error"
    },
    {
      "inputs": [],
      "name": "Market_MissingMarketApproval",
      "type": "error"
    },
    {
      "inputs": [],
      "name": "Market_NoEarnings",
      "type": "error"
    },
    {
      "inputs": [
        {
          "internalType": "address",
          "name": "nftAddress",
          "type": "address"
        },
        {
          "internalType": "uint256",
          "name": "tokenId",
          "type": "uint256"
        }
      ],
      "name": "Market_NotOnSale",
      "type": "error"
    },
    {
      "inputs": [],
      "name": "Market_NotOwner",
      "type": "error"
    },
    {
      "inputs": [],
      "name": "Market_PriceTooLow",
      "type": "error"
    },
    {
      "anonymous": false,
      "inputs": [
        {
          "indexed": true,
          "internalType": "address",
          "name": "seller",
          "type": "address"
        },
        {
          "indexed": false,
          "internalType": "uint256",
          "name": "amount",
          "type": "uint256"
        }
      ],
      "name": "EarningsWithdraw",
      "type": "event"
    },
    {
      "anonymous": false,
      "inputs": [
        {
          "indexed": false,
          "internalType": "uint256",
          "name": "newFixFeeSet",
          "type": "uint256"
        },
        {
          "indexed": false,
          "internalType": "uint256",
          "name": "oldFixFeeSet",
          "type": "uint256"
        }
      ],
      "name": "FixFeeSet",
      "type": "event"
    },
    {
      "anonymous": false,
      "inputs": [
        {
          "indexed": true,
          "internalType": "address",
          "name": "owner",
          "type": "address"
        },
        {
          "indexed": false,
          "internalType": "uint256",
          "name": "amountWithdrawed",
          "type": "uint256"
        }
      ],
      "name": "FundsReleased",
      "type": "event"
    },
    {
      "anonymous": false,
      "inputs": [
        {
          "indexed": false,
          "internalType": "uint256",
          "name": "newMinimalPrice",
          "type": "uint256"
        },
        {
          "indexed": false,
          "internalType": "uint256",
          "name": "oldMinimalPrice",
          "type": "uint256"
        }
      ],
      "name": "MinimalPriceSet",
      "type": "event"
    },
    {
      "anonymous": false,
      "inputs": [
        {
          "indexed": true,
          "internalType": "address",
          "name": "seller",
          "type": "address"
        },
        {
          "indexed": true,
          "internalType": "address",
          "name": "nftAddress",
          "type": "address"
        },
        {
          "indexed": true,
          "internalType": "uint256",
          "name": "tokenId",
          "type": "uint256"
        },
        {
          "indexed": false,
          "internalType": "uint256",
          "name": "price",
          "type": "uint256"
        }
      ],
      "name": "NFTOnSale",
      "type": "event"
    },
    {
      "anonymous": false,
      "inputs": [
        {
          "indexed": true,
          "internalType": "address",
          "name": "seller",
          "type": "address"
        },
        {
          "indexed": true,
          "internalType": "address",
          "name": "buyer",
          "type": "address"
        },
        {
          "indexed": true,
          "internalType": "address",
          "name": "nftAddress",
          "type": "address"
        },
        {
          "indexed": false,
          "internalType": "uint256",
          "name": "tokenId",
          "type": "uint256"
        },
        {
          "indexed": false,
          "internalType": "uint256",
          "name": "price",
          "type": "uint256"
        },
        {
          "indexed": false,
          "internalType": "uint256",
          "name": "royalties",
          "type": "uint256"
        },
        {
          "indexed": false,
          "internalType": "uint256",
          "name": "marketFee",
          "type": "uint256"
        }
      ],
      "name": "NFTSold",
      "type": "event"
    },
    {
      "anonymous": false,
      "inputs": [
        {
          "indexed": true,
          "internalType": "address",
          "name": "previousOwner",
          "type": "address"
        },
        {
          "indexed": true,
          "internalType": "address",
          "name": "newOwner",
          "type": "address"
        }
      ],
      "name": "OwnershipTransferred",
      "type": "event"
    },
    {
      "anonymous": false,
      "inputs": [
        {
          "indexed": false,
          "internalType": "uint256",
          "name": "newPercentFee",
          "type": "uint256"
        },
        {
          "indexed": false,
          "internalType": "uint256",
          "name": "oldPercentFee",
          "type": "uint256"
        }
      ],
      "name": "PercentFeeSet",
      "type": "event"
    },
    {
      "anonymous": false,
      "inputs": [
        {
          "indexed": true,
          "internalType": "address",
          "name": "seller",
          "type": "address"
        },
        {
          "indexed": true,
          "internalType": "address",
          "name": "nftAddress",
          "type": "address"
        },
        {
          "indexed": true,
          "internalType": "uint256",
          "name": "tokenId",
          "type": "uint256"
        }
      ],
      "name": "SaleDeleted",
      "type": "event"
    },
    {
      "inputs": [
        {
          "internalType": "address",
          "name": "_nftAddress",
          "type": "address"
        },
        {
          "internalType": "uint256",
          "name": "_tokenId",
          "type": "uint256"
        },
        {
          "internalType": "uint256",
          "name": "_price",
          "type": "uint256"
        }
      ],
      "name": "addToSale",
      "outputs": [],
      "stateMutability": "nonpayable",
      "type": "function"
    },
    {
      "inputs": [
        {
          "internalType": "address",
          "name": "_nftAddress",
          "type": "address"
        },
        {
          "internalType": "uint256",
          "name": "_tokenId",
          "type": "uint256"
        }
      ],
      "name": "buyItem",
      "outputs": [],
      "stateMutability": "payable",
      "type": "function"
    },
    {
      "inputs": [
        {
          "internalType": "address",
          "name": "_nftAddress",
          "type": "address"
        },
        {
          "internalType": "uint256",
          "name": "_tokenId",
          "type": "uint256"
        }
      ],
      "name": "deleteFromSale",
      "outputs": [],
      "stateMutability": "nonpayable",
      "type": "function"
    },
    {
      "inputs": [
        {
          "internalType": "address",
          "name": "_seller",
          "type": "address"
        }
      ],
      "name": "getEarnings",
      "outputs": [
        {
          "internalType": "uint256",
          "name": "",
          "type": "uint256"
        }
      ],
      "stateMutability": "view",
      "type": "function"
    },
    {
      "inputs": [],
      "name": "getFixFee",
      "outputs": [
        {
          "internalType": "uint256",
          "name": "",
          "type": "uint256"
        }
      ],
      "stateMutability": "view",
      "type": "function"
    },
    {
      "inputs": [],
      "name": "getMinimalPrice",
      "outputs": [
        {
          "internalType": "uint256",
          "name": "",
          "type": "uint256"
        }
      ],
      "stateMutability": "view",
      "type": "function"
    },
    {
      "inputs": [],
      "name": "getPercentFee",
      "outputs": [
        {
          "internalType": "uint256",
          "name": "",
          "type": "uint256"
        }
      ],
      "stateMutability": "view",
      "type": "function"
    },
    {
      "inputs": [
        {
          "internalType": "address",
          "name": "_nftAddress",
          "type": "address"
        },
        {
          "internalType": "uint256",
          "name": "_tokenId",
          "type": "uint256"
        }
      ],
      "name": "getSale",
      "outputs": [
        {
          "components": [
            {
              "internalType": "address",
              "name": "seller",
              "type": "address"
            },
            {
              "internalType": "uint256",
              "name": "price",
              "type": "uint256"
            }
          ],
          "internalType": "struct Market.Sale",
          "name": "",
          "type": "tuple"
        }
      ],
      "stateMutability": "view",
      "type": "function"
    },
    {
      "inputs": [],
      "name": "owner",
      "outputs": [
        {
          "internalType": "address",
          "name": "",
          "type": "address"
        }
      ],
      "stateMutability": "view",
      "type": "function"
    },
    {
      "inputs": [],
      "name": "releaseAll",
      "outputs": [],
      "stateMutability": "nonpayable",
      "type": "function"
    },
    {
      "inputs": [],
      "name": "renounceOwnership",
      "outputs": [],
      "stateMutability": "nonpayable",
      "type": "function"
    },
    {
      "inputs": [
        {
          "internalType": "uint256",
          "name": "_fixFee",
          "type": "uint256"
        }
      ],
      "name": "setFixFee",
      "outputs": [],
      "stateMutability": "nonpayable",
      "type": "function"
    },
    {
      "inputs": [
        {
          "internalType": "uint256",
          "name": "_minimalPrice",
          "type": "uint256"
        }
      ],
      "name": "setMinimalPrice",
      "outputs": [],
      "stateMutability": "nonpayable",
      "type": "function"
    },
    {
      "inputs": [
        {
          "internalType": "uint256",
          "name": "_percentFee",
          "type": "uint256"
        }
      ],
      "name": "setPercentFee",
      "outputs": [],
      "stateMutability": "nonpayable",
      "type": "function"
    },
    {
      "inputs": [
        {
          "internalType": "address",
          "name": "newOwner",
          "type": "address"
        }
      ],
      "name": "transferOwnership",
      "outputs": [],
      "stateMutability": "nonpayable",
      "type": "function"
    },
    {
      "inputs": [
        {
          "internalType": "uint256",
          "name": "_newPrice",
          "type": "uint256"
        },
        {
          "internalType": "address",
          "name": "_nftAddress",
          "type": "address"
        },
        {
          "internalType": "uint256",
          "name": "_tokenId",
          "type": "uint256"
        }
      ],
      "name": "updateSalePrice",
      "outputs": [],
      "stateMutability": "nonpayable",
      "type": "function"
    },
    {
      "inputs": [],
      "name": "withdraw",
      "outputs": [],
      "stateMutability": "nonpayable",
      "type": "function"
    }
  ],
  "bytecode": "0x608060405234801561001057600080fd5b5060405161173f38038061173f83398101604081905261002f916100a0565b600160005561003d3361004e565b6002929092556003556004556100ce565b600180546001600160a01b038381166001600160a01b0319831681179093556040519116919082907f8be0079c531659141344cd1fd0a4f28419497f9722a3daafe3b4186f6b6457e090600090a35050565b6000806000606084860312156100b557600080fd5b8351925060208401519150604084015190509250925092565b611662806100dd6000396000f3fe60806040526004361061010e5760003560e01c80634edbaadc116100a55780639f37092a11610074578063c5c48b3211610059578063c5c48b32146102e6578063f2fde38b14610306578063f7d9a98f1461032657600080fd5b80639f37092a146102b3578063a64947ef146102c657600080fd5b80634edbaadc1461024c5780635be7fde814610261578063715018a6146102765780638da5cb5b1461028b57600080fd5b80633f3ea6f6116100e15780633f3ea6f6146101d75780633faf04d8146101f75780634225d81a1461020c578063462f25181461022c57600080fd5b80630550102314610113578063131b9c0414610135578063225c31311461017e5780633ccfd60b146101c2575b600080fd5b34801561011f57600080fd5b5061013361012e36600461144f565b61033b565b005b34801561014157600080fd5b5061016b61015036600461147d565b6001600160a01b031660009081526006602052604090205490565b6040519081526020015b60405180910390f35b34801561018a57600080fd5b5061019e6101993660046114a1565b610385565b6040805182516001600160a01b031681526020928301519281019290925201610175565b3480156101ce57600080fd5b506101336103d6565b3480156101e357600080fd5b506101336101f23660046114a1565b610521565b34801561020357600080fd5b5060025461016b565b34801561021857600080fd5b5061013361022736600461144f565b61070e565b34801561023857600080fd5b506101336102473660046114cd565b610758565b34801561025857600080fd5b5060045461016b565b34801561026d57600080fd5b50610133610979565b34801561028257600080fd5b50610133610a0c565b34801561029757600080fd5b506001546040516001600160a01b039091168152602001610175565b6101336102c13660046114a1565b610a20565b3480156102d257600080fd5b506101336102e1366004611505565b610eb6565b3480156102f257600080fd5b5061013361030136600461144f565b61120a565b34801561031257600080fd5b5061013361032136600461147d565b611254565b34801561033257600080fd5b5060035461016b565b6103436112fe565b6004546040805183815260208101929092527f4c93d638f5051d44d02fe8eecc9cc8aa36fac1499b6860052b9845ef57f5b0fb910160405180910390a1600455565b604080518082018252600080825260209182018190526001600160a01b0385811682526005835283822085835283529083902083518085019094528054909116835260010154908201525b92915050565b3360009081526006602052604090205461041c576040517f48843e4600000000000000000000000000000000000000000000000000000000815260040160405180910390fd5b3360008181526006602090815260408083208054939055518281529192917f46607c042dac91993c80fe5f71d22be08aa96fe36e08d7bf7262d9ed277c54cf91015b60405180910390a2604051600090339083908381818185875af1925050503d80600081146104a8576040519150601f19603f3d011682016040523d82523d6000602084013e6104ad565b606091505b505090508061051d576040517f08c379a000000000000000000000000000000000000000000000000000000000815260206004820152600f60248201527f5769746864726177206661696c6564000000000000000000000000000000000060448201526064015b60405180910390fd5b5050565b6040517f6352211e0000000000000000000000000000000000000000000000000000000081526004810182905282908290339083906000906001600160a01b03831690636352211e90602401602060405180830381865afa15801561058a573d6000803e3d6000fd5b505050506040513d601f19601f820116820180604052508101906105ae919061153a565b9050806001600160a01b0316836001600160a01b0316146105fb576040517f03b1595d00000000000000000000000000000000000000000000000000000000815260040160405180910390fd5b6001600160a01b0380881660009081526005602090815260408083208a84528252918290208251808401909352805490931682526001909201549181018290528891889190610688576040517fb24fdee90000000000000000000000000000000000000000000000000000000081526001600160a01b038416600482015260248101839052604401610514565b6001600160a01b038a1660008181526005602090815260408083208d845290915280822080547fffffffffffffffffffffffff0000000000000000000000000000000000000000168155600101829055518b929133917f295120c833bea1573df28c5fa7e343ff0065dd6882784f70b7708c6ba2754bea9190a450505050505050505050565b6107166112fe565b6003546040805183815260208101929092527f1c81249f6b23f5a4e0e9fa0faa0a9c04cfd997ae2dddd747237059fca15ddb15910160405180910390a1600355565b6001600160a01b03808316600090815260056020908152604080832085845282529182902082518084019093528054909316825260019092015491810182905283918391906107e5576040517fb24fdee90000000000000000000000000000000000000000000000000000000081526001600160a01b038416600482015260248101839052604401610514565b6040517f6352211e0000000000000000000000000000000000000000000000000000000081526004810185905285908590339083906000906001600160a01b03831690636352211e90602401602060405180830381865afa15801561084e573d6000803e3d6000fd5b505050506040513d601f19601f82011682018060405250810190610872919061153a565b9050806001600160a01b0316836001600160a01b0316146108bf576040517f03b1595d00000000000000000000000000000000000000000000000000000000815260040160405180910390fd5b6108c7611372565b6002548b1015610903576040517fb3002c2500000000000000000000000000000000000000000000000000000000815260040160405180910390fd5b6001600160a01b038a1660008181526005602090815260408083208d84528252918290206001018e905590518d81528b929133917fa74bea88d1b7caecafb1c7bea393f717af76e1f82e711fd05c8d546bee8d8c92910160405180910390a461096c6001600055565b5050505050505050505050565b6109816112fe565b306000908152600660205260409020546109c7576040517f48843e4600000000000000000000000000000000000000000000000000000000815260040160405180910390fd5b30600090815260066020908152604080832080549390555182815233917f221c08a06b07a64803b3787861a3f276212fcccb51c2e6234077a9b8cb13047a910161045e565b610a146112fe565b610a1e60006113e5565b565b6001600160a01b0380831660009081526005602090815260408083208584528252918290208251808401909352805490931682526001909201549181018290528391839190610aad576040517fb24fdee90000000000000000000000000000000000000000000000000000000081526001600160a01b038416600482015260248101839052604401610514565b610ab5611372565b6001600160a01b03808616600090815260056020908152604080832088845282529182902082518084019093528054909316825260019092015491810182905290341015610b4e5760208101516040517f7765475a0000000000000000000000000000000000000000000000000000000081526001600160a01b0388166004820152602481018790526044810191909152606401610514565b600060035461271060045434610b649190611586565b610b6e919061159d565b610b7891906115d8565b9050600080886001600160a01b0316632a55205a89858760200151610b9d91906115eb565b6040517fffffffff0000000000000000000000000000000000000000000000000000000060e085901b168152600481019290925260248201526044016040805180830381865afa158015610bf5573d6000803e3d6000fd5b505050506040513d601f19601f82011682018060405250810190610c1991906115fe565b9092509050600081610c2b85346115eb565b610c3591906115eb565b85516001600160a01b0316600090815260066020526040812080549293508392909190610c639084906115d8565b90915550503060009081526006602052604081208054869290610c879084906115d8565b90915550506040516000906001600160a01b0385169084908381818185875af1925050503d8060008114610cd7576040519150601f19603f3d011682016040523d82523d6000602084013e610cdc565b606091505b5050905080610d47576040517f08c379a000000000000000000000000000000000000000000000000000000000815260206004820152601660248201527f526f79616c7479207061796d656e74206661696c6564000000000000000000006044820152606401610514565b600560008c6001600160a01b03166001600160a01b0316815260200190815260200160002060008b8152602001908152602001600020600080820160006101000a8154906001600160a01b030219169055600182016000905550508a6001600160a01b0316336001600160a01b031687600001516001600160a01b03167f6af0334658f813450ef67c4876855de3aa70ed91499f8378dc36dbb8d4df28b58d8a60200151888b604051610e13949392919093845260208401929092526040830152606082015260800190565b60405180910390a485516040517f42842e0e0000000000000000000000000000000000000000000000000000000081526001600160a01b039182166004820152336024820152604481018c9052908c16906342842e0e90606401600060405180830381600087803b158015610e8757600080fd5b505af1158015610e9b573d6000803e3d6000fd5b50505050505050505050610eaf6001600055565b5050505050565b6001600160a01b038084166000908152600560209081526040808320868452825291829020825180840190935280549093168252600190920154918101829052849184919015610f44576040517f10fedf5b0000000000000000000000000000000000000000000000000000000081526001600160a01b038416600482015260248101839052604401610514565b6040517f6352211e0000000000000000000000000000000000000000000000000000000081526004810186905286908690339083906000906001600160a01b03831690636352211e90602401602060405180830381865afa158015610fad573d6000803e3d6000fd5b505050506040513d601f19601f82011682018060405250810190610fd1919061153a565b9050806001600160a01b0316836001600160a01b03161461101e576040517f03b1595d00000000000000000000000000000000000000000000000000000000815260040160405180910390fd5b60025489101561105a576040517fb3002c2500000000000000000000000000000000000000000000000000000000815260040160405180910390fd5b6040517f081812fc000000000000000000000000000000000000000000000000000000008152600481018b90528b9030906001600160a01b0383169063081812fc90602401602060405180830381865afa1580156110bc573d6000803e3d6000fd5b505050506040513d601f19601f820116820180604052508101906110e0919061153a565b6001600160a01b031614611120576040517faf951b1d00000000000000000000000000000000000000000000000000000000815260040160405180910390fd5b6040518060400160405280336001600160a01b031681526020018b815250600560008e6001600160a01b03166001600160a01b0316815260200190815260200160002060008d815260200190815260200160002060008201518160000160006101000a8154816001600160a01b0302191690836001600160a01b03160217905550602082015181600101559050508a8c6001600160a01b0316336001600160a01b03167fa74bea88d1b7caecafb1c7bea393f717af76e1f82e711fd05c8d546bee8d8c928d6040516111f491815260200190565b60405180910390a4505050505050505050505050565b6112126112fe565b6002546040805183815260208101929092527fd1a16113d9f9dd90299db45550943a246945c822d1d69d91766b9719fe65ac3a910160405180910390a1600255565b61125c6112fe565b6001600160a01b0381166112f2576040517f08c379a000000000000000000000000000000000000000000000000000000000815260206004820152602660248201527f4f776e61626c653a206e6577206f776e657220697320746865207a65726f206160448201527f64647265737300000000000000000000000000000000000000000000000000006064820152608401610514565b6112fb816113e5565b50565b6001546001600160a01b03163314610a1e576040517f08c379a000000000000000000000000000000000000000000000000000000000815260206004820181905260248201527f4f776e61626c653a2063616c6c6572206973206e6f7420746865206f776e65726044820152606401610514565b6002600054036113de576040517f08c379a000000000000000000000000000000000000000000000000000000000815260206004820152601f60248201527f5265656e7472616e637947756172643a207265656e7472616e742063616c6c006044820152606401610514565b6002600055565b600180546001600160a01b038381167fffffffffffffffffffffffff0000000000000000000000000000000000000000831681179093556040519116919082907f8be0079c531659141344cd1fd0a4f28419497f9722a3daafe3b4186f6b6457e090600090a35050565b60006020828403121561146157600080fd5b5035919050565b6001600160a01b03811681146112fb57600080fd5b60006020828403121561148f57600080fd5b813561149a81611468565b9392505050565b600080604083850312156114b457600080fd5b82356114bf81611468565b946020939093013593505050565b6000806000606084860312156114e257600080fd5b8335925060208401356114f481611468565b929592945050506040919091013590565b60008060006060848603121561151a57600080fd5b833561152581611468565b95602085013595506040909401359392505050565b60006020828403121561154c57600080fd5b815161149a81611468565b7f4e487b7100000000000000000000000000000000000000000000000000000000600052601160045260246000fd5b80820281158282048414176103d0576103d0611557565b6000826115d3577f4e487b7100000000000000000000000000000000000000000000000000000000600052601260045260246000fd5b500490565b808201808211156103d0576103d0611557565b818103818111156103d0576103d0611557565b6000806040838503121561161157600080fd5b825161161c81611468565b602093909301519294929350505056fea264697066735822122067f457267a0906519ef894fea6414343b30ecdad9324361f7d78af93ff22566664736f6c63430008110033",
  "linkReferences": {},
  "deployedLinkReferences": {}
}