{
  "_format": "hh-sol-artifact-1",
  "contractName": "History",
  "sourceName": "contracts/History.sol",
  "abi": [
    {
      "inputs": [
        {
          "internalType": "string",
          "name": "_baseURI",
          "type": "string"
        }
      ],
      "stateMutability": "nonpayable",
      "type": "constructor"
    },
    {
      "inputs": [],
      "name": "ApprovalCallerNotOwnerNorApproved",
      "type": "error"
    },
    {
      "inputs": [],
      "name": "ApprovalQueryForNonexistentToken",
      "type": "error"
    },
    {
      "inputs": [],
      "name": "BalanceQueryForZeroAddress",
      "type": "error"
    },
    {
      "inputs": [],
      "name": "MintERC2309QuantityExceedsLimit",
      "type": "error"
    },
    {
      "inputs": [],
      "name": "MintToZeroAddress",
      "type": "error"
    },
    {
      "inputs": [],
      "name": "MintZeroQuantity",
      "type": "error"
    },
    {
      "inputs": [],
      "name": "OwnerQueryForNonexistentToken",
      "type": "error"
    },
    {
      "inputs": [],
      "name": "OwnershipNotInitializedForExtraData",
      "type": "error"
    },
    {
      "inputs": [],
      "name": "TransferCallerNotOwnerNorApproved",
      "type": "error"
    },
    {
      "inputs": [],
      "name": "TransferFromIncorrectOwner",
      "type": "error"
    },
    {
      "inputs": [],
      "name": "TransferToNonERC721ReceiverImplementer",
      "type": "error"
    },
    {
      "inputs": [],
      "name": "TransferToZeroAddress",
      "type": "error"
    },
    {
      "inputs": [],
      "name": "URIQueryForNonexistentToken",
      "type": "error"
    },
    {
      "anonymous": false,
      "inputs": [
        {
          "indexed": true,
          "internalType": "address",
          "name": "owner",
          "type": "address"
        },
        {
          "indexed": true,
          "internalType": "address",
          "name": "approved",
          "type": "address"
        },
        {
          "indexed": true,
          "internalType": "uint256",
          "name": "tokenId",
          "type": "uint256"
        }
      ],
      "name": "Approval",
      "type": "event"
    },
    {
      "anonymous": false,
      "inputs": [
        {
          "indexed": true,
          "internalType": "address",
          "name": "owner",
          "type": "address"
        },
        {
          "indexed": true,
          "internalType": "address",
          "name": "operator",
          "type": "address"
        },
        {
          "indexed": false,
          "internalType": "bool",
          "name": "approved",
          "type": "bool"
        }
      ],
      "name": "ApprovalForAll",
      "type": "event"
    },
    {
      "anonymous": false,
      "inputs": [
        {
          "indexed": true,
          "internalType": "uint256",
          "name": "fromTokenId",
          "type": "uint256"
        },
        {
          "indexed": false,
          "internalType": "uint256",
          "name": "toTokenId",
          "type": "uint256"
        },
        {
          "indexed": true,
          "internalType": "address",
          "name": "from",
          "type": "address"
        },
        {
          "indexed": true,
          "internalType": "address",
          "name": "to",
          "type": "address"
        }
      ],
      "name": "ConsecutiveTransfer",
      "type": "event"
    },
    {
      "anonymous": false,
      "inputs": [
        {
          "indexed": true,
          "internalType": "contract IERC20",
          "name": "token",
          "type": "address"
        },
        {
          "indexed": false,
          "internalType": "address",
          "name": "to",
          "type": "address"
        },
        {
          "indexed": false,
          "internalType": "uint256",
          "name": "amount",
          "type": "uint256"
        }
      ],
      "name": "ERC20PaymentReleased",
      "type": "event"
    },
    {
      "anonymous": false,
      "inputs": [
        {
          "indexed": true,
          "internalType": "address",
          "name": "previousOwner",
          "type": "address"
        },
        {
          "indexed": true,
          "internalType": "address",
          "name": "newOwner",
          "type": "address"
        }
      ],
      "name": "OwnershipTransferred",
      "type": "event"
    },
    {
      "anonymous": false,
      "inputs": [
        {
          "indexed": false,
          "internalType": "address",
          "name": "account",
          "type": "address"
        },
        {
          "indexed": false,
          "internalType": "uint256",
          "name": "shares",
          "type": "uint256"
        }
      ],
      "name": "PayeeAdded",
      "type": "event"
    },
    {
      "anonymous": false,
      "inputs": [
        {
          "indexed": false,
          "internalType": "address",
          "name": "from",
          "type": "address"
        },
        {
          "indexed": false,
          "internalType": "uint256",
          "name": "amount",
          "type": "uint256"
        }
      ],
      "name": "PaymentReceived",
      "type": "event"
    },
    {
      "anonymous": false,
      "inputs": [
        {
          "indexed": false,
          "internalType": "address",
          "name": "to",
          "type": "address"
        },
        {
          "indexed": false,
          "internalType": "uint256",
          "name": "amount",
          "type": "uint256"
        }
      ],
      "name": "PaymentReleased",
      "type": "event"
    },
    {
      "anonymous": false,
      "inputs": [
        {
          "indexed": true,
          "internalType": "address",
          "name": "from",
          "type": "address"
        },
        {
          "indexed": true,
          "internalType": "address",
          "name": "to",
          "type": "address"
        },
        {
          "indexed": true,
          "internalType": "uint256",
          "name": "tokenId",
          "type": "uint256"
        }
      ],
      "name": "Transfer",
      "type": "event"
    },
    {
      "inputs": [
        {
          "internalType": "address",
          "name": "to",
          "type": "address"
        },
        {
          "internalType": "uint256",
          "name": "tokenId",
          "type": "uint256"
        }
      ],
      "name": "approve",
      "outputs": [],
      "stateMutability": "payable",
      "type": "function"
    },
    {
      "inputs": [
        {
          "internalType": "address",
          "name": "owner",
          "type": "address"
        }
      ],
      "name": "balanceOf",
      "outputs": [
        {
          "internalType": "uint256",
          "name": "",
          "type": "uint256"
        }
      ],
      "stateMutability": "view",
      "type": "function"
    },
    {
      "inputs": [
        {
          "internalType": "uint256",
          "name": "tokenId",
          "type": "uint256"
        }
      ],
      "name": "getApproved",
      "outputs": [
        {
          "internalType": "address",
          "name": "",
          "type": "address"
        }
      ],
      "stateMutability": "view",
      "type": "function"
    },
    {
      "inputs": [
        {
          "internalType": "address",
          "name": "owner",
          "type": "address"
        },
        {
          "internalType": "address",
          "name": "operator",
          "type": "address"
        }
      ],
      "name": "isApprovedForAll",
      "outputs": [
        {
          "internalType": "bool",
          "name": "",
          "type": "bool"
        }
      ],
      "stateMutability": "view",
      "type": "function"
    },
    {
      "inputs": [
        {
          "internalType": "uint256",
          "name": "_quantity",
          "type": "uint256"
        }
      ],
      "name": "mint",
      "outputs": [],
      "stateMutability": "payable",
      "type": "function"
    },
    {
      "inputs": [],
      "name": "name",
      "outputs": [
        {
          "internalType": "string",
          "name": "",
          "type": "string"
        }
      ],
      "stateMutability": "view",
      "type": "function"
    },
    {
      "inputs": [],
      "name": "owner",
      "outputs": [
        {
          "internalType": "address",
          "name": "",
          "type": "address"
        }
      ],
      "stateMutability": "view",
      "type": "function"
    },
    {
      "inputs": [
        {
          "internalType": "uint256",
          "name": "tokenId",
          "type": "uint256"
        }
      ],
      "name": "ownerOf",
      "outputs": [
        {
          "internalType": "address",
          "name": "",
          "type": "address"
        }
      ],
      "stateMutability": "view",
      "type": "function"
    },
    {
      "inputs": [
        {
          "internalType": "uint256",
          "name": "index",
          "type": "uint256"
        }
      ],
      "name": "payee",
      "outputs": [
        {
          "internalType": "address",
          "name": "",
          "type": "address"
        }
      ],
      "stateMutability": "view",
      "type": "function"
    },
    {
      "inputs": [
        {
          "internalType": "address",
          "name": "account",
          "type": "address"
        }
      ],
      "name": "releasable",
      "outputs": [
        {
          "internalType": "uint256",
          "name": "",
          "type": "uint256"
        }
      ],
      "stateMutability": "view",
      "type": "function"
    },
    {
      "inputs": [
        {
          "internalType": "contract IERC20",
          "name": "token",
          "type": "address"
        },
        {
          "internalType": "address",
          "name": "account",
          "type": "address"
        }
      ],
      "name": "releasable",
      "outputs": [
        {
          "internalType": "uint256",
          "name": "",
          "type": "uint256"
        }
      ],
      "stateMutability": "view",
      "type": "function"
    },
    {
      "inputs": [
        {
          "internalType": "address payable",
          "name": "account",
          "type": "address"
        }
      ],
      "name": "release",
      "outputs": [],
      "stateMutability": "nonpayable",
      "type": "function"
    },
    {
      "inputs": [
        {
          "internalType": "contract IERC20",
          "name": "token",
          "type": "address"
        },
        {
          "internalType": "address",
          "name": "account",
          "type": "address"
        }
      ],
      "name": "release",
      "outputs": [],
      "stateMutability": "nonpayable",
      "type": "function"
    },
    {
      "inputs": [],
      "name": "releaseAll",
      "outputs": [],
      "stateMutability": "nonpayable",
      "type": "function"
    },
    {
      "inputs": [
        {
          "internalType": "contract IERC20",
          "name": "token",
          "type": "address"
        },
        {
          "internalType": "address",
          "name": "account",
          "type": "address"
        }
      ],
      "name": "released",
      "outputs": [
        {
          "internalType": "uint256",
          "name": "",
          "type": "uint256"
        }
      ],
      "stateMutability": "view",
      "type": "function"
    },
    {
      "inputs": [
        {
          "internalType": "address",
          "name": "account",
          "type": "address"
        }
      ],
      "name": "released",
      "outputs": [
        {
          "internalType": "uint256",
          "name": "",
          "type": "uint256"
        }
      ],
      "stateMutability": "view",
      "type": "function"
    },
    {
      "inputs": [],
      "name": "renounceOwnership",
      "outputs": [],
      "stateMutability": "nonpayable",
      "type": "function"
    },
    {
      "inputs": [
        {
          "internalType": "address",
          "name": "from",
          "type": "address"
        },
        {
          "internalType": "address",
          "name": "to",
          "type": "address"
        },
        {
          "internalType": "uint256",
          "name": "tokenId",
          "type": "uint256"
        }
      ],
      "name": "safeTransferFrom",
      "outputs": [],
      "stateMutability": "payable",
      "type": "function"
    },
    {
      "inputs": [
        {
          "internalType": "address",
          "name": "from",
          "type": "address"
        },
        {
          "internalType": "address",
          "name": "to",
          "type": "address"
        },
        {
          "internalType": "uint256",
          "name": "tokenId",
          "type": "uint256"
        },
        {
          "internalType": "bytes",
          "name": "_data",
          "type": "bytes"
        }
      ],
      "name": "safeTransferFrom",
      "outputs": [],
      "stateMutability": "payable",
      "type": "function"
    },
    {
      "inputs": [
        {
          "internalType": "address",
          "name": "operator",
          "type": "address"
        },
        {
          "internalType": "bool",
          "name": "approved",
          "type": "bool"
        }
      ],
      "name": "setApprovalForAll",
      "outputs": [],
      "stateMutability": "nonpayable",
      "type": "function"
    },
    {
      "inputs": [
        {
          "internalType": "string",
          "name": "_baseURI",
          "type": "string"
        }
      ],
      "name": "setBaseURI",
      "outputs": [],
      "stateMutability": "nonpayable",
      "type": "function"
    },
    {
      "inputs": [
        {
          "internalType": "address",
          "name": "account",
          "type": "address"
        }
      ],
      "name": "shares",
      "outputs": [
        {
          "internalType": "uint256",
          "name": "",
          "type": "uint256"
        }
      ],
      "stateMutability": "view",
      "type": "function"
    },
    {
      "inputs": [
        {
          "internalType": "bytes4",
          "name": "interfaceId",
          "type": "bytes4"
        }
      ],
      "name": "supportsInterface",
      "outputs": [
        {
          "internalType": "bool",
          "name": "",
          "type": "bool"
        }
      ],
      "stateMutability": "view",
      "type": "function"
    },
    {
      "inputs": [],
      "name": "symbol",
      "outputs": [
        {
          "internalType": "string",
          "name": "",
          "type": "string"
        }
      ],
      "stateMutability": "view",
      "type": "function"
    },
    {
      "inputs": [
        {
          "internalType": "uint256",
          "name": "_tokenId",
          "type": "uint256"
        }
      ],
      "name": "tokenURI",
      "outputs": [
        {
          "internalType": "string",
          "name": "",
          "type": "string"
        }
      ],
      "stateMutability": "view",
      "type": "function"
    },
    {
      "inputs": [
        {
          "internalType": "contract IERC20",
          "name": "token",
          "type": "address"
        }
      ],
      "name": "totalReleased",
      "outputs": [
        {
          "internalType": "uint256",
          "name": "",
          "type": "uint256"
        }
      ],
      "stateMutability": "view",
      "type": "function"
    },
    {
      "inputs": [],
      "name": "totalReleased",
      "outputs": [
        {
          "internalType": "uint256",
          "name": "",
          "type": "uint256"
        }
      ],
      "stateMutability": "view",
      "type": "function"
    },
    {
      "inputs": [],
      "name": "totalShares",
      "outputs": [
        {
          "internalType": "uint256",
          "name": "",
          "type": "uint256"
        }
      ],
      "stateMutability": "view",
      "type": "function"
    },
    {
      "inputs": [],
      "name": "totalSupply",
      "outputs": [
        {
          "internalType": "uint256",
          "name": "",
          "type": "uint256"
        }
      ],
      "stateMutability": "view",
      "type": "function"
    },
    {
      "inputs": [
        {
          "internalType": "address",
          "name": "from",
          "type": "address"
        },
        {
          "internalType": "address",
          "name": "to",
          "type": "address"
        },
        {
          "internalType": "uint256",
          "name": "tokenId",
          "type": "uint256"
        }
      ],
      "name": "transferFrom",
      "outputs": [],
      "stateMutability": "payable",
      "type": "function"
    },
    {
      "inputs": [
        {
          "internalType": "address",
          "name": "newOwner",
          "type": "address"
        }
      ],
      "name": "transferOwnership",
      "outputs": [],
      "stateMutability": "nonpayable",
      "type": "function"
    },
    {
      "stateMutability": "payable",
      "type": "receive"
    }
  ],
  "bytecode": "0x60e060405273a770487d72baad096729965011b90ffedfecb1b460a090815273fc7ceeb77a94eabb99d0dd55f99784f29abfb40160c052620000469060129060026200054e565b506040805180820190915260148152605060208201526200006c906013906002620005b8565b503480156200007a57600080fd5b50604051620030ac380380620030ac8339810160408190526200009d9162000628565b6012805480602002602001604051908101604052809291908181526020018280548015620000f557602002820191906000526020600020905b81546001600160a01b03168152600190910190602001808311620000d6575b505050505060138054806020026020016040519081016040528092919081815260200182805480156200014857602002820191906000526020600020905b81548152602001906001019080831162000133575b505050505060405180604001604052806007815260200166486973746f727960c81b8152506040518060400160405280600381526020016248545960e81b81525081600290816200019a91906200078c565b506003620001a982826200078c565b50506000805550620001bb336200030e565b80518251146200022d5760405162461bcd60e51b815260206004820152603260248201527f5061796d656e7453706c69747465723a2070617965657320616e6420736861726044820152710cae640d8cadccee8d040dad2e6dac2e8c6d60731b60648201526084015b60405180910390fd5b6000825111620002805760405162461bcd60e51b815260206004820152601a60248201527f5061796d656e7453706c69747465723a206e6f20706179656573000000000000604482015260640162000224565b60005b8251811015620002ec57620002d7838281518110620002a657620002a662000858565b6020026020010151838381518110620002c357620002c362000858565b60200260200101516200036060201b60201c565b80620002e38162000884565b91505062000283565b505060125460ff166080525060116200030682826200078c565b5050620008bc565b600880546001600160a01b038381166001600160a01b0319831681179093556040519116919082907f8be0079c531659141344cd1fd0a4f28419497f9722a3daafe3b4186f6b6457e090600090a35050565b6001600160a01b038216620003cd5760405162461bcd60e51b815260206004820152602c60248201527f5061796d656e7453706c69747465723a206163636f756e74206973207468652060448201526b7a65726f206164647265737360a01b606482015260840162000224565b600081116200041f5760405162461bcd60e51b815260206004820152601d60248201527f5061796d656e7453706c69747465723a20736861726573206172652030000000604482015260640162000224565b6001600160a01b0382166000908152600b6020526040902054156200049b5760405162461bcd60e51b815260206004820152602b60248201527f5061796d656e7453706c69747465723a206163636f756e7420616c726561647960448201526a206861732073686172657360a81b606482015260840162000224565b600d8054600181019091557fd7b6990105719101dabeb77144f2a3385c8033acd3af97e9423a695e81ad1eb50180546001600160a01b0319166001600160a01b0384169081179091556000908152600b6020526040902081905560095462000505908290620008a0565b600955604080516001600160a01b0384168152602081018390527f40c340f65e17194d14ddddb073d3c9f888e3cb52b5aae0c6c7706b4fbc905fac910160405180910390a15050565b828054828255906000526020600020908101928215620005a6579160200282015b82811115620005a657825182546001600160a01b0319166001600160a01b039091161782556020909201916001909101906200056f565b50620005b4929150620005fb565b5090565b828054828255906000526020600020908101928215620005a6579160200282015b82811115620005a6578251829060ff16905591602001919060010190620005d9565b5b80821115620005b45760008155600101620005fc565b634e487b7160e01b600052604160045260246000fd5b600060208083850312156200063c57600080fd5b82516001600160401b03808211156200065457600080fd5b818501915085601f8301126200066957600080fd5b8151818111156200067e576200067e62000612565b604051601f8201601f19908116603f01168101908382118183101715620006a957620006a962000612565b816040528281528886848701011115620006c257600080fd5b600093505b82841015620006e65784840186015181850187015292850192620006c7565b600086848301015280965050505050505092915050565b600181811c908216806200071257607f821691505b6020821081036200073357634e487b7160e01b600052602260045260246000fd5b50919050565b601f8211156200078757600081815260208120601f850160051c81016020861015620007625750805b601f850160051c820191505b8181101562000783578281556001016200076e565b5050505b505050565b81516001600160401b03811115620007a857620007a862000612565b620007c081620007b98454620006fd565b8462000739565b602080601f831160018114620007f85760008415620007df5750858301515b600019600386901b1c1916600185901b17855562000783565b600085815260208120601f198616915b82811015620008295788860151825594840194600190910190840162000808565b5085821015620008485787850151600019600388901b60f8161c191681555b5050505050600190811b01905550565b634e487b7160e01b600052603260045260246000fd5b634e487b7160e01b600052601160045260246000fd5b6000600182016200089957620008996200086e565b5060010190565b80820180821115620008b657620008b66200086e565b92915050565b6080516127d4620008d86000396000610fdf01526127d46000f3fe6080604052600436106101dc5760003560e01c8063715018a611610102578063b88d4fde11610095578063d79779b211610064578063d79779b2146105eb578063e33b7de31461062e578063e985e9c514610643578063f2fde38b1461069957600080fd5b8063b88d4fde14610555578063c45ac05014610568578063c87b56dd14610588578063ce7c2ac2146105a857600080fd5b80639852595c116100d15780639852595c146104bf578063a0712d6814610502578063a22cb46514610515578063a3f8eace1461053557600080fd5b8063715018a61461044a5780638b83209b1461045f5780638da5cb5b1461047f57806395d89b41146104aa57600080fd5b80633a98ef391161017a57806355f804b31161014957806355f804b3146103d55780635be7fde8146103f55780636352211e1461040a57806370a082311461042a57600080fd5b80633a98ef391461033a578063406072a91461034f57806342842e0e146103a257806348b75044146103b557600080fd5b8063095ea7b3116101b6578063095ea7b3146102cf57806318160ddd146102e4578063191655871461030757806323b872dd1461032757600080fd5b806301ffc9a71461023357806306fdde0314610268578063081812fc1461028a57600080fd5b3661022e5760405162461bcd60e51b815260206004820152601060248201527f4f6e6c7920696620796f75206d696e740000000000000000000000000000000060448201526064015b60405180910390fd5b600080fd5b34801561023f57600080fd5b5061025361024e36600461204e565b6106b9565b60405190151581526020015b60405180910390f35b34801561027457600080fd5b5061027d61079e565b60405161025f91906120d9565b34801561029657600080fd5b506102aa6102a53660046120ec565b610830565b60405173ffffffffffffffffffffffffffffffffffffffff909116815260200161025f565b6102e26102dd366004612127565b61089a565b005b3480156102f057600080fd5b50600154600054035b60405190815260200161025f565b34801561031357600080fd5b506102e2610322366004612153565b610985565b6102e2610335366004612170565b610b3f565b34801561034657600080fd5b506009546102f9565b34801561035b57600080fd5b506102f961036a3660046121b1565b73ffffffffffffffffffffffffffffffffffffffff9182166000908152600f6020908152604080832093909416825291909152205490565b6102e26103b0366004612170565b610db1565b3480156103c157600080fd5b506102e26103d03660046121b1565b610dd1565b3480156103e157600080fd5b506102e26103f03660046122ad565b610fc2565b34801561040157600080fd5b506102e2610fda565b34801561041657600080fd5b506102aa6104253660046120ec565b611029565b34801561043657600080fd5b506102f9610445366004612153565b611034565b34801561045657600080fd5b506102e26110b6565b34801561046b57600080fd5b506102aa61047a3660046120ec565b6110ca565b34801561048b57600080fd5b5060085473ffffffffffffffffffffffffffffffffffffffff166102aa565b3480156104b657600080fd5b5061027d611107565b3480156104cb57600080fd5b506102f96104da366004612153565b73ffffffffffffffffffffffffffffffffffffffff166000908152600c602052604090205490565b6102e26105103660046120ec565b611116565b34801561052157600080fd5b506102e2610530366004612304565b611279565b34801561054157600080fd5b506102f9610550366004612153565b611310565b6102e2610563366004612332565b611365565b34801561057457600080fd5b506102f96105833660046121b1565b6113d5565b34801561059457600080fd5b5061027d6105a33660046120ec565b6114e0565b3480156105b457600080fd5b506102f96105c3366004612153565b73ffffffffffffffffffffffffffffffffffffffff166000908152600b602052604090205490565b3480156105f757600080fd5b506102f9610606366004612153565b73ffffffffffffffffffffffffffffffffffffffff166000908152600e602052604090205490565b34801561063a57600080fd5b50600a546102f9565b34801561064f57600080fd5b5061025361065e3660046121b1565b73ffffffffffffffffffffffffffffffffffffffff918216600090815260076020908152604080832093909416825291909152205460ff1690565b3480156106a557600080fd5b506102e26106b4366004612153565b611569565b60007f01ffc9a7000000000000000000000000000000000000000000000000000000007fffffffff000000000000000000000000000000000000000000000000000000008316148061074c57507f80ac58cd000000000000000000000000000000000000000000000000000000007fffffffff000000000000000000000000000000000000000000000000000000008316145b8061079857507f5b5e139f000000000000000000000000000000000000000000000000000000007fffffffff000000000000000000000000000000000000000000000000000000008316145b92915050565b6060600280546107ad906123b2565b80601f01602080910402602001604051908101604052809291908181526020018280546107d9906123b2565b80156108265780601f106107fb57610100808354040283529160200191610826565b820191906000526020600020905b81548152906001019060200180831161080957829003601f168201915b5050505050905090565b600061083b82611603565b610871576040517fcf4700e400000000000000000000000000000000000000000000000000000000815260040160405180910390fd5b5060009081526006602052604090205473ffffffffffffffffffffffffffffffffffffffff1690565b60006108a582611029565b90503373ffffffffffffffffffffffffffffffffffffffff821614610904576108ce813361065e565b610904576040517fcfb3b94200000000000000000000000000000000000000000000000000000000815260040160405180910390fd5b60008281526006602052604080822080547fffffffffffffffffffffffff00000000000000000000000000000000000000001673ffffffffffffffffffffffffffffffffffffffff87811691821790925591518593918516917f8c5be1e5ebec7d5bd14f71427d1e84f3dd0314c0f7b2291e5b200ac8c7c3b92591a4505050565b73ffffffffffffffffffffffffffffffffffffffff81166000908152600b6020526040902054610a1d5760405162461bcd60e51b815260206004820152602660248201527f5061796d656e7453706c69747465723a206163636f756e7420686173206e6f2060448201527f73686172657300000000000000000000000000000000000000000000000000006064820152608401610225565b6000610a2882611310565b905080600003610aa05760405162461bcd60e51b815260206004820152602b60248201527f5061796d656e7453706c69747465723a206163636f756e74206973206e6f742060448201527f647565207061796d656e740000000000000000000000000000000000000000006064820152608401610225565b80600a6000828254610ab29190612434565b909155505073ffffffffffffffffffffffffffffffffffffffff82166000908152600c60205260409020805482019055610aec8282611643565b6040805173ffffffffffffffffffffffffffffffffffffffff84168152602081018390527fdf20fd1e76bc69d672e4814fafb2c449bba3a5369d8359adf9e05e6fde87b056910160405180910390a15050565b6000610b4a82611769565b90508373ffffffffffffffffffffffffffffffffffffffff168173ffffffffffffffffffffffffffffffffffffffff1614610bb1576040517fa114810000000000000000000000000000000000000000000000000000000000815260040160405180910390fd5b600082815260066020526040902080543380821473ffffffffffffffffffffffffffffffffffffffff881690911417610c2457610bee863361065e565b610c24576040517f59c896be00000000000000000000000000000000000000000000000000000000815260040160405180910390fd5b73ffffffffffffffffffffffffffffffffffffffff8516610c71576040517fea553b3400000000000000000000000000000000000000000000000000000000815260040160405180910390fd5b8015610c7c57600082555b73ffffffffffffffffffffffffffffffffffffffff8681166000908152600560205260408082208054600019019055918716808252919020805460010190554260a01b177c0200000000000000000000000000000000000000000000000000000000176000858152600460205260408120919091557c020000000000000000000000000000000000000000000000000000000084169003610d4d57600184016000818152600460205260408120549003610d4b576000548114610d4b5760008181526004602052604090208490555b505b838573ffffffffffffffffffffffffffffffffffffffff168773ffffffffffffffffffffffffffffffffffffffff167fddf252ad1be2c89b69c2b068fc378daa952ba7f163c4a11628f55a4df523b3ef60405160405180910390a45b505050505050565b610dcc83838360405180602001604052806000815250611365565b505050565b73ffffffffffffffffffffffffffffffffffffffff81166000908152600b6020526040902054610e695760405162461bcd60e51b815260206004820152602660248201527f5061796d656e7453706c69747465723a206163636f756e7420686173206e6f2060448201527f73686172657300000000000000000000000000000000000000000000000000006064820152608401610225565b6000610e7583836113d5565b905080600003610eed5760405162461bcd60e51b815260206004820152602b60248201527f5061796d656e7453706c69747465723a206163636f756e74206973206e6f742060448201527f647565207061796d656e740000000000000000000000000000000000000000006064820152608401610225565b73ffffffffffffffffffffffffffffffffffffffff83166000908152600e602052604081208054839290610f22908490612434565b909155505073ffffffffffffffffffffffffffffffffffffffff8084166000908152600f60209081526040808320938616835292905220805482019055610f6a838383611802565b6040805173ffffffffffffffffffffffffffffffffffffffff8481168252602082018490528516917f3be5b7a71e84ed12875d241991c70855ac5817d847039e17a9d895c1ceb0f18a910160405180910390a2505050565b610fca61188f565b6011610fd6828261248d565b5050565b60005b7f000000000000000000000000000000000000000000000000000000000000000060ff1681101561102657611014610322826110ca565b8061101e8161256b565b915050610fdd565b50565b600061079882611769565b600073ffffffffffffffffffffffffffffffffffffffff8216611083576040517f8f4eb60400000000000000000000000000000000000000000000000000000000815260040160405180910390fd5b5073ffffffffffffffffffffffffffffffffffffffff1660009081526005602052604090205467ffffffffffffffff1690565b6110be61188f565b6110c860006118f6565b565b6000600d82815481106110df576110df612585565b60009182526020909120015473ffffffffffffffffffffffffffffffffffffffff1692915050565b6060600380546107ad906123b2565b33600090815260106020526040902054600190611134908390612434565b11156111825760405162461bcd60e51b815260206004820152601760248201527f596f752063616e206f6e6c79206d696e742031204e46540000000000000000006044820152606401610225565b6014816111926001546000540390565b61119c9190612434565b11156111ea5760405162461bcd60e51b815260206004820152601360248201527f4d617820737570706c79206578636565646564000000000000000000000000006044820152606401610225565b6111fb66b1a2bc2ec50000826125b4565b34101561124a5760405162461bcd60e51b815260206004820152601960248201527f4e6f7420656e6f7567682066756e64732070726f7669646564000000000000006044820152606401610225565b3360009081526010602052604081208054839290611269908490612434565b909155506110269050338261196d565b33600081815260076020908152604080832073ffffffffffffffffffffffffffffffffffffffff87168085529083529281902080547fffffffffffffffffffffffffffffffffffffffffffffffffffffffffffffff001686151590811790915590519081529192917f17307eab39ab6107e8899845ad3d59bd9653f200f220920489ca2b5937696c31910160405180910390a35050565b60008061131c600a5490565b6113269047612434565b905061135e83826113598673ffffffffffffffffffffffffffffffffffffffff166000908152600c602052604090205490565b611aab565b9392505050565b611370848484610b3f565b73ffffffffffffffffffffffffffffffffffffffff83163b156113cf5761139984848484611af6565b6113cf576040517fd1a57ed600000000000000000000000000000000000000000000000000000000815260040160405180910390fd5b50505050565b73ffffffffffffffffffffffffffffffffffffffff82166000908152600e602052604081205481906040517f70a0823100000000000000000000000000000000000000000000000000000000815230600482015273ffffffffffffffffffffffffffffffffffffffff8616906370a0823190602401602060405180830381865afa158015611467573d6000803e3d6000fd5b505050506040513d601f19601f8201168201806040525081019061148b91906125cb565b6114959190612434565b73ffffffffffffffffffffffffffffffffffffffff8086166000908152600f60209081526040808320938816835292905220549091506114d89084908390611aab565b949350505050565b60606114eb82611603565b6115375760405162461bcd60e51b815260206004820152601f60248201527f55524920717565727920666f72206e6f6e6578697374656e7420746f6b656e006044820152606401610225565b601161154283611c6f565b6040516020016115539291906125e4565b6040516020818303038152906040529050919050565b61157161188f565b73ffffffffffffffffffffffffffffffffffffffff81166115fa5760405162461bcd60e51b815260206004820152602660248201527f4f776e61626c653a206e6577206f776e657220697320746865207a65726f206160448201527f64647265737300000000000000000000000000000000000000000000000000006064820152608401610225565b611026816118f6565b60008054821080156107985750506000908152600460205260409020547c0100000000000000000000000000000000000000000000000000000000161590565b804710156116935760405162461bcd60e51b815260206004820152601d60248201527f416464726573733a20696e73756666696369656e742062616c616e63650000006044820152606401610225565b60008273ffffffffffffffffffffffffffffffffffffffff168260405160006040518083038185875af1925050503d80600081146116ed576040519150601f19603f3d011682016040523d82523d6000602084013e6116f2565b606091505b5050905080610dcc5760405162461bcd60e51b815260206004820152603a60248201527f416464726573733a20756e61626c6520746f2073656e642076616c75652c207260448201527f6563697069656e74206d617920686176652072657665727465640000000000006064820152608401610225565b6000816000548110156117d057600081815260046020526040812054907c0100000000000000000000000000000000000000000000000000000000821690036117ce575b8060000361135e5750600019016000818152600460205260409020546117ad565b505b6040517fdf2d9b4200000000000000000000000000000000000000000000000000000000815260040160405180910390fd5b6040805173ffffffffffffffffffffffffffffffffffffffff8416602482015260448082018490528251808303909101815260649091019091526020810180517bffffffffffffffffffffffffffffffffffffffffffffffffffffffff167fa9059cbb00000000000000000000000000000000000000000000000000000000179052610dcc908490611d0f565b60085473ffffffffffffffffffffffffffffffffffffffff1633146110c85760405162461bcd60e51b815260206004820181905260248201527f4f776e61626c653a2063616c6c6572206973206e6f7420746865206f776e65726044820152606401610225565b6008805473ffffffffffffffffffffffffffffffffffffffff8381167fffffffffffffffffffffffff0000000000000000000000000000000000000000831681179093556040519116919082907f8be0079c531659141344cd1fd0a4f28419497f9722a3daafe3b4186f6b6457e090600090a35050565b60008054908290036119ab576040517fb562e8dd00000000000000000000000000000000000000000000000000000000815260040160405180910390fd5b73ffffffffffffffffffffffffffffffffffffffff831660008181526005602090815260408083208054680100000000000000018802019055848352600490915281206001851460e11b4260a01b178317905582840190839083907fddf252ad1be2c89b69c2b068fc378daa952ba7f163c4a11628f55a4df523b3ef8180a4600183015b818114611a6757808360007fddf252ad1be2c89b69c2b068fc378daa952ba7f163c4a11628f55a4df523b3ef600080a4600101611a2f565b5081600003611aa2576040517f2e07630000000000000000000000000000000000000000000000000000000000815260040160405180910390fd5b60005550505050565b60095473ffffffffffffffffffffffffffffffffffffffff84166000908152600b602052604081205490918391611ae290866125b4565b611aec91906126b1565b6114d891906126ec565b6040517f150b7a0200000000000000000000000000000000000000000000000000000000815260009073ffffffffffffffffffffffffffffffffffffffff85169063150b7a0290611b519033908990889088906004016126ff565b6020604051808303816000875af1925050508015611baa575060408051601f3d9081017fffffffffffffffffffffffffffffffffffffffffffffffffffffffffffffffe0168201909252611ba791810190612748565b60015b611c21573d808015611bd8576040519150601f19603f3d011682016040523d82523d6000602084013e611bdd565b606091505b508051600003611c19576040517fd1a57ed600000000000000000000000000000000000000000000000000000000815260040160405180910390fd5b805181602001fd5b7fffffffff00000000000000000000000000000000000000000000000000000000167f150b7a0200000000000000000000000000000000000000000000000000000000149050949350505050565b60606000611c7c83611e01565b600101905060008167ffffffffffffffff811115611c9c57611c9c6121ea565b6040519080825280601f01601f191660200182016040528015611cc6576020820181803683370190505b5090508181016020015b600019017f3031323334353637383961626364656600000000000000000000000000000000600a86061a8153600a8504945084611cd057509392505050565b6000611d71826040518060400160405280602081526020017f5361666545524332303a206c6f772d6c6576656c2063616c6c206661696c65648152508573ffffffffffffffffffffffffffffffffffffffff16611ee39092919063ffffffff16565b805190915015610dcc5780806020019051810190611d8f9190612765565b610dcc5760405162461bcd60e51b815260206004820152602a60248201527f5361666545524332303a204552433230206f7065726174696f6e20646964206e60448201527f6f742073756363656564000000000000000000000000000000000000000000006064820152608401610225565b6000807a184f03e93ff9f4daa797ed6e38ed64bf6a1f0100000000000000008310611e4a577a184f03e93ff9f4daa797ed6e38ed64bf6a1f010000000000000000830492506040015b6d04ee2d6d415b85acef81000000008310611e76576d04ee2d6d415b85acef8100000000830492506020015b662386f26fc100008310611e9457662386f26fc10000830492506010015b6305f5e1008310611eac576305f5e100830492506008015b6127108310611ec057612710830492506004015b60648310611ed2576064830492506002015b600a83106107985760010192915050565b60606114d88484600085856000808673ffffffffffffffffffffffffffffffffffffffff168587604051611f179190612782565b60006040518083038185875af1925050503d8060008114611f54576040519150601f19603f3d011682016040523d82523d6000602084013e611f59565b606091505b5091509150611f6a87838387611f75565b979650505050505050565b60608315611ff1578251600003611fea5773ffffffffffffffffffffffffffffffffffffffff85163b611fea5760405162461bcd60e51b815260206004820152601d60248201527f416464726573733a2063616c6c20746f206e6f6e2d636f6e74726163740000006044820152606401610225565b50816114d8565b6114d883838151156120065781518083602001fd5b8060405162461bcd60e51b815260040161022591906120d9565b7fffffffff000000000000000000000000000000000000000000000000000000008116811461102657600080fd5b60006020828403121561206057600080fd5b813561135e81612020565b60005b8381101561208657818101518382015260200161206e565b50506000910152565b600081518084526120a781602086016020860161206b565b601f017fffffffffffffffffffffffffffffffffffffffffffffffffffffffffffffffe0169290920160200192915050565b60208152600061135e602083018461208f565b6000602082840312156120fe57600080fd5b5035919050565b73ffffffffffffffffffffffffffffffffffffffff8116811461102657600080fd5b6000806040838503121561213a57600080fd5b823561214581612105565b946020939093013593505050565b60006020828403121561216557600080fd5b813561135e81612105565b60008060006060848603121561218557600080fd5b833561219081612105565b925060208401356121a081612105565b929592945050506040919091013590565b600080604083850312156121c457600080fd5b82356121cf81612105565b915060208301356121df81612105565b809150509250929050565b7f4e487b7100000000000000000000000000000000000000000000000000000000600052604160045260246000fd5b600067ffffffffffffffff80841115612234576122346121ea565b604051601f85017fffffffffffffffffffffffffffffffffffffffffffffffffffffffffffffffe0908116603f0116810190828211818310171561227a5761227a6121ea565b8160405280935085815286868601111561229357600080fd5b858560208301376000602087830101525050509392505050565b6000602082840312156122bf57600080fd5b813567ffffffffffffffff8111156122d657600080fd5b8201601f810184136122e757600080fd5b6114d884823560208401612219565b801515811461102657600080fd5b6000806040838503121561231757600080fd5b823561232281612105565b915060208301356121df816122f6565b6000806000806080858703121561234857600080fd5b843561235381612105565b9350602085013561236381612105565b925060408501359150606085013567ffffffffffffffff81111561238657600080fd5b8501601f8101871361239757600080fd5b6123a687823560208401612219565b91505092959194509250565b600181811c908216806123c657607f821691505b6020821081036123ff577f4e487b7100000000000000000000000000000000000000000000000000000000600052602260045260246000fd5b50919050565b7f4e487b7100000000000000000000000000000000000000000000000000000000600052601160045260246000fd5b8082018082111561079857610798612405565b601f821115610dcc57600081815260208120601f850160051c8101602086101561246e5750805b601f850160051c820191505b81811015610da95782815560010161247a565b815167ffffffffffffffff8111156124a7576124a76121ea565b6124bb816124b584546123b2565b84612447565b602080601f8311600181146124f057600084156124d85750858301515b600019600386901b1c1916600185901b178555610da9565b6000858152602081207fffffffffffffffffffffffffffffffffffffffffffffffffffffffffffffffe08616915b8281101561253d5788860151825594840194600190910190840161251e565b508582101561255b5787850151600019600388901b60f8161c191681555b5050505050600190811b01905550565b6000600019820361257e5761257e612405565b5060010190565b7f4e487b7100000000000000000000000000000000000000000000000000000000600052603260045260246000fd5b808202811582820484141761079857610798612405565b6000602082840312156125dd57600080fd5b5051919050565b60008084546125f2816123b2565b6001828116801561260a576001811461263d5761266c565b7fffffffffffffffffffffffffffffffffffffffffffffffffffffffffffffff008416875282151583028701945061266c565b8860005260208060002060005b858110156126635781548a82015290840190820161264a565b50505082870194505b50505050835161268081836020880161206b565b7f2e6a736f6e0000000000000000000000000000000000000000000000000000009101908152600501949350505050565b6000826126e7577f4e487b7100000000000000000000000000000000000000000000000000000000600052601260045260246000fd5b500490565b8181038181111561079857610798612405565b600073ffffffffffffffffffffffffffffffffffffffff80871683528086166020840152508360408301526080606083015261273e608083018461208f565b9695505050505050565b60006020828403121561275a57600080fd5b815161135e81612020565b60006020828403121561277757600080fd5b815161135e816122f6565b6000825161279481846020870161206b565b919091019291505056fea26469706673582212209768cc03744a02a19a65fc0b75dcf81900495bea5845d3b813edc57546fcf4f964736f6c63430008110033",
  "linkReferences": {},
  "deployedLinkReferences": {}
}