{
  "_format": "hh-sol-artifact-1",
  "contractName": "Jobs",
  "sourceName": "contracts/Jobs.sol",
  "abi": [
    {
      "anonymous": false,
      "inputs": [
        {
          "indexed": true,
          "internalType": "address",
          "name": "author",
          "type": "address"
        },
        {
          "indexed": false,
          "internalType": "string",
          "name": "description",
          "type": "string"
        },
        {
          "indexed": false,
          "internalType": "uint256",
          "name": "price",
          "type": "uint256"
        },
        {
          "indexed": false,
          "internalType": "uint256",
          "name": "id",
          "type": "uint256"
        },
        {
          "indexed": false,
          "internalType": "bool",
          "name": "isFinished",
          "type": "bool"
        }
      ],
      "name": "jobAdded",
      "type": "event"
    },
    {
      "anonymous": false,
      "inputs": [
        {
          "indexed": true,
          "internalType": "address",
          "name": "author",
          "type": "address"
        },
        {
          "indexed": true,
          "internalType": "address",
          "name": "worker",
          "type": "address"
        },
        {
          "indexed": false,
          "internalType": "uint256",
          "name": "id",
          "type": "uint256"
        },
        {
          "indexed": false,
          "internalType": "uint256",
          "name": "pricePaid",
          "type": "uint256"
        }
      ],
      "name": "jobIsFinishedAndPaid",
      "type": "event"
    },
    {
      "anonymous": false,
      "inputs": [
        {
          "indexed": true,
          "internalType": "address",
          "name": "worker",
          "type": "address"
        },
        {
          "indexed": false,
          "internalType": "uint256",
          "name": "id",
          "type": "uint256"
        }
      ],
      "name": "jobTaken",
      "type": "event"
    },
    {
      "inputs": [
        {
          "internalType": "string",
          "name": "_description",
          "type": "string"
        }
      ],
      "name": "addJob",
      "outputs": [],
      "stateMutability": "payable",
      "type": "function"
    },
    {
      "inputs": [
        {
          "internalType": "uint256",
          "name": "_id",
          "type": "uint256"
        }
      ],
      "name": "setIsFinishedAndPaid",
      "outputs": [],
      "stateMutability": "nonpayable",
      "type": "function"
    },
    {
      "inputs": [
        {
          "internalType": "uint256",
          "name": "_id",
          "type": "uint256"
        }
      ],
      "name": "takeJob",
      "outputs": [],
      "stateMutability": "nonpayable",
      "type": "function"
    }
  ],
  "bytecode": "0x608060405234801561001057600080fd5b50611258806100206000396000f3fe6080604052600436106100345760003560e01c806375cb0ac8146100395780639330d9bc14610055578063ee8b9b7d1461007e575b600080fd5b610053600480360381019061004e91906109ba565b6100a7565b005b34801561006157600080fd5b5061007c60048036038101906100779190610a3d565b6102a9565b005b34801561008a57600080fd5b506100a560048036038101906100a09190610a3d565b6104c5565b005b60006040518060a001604052803373ffffffffffffffffffffffffffffffffffffffff168152602001600073ffffffffffffffffffffffffffffffffffffffff16815260200184848080601f016020809104026020016040519081016040528093929190818152602001838380828437600081840152601f19601f82011690508083019250505050505050815260200134815260200160001515815250908060018154018082558091505060019003906000526020600020906005020160009091909190915060008201518160000160006101000a81548173ffffffffffffffffffffffffffffffffffffffff021916908373ffffffffffffffffffffffffffffffffffffffff16021790555060208201518160010160006101000a81548173ffffffffffffffffffffffffffffffffffffffff021916908373ffffffffffffffffffffffffffffffffffffffff16021790555060408201518160020190816102109190610cb0565b506060820151816003015560808201518160040160006101000a81548160ff02191690831515021790555050503373ffffffffffffffffffffffffffffffffffffffff167f55f4e04c8a8ba099607e3993996c0b30c9d5ff7618c0d8d31e6e7c9ffa60c094838334600160008054905061028a9190610db1565b600060405161029d959493929190610e6d565b60405180910390a25050565b600073ffffffffffffffffffffffffffffffffffffffff16600082815481106102d5576102d4610ebb565b5b906000526020600020906005020160010160009054906101000a900473ffffffffffffffffffffffffffffffffffffffff1673ffffffffffffffffffffffffffffffffffffffff161461035d576040517f08c379a000000000000000000000000000000000000000000000000000000000815260040161035490610f36565b60405180910390fd5b6000818154811061037157610370610ebb565b5b906000526020600020906005020160000160009054906101000a900473ffffffffffffffffffffffffffffffffffffffff1673ffffffffffffffffffffffffffffffffffffffff163373ffffffffffffffffffffffffffffffffffffffff1603610410576040517f08c379a000000000000000000000000000000000000000000000000000000000815260040161040790610fa2565b60405180910390fd5b336000828154811061042557610424610ebb565b5b906000526020600020906005020160010160006101000a81548173ffffffffffffffffffffffffffffffffffffffff021916908373ffffffffffffffffffffffffffffffffffffffff1602179055503373ffffffffffffffffffffffffffffffffffffffff167f570fece144bab0037b8b44f5dc22ce6feffce4bae7b0eaf3de66f0730ee24474826040516104ba9190610fc2565b60405180910390a250565b600081815481106104d9576104d8610ebb565b5b906000526020600020906005020160000160009054906101000a900473ffffffffffffffffffffffffffffffffffffffff1673ffffffffffffffffffffffffffffffffffffffff163373ffffffffffffffffffffffffffffffffffffffff1614610578576040517f08c379a000000000000000000000000000000000000000000000000000000000815260040161056f9061104f565b60405180910390fd5b600073ffffffffffffffffffffffffffffffffffffffff16600082815481106105a4576105a3610ebb565b5b906000526020600020906005020160010160009054906101000a900473ffffffffffffffffffffffffffffffffffffffff1673ffffffffffffffffffffffffffffffffffffffff16141580156106305750600015156000828154811061060d5761060c610ebb565b5b906000526020600020906005020160040160009054906101000a900460ff161515145b61066f576040517f08c379a0000000000000000000000000000000000000000000000000000000008152600401610666906110bb565b60405180910390fd5b600073ffffffffffffffffffffffffffffffffffffffff166000828154811061069b5761069a610ebb565b5b906000526020600020906005020160010160009054906101000a900473ffffffffffffffffffffffffffffffffffffffff1673ffffffffffffffffffffffffffffffffffffffff1603610723576040517f08c379a000000000000000000000000000000000000000000000000000000000815260040161071a90611127565b60405180910390fd5b6000818154811061073757610736610ebb565b5b906000526020600020906005020160010160009054906101000a900473ffffffffffffffffffffffffffffffffffffffff1673ffffffffffffffffffffffffffffffffffffffff163373ffffffffffffffffffffffffffffffffffffffff167fc9f82f3ab594a0fe3b2a0a3544eb95e67e50437ea6c05bbfeb8414bf42b259fa83600085815481106107cc576107cb610ebb565b5b9060005260206000209060050201600301546040516107ec929190611147565b60405180910390a360016000828154811061080a57610809610ebb565b5b906000526020600020906005020160040160006101000a81548160ff021916908315150217905550600080828154811061084757610846610ebb565b5b906000526020600020906005020160010160009054906101000a900473ffffffffffffffffffffffffffffffffffffffff1673ffffffffffffffffffffffffffffffffffffffff16600083815481106108a3576108a2610ebb565b5b9060005260206000209060050201600301546040516108c1906111a1565b60006040518083038185875af1925050503d80600081146108fe576040519150601f19603f3d011682016040523d82523d6000602084013e610903565b606091505b5050905080610947576040517f08c379a000000000000000000000000000000000000000000000000000000000815260040161093e90611202565b60405180910390fd5b5050565b600080fd5b600080fd5b600080fd5b600080fd5b600080fd5b60008083601f84011261097a57610979610955565b5b8235905067ffffffffffffffff8111156109975761099661095a565b5b6020830191508360018202830111156109b3576109b261095f565b5b9250929050565b600080602083850312156109d1576109d061094b565b5b600083013567ffffffffffffffff8111156109ef576109ee610950565b5b6109fb85828601610964565b92509250509250929050565b6000819050919050565b610a1a81610a07565b8114610a2557600080fd5b50565b600081359050610a3781610a11565b92915050565b600060208284031215610a5357610a5261094b565b5b6000610a6184828501610a28565b91505092915050565b600081519050919050565b7f4e487b7100000000000000000000000000000000000000000000000000000000600052604160045260246000fd5b7f4e487b7100000000000000000000000000000000000000000000000000000000600052602260045260246000fd5b60006002820490506001821680610aeb57607f821691505b602082108103610afe57610afd610aa4565b5b50919050565b60008190508160005260206000209050919050565b60006020601f8301049050919050565b600082821b905092915050565b600060088302610b667fffffffffffffffffffffffffffffffffffffffffffffffffffffffffffffffff82610b29565b610b708683610b29565b95508019841693508086168417925050509392505050565b6000819050919050565b6000610bad610ba8610ba384610a07565b610b88565b610a07565b9050919050565b6000819050919050565b610bc783610b92565b610bdb610bd382610bb4565b848454610b36565b825550505050565b600090565b610bf0610be3565b610bfb818484610bbe565b505050565b5b81811015610c1f57610c14600082610be8565b600181019050610c01565b5050565b601f821115610c6457610c3581610b04565b610c3e84610b19565b81016020851015610c4d578190505b610c61610c5985610b19565b830182610c00565b50505b505050565b600082821c905092915050565b6000610c8760001984600802610c69565b1980831691505092915050565b6000610ca08383610c76565b9150826002028217905092915050565b610cb982610a6a565b67ffffffffffffffff811115610cd257610cd1610a75565b5b610cdc8254610ad3565b610ce7828285610c23565b600060209050601f831160018114610d1a5760008415610d08578287015190505b610d128582610c94565b865550610d7a565b601f198416610d2886610b04565b60005b82811015610d5057848901518255600182019150602085019450602081019050610d2b565b86831015610d6d5784890151610d69601f891682610c76565b8355505b6001600288020188555050505b505050505050565b7f4e487b7100000000000000000000000000000000000000000000000000000000600052601160045260246000fd5b6000610dbc82610a07565b9150610dc783610a07565b9250828203905081811115610ddf57610dde610d82565b5b92915050565b600082825260208201905092915050565b82818337600083830152505050565b6000601f19601f8301169050919050565b6000610e228385610de5565b9350610e2f838584610df6565b610e3883610e05565b840190509392505050565b610e4c81610a07565b82525050565b60008115159050919050565b610e6781610e52565b82525050565b60006080820190508181036000830152610e88818789610e16565b9050610e976020830186610e43565b610ea46040830185610e43565b610eb16060830184610e5e565b9695505050505050565b7f4e487b7100000000000000000000000000000000000000000000000000000000600052603260045260246000fd5b7f546865206a6f6220697320616c726561647920626f6f6b656400000000000000600082015250565b6000610f20601983610de5565b9150610f2b82610eea565b602082019050919050565b60006020820190508181036000830152610f4f81610f13565b9050919050565b7f54686520617574686f722063616e6e6f742062652074686520776f726b657200600082015250565b6000610f8c601f83610de5565b9150610f9782610f56565b602082019050919050565b60006020820190508181036000830152610fbb81610f7f565b9050919050565b6000602082019050610fd76000830184610e43565b92915050565b7f4f6e6c792074686520617574686f722063616e20636c6f736520746865206a6f60008201527f6200000000000000000000000000000000000000000000000000000000000000602082015250565b6000611039602183610de5565b915061104482610fdd565b604082019050919050565b600060208201905081810360008301526110688161102c565b9050919050565b7f546865206a6f6220697320616c726561647920636c6f73656400000000000000600082015250565b60006110a5601983610de5565b91506110b08261106f565b602082019050919050565b600060208201905081810360008301526110d481611098565b9050919050565b7f546865206a6f62206973206e6f742074616b656e207965740000000000000000600082015250565b6000611111601883610de5565b915061111c826110db565b602082019050919050565b6000602082019050818103600083015261114081611104565b9050919050565b600060408201905061115c6000830185610e43565b6111696020830184610e43565b9392505050565b600081905092915050565b50565b600061118b600083611170565b91506111968261117b565b600082019050919050565b60006111ac8261117e565b9150819050919050565b7f5468652045544820776f726b6572207061796d656e74206661696c6564000000600082015250565b60006111ec601d83610de5565b91506111f7826111b6565b602082019050919050565b6000602082019050818103600083015261121b816111df565b905091905056fea2646970667358221220df5ca7218543fcdf5df5b52b4f0ca6045a8eb3ac00ad4ec3ae6a628c1596a5b364736f6c63430008110033",
  "linkReferences": {},
  "deployedLinkReferences": {}
}