{
  "address": "0x25ab3D24D9fDB69E7d5c42e7f7706BFEFE9b769C",
  "abi": [
    {
      "inputs": [
        {
          "internalType": "bytes32",
          "name": "_merkleRoot",
          "type": "bytes32"
        }
      ],
      "stateMutability": "nonpayable",
      "type": "constructor"
    },
    {
      "inputs": [],
      "name": "ApprovalCallerNotOwnerNorApproved",
      "type": "error"
    },
    {
      "inputs": [],
      "name": "ApprovalQueryForNonexistentToken",
      "type": "error"
    },
    {
      "inputs": [],
      "name": "BalanceQueryForZeroAddress",
      "type": "error"
    },
    {
      "inputs": [],
      "name": "MintERC2309QuantityExceedsLimit",
      "type": "error"
    },
    {
      "inputs": [],
      "name": "MintToZeroAddress",
      "type": "error"
    },
    {
      "inputs": [],
      "name": "MintZeroQuantity",
      "type": "error"
    },
    {
      "inputs": [],
      "name": "OwnerQueryForNonexistentToken",
      "type": "error"
    },
    {
      "inputs": [],
      "name": "OwnershipNotInitializedForExtraData",
      "type": "error"
    },
    {
      "inputs": [],
      "name": "TransferCallerNotOwnerNorApproved",
      "type": "error"
    },
    {
      "inputs": [],
      "name": "TransferFromIncorrectOwner",
      "type": "error"
    },
    {
      "inputs": [],
      "name": "TransferToNonERC721ReceiverImplementer",
      "type": "error"
    },
    {
      "inputs": [],
      "name": "TransferToZeroAddress",
      "type": "error"
    },
    {
      "inputs": [],
      "name": "URIQueryForNonexistentToken",
      "type": "error"
    },
    {
      "anonymous": false,
      "inputs": [
        {
          "indexed": true,
          "internalType": "address",
          "name": "owner",
          "type": "address"
        },
        {
          "indexed": true,
          "internalType": "address",
          "name": "approved",
          "type": "address"
        },
        {
          "indexed": true,
          "internalType": "uint256",
          "name": "tokenId",
          "type": "uint256"
        }
      ],
      "name": "Approval",
      "type": "event"
    },
    {
      "anonymous": false,
      "inputs": [
        {
          "indexed": true,
          "internalType": "address",
          "name": "owner",
          "type": "address"
        },
        {
          "indexed": true,
          "internalType": "address",
          "name": "operator",
          "type": "address"
        },
        {
          "indexed": false,
          "internalType": "bool",
          "name": "approved",
          "type": "bool"
        }
      ],
      "name": "ApprovalForAll",
      "type": "event"
    },
    {
      "anonymous": false,
      "inputs": [
        {
          "indexed": true,
          "internalType": "uint256",
          "name": "fromTokenId",
          "type": "uint256"
        },
        {
          "indexed": false,
          "internalType": "uint256",
          "name": "toTokenId",
          "type": "uint256"
        },
        {
          "indexed": true,
          "internalType": "address",
          "name": "from",
          "type": "address"
        },
        {
          "indexed": true,
          "internalType": "address",
          "name": "to",
          "type": "address"
        }
      ],
      "name": "ConsecutiveTransfer",
      "type": "event"
    },
    {
      "anonymous": false,
      "inputs": [
        {
          "indexed": true,
          "internalType": "address",
          "name": "previousOwner",
          "type": "address"
        },
        {
          "indexed": true,
          "internalType": "address",
          "name": "newOwner",
          "type": "address"
        }
      ],
      "name": "OwnershipTransferred",
      "type": "event"
    },
    {
      "anonymous": false,
      "inputs": [
        {
          "indexed": true,
          "internalType": "address",
          "name": "from",
          "type": "address"
        },
        {
          "indexed": true,
          "internalType": "address",
          "name": "to",
          "type": "address"
        },
        {
          "indexed": true,
          "internalType": "uint256",
          "name": "tokenId",
          "type": "uint256"
        }
      ],
      "name": "Transfer",
      "type": "event"
    },
    {
      "inputs": [
        {
          "internalType": "address",
          "name": "to",
          "type": "address"
        },
        {
          "internalType": "uint256",
          "name": "tokenId",
          "type": "uint256"
        }
      ],
      "name": "approve",
      "outputs": [],
      "stateMutability": "payable",
      "type": "function"
    },
    {
      "inputs": [
        {
          "internalType": "address",
          "name": "owner",
          "type": "address"
        }
      ],
      "name": "balanceOf",
      "outputs": [
        {
          "internalType": "uint256",
          "name": "",
          "type": "uint256"
        }
      ],
      "stateMutability": "view",
      "type": "function"
    },
    {
      "inputs": [
        {
          "internalType": "uint256",
          "name": "tokenId",
          "type": "uint256"
        }
      ],
      "name": "getApproved",
      "outputs": [
        {
          "internalType": "address",
          "name": "",
          "type": "address"
        }
      ],
      "stateMutability": "view",
      "type": "function"
    },
    {
      "inputs": [
        {
          "internalType": "address",
          "name": "owner",
          "type": "address"
        },
        {
          "internalType": "address",
          "name": "operator",
          "type": "address"
        }
      ],
      "name": "isApprovedForAll",
      "outputs": [
        {
          "internalType": "bool",
          "name": "",
          "type": "bool"
        }
      ],
      "stateMutability": "view",
      "type": "function"
    },
    {
      "inputs": [],
      "name": "merkleRoot",
      "outputs": [
        {
          "internalType": "bytes32",
          "name": "",
          "type": "bytes32"
        }
      ],
      "stateMutability": "view",
      "type": "function"
    },
    {
      "inputs": [],
      "name": "name",
      "outputs": [
        {
          "internalType": "string",
          "name": "",
          "type": "string"
        }
      ],
      "stateMutability": "view",
      "type": "function"
    },
    {
      "inputs": [],
      "name": "owner",
      "outputs": [
        {
          "internalType": "address",
          "name": "",
          "type": "address"
        }
      ],
      "stateMutability": "view",
      "type": "function"
    },
    {
      "inputs": [
        {
          "internalType": "uint256",
          "name": "tokenId",
          "type": "uint256"
        }
      ],
      "name": "ownerOf",
      "outputs": [
        {
          "internalType": "address",
          "name": "",
          "type": "address"
        }
      ],
      "stateMutability": "view",
      "type": "function"
    },
    {
      "inputs": [],
      "name": "renounceOwnership",
      "outputs": [],
      "stateMutability": "nonpayable",
      "type": "function"
    },
    {
      "inputs": [
        {
          "internalType": "address",
          "name": "from",
          "type": "address"
        },
        {
          "internalType": "address",
          "name": "to",
          "type": "address"
        },
        {
          "internalType": "uint256",
          "name": "tokenId",
          "type": "uint256"
        }
      ],
      "name": "safeTransferFrom",
      "outputs": [],
      "stateMutability": "payable",
      "type": "function"
    },
    {
      "inputs": [
        {
          "internalType": "address",
          "name": "from",
          "type": "address"
        },
        {
          "internalType": "address",
          "name": "to",
          "type": "address"
        },
        {
          "internalType": "uint256",
          "name": "tokenId",
          "type": "uint256"
        },
        {
          "internalType": "bytes",
          "name": "_data",
          "type": "bytes"
        }
      ],
      "name": "safeTransferFrom",
      "outputs": [],
      "stateMutability": "payable",
      "type": "function"
    },
    {
      "inputs": [
        {
          "internalType": "address",
          "name": "operator",
          "type": "address"
        },
        {
          "internalType": "bool",
          "name": "approved",
          "type": "bool"
        }
      ],
      "name": "setApprovalForAll",
      "outputs": [],
      "stateMutability": "nonpayable",
      "type": "function"
    },
    {
      "inputs": [
        {
          "internalType": "bytes32",
          "name": "_merkleRoot",
          "type": "bytes32"
        }
      ],
      "name": "setMerkleRoot",
      "outputs": [],
      "stateMutability": "nonpayable",
      "type": "function"
    },
    {
      "inputs": [
        {
          "internalType": "bytes4",
          "name": "interfaceId",
          "type": "bytes4"
        }
      ],
      "name": "supportsInterface",
      "outputs": [
        {
          "internalType": "bool",
          "name": "",
          "type": "bool"
        }
      ],
      "stateMutability": "view",
      "type": "function"
    },
    {
      "inputs": [],
      "name": "symbol",
      "outputs": [
        {
          "internalType": "string",
          "name": "",
          "type": "string"
        }
      ],
      "stateMutability": "view",
      "type": "function"
    },
    {
      "inputs": [
        {
          "internalType": "uint256",
          "name": "_tokenId",
          "type": "uint256"
        }
      ],
      "name": "tokenURI",
      "outputs": [
        {
          "internalType": "string",
          "name": "",
          "type": "string"
        }
      ],
      "stateMutability": "view",
      "type": "function"
    },
    {
      "inputs": [],
      "name": "totalSupply",
      "outputs": [
        {
          "internalType": "uint256",
          "name": "",
          "type": "uint256"
        }
      ],
      "stateMutability": "view",
      "type": "function"
    },
    {
      "inputs": [
        {
          "internalType": "address",
          "name": "from",
          "type": "address"
        },
        {
          "internalType": "address",
          "name": "to",
          "type": "address"
        },
        {
          "internalType": "uint256",
          "name": "tokenId",
          "type": "uint256"
        }
      ],
      "name": "transferFrom",
      "outputs": [],
      "stateMutability": "payable",
      "type": "function"
    },
    {
      "inputs": [
        {
          "internalType": "address",
          "name": "newOwner",
          "type": "address"
        }
      ],
      "name": "transferOwnership",
      "outputs": [],
      "stateMutability": "nonpayable",
      "type": "function"
    },
    {
      "inputs": [
        {
          "internalType": "address",
          "name": "_account",
          "type": "address"
        },
        {
          "internalType": "uint256",
          "name": "_quantity",
          "type": "uint256"
        },
        {
          "internalType": "bytes32[]",
          "name": "_proof",
          "type": "bytes32[]"
        }
      ],
      "name": "whitelistMint",
      "outputs": [],
      "stateMutability": "payable",
      "type": "function"
    }
  ],
  "transactionHash": "0x6e6f9faa62c96be2a2f986007ba242515456dae2036dc519df539f2b5a773834",
  "args": [
    "0x3e9fa830b99cfc073b5c084a7eed9c4acdec1cbd70b1221f7877151516dc88f0"
  ],
  "numDeployments": 1,
  "solcInputHash": "d03a23554e2dad74e9e1536540f75dc4",
  "bytecode": "0x60806040523480156200001157600080fd5b5060405162001e2238038062001e228339810160408190526200003491620000fc565b60405180604001604052806005815260200164416c79726160d81b815250604051806040016040528060048152602001631053919560e21b8152508160029081620000809190620001bb565b5060036200008f8282620001bb565b50506000805550620000a133620000aa565b60095562000287565b600880546001600160a01b038381166001600160a01b0319831681179093556040519116919082907f8be0079c531659141344cd1fd0a4f28419497f9722a3daafe3b4186f6b6457e090600090a35050565b6000602082840312156200010f57600080fd5b5051919050565b634e487b7160e01b600052604160045260246000fd5b600181811c908216806200014157607f821691505b6020821081036200016257634e487b7160e01b600052602260045260246000fd5b50919050565b601f821115620001b657600081815260208120601f850160051c81016020861015620001915750805b601f850160051c820191505b81811015620001b2578281556001016200019d565b5050505b505050565b81516001600160401b03811115620001d757620001d762000116565b620001ef81620001e884546200012c565b8462000168565b602080601f8311600181146200022757600084156200020e5750858301515b600019600386901b1c1916600185901b178555620001b2565b600085815260208120601f198616915b82811015620002585788860151825594840194600190910190840162000237565b5085821015620002775787850151600019600388901b60f8161c191681555b5050505050600190811b01905550565b611b8b80620002976000396000f3fe60806040526004361061015f5760003560e01c806370a08231116100c0578063a22cb46511610074578063c87b56dd11610059578063c87b56dd1461036f578063e985e9c51461038f578063f2fde38b146103e557600080fd5b8063a22cb4651461033c578063b88d4fde1461035c57600080fd5b80637cb64759116100a55780637cb64759146102dc5780638da5cb5b146102fc57806395d89b411461032757600080fd5b806370a08231146102a7578063715018a6146102c757600080fd5b806323b872dd1161011757806342842e0e116100fc57806342842e0e146102615780634b11faaf146102745780636352211e1461028757600080fd5b806323b872dd146102385780632eb4a7ab1461024b57600080fd5b8063081812fc11610148578063081812fc146101bb578063095ea7b31461020057806318160ddd1461021557600080fd5b806301ffc9a71461016457806306fdde0314610199575b600080fd5b34801561017057600080fd5b5061018461017f3660046115bd565b610405565b60405190151581526020015b60405180910390f35b3480156101a557600080fd5b506101ae6104ea565b6040516101909190611648565b3480156101c757600080fd5b506101db6101d636600461165b565b61057c565b60405173ffffffffffffffffffffffffffffffffffffffff9091168152602001610190565b61021361020e366004611698565b6105dd565b005b34801561022157600080fd5b50600154600054035b604051908152602001610190565b6102136102463660046116c2565b6105ed565b34801561025757600080fd5b5061022a60095481565b61021361026f3660046116c2565b61084c565b6102136102823660046116fe565b61086c565b34801561029357600080fd5b506101db6102a236600461165b565b610974565b3480156102b357600080fd5b5061022a6102c2366004611788565b61097f565b3480156102d357600080fd5b506102136109f8565b3480156102e857600080fd5b506102136102f736600461165b565b610a0c565b34801561030857600080fd5b5060085473ffffffffffffffffffffffffffffffffffffffff166101db565b34801561033357600080fd5b506101ae610a19565b34801561034857600080fd5b506102136103573660046117a3565b610a28565b61021361036a36600461180e565b610abf565b34801561037b57600080fd5b506101ae61038a36600461165b565b610b20565b34801561039b57600080fd5b506101846103aa366004611908565b73ffffffffffffffffffffffffffffffffffffffff918216600090815260076020908152604080832093909416825291909152205460ff1690565b3480156103f157600080fd5b50610213610400366004611788565b610bc0565b60007f01ffc9a7000000000000000000000000000000000000000000000000000000007fffffffff000000000000000000000000000000000000000000000000000000008316148061049857507f80ac58cd000000000000000000000000000000000000000000000000000000007fffffffff000000000000000000000000000000000000000000000000000000008316145b806104e457507f5b5e139f000000000000000000000000000000000000000000000000000000007fffffffff000000000000000000000000000000000000000000000000000000008316145b92915050565b6060600280546104f99061193b565b80601f01602080910402602001604051908101604052809291908181526020018280546105259061193b565b80156105725780601f1061054757610100808354040283529160200191610572565b820191906000526020600020905b81548152906001019060200180831161055557829003601f168201915b5050505050905090565b600061058782610c77565b6105b4576105b47fcf4700e400000000000000000000000000000000000000000000000000000000610cb7565b5060009081526006602052604090205473ffffffffffffffffffffffffffffffffffffffff1690565b6105e982826001610cc1565b5050565b60006105f882610dd9565b73ffffffffffffffffffffffffffffffffffffffff9485169490915081168414610645576106457fa114810000000000000000000000000000000000000000000000000000000000610cb7565b600082815260066020526040902080543380821473ffffffffffffffffffffffffffffffffffffffff8816909114176106d95773ffffffffffffffffffffffffffffffffffffffff8616600090815260076020908152604080832033845290915290205460ff166106d9576106d97f59c896be00000000000000000000000000000000000000000000000000000000610cb7565b80156106e457600082555b73ffffffffffffffffffffffffffffffffffffffff86811660009081526005602052604080822080547fffffffffffffffffffffffffffffffffffffffffffffffffffffffffffffffff019055918716808252919020805460010190554260a01b177c0200000000000000000000000000000000000000000000000000000000176000858152600460205260408120919091557c0200000000000000000000000000000000000000000000000000000000841690036107d3576001840160008181526004602052604081205490036107d15760005481146107d15760008181526004602052604090208490555b505b73ffffffffffffffffffffffffffffffffffffffff85168481887fddf252ad1be2c89b69c2b068fc378daa952ba7f163c4a11628f55a4df523b3ef600080a480600003610843576108437fea553b3400000000000000000000000000000000000000000000000000000000610cb7565b50505050505050565b61086783838360405180602001604052806000815250610abf565b505050565b610877848383610eb1565b6108e2576040517f08c379a000000000000000000000000000000000000000000000000000000000815260206004820152600f60248201527f4e6f742077686974656c6973746564000000000000000000000000000000000060448201526064015b60405180910390fd5b6014836108f26001546000540390565b6108fc91906119bd565b1115610964576040517f08c379a000000000000000000000000000000000000000000000000000000000815260206004820152601360248201527f4d617820737570706c792065786365656465640000000000000000000000000060448201526064016108d9565b61096e8484610f4a565b50505050565b60006104e482610dd9565b600073ffffffffffffffffffffffffffffffffffffffff82166109c5576109c57f8f4eb60400000000000000000000000000000000000000000000000000000000610cb7565b5073ffffffffffffffffffffffffffffffffffffffff1660009081526005602052604090205467ffffffffffffffff1690565b610a00610f64565b610a0a6000610fe5565b565b610a14610f64565b600955565b6060600380546104f99061193b565b33600081815260076020908152604080832073ffffffffffffffffffffffffffffffffffffffff87168085529083529281902080547fffffffffffffffffffffffffffffffffffffffffffffffffffffffffffffff001686151590811790915590519081529192917f17307eab39ab6107e8899845ad3d59bd9653f200f220920489ca2b5937696c31910160405180910390a35050565b610aca8484846105ed565b73ffffffffffffffffffffffffffffffffffffffff83163b1561096e57610af38484848461105c565b61096e5761096e7fd1a57ed600000000000000000000000000000000000000000000000000000000610cb7565b6060610b2b82610c77565b610b91576040517f08c379a000000000000000000000000000000000000000000000000000000000815260206004820152601f60248201527f55524920717565727920666f72206e6f6e6578697374656e7420746f6b656e0060448201526064016108d9565b610b9a826111cc565b604051602001610baa91906119d0565b6040516020818303038152906040529050919050565b610bc8610f64565b73ffffffffffffffffffffffffffffffffffffffff8116610c6b576040517f08c379a000000000000000000000000000000000000000000000000000000000815260206004820152602660248201527f4f776e61626c653a206e6577206f776e657220697320746865207a65726f206160448201527f646472657373000000000000000000000000000000000000000000000000000060648201526084016108d9565b610c7481610fe5565b50565b60008054821080156104e45750506000908152600460205260409020547c0100000000000000000000000000000000000000000000000000000000161590565b8060005260046000fd5b6000610ccc83610974565b9050818015610cf157503373ffffffffffffffffffffffffffffffffffffffff821614155b15610d575773ffffffffffffffffffffffffffffffffffffffff8116600090815260076020908152604080832033845290915290205460ff16610d5757610d577fcfb3b94200000000000000000000000000000000000000000000000000000000610cb7565b60008381526006602052604080822080547fffffffffffffffffffffffff00000000000000000000000000000000000000001673ffffffffffffffffffffffffffffffffffffffff88811691821790925591518693918516917f8c5be1e5ebec7d5bd14f71427d1e84f3dd0314c0f7b2291e5b200ac8c7c3b92591a450505050565b600081815260046020526040812054907c010000000000000000000000000000000000000000000000000000000082169003610e885780600003610e83576000548210610e4957610e497fdf2d9b4200000000000000000000000000000000000000000000000000000000610cb7565b5b507fffffffffffffffffffffffffffffffffffffffffffffffffffffffffffffffff016000818152600460205260409020548015610e4a575b919050565b610e837fdf2d9b4200000000000000000000000000000000000000000000000000000000610cb7565b6040517fffffffffffffffffffffffffffffffffffffffff000000000000000000000000606085901b1660208201526000908190603401604051602081830303815290604052805190602001209050610f4184848080602002602001604051908101604052809392919081815260200183836020028082843760009201919091525050600954915084905061128a565b95945050505050565b6105e98282604051806020016040528060008152506112a0565b60085473ffffffffffffffffffffffffffffffffffffffff163314610a0a576040517f08c379a000000000000000000000000000000000000000000000000000000000815260206004820181905260248201527f4f776e61626c653a2063616c6c6572206973206e6f7420746865206f776e657260448201526064016108d9565b6008805473ffffffffffffffffffffffffffffffffffffffff8381167fffffffffffffffffffffffff0000000000000000000000000000000000000000831681179093556040519116919082907f8be0079c531659141344cd1fd0a4f28419497f9722a3daafe3b4186f6b6457e090600090a35050565b6040517f150b7a0200000000000000000000000000000000000000000000000000000000815260009073ffffffffffffffffffffffffffffffffffffffff85169063150b7a02906110b7903390899088908890600401611a88565b6020604051808303816000875af1925050508015611110575060408051601f3d9081017fffffffffffffffffffffffffffffffffffffffffffffffffffffffffffffffe016820190925261110d91810190611ad1565b60015b61117e573d80801561113e576040519150601f19603f3d011682016040523d82523d6000602084013e611143565b606091505b508051600003611176576111767fd1a57ed600000000000000000000000000000000000000000000000000000000610cb7565b805181602001fd5b7fffffffff00000000000000000000000000000000000000000000000000000000167f150b7a0200000000000000000000000000000000000000000000000000000000149050949350505050565b606060006111d98361132f565b600101905060008167ffffffffffffffff8111156111f9576111f96117df565b6040519080825280601f01601f191660200182016040528015611223576020820181803683370190505b5090508181016020015b7fffffffffffffffffffffffffffffffffffffffffffffffffffffffffffffffff017f3031323334353637383961626364656600000000000000000000000000000000600a86061a8153600a850494508461122d57509392505050565b6000826112978584611411565b14949350505050565b6112aa838361145e565b73ffffffffffffffffffffffffffffffffffffffff83163b15610867576000548281035b6112e1600086838060010194508661105c565b61130e5761130e7fd1a57ed600000000000000000000000000000000000000000000000000000000610cb7565b8181106112ce578160005414611328576113286000610cb7565b5050505050565b6000807a184f03e93ff9f4daa797ed6e38ed64bf6a1f0100000000000000008310611378577a184f03e93ff9f4daa797ed6e38ed64bf6a1f010000000000000000830492506040015b6d04ee2d6d415b85acef810000000083106113a4576d04ee2d6d415b85acef8100000000830492506020015b662386f26fc1000083106113c257662386f26fc10000830492506010015b6305f5e10083106113da576305f5e100830492506008015b61271083106113ee57612710830492506004015b60648310611400576064830492506002015b600a83106104e45760010192915050565b600081815b8451811015611456576114428286838151811061143557611435611aee565b602002602001015161155d565b91508061144e81611b1d565b915050611416565b509392505050565b6000805490829003611493576114937fb562e8dd00000000000000000000000000000000000000000000000000000000610cb7565b600081815260046020908152604080832073ffffffffffffffffffffffffffffffffffffffff87164260a01b6001881460e11b17811790915580845260059092528220805468010000000000000001860201905590819003611518576115187f2e07630000000000000000000000000000000000000000000000000000000000610cb7565b818301825b808360007fddf252ad1be2c89b69c2b068fc378daa952ba7f163c4a11628f55a4df523b3ef600080a481816001019150810361151d575060005550505050565b6000818310611579576000828152602084905260409020611588565b60008381526020839052604090205b9392505050565b7fffffffff0000000000000000000000000000000000000000000000000000000081168114610c7457600080fd5b6000602082840312156115cf57600080fd5b81356115888161158f565b60005b838110156115f55781810151838201526020016115dd565b50506000910152565b600081518084526116168160208601602086016115da565b601f017fffffffffffffffffffffffffffffffffffffffffffffffffffffffffffffffe0169290920160200192915050565b60208152600061158860208301846115fe565b60006020828403121561166d57600080fd5b5035919050565b803573ffffffffffffffffffffffffffffffffffffffff81168114610e8357600080fd5b600080604083850312156116ab57600080fd5b6116b483611674565b946020939093013593505050565b6000806000606084860312156116d757600080fd5b6116e084611674565b92506116ee60208501611674565b9150604084013590509250925092565b6000806000806060858703121561171457600080fd5b61171d85611674565b935060208501359250604085013567ffffffffffffffff8082111561174157600080fd5b818701915087601f83011261175557600080fd5b81358181111561176457600080fd5b8860208260051b850101111561177957600080fd5b95989497505060200194505050565b60006020828403121561179a57600080fd5b61158882611674565b600080604083850312156117b657600080fd5b6117bf83611674565b9150602083013580151581146117d457600080fd5b809150509250929050565b7f4e487b7100000000000000000000000000000000000000000000000000000000600052604160045260246000fd5b6000806000806080858703121561182457600080fd5b61182d85611674565b935061183b60208601611674565b925060408501359150606085013567ffffffffffffffff8082111561185f57600080fd5b818701915087601f83011261187357600080fd5b813581811115611885576118856117df565b604051601f82017fffffffffffffffffffffffffffffffffffffffffffffffffffffffffffffffe0908116603f011681019083821181831017156118cb576118cb6117df565b816040528281528a60208487010111156118e457600080fd5b82602086016020830137600060208483010152809550505050505092959194509250565b6000806040838503121561191b57600080fd5b61192483611674565b915061193260208401611674565b90509250929050565b600181811c9082168061194f57607f821691505b602082108103611988577f4e487b7100000000000000000000000000000000000000000000000000000000600052602260045260246000fd5b50919050565b7f4e487b7100000000000000000000000000000000000000000000000000000000600052601160045260246000fd5b808201808211156104e4576104e461198e565b7f697066733a2f2f62616679626569646d666c7772667468717735757a7332757381527f6262786c6972366d71707875686d7664647670726d7336336c6f6a617879636b60208201527f7a692f0000000000000000000000000000000000000000000000000000000000604082015260008251611a548160438501602087016115da565b7f2e6a736f6e0000000000000000000000000000000000000000000000000000006043939091019283015250604801919050565b600073ffffffffffffffffffffffffffffffffffffffff808716835280861660208401525083604083015260806060830152611ac760808301846115fe565b9695505050505050565b600060208284031215611ae357600080fd5b81516115888161158f565b7f4e487b7100000000000000000000000000000000000000000000000000000000600052603260045260246000fd5b60007fffffffffffffffffffffffffffffffffffffffffffffffffffffffffffffffff8203611b4e57611b4e61198e565b506001019056fea26469706673582212200152d664d2d410332da3e55bf45252046f2a504e141069747d69c466c442c64b64736f6c63430008110033",
  "devdoc": {
    "kind": "dev",
    "methods": {
      "approve(address,uint256)": {
        "details": "Gives permission to `to` to transfer `tokenId` token to another account. See {ERC721A-_approve}. Requirements: - The caller must own the token or be an approved operator."
      },
      "balanceOf(address)": {
        "details": "Returns the number of tokens in `owner`'s account."
      },
      "getApproved(uint256)": {
        "details": "Returns the account approved for `tokenId` token. Requirements: - `tokenId` must exist."
      },
      "isApprovedForAll(address,address)": {
        "details": "Returns if the `operator` is allowed to manage all of the assets of `owner`. See {setApprovalForAll}."
      },
      "name()": {
        "details": "Returns the token collection name."
      },
      "owner()": {
        "details": "Returns the address of the current owner."
      },
      "ownerOf(uint256)": {
        "details": "Returns the owner of the `tokenId` token. Requirements: - `tokenId` must exist."
      },
      "renounceOwnership()": {
        "details": "Leaves the contract without owner. It will not be possible to call `onlyOwner` functions anymore. Can only be called by the current owner. NOTE: Renouncing ownership will leave the contract without an owner, thereby removing any functionality that is only available to the owner."
      },
      "safeTransferFrom(address,address,uint256)": {
        "details": "Equivalent to `safeTransferFrom(from, to, tokenId, '')`."
      },
      "safeTransferFrom(address,address,uint256,bytes)": {
        "details": "Safely transfers `tokenId` token from `from` to `to`. Requirements: - `from` cannot be the zero address. - `to` cannot be the zero address. - `tokenId` token must exist and be owned by `from`. - If the caller is not `from`, it must be approved to move this token by either {approve} or {setApprovalForAll}. - If `to` refers to a smart contract, it must implement {IERC721Receiver-onERC721Received}, which is called upon a safe transfer. Emits a {Transfer} event."
      },
      "setApprovalForAll(address,bool)": {
        "details": "Approve or remove `operator` as an operator for the caller. Operators can call {transferFrom} or {safeTransferFrom} for any token owned by the caller. Requirements: - The `operator` cannot be the caller. Emits an {ApprovalForAll} event."
      },
      "setMerkleRoot(bytes32)": {
        "params": {
          "_merkleRoot": "the new merkle root*"
        }
      },
      "supportsInterface(bytes4)": {
        "details": "Returns true if this contract implements the interface defined by `interfaceId`. See the corresponding [EIP section](https://eips.ethereum.org/EIPS/eip-165#how-interfaces-are-identified) to learn more about how these ids are created. This function call must use less than 30000 gas."
      },
      "symbol()": {
        "details": "Returns the token collection symbol."
      },
      "tokenURI(uint256)": {
        "params": {
          "_tokenId": "The Id of the NFT you want to have the URI of the metadatas"
        },
        "returns": {
          "_0": "URI of an NFT by his ID"
        }
      },
      "totalSupply()": {
        "details": "Returns the total number of tokens in existence. Burned tokens will reduce the count. To get the total number of tokens minted, please see {_totalMinted}."
      },
      "transferFrom(address,address,uint256)": {
        "details": "Transfers `tokenId` from `from` to `to`. Requirements: - `from` cannot be the zero address. - `to` cannot be the zero address. - `tokenId` token must be owned by `from`. - If the caller is not `from`, it must be approved to move this token by either {approve} or {setApprovalForAll}. Emits a {Transfer} event."
      },
      "transferOwnership(address)": {
        "details": "Transfers ownership of the contract to a new account (`newOwner`). Can only be called by the current owner."
      },
      "whitelistMint(address,uint256,bytes32[])": {
        "params": {
          "_account": "Account which will receive the NFT",
          "_proof": "The merkle proof*",
          "_quantity": "Amount of NFTs the user wants to mint"
        }
      }
    },
    "version": 1
  },
  "userdoc": {
    "errors": {
      "ApprovalCallerNotOwnerNorApproved()": [
        {
          "notice": "The caller must own the token or be an approved operator."
        }
      ],
      "ApprovalQueryForNonexistentToken()": [
        {
          "notice": "The token does not exist."
        }
      ],
      "BalanceQueryForZeroAddress()": [
        {
          "notice": "Cannot query the balance for the zero address."
        }
      ],
      "MintERC2309QuantityExceedsLimit()": [
        {
          "notice": "The `quantity` minted with ERC2309 exceeds the safety limit."
        }
      ],
      "MintToZeroAddress()": [
        {
          "notice": "Cannot mint to the zero address."
        }
      ],
      "MintZeroQuantity()": [
        {
          "notice": "The quantity of tokens minted must be more than zero."
        }
      ],
      "OwnerQueryForNonexistentToken()": [
        {
          "notice": "The token does not exist."
        }
      ],
      "OwnershipNotInitializedForExtraData()": [
        {
          "notice": "The `extraData` cannot be set on an unintialized ownership slot."
        }
      ],
      "TransferCallerNotOwnerNorApproved()": [
        {
          "notice": "The caller must own the token or be an approved operator."
        }
      ],
      "TransferFromIncorrectOwner()": [
        {
          "notice": "The token must be owned by `from`."
        }
      ],
      "TransferToNonERC721ReceiverImplementer()": [
        {
          "notice": "Cannot safely transfer to a contract that does not implement the ERC721Receiver interface."
        }
      ],
      "TransferToZeroAddress()": [
        {
          "notice": "Cannot transfer to the zero address."
        }
      ],
      "URIQueryForNonexistentToken()": [
        {
          "notice": "The token does not exist."
        }
      ]
    },
    "kind": "user",
    "methods": {
      "setMerkleRoot(bytes32)": {
        "notice": "Change the merkle root"
      },
      "tokenURI(uint256)": {
        "notice": "Get the token URI of a NFT by his ID"
      },
      "whitelistMint(address,uint256,bytes32[])": {
        "notice": "Mint function for the Whitelist Sale"
      }
    },
    "version": 1
  },
  "storageLayout": {
    "storage": [
      {
        "astId": 1768,
        "contract": "contracts/History.sol:History",
        "label": "_currentIndex",
        "offset": 0,
        "slot": "0",
        "type": "t_uint256"
      },
      {
        "astId": 1770,
        "contract": "contracts/History.sol:History",
        "label": "_burnCounter",
        "offset": 0,
        "slot": "1",
        "type": "t_uint256"
      },
      {
        "astId": 1772,
        "contract": "contracts/History.sol:History",
        "label": "_name",
        "offset": 0,
        "slot": "2",
        "type": "t_string_storage"
      },
      {
        "astId": 1774,
        "contract": "contracts/History.sol:History",
        "label": "_symbol",
        "offset": 0,
        "slot": "3",
        "type": "t_string_storage"
      },
      {
        "astId": 1778,
        "contract": "contracts/History.sol:History",
        "label": "_packedOwnerships",
        "offset": 0,
        "slot": "4",
        "type": "t_mapping(t_uint256,t_uint256)"
      },
      {
        "astId": 1782,
        "contract": "contracts/History.sol:History",
        "label": "_packedAddressData",
        "offset": 0,
        "slot": "5",
        "type": "t_mapping(t_address,t_uint256)"
      },
      {
        "astId": 1787,
        "contract": "contracts/History.sol:History",
        "label": "_tokenApprovals",
        "offset": 0,
        "slot": "6",
        "type": "t_mapping(t_uint256,t_struct(TokenApprovalRef)1700_storage)"
      },
      {
        "astId": 1793,
        "contract": "contracts/History.sol:History",
        "label": "_operatorApprovals",
        "offset": 0,
        "slot": "7",
        "type": "t_mapping(t_address,t_mapping(t_address,t_bool))"
      },
      {
        "astId": 7,
        "contract": "contracts/History.sol:History",
        "label": "_owner",
        "offset": 0,
        "slot": "8",
        "type": "t_address"
      },
      {
        "astId": 3446,
        "contract": "contracts/History.sol:History",
        "label": "merkleRoot",
        "offset": 0,
        "slot": "9",
        "type": "t_bytes32"
      }
    ],
    "types": {
      "t_address": {
        "encoding": "inplace",
        "label": "address",
        "numberOfBytes": "20"
      },
      "t_bool": {
        "encoding": "inplace",
        "label": "bool",
        "numberOfBytes": "1"
      },
      "t_bytes32": {
        "encoding": "inplace",
        "label": "bytes32",
        "numberOfBytes": "32"
      },
      "t_mapping(t_address,t_bool)": {
        "encoding": "mapping",
        "key": "t_address",
        "label": "mapping(address => bool)",
        "numberOfBytes": "32",
        "value": "t_bool"
      },
      "t_mapping(t_address,t_mapping(t_address,t_bool))": {
        "encoding": "mapping",
        "key": "t_address",
        "label": "mapping(address => mapping(address => bool))",
        "numberOfBytes": "32",
        "value": "t_mapping(t_address,t_bool)"
      },
      "t_mapping(t_address,t_uint256)": {
        "encoding": "mapping",
        "key": "t_address",
        "label": "mapping(address => uint256)",
        "numberOfBytes": "32",
        "value": "t_uint256"
      },
      "t_mapping(t_uint256,t_struct(TokenApprovalRef)1700_storage)": {
        "encoding": "mapping",
        "key": "t_uint256",
        "label": "mapping(uint256 => struct ERC721A.TokenApprovalRef)",
        "numberOfBytes": "32",
        "value": "t_struct(TokenApprovalRef)1700_storage"
      },
      "t_mapping(t_uint256,t_uint256)": {
        "encoding": "mapping",
        "key": "t_uint256",
        "label": "mapping(uint256 => uint256)",
        "numberOfBytes": "32",
        "value": "t_uint256"
      },
      "t_string_storage": {
        "encoding": "bytes",
        "label": "string",
        "numberOfBytes": "32"
      },
      "t_struct(TokenApprovalRef)1700_storage": {
        "encoding": "inplace",
        "label": "struct ERC721A.TokenApprovalRef",
        "members": [
          {
            "astId": 1699,
            "contract": "contracts/History.sol:History",
            "label": "value",
            "offset": 0,
            "slot": "0",
            "type": "t_address"
          }
        ],
        "numberOfBytes": "32"
      },
      "t_uint256": {
        "encoding": "inplace",
        "label": "uint256",
        "numberOfBytes": "32"
      }
    }
  }
}