{
  "contractName": "SimpleStorage",
  "abi": [
    {
      "anonymous": false,
      "inputs": [
        {
          "indexed": false,
          "internalType": "string",
          "name": "_name",
          "type": "string"
        }
      ],
      "name": "nameChanged",
      "type": "event"
    },
    {
      "anonymous": false,
      "inputs": [
        {
          "indexed": false,
          "internalType": "uint256",
          "name": "_value",
          "type": "uint256"
        }
      ],
      "name": "valueChanged",
      "type": "event"
    },
    {
      "inputs": [],
      "name": "read",
      "outputs": [
        {
          "internalType": "uint256",
          "name": "",
          "type": "uint256"
        }
      ],
      "stateMutability": "view",
      "type": "function",
      "constant": true
    },
    {
      "inputs": [
        {
          "internalType": "uint256",
          "name": "newValue",
          "type": "uint256"
        }
      ],
      "name": "write",
      "outputs": [],
      "stateMutability": "nonpayable",
      "type": "function"
    },
    {
      "inputs": [
        {
          "internalType": "string",
          "name": "_name",
          "type": "string"
        }
      ],
      "name": "setGreeter",
      "outputs": [],
      "stateMutability": "nonpayable",
      "type": "function"
    },
    {
      "inputs": [],
      "name": "getGreeter",
      "outputs": [
        {
          "internalType": "string",
          "name": "",
          "type": "string"
        }
      ],
      "stateMutability": "view",
      "type": "function",
      "constant": true
    }
  ],
  "bytecode": "0x608060405234801561001057600080fd5b5061060e806100206000396000f3fe608060405234801561001057600080fd5b506004361061004c5760003560e01c8063190663e4146100515780632f048afa1461006d57806357de26a4146100895780636423dbad146100a7575b600080fd5b61006b60048036038101906100669190610298565b6100c5565b005b6100876004803603810190610082919061031b565b610114565b005b610091610155565b60405161009e9190610357565b60405180910390f35b6100af61015e565b6040516100bc919061040b565b60405180910390f35b8181600191906100d6929190610186565b507f02cd2d679eb19af8b66f55bbd01e7f3d0f49ba6b4a7a0f6f960634659179609d8282604051610108929190610469565b60405180910390a15050565b806000819055507fc0dd44d3f117c96295a84b2eb7b3f6abe929928d111b030bfb3568f5efa0ff1f8160405161014a9190610357565b60405180910390a150565b60008054905090565b6060600160405160200161017291906105b2565b604051602081830303815290604052905090565b828054610192906104e2565b90600052602060002090601f0160209004810192826101b457600085556101fb565b82601f106101cd57803560ff19168380011785556101fb565b828001600101855582156101fb579182015b828111156101fa5782358255916020019190600101906101df565b5b509050610208919061020c565b5090565b5b8082111561022557600081600090555060010161020d565b5090565b600080fd5b600080fd5b600080fd5b600080fd5b600080fd5b60008083601f84011261025857610257610233565b5b8235905067ffffffffffffffff81111561027557610274610238565b5b6020830191508360018202830111156102915761029061023d565b5b9250929050565b600080602083850312156102af576102ae610229565b5b600083013567ffffffffffffffff8111156102cd576102cc61022e565b5b6102d985828601610242565b92509250509250929050565b6000819050919050565b6102f8816102e5565b811461030357600080fd5b50565b600081359050610315816102ef565b92915050565b60006020828403121561033157610330610229565b5b600061033f84828501610306565b91505092915050565b610351816102e5565b82525050565b600060208201905061036c6000830184610348565b92915050565b600081519050919050565b600082825260208201905092915050565b60005b838110156103ac578082015181840152602081019050610391565b838111156103bb576000848401525b50505050565b6000601f19601f8301169050919050565b60006103dd82610372565b6103e7818561037d565b93506103f781856020860161038e565b610400816103c1565b840191505092915050565b6000602082019050818103600083015261042581846103d2565b905092915050565b82818337600083830152505050565b6000610448838561037d565b935061045583858461042d565b61045e836103c1565b840190509392505050565b6000602082019050818103600083015261048481848661043c565b90509392505050565b7f48656c6c6f204d69737465722000000000000000000000000000000000000000815250565b7f4e487b7100000000000000000000000000000000000000000000000000000000600052602260045260246000fd5b600060028204905060018216806104fa57607f821691505b60208210810361050d5761050c6104b3565b5b50919050565b600081905092915050565b60008190508160005260206000209050919050565b60008154610540816104e2565b61054a8186610513565b945060018216600081146105655760018114610576576105a9565b60ff198316865281860193506105a9565b61057f8561051e565b60005b838110156105a157815481890152600182019150602081019050610582565b838801955050505b50505092915050565b60006105bd8261048d565b600d820191506105cd8284610533565b91508190509291505056fea2646970667358221220a6a9c7eede8a013bd732a49b313077610efe0fb37f48a171008b37cc08d1870164736f6c634300080e0033",
  "immutableReferences": {},
  "source": "// SPDX-License-Identifier: MIT\npragma solidity >=0.4.22 <0.9.0;\n\ncontract SimpleStorage {\n    uint256 value;\n    string internal name;\n    event valueChanged(uint256 _value);\n    event nameChanged(string _name);\n\n    function read() public view returns (uint256) {\n        return value;\n    }\n\n    function write(uint256 newValue) public {\n        value = newValue;\n        emit valueChanged(newValue);\n    }\n\n    function setGreeter(string calldata _name) public {\n        name = _name;\n        emit nameChanged(_name);\n    }\n\n    function getGreeter() public view returns (string memory) {\n        return string.concat(\"Hello Mister \", name);\n    }\n}\n",
  "sourcePath": "/Users/flaviagallois/code/FGaloha/Developpeur-Ethereum-Template/6. Dapp/truffle_front/truffle/contracts/SimpleStorage.sol",
  "compiler": {
    "name": "solc",
    "version": "0.8.14+commit.80d49f37.Emscripten.clang"
  },
  "schemaVersion": "3.4.11",
  "updatedAt": "2023-01-13T11:22:01.735Z",
  "networkType": "ethereum",
  "devdoc": {
    "kind": "dev",
    "methods": {},
    "version": 1
  },
  "userdoc": {
    "kind": "user",
    "methods": {},
    "version": 1
  }
}