{
    "contractName": "Voting",
    "abi": [
        {
            "anonymous": false,
            "inputs": [
                {
                    "indexed": true,
                    "internalType": "address",
                    "name": "previousOwner",
                    "type": "address"
                },
                {
                    "indexed": true,
                    "internalType": "address",
                    "name": "newOwner",
                    "type": "address"
                }
            ],
            "name": "OwnershipTransferred",
            "type": "event"
        },
        {
            "anonymous": false,
            "inputs": [
                {
                    "indexed": false,
                    "internalType": "uint256",
                    "name": "proposalId",
                    "type": "uint256"
                }
            ],
            "name": "ProposalRegistered",
            "type": "event"
        },
        {
            "anonymous": false,
            "inputs": [
                {
                    "indexed": false,
                    "internalType": "address",
                    "name": "voter",
                    "type": "address"
                },
                {
                    "indexed": false,
                    "internalType": "uint256",
                    "name": "proposalId",
                    "type": "uint256"
                }
            ],
            "name": "Voted",
            "type": "event"
        },
        {
            "anonymous": false,
            "inputs": [
                {
                    "indexed": false,
                    "internalType": "address",
                    "name": "voterAddress",
                    "type": "address"
                }
            ],
            "name": "VoterRegistered",
            "type": "event"
        },
        {
            "anonymous": false,
            "inputs": [
                {
                    "indexed": false,
                    "internalType": "enum Voting.WorkflowStatus",
                    "name": "previousStatus",
                    "type": "uint8"
                },
                {
                    "indexed": false,
                    "internalType": "enum Voting.WorkflowStatus",
                    "name": "newStatus",
                    "type": "uint8"
                }
            ],
            "name": "WorkflowStatusChange",
            "type": "event"
        },
        {
            "inputs": [
                {
                    "internalType": "string",
                    "name": "_desc",
                    "type": "string"
                }
            ],
            "name": "addProposal",
            "outputs": [],
            "stateMutability": "nonpayable",
            "type": "function"
        },
        {
            "inputs": [
                {
                    "internalType": "address",
                    "name": "_addr",
                    "type": "address"
                }
            ],
            "name": "addVoter",
            "outputs": [],
            "stateMutability": "nonpayable",
            "type": "function"
        },
        {
            "inputs": [],
            "name": "endProposalsRegistering",
            "outputs": [],
            "stateMutability": "nonpayable",
            "type": "function"
        },
        {
            "inputs": [],
            "name": "endVotingSession",
            "outputs": [],
            "stateMutability": "nonpayable",
            "type": "function"
        },
        {
            "inputs": [
                {
                    "internalType": "uint256",
                    "name": "_id",
                    "type": "uint256"
                }
            ],
            "name": "getOneProposal",
            "outputs": [
                {
                    "components": [
                        {
                            "internalType": "string",
                            "name": "description",
                            "type": "string"
                        },
                        {
                            "internalType": "uint256",
                            "name": "voteCount",
                            "type": "uint256"
                        }
                    ],
                    "internalType": "struct Voting.Proposal",
                    "name": "",
                    "type": "tuple"
                }
            ],
            "stateMutability": "view",
            "type": "function"
        },
        {
            "inputs": [
                {
                    "internalType": "address",
                    "name": "_addr",
                    "type": "address"
                }
            ],
            "name": "getVoter",
            "outputs": [
                {
                    "components": [
                        {
                            "internalType": "bool",
                            "name": "isRegistered",
                            "type": "bool"
                        },
                        {
                            "internalType": "bool",
                            "name": "hasVoted",
                            "type": "bool"
                        },
                        {
                            "internalType": "uint256",
                            "name": "votedProposalId",
                            "type": "uint256"
                        }
                    ],
                    "internalType": "struct Voting.Voter",
                    "name": "",
                    "type": "tuple"
                }
            ],
            "stateMutability": "view",
            "type": "function"
        },
        {
            "inputs": [],
            "name": "owner",
            "outputs": [
                {
                    "internalType": "address",
                    "name": "",
                    "type": "address"
                }
            ],
            "stateMutability": "view",
            "type": "function"
        },
        {
            "inputs": [],
            "name": "renounceOwnership",
            "outputs": [],
            "stateMutability": "nonpayable",
            "type": "function"
        },
        {
            "inputs": [
                {
                    "internalType": "uint256",
                    "name": "_id",
                    "type": "uint256"
                }
            ],
            "name": "setVote",
            "outputs": [],
            "stateMutability": "nonpayable",
            "type": "function"
        },
        {
            "inputs": [],
            "name": "startProposalsRegistering",
            "outputs": [],
            "stateMutability": "nonpayable",
            "type": "function"
        },
        {
            "inputs": [],
            "name": "startVotingSession",
            "outputs": [],
            "stateMutability": "nonpayable",
            "type": "function"
        },
        {
            "inputs": [],
            "name": "tallyVotes",
            "outputs": [],
            "stateMutability": "nonpayable",
            "type": "function"
        },
        {
            "inputs": [
                {
                    "internalType": "address",
                    "name": "newOwner",
                    "type": "address"
                }
            ],
            "name": "transferOwnership",
            "outputs": [],
            "stateMutability": "nonpayable",
            "type": "function"
        },
        {
            "inputs": [],
            "name": "winningProposalID",
            "outputs": [
                {
                    "internalType": "uint256",
                    "name": "",
                    "type": "uint256"
                }
            ],
            "stateMutability": "view",
            "type": "function"
        },
        {
            "inputs": [],
            "name": "workflowStatus",
            "outputs": [
                {
                    "internalType": "enum Voting.WorkflowStatus",
                    "name": "",
                    "type": "uint8"
                }
            ],
            "stateMutability": "view",
            "type": "function"
        }
    ],
    "bytecode": "608060405234801561001057600080fd5b5061001a3361001f565b61006f565b600080546001600160a01b038381166001600160a01b0319831681178455604051919092169283917f8be0079c531659141344cd1fd0a4f28419497f9722a3daafe3b4186f6b6457e09190a35050565b6111ea8061007e6000396000f3fe608060405234801561001057600080fd5b50600436106100f55760003560e01c8063a7bfab1611610097578063d4f50f9811610066578063d4f50f98146101bb578063ee74c678146101f4578063f2fde38b146101fc578063f4ab9adf1461020f57600080fd5b8063a7bfab161461018c578063bdc0143114610194578063c7038a4e146101ab578063c88af42f146101b357600080fd5b8063715018a6116100d3578063715018a61461012a5780638da5cb5b14610132578063a1edffa214610152578063a2788cce1461016c57600080fd5b8063230796ae146100fa5780632fdae3c51461010f578063378a217814610122575b600080fd5b61010d610108366004610eda565b610222565b005b61010d61011d366004610ef3565b6103cf565b61010d6105fd565b61010d610728565b6000546040516001600160a01b0390911681526020015b60405180910390f35b60025461015f9060ff1681565b6040516101499190610f9d565b61017f61017a366004610eda565b61073c565b6040516101499190610fb1565b61010d61084f565b61019d60015481565b604051908152602001610149565b61010d6108c7565b61010d610a00565b6101ce6101c9366004611017565b610aab565b604080518251151581526020808401511515908201529181015190820152606001610149565b61010d610b40565b61010d61020a366004611017565b610bee565b61010d61021d366004611017565b610c67565b3360009081526004602052604090205460ff1661025a5760405162461bcd60e51b815260040161025190611047565b60405180910390fd5b600360025460ff16600581111561027357610273610f65565b146102905760405162461bcd60e51b815260040161025190611073565b33600090815260046020526040902054610100900460ff1615156001036102f25760405162461bcd60e51b8152602060048201526016602482015275165bdd481a185d9948185b1c9958591e481d9bdd195960521b6044820152606401610251565b60035481106103385760405162461bcd60e51b8152602060048201526012602482015271141c9bdc1bdcd85b081b9bdd08199bdd5b9960721b6044820152606401610251565b33600090815260046020526040902060018101829055805461ff001916610100179055600380548290811061036f5761036f6110b4565b60009182526020822060016002909202010180549161038d836110e0565b909155505060408051338152602081018390527f4d99b957a2bc29a30ebd96a7be8e68fe50a3c701db28a91436490b7d53870ca491015b60405180910390a150565b3360009081526004602052604090205460ff166103fe5760405162461bcd60e51b815260040161025190611047565b600160025460ff16600581111561041757610417610f65565b146104645760405162461bcd60e51b815260206004820152601d60248201527f50726f706f73616c7320617265206e6f7420616c6c6f776564207965740000006044820152606401610251565b60405160200161047f90602080825260009082015260400190565b6040516020818303038152906040528051906020012082826040516020016104a89291906110f9565b60405160208183030381529060405280519060200120036105175760405162461bcd60e51b815260206004820152602360248201527f566f7573206e6520706f7576657a20706173206e65207269656e2070726f706f60448201526239b2b960e91b6064820152608401610251565b60408051808201909152606081526000602082015282828080601f01602080910402602001604051908101604052809392919081815260200183838082843760009201829052509385525050600380546001810182559252508151805183926002027fc2575a0e9e593c00f959f8c92f12db2869c3395a3b0502d05e2516446f71f85b01916105ab91839160200190610e41565b50602091909101516001918201556003547f92e393e9b54e2f801d3ea4beb0c5e71a21cc34a5d34b77d0fb8a3aa1650dc18f916105e791611128565b60405190815260200160405180910390a1505050565b610605610d97565b600460025460ff16600581111561061e5761061e610f65565b1461067e5760405162461bcd60e51b815260206004820152602a60248201527f43757272656e7420737461747573206973206e6f7420766f74696e67207365736044820152691cda5bdb88195b99195960b21b6064820152608401610251565b6000805b6003548110156106f2576003828154811061069f5761069f6110b4565b906000526020600020906002020160010154600382815481106106c4576106c46110b4565b90600052602060002090600202016001015411156106e0578091505b806106ea816110e0565b915050610682565b5060018190556002805460ff19166005908117909155604051600080516020611195833981519152916103c4916004919061113f565b610730610d97565b61073a6000610df1565b565b6040805180820190915260608152600060208201523360009081526004602052604090205460ff166107805760405162461bcd60e51b815260040161025190611047565b60038281548110610793576107936110b4565b90600052602060002090600202016040518060400160405290816000820180546107bc9061115a565b80601f01602080910402602001604051908101604052809291908181526020018280546107e89061115a565b80156108355780601f1061080a57610100808354040283529160200191610835565b820191906000526020600020905b81548152906001019060200180831161081857829003601f168201915b505050505081526020016001820154815250509050919050565b610857610d97565b600360025460ff16600581111561087057610870610f65565b1461088d5760405162461bcd60e51b815260040161025190611073565b6002805460ff19166004908117909155604051600080516020611195833981519152916108bd916003919061113f565b60405180910390a1565b6108cf610d97565b600060025460ff1660058111156108e8576108e8610f65565b146109475760405162461bcd60e51b815260206004820152602960248201527f5265676973746572696e672070726f706f73616c732063616e742062652073746044820152686172746564206e6f7760b81b6064820152608401610251565b6002805460ff19166001908117825560408051808201825260608152600060208083018290528351808501909452600784526647454e4553495360c81b84820152928252600380549485018155905280518051919485947fc2575a0e9e593c00f959f8c92f12db2869c3395a3b0502d05e2516446f71f85b910201926109d292849290910190610e41565b50602082015181600101555050600080516020611195833981519152600060016040516103c492919061113f565b610a08610d97565b600160025460ff166005811115610a2157610a21610f65565b14610a7f5760405162461bcd60e51b815260206004820152602860248201527f5265676973746572696e672070726f706f73616c7320686176656e74207374616044820152671c9d1959081e595d60c21b6064820152608401610251565b6002805460ff191681178155604051600080516020611195833981519152916108bd916001919061113f565b604080516060810182526000808252602080830182905282840182905233825260049052919091205460ff16610af35760405162461bcd60e51b815260040161025190611047565b506001600160a01b03166000908152600460209081526040918290208251606081018452815460ff8082161515835261010090910416151592810192909252600101549181019190915290565b610b48610d97565b6002805460ff166005811115610b6057610b60610f65565b14610bc15760405162461bcd60e51b815260206004820152602b60248201527f5265676973746572696e672070726f706f73616c73207068617365206973206e60448201526a1bdd08199a5b9a5cda195960aa1b6064820152608401610251565b6002805460ff191660039081178255604051600080516020611195833981519152926108bd92909161113f565b610bf6610d97565b6001600160a01b038116610c5b5760405162461bcd60e51b815260206004820152602660248201527f4f776e61626c653a206e6577206f776e657220697320746865207a65726f206160448201526564647265737360d01b6064820152608401610251565b610c6481610df1565b50565b610c6f610d97565b600060025460ff166005811115610c8857610c88610f65565b14610ce15760405162461bcd60e51b815260206004820152602360248201527f566f7465727320726567697374726174696f6e206973206e6f74206f70656e206044820152621e595d60ea1b6064820152608401610251565b6001600160a01b03811660009081526004602052604090205460ff161515600103610d435760405162461bcd60e51b8152602060048201526012602482015271105b1c9958591e481c9959da5cdd195c995960721b6044820152606401610251565b6001600160a01b038116600081815260046020908152604091829020805460ff1916600117905590519182527fb6be2187d059cc2a55fe29e0e503b566e1e0f8c8780096e185429350acffd3dd91016103c4565b6000546001600160a01b0316331461073a5760405162461bcd60e51b815260206004820181905260248201527f4f776e61626c653a2063616c6c6572206973206e6f7420746865206f776e65726044820152606401610251565b600080546001600160a01b038381166001600160a01b0319831681178455604051919092169283917f8be0079c531659141344cd1fd0a4f28419497f9722a3daafe3b4186f6b6457e09190a35050565b828054610e4d9061115a565b90600052602060002090601f016020900481019282610e6f5760008555610eb5565b82601f10610e8857805160ff1916838001178555610eb5565b82800160010185558215610eb5579182015b82811115610eb5578251825591602001919060010190610e9a565b50610ec1929150610ec5565b5090565b5b80821115610ec15760008155600101610ec6565b600060208284031215610eec57600080fd5b5035919050565b60008060208385031215610f0657600080fd5b823567ffffffffffffffff80821115610f1e57600080fd5b818501915085601f830112610f3257600080fd5b813581811115610f4157600080fd5b866020828501011115610f5357600080fd5b60209290920196919550909350505050565b634e487b7160e01b600052602160045260246000fd5b60068110610f9957634e487b7160e01b600052602160045260246000fd5b9052565b60208101610fab8284610f7b565b92915050565b600060208083528351604082850152805180606086015260005b81811015610fe757828101840151868201608001528301610fcb565b81811115610ff9576000608083880101525b50949091015160408401525050601f91909101601f19160160800190565b60006020828403121561102957600080fd5b81356001600160a01b038116811461104057600080fd5b9392505050565b6020808252601290820152712cb7ba93b932903737ba1030903b37ba32b960711b604082015260600190565b60208082526021908201527f566f74696e672073657373696f6e20686176656e7420737461727465642079656040820152601d60fa1b606082015260800190565b634e487b7160e01b600052603260045260246000fd5b634e487b7160e01b600052601160045260246000fd5b6000600182016110f2576110f26110ca565b5060010190565b60208152816020820152818360408301376000818301604090810191909152601f909201601f19160101919050565b60008282101561113a5761113a6110ca565b500390565b6040810161114d8285610f7b565b6110406020830184610f7b565b600181811c9082168061116e57607f821691505b60208210810361118e57634e487b7160e01b600052602260045260246000fd5b5091905056fe0a97a4ee45751e2abf3e4fc8946939630b11b371ea8ae39ccdc3056e98f5cc3fa26469706673582212207df6fd954c44ca9720289d2b63121e01559f68284f9ca2edc45be16309ba68aa64736f6c634300080d0033",
    "sourcePath": "/Users/flaviagallois/code/FGaloha/Developpeur-Ethereum-Template/4. Truffle & CI-CD/test_voting/contracts/Voting.sol",
    "compiler": {
        "name": "solc",
        "version": "0.8.13+commit.abaa5c0e"
    },
    "functionHashes": {
        "addProposal(string)": "2fdae3c5",
        "addVoter(address)": "f4ab9adf",
        "endProposalsRegistering()": "c88af42f",
        "endVotingSession()": "a7bfab16",
        "getOneProposal(uint256)": "a2788cce",
        "getVoter(address)": "d4f50f98",
        "owner()": "8da5cb5b",
        "renounceOwnership()": "715018a6",
        "setVote(uint256)": "230796ae",
        "startProposalsRegistering()": "c7038a4e",
        "startVotingSession()": "ee74c678",
        "tallyVotes()": "378a2178",
        "transferOwnership(address)": "f2fde38b",
        "winningProposalID()": "bdc01431",
        "workflowStatus()": "a1edffa2"
    },
    "gasEstimates": {
        "creation": {
            "codeDepositCost": "917200",
            "executionCost": "26796",
            "totalCost": "943996"
        },
        "external": {
            "addProposal(string)": "infinite",
            "addVoter(address)": "32287",
            "endProposalsRegistering()": "infinite",
            "endVotingSession()": "infinite",
            "getOneProposal(uint256)": "infinite",
            "getVoter(address)": "7125",
            "owner()": "2335",
            "renounceOwnership()": "infinite",
            "setVote(uint256)": "83160",
            "startProposalsRegistering()": "infinite",
            "startVotingSession()": "infinite",
            "tallyVotes()": "infinite",
            "transferOwnership(address)": "28364",
            "winningProposalID()": "2340",
            "workflowStatus()": "2452"
        }
    }
}