{
  "contractName": "SimpleStorage",
  "abi": [
    {
      "anonymous": false,
      "inputs": [
        {
          "indexed": true,
          "internalType": "address",
          "name": "previousOwner",
          "type": "address"
        },
        {
          "indexed": true,
          "internalType": "address",
          "name": "newOwner",
          "type": "address"
        }
      ],
      "name": "OwnershipTransferred",
      "type": "event"
    },
    {
      "inputs": [],
      "name": "owner",
      "outputs": [
        {
          "internalType": "address",
          "name": "",
          "type": "address"
        }
      ],
      "stateMutability": "view",
      "type": "function",
      "constant": true
    },
    {
      "inputs": [],
      "name": "renounceOwnership",
      "outputs": [],
      "stateMutability": "nonpayable",
      "type": "function"
    },
    {
      "inputs": [
        {
          "internalType": "address",
          "name": "newOwner",
          "type": "address"
        }
      ],
      "name": "transferOwnership",
      "outputs": [],
      "stateMutability": "nonpayable",
      "type": "function"
    },
    {
      "inputs": [
        {
          "internalType": "uint256",
          "name": "x",
          "type": "uint256"
        }
      ],
      "name": "set",
      "outputs": [],
      "stateMutability": "nonpayable",
      "type": "function"
    },
    {
      "inputs": [],
      "name": "get",
      "outputs": [
        {
          "internalType": "uint256",
          "name": "",
          "type": "uint256"
        }
      ],
      "stateMutability": "view",
      "type": "function",
      "constant": true
    }
  ],
  "bytecode": "0x608060405234801561001057600080fd5b5061002d61002261003260201b60201c565b61003a60201b60201c565b6100fe565b600033905090565b60008060009054906101000a900473ffffffffffffffffffffffffffffffffffffffff169050816000806101000a81548173ffffffffffffffffffffffffffffffffffffffff021916908373ffffffffffffffffffffffffffffffffffffffff1602179055508173ffffffffffffffffffffffffffffffffffffffff168173ffffffffffffffffffffffffffffffffffffffff167f8be0079c531659141344cd1fd0a4f28419497f9722a3daafe3b4186f6b6457e060405160405180910390a35050565b6105848061010d6000396000f3fe608060405234801561001057600080fd5b50600436106100575760003560e01c806360fe47b11461005c5780636d4ce63c14610078578063715018a6146100965780638da5cb5b146100a0578063f2fde38b146100be575b600080fd5b61007660048036038101906100719190610333565b6100da565b005b6100806100e4565b60405161008d919061036f565b60405180910390f35b61009e6100ee565b005b6100a8610102565b6040516100b591906103cb565b60405180910390f35b6100d860048036038101906100d39190610412565b61012b565b005b8060018190555050565b6000600154905090565b6100f66101ae565b610100600061022c565b565b60008060009054906101000a900473ffffffffffffffffffffffffffffffffffffffff16905090565b6101336101ae565b600073ffffffffffffffffffffffffffffffffffffffff168173ffffffffffffffffffffffffffffffffffffffff16036101a2576040517f08c379a0000000000000000000000000000000000000000000000000000000008152600401610199906104c2565b60405180910390fd5b6101ab8161022c565b50565b6101b66102f0565b73ffffffffffffffffffffffffffffffffffffffff166101d4610102565b73ffffffffffffffffffffffffffffffffffffffff161461022a576040517f08c379a00000000000000000000000000000000000000000000000000000000081526004016102219061052e565b60405180910390fd5b565b60008060009054906101000a900473ffffffffffffffffffffffffffffffffffffffff169050816000806101000a81548173ffffffffffffffffffffffffffffffffffffffff021916908373ffffffffffffffffffffffffffffffffffffffff1602179055508173ffffffffffffffffffffffffffffffffffffffff168173ffffffffffffffffffffffffffffffffffffffff167f8be0079c531659141344cd1fd0a4f28419497f9722a3daafe3b4186f6b6457e060405160405180910390a35050565b600033905090565b600080fd5b6000819050919050565b610310816102fd565b811461031b57600080fd5b50565b60008135905061032d81610307565b92915050565b600060208284031215610349576103486102f8565b5b60006103578482850161031e565b91505092915050565b610369816102fd565b82525050565b60006020820190506103846000830184610360565b92915050565b600073ffffffffffffffffffffffffffffffffffffffff82169050919050565b60006103b58261038a565b9050919050565b6103c5816103aa565b82525050565b60006020820190506103e060008301846103bc565b92915050565b6103ef816103aa565b81146103fa57600080fd5b50565b60008135905061040c816103e6565b92915050565b600060208284031215610428576104276102f8565b5b6000610436848285016103fd565b91505092915050565b600082825260208201905092915050565b7f4f776e61626c653a206e6577206f776e657220697320746865207a65726f206160008201527f6464726573730000000000000000000000000000000000000000000000000000602082015250565b60006104ac60268361043f565b91506104b782610450565b604082019050919050565b600060208201905081810360008301526104db8161049f565b9050919050565b7f4f776e61626c653a2063616c6c6572206973206e6f7420746865206f776e6572600082015250565b600061051860208361043f565b9150610523826104e2565b602082019050919050565b600060208201905081810360008301526105478161050b565b905091905056fea2646970667358221220bb525eba8a986d319300a8d3ae420290f1688bacfc575b3b0235164b79521a8564736f6c63430008110033",
  "immutableReferences": {},
  "source": "// SPDX-License-Identifier: GPL-3.0\n\npragma solidity 0.8.17;\n\nimport \"@openzeppelin/contracts/access/Ownable.sol\";\n\ncontract SimpleStorage is Ownable {\n    uint256 data;\n\n    function set(uint256 x) public {\n        data = x;\n    }\n\n    function get() public view returns (uint256) {\n        return data;\n    }\n}\n",
  "sourcePath": "/Users/flaviagallois/code/FGaloha/Developpeur-Ethereum-Template/4. Truffle & CI-CD/discovery/contracts/SimpleStorage.sol",
  "compiler": {
    "name": "solc",
    "version": "0.8.17+commit.8df45f5f.Emscripten.clang"
  },
  "schemaVersion": "3.4.11",
  "updatedAt": "2022-12-09T15:30:22.815Z",
  "networkType": "ethereum",
  "devdoc": {
    "kind": "dev",
    "methods": {
      "owner()": {
        "details": "Returns the address of the current owner."
      },
      "renounceOwnership()": {
        "details": "Leaves the contract without owner. It will not be possible to call `onlyOwner` functions anymore. Can only be called by the current owner. NOTE: Renouncing ownership will leave the contract without an owner, thereby removing any functionality that is only available to the owner."
      },
      "transferOwnership(address)": {
        "details": "Transfers ownership of the contract to a new account (`newOwner`). Can only be called by the current owner."
      }
    },
    "version": 1
  },
  "userdoc": {
    "kind": "user",
    "methods": {},
    "version": 1
  }
}