{
  "address": "0x5FbDB2315678afecb367f032d93F642f64180aa3",
  "abi": [
    {
      "inputs": [
        {
          "internalType": "string",
          "name": "name_",
          "type": "string"
        },
        {
          "internalType": "string",
          "name": "symbol_",
          "type": "string"
        },
        {
          "internalType": "address[]",
          "name": "_team",
          "type": "address[]"
        }
      ],
      "stateMutability": "payable",
      "type": "constructor"
    },
    {
      "anonymous": false,
      "inputs": [
        {
          "indexed": true,
          "internalType": "address",
          "name": "owner",
          "type": "address"
        },
        {
          "indexed": true,
          "internalType": "address",
          "name": "approved",
          "type": "address"
        },
        {
          "indexed": true,
          "internalType": "uint256",
          "name": "tokenId",
          "type": "uint256"
        }
      ],
      "name": "Approval",
      "type": "event"
    },
    {
      "anonymous": false,
      "inputs": [
        {
          "indexed": true,
          "internalType": "address",
          "name": "owner",
          "type": "address"
        },
        {
          "indexed": true,
          "internalType": "address",
          "name": "operator",
          "type": "address"
        },
        {
          "indexed": false,
          "internalType": "bool",
          "name": "approved",
          "type": "bool"
        }
      ],
      "name": "ApprovalForAll",
      "type": "event"
    },
    {
      "anonymous": false,
      "inputs": [
        {
          "indexed": true,
          "internalType": "contract IERC20",
          "name": "token",
          "type": "address"
        },
        {
          "indexed": false,
          "internalType": "address",
          "name": "to",
          "type": "address"
        },
        {
          "indexed": false,
          "internalType": "uint256",
          "name": "amount",
          "type": "uint256"
        }
      ],
      "name": "ERC20PaymentReleased",
      "type": "event"
    },
    {
      "anonymous": false,
      "inputs": [
        {
          "indexed": true,
          "internalType": "address",
          "name": "minter",
          "type": "address"
        },
        {
          "indexed": false,
          "internalType": "uint256",
          "name": "tokenId",
          "type": "uint256"
        }
      ],
      "name": "Mint",
      "type": "event"
    },
    {
      "anonymous": false,
      "inputs": [
        {
          "indexed": true,
          "internalType": "address",
          "name": "previousOwner",
          "type": "address"
        },
        {
          "indexed": true,
          "internalType": "address",
          "name": "newOwner",
          "type": "address"
        }
      ],
      "name": "OwnershipTransferred",
      "type": "event"
    },
    {
      "anonymous": false,
      "inputs": [
        {
          "indexed": false,
          "internalType": "address",
          "name": "account",
          "type": "address"
        },
        {
          "indexed": false,
          "internalType": "uint256",
          "name": "shares",
          "type": "uint256"
        }
      ],
      "name": "PayeeAdded",
      "type": "event"
    },
    {
      "anonymous": false,
      "inputs": [
        {
          "indexed": false,
          "internalType": "address",
          "name": "from",
          "type": "address"
        },
        {
          "indexed": false,
          "internalType": "uint256",
          "name": "amount",
          "type": "uint256"
        }
      ],
      "name": "PaymentReceived",
      "type": "event"
    },
    {
      "anonymous": false,
      "inputs": [
        {
          "indexed": false,
          "internalType": "address",
          "name": "to",
          "type": "address"
        },
        {
          "indexed": false,
          "internalType": "uint256",
          "name": "amount",
          "type": "uint256"
        }
      ],
      "name": "PaymentReleased",
      "type": "event"
    },
    {
      "anonymous": false,
      "inputs": [
        {
          "indexed": true,
          "internalType": "address",
          "name": "from",
          "type": "address"
        },
        {
          "indexed": true,
          "internalType": "address",
          "name": "to",
          "type": "address"
        },
        {
          "indexed": true,
          "internalType": "uint256",
          "name": "tokenId",
          "type": "uint256"
        }
      ],
      "name": "Transfer",
      "type": "event"
    },
    {
      "inputs": [
        {
          "internalType": "address",
          "name": "to",
          "type": "address"
        },
        {
          "internalType": "uint256",
          "name": "tokenId",
          "type": "uint256"
        }
      ],
      "name": "approve",
      "outputs": [],
      "stateMutability": "nonpayable",
      "type": "function"
    },
    {
      "inputs": [
        {
          "internalType": "address",
          "name": "owner",
          "type": "address"
        }
      ],
      "name": "balanceOf",
      "outputs": [
        {
          "internalType": "uint256",
          "name": "",
          "type": "uint256"
        }
      ],
      "stateMutability": "view",
      "type": "function"
    },
    {
      "inputs": [
        {
          "internalType": "uint256",
          "name": "tokenId",
          "type": "uint256"
        }
      ],
      "name": "getApproved",
      "outputs": [
        {
          "internalType": "address",
          "name": "",
          "type": "address"
        }
      ],
      "stateMutability": "view",
      "type": "function"
    },
    {
      "inputs": [],
      "name": "getMaxSupply",
      "outputs": [
        {
          "internalType": "uint256",
          "name": "",
          "type": "uint256"
        }
      ],
      "stateMutability": "view",
      "type": "function"
    },
    {
      "inputs": [],
      "name": "getPrice",
      "outputs": [
        {
          "internalType": "uint256",
          "name": "",
          "type": "uint256"
        }
      ],
      "stateMutability": "view",
      "type": "function"
    },
    {
      "inputs": [
        {
          "internalType": "uint256",
          "name": "_maxSupply",
          "type": "uint256"
        },
        {
          "internalType": "uint256",
          "name": "_price",
          "type": "uint256"
        },
        {
          "internalType": "string",
          "name": "_baseURI",
          "type": "string"
        }
      ],
      "name": "init",
      "outputs": [],
      "stateMutability": "nonpayable",
      "type": "function"
    },
    {
      "inputs": [
        {
          "internalType": "address",
          "name": "owner",
          "type": "address"
        },
        {
          "internalType": "address",
          "name": "operator",
          "type": "address"
        }
      ],
      "name": "isApprovedForAll",
      "outputs": [
        {
          "internalType": "bool",
          "name": "",
          "type": "bool"
        }
      ],
      "stateMutability": "view",
      "type": "function"
    },
    {
      "inputs": [
        {
          "internalType": "uint256",
          "name": "_quantity",
          "type": "uint256"
        }
      ],
      "name": "mint",
      "outputs": [],
      "stateMutability": "payable",
      "type": "function"
    },
    {
      "inputs": [],
      "name": "name",
      "outputs": [
        {
          "internalType": "string",
          "name": "",
          "type": "string"
        }
      ],
      "stateMutability": "view",
      "type": "function"
    },
    {
      "inputs": [],
      "name": "owner",
      "outputs": [
        {
          "internalType": "address",
          "name": "",
          "type": "address"
        }
      ],
      "stateMutability": "view",
      "type": "function"
    },
    {
      "inputs": [
        {
          "internalType": "uint256",
          "name": "tokenId",
          "type": "uint256"
        }
      ],
      "name": "ownerOf",
      "outputs": [
        {
          "internalType": "address",
          "name": "",
          "type": "address"
        }
      ],
      "stateMutability": "view",
      "type": "function"
    },
    {
      "inputs": [
        {
          "internalType": "uint256",
          "name": "index",
          "type": "uint256"
        }
      ],
      "name": "payee",
      "outputs": [
        {
          "internalType": "address",
          "name": "",
          "type": "address"
        }
      ],
      "stateMutability": "view",
      "type": "function"
    },
    {
      "inputs": [
        {
          "internalType": "address",
          "name": "account",
          "type": "address"
        }
      ],
      "name": "releasable",
      "outputs": [
        {
          "internalType": "uint256",
          "name": "",
          "type": "uint256"
        }
      ],
      "stateMutability": "view",
      "type": "function"
    },
    {
      "inputs": [
        {
          "internalType": "contract IERC20",
          "name": "token",
          "type": "address"
        },
        {
          "internalType": "address",
          "name": "account",
          "type": "address"
        }
      ],
      "name": "releasable",
      "outputs": [
        {
          "internalType": "uint256",
          "name": "",
          "type": "uint256"
        }
      ],
      "stateMutability": "view",
      "type": "function"
    },
    {
      "inputs": [
        {
          "internalType": "address payable",
          "name": "account",
          "type": "address"
        }
      ],
      "name": "release",
      "outputs": [],
      "stateMutability": "nonpayable",
      "type": "function"
    },
    {
      "inputs": [
        {
          "internalType": "contract IERC20",
          "name": "token",
          "type": "address"
        },
        {
          "internalType": "address",
          "name": "account",
          "type": "address"
        }
      ],
      "name": "release",
      "outputs": [],
      "stateMutability": "nonpayable",
      "type": "function"
    },
    {
      "inputs": [],
      "name": "releaseAll",
      "outputs": [],
      "stateMutability": "nonpayable",
      "type": "function"
    },
    {
      "inputs": [
        {
          "internalType": "contract IERC20",
          "name": "token",
          "type": "address"
        },
        {
          "internalType": "address",
          "name": "account",
          "type": "address"
        }
      ],
      "name": "released",
      "outputs": [
        {
          "internalType": "uint256",
          "name": "",
          "type": "uint256"
        }
      ],
      "stateMutability": "view",
      "type": "function"
    },
    {
      "inputs": [
        {
          "internalType": "address",
          "name": "account",
          "type": "address"
        }
      ],
      "name": "released",
      "outputs": [
        {
          "internalType": "uint256",
          "name": "",
          "type": "uint256"
        }
      ],
      "stateMutability": "view",
      "type": "function"
    },
    {
      "inputs": [],
      "name": "renounceOwnership",
      "outputs": [],
      "stateMutability": "nonpayable",
      "type": "function"
    },
    {
      "inputs": [
        {
          "internalType": "uint256",
          "name": "_tokenId",
          "type": "uint256"
        },
        {
          "internalType": "uint256",
          "name": "_salePrice",
          "type": "uint256"
        }
      ],
      "name": "royaltyInfo",
      "outputs": [
        {
          "internalType": "address",
          "name": "",
          "type": "address"
        },
        {
          "internalType": "uint256",
          "name": "",
          "type": "uint256"
        }
      ],
      "stateMutability": "view",
      "type": "function"
    },
    {
      "inputs": [
        {
          "internalType": "address",
          "name": "from",
          "type": "address"
        },
        {
          "internalType": "address",
          "name": "to",
          "type": "address"
        },
        {
          "internalType": "uint256",
          "name": "tokenId",
          "type": "uint256"
        }
      ],
      "name": "safeTransferFrom",
      "outputs": [],
      "stateMutability": "nonpayable",
      "type": "function"
    },
    {
      "inputs": [
        {
          "internalType": "address",
          "name": "from",
          "type": "address"
        },
        {
          "internalType": "address",
          "name": "to",
          "type": "address"
        },
        {
          "internalType": "uint256",
          "name": "tokenId",
          "type": "uint256"
        },
        {
          "internalType": "bytes",
          "name": "data",
          "type": "bytes"
        }
      ],
      "name": "safeTransferFrom",
      "outputs": [],
      "stateMutability": "nonpayable",
      "type": "function"
    },
    {
      "inputs": [
        {
          "internalType": "address",
          "name": "operator",
          "type": "address"
        },
        {
          "internalType": "bool",
          "name": "approved",
          "type": "bool"
        }
      ],
      "name": "setApprovalForAll",
      "outputs": [],
      "stateMutability": "nonpayable",
      "type": "function"
    },
    {
      "inputs": [
        {
          "internalType": "string",
          "name": "_baseURI",
          "type": "string"
        }
      ],
      "name": "setBaseURI",
      "outputs": [],
      "stateMutability": "nonpayable",
      "type": "function"
    },
    {
      "inputs": [
        {
          "internalType": "address",
          "name": "account",
          "type": "address"
        }
      ],
      "name": "shares",
      "outputs": [
        {
          "internalType": "uint256",
          "name": "",
          "type": "uint256"
        }
      ],
      "stateMutability": "view",
      "type": "function"
    },
    {
      "inputs": [
        {
          "internalType": "bytes4",
          "name": "interfaceId",
          "type": "bytes4"
        }
      ],
      "name": "supportsInterface",
      "outputs": [
        {
          "internalType": "bool",
          "name": "",
          "type": "bool"
        }
      ],
      "stateMutability": "view",
      "type": "function"
    },
    {
      "inputs": [],
      "name": "symbol",
      "outputs": [
        {
          "internalType": "string",
          "name": "",
          "type": "string"
        }
      ],
      "stateMutability": "view",
      "type": "function"
    },
    {
      "inputs": [
        {
          "internalType": "uint256",
          "name": "index",
          "type": "uint256"
        }
      ],
      "name": "tokenByIndex",
      "outputs": [
        {
          "internalType": "uint256",
          "name": "",
          "type": "uint256"
        }
      ],
      "stateMutability": "view",
      "type": "function"
    },
    {
      "inputs": [
        {
          "internalType": "address",
          "name": "owner",
          "type": "address"
        },
        {
          "internalType": "uint256",
          "name": "index",
          "type": "uint256"
        }
      ],
      "name": "tokenOfOwnerByIndex",
      "outputs": [
        {
          "internalType": "uint256",
          "name": "",
          "type": "uint256"
        }
      ],
      "stateMutability": "view",
      "type": "function"
    },
    {
      "inputs": [
        {
          "internalType": "uint256",
          "name": "_tokenId",
          "type": "uint256"
        }
      ],
      "name": "tokenURI",
      "outputs": [
        {
          "internalType": "string",
          "name": "",
          "type": "string"
        }
      ],
      "stateMutability": "view",
      "type": "function"
    },
    {
      "inputs": [
        {
          "internalType": "contract IERC20",
          "name": "token",
          "type": "address"
        }
      ],
      "name": "totalReleased",
      "outputs": [
        {
          "internalType": "uint256",
          "name": "",
          "type": "uint256"
        }
      ],
      "stateMutability": "view",
      "type": "function"
    },
    {
      "inputs": [],
      "name": "totalReleased",
      "outputs": [
        {
          "internalType": "uint256",
          "name": "",
          "type": "uint256"
        }
      ],
      "stateMutability": "view",
      "type": "function"
    },
    {
      "inputs": [],
      "name": "totalShares",
      "outputs": [
        {
          "internalType": "uint256",
          "name": "",
          "type": "uint256"
        }
      ],
      "stateMutability": "view",
      "type": "function"
    },
    {
      "inputs": [],
      "name": "totalSupply",
      "outputs": [
        {
          "internalType": "uint256",
          "name": "",
          "type": "uint256"
        }
      ],
      "stateMutability": "view",
      "type": "function"
    },
    {
      "inputs": [
        {
          "internalType": "address",
          "name": "from",
          "type": "address"
        },
        {
          "internalType": "address",
          "name": "to",
          "type": "address"
        },
        {
          "internalType": "uint256",
          "name": "tokenId",
          "type": "uint256"
        }
      ],
      "name": "transferFrom",
      "outputs": [],
      "stateMutability": "nonpayable",
      "type": "function"
    },
    {
      "inputs": [
        {
          "internalType": "address",
          "name": "newOwner",
          "type": "address"
        }
      ],
      "name": "transferOwnership",
      "outputs": [],
      "stateMutability": "nonpayable",
      "type": "function"
    },
    {
      "stateMutability": "payable",
      "type": "receive"
    }
  ],
  "transactionHash": "0x4a683e08c72f84791c46af91d1869192e690b437918d4aaba6f011ac3ef1af3b",
  "args": [
    "Morpheus",
    "MOS",
    [
      "0x70997970C51812dc3A010C7d01b50e0d17dc79C8",
      "0xf39Fd6e51aad88F6F4ce6aB8827279cffFb92266"
    ]
  ],
  "numDeployments": 1,
  "solcInputHash": "62decafbf8f74b28163f1ff64c0c6c47",
  "bytecode": "0x60e0604052606160a0908152600360c052620000209060189060026200047a565b5060405162003ddb38038062003ddb8339810160408190526200004391620005bc565b8060188054806020026020016040519081016040528092919081815260200182805480156200009257602002820191906000526020600020905b8154815260200190600101908083116200007d575b505050505060405180602001604052806000815250604051806020016040528060008152508160009081620000c8919062000762565b506001620000d7828262000762565b50505080518251146200014c5760405162461bcd60e51b815260206004820152603260248201527f5061796d656e7453706c69747465723a2070617965657320616e6420736861726044820152710cae640d8cadccee8d040dad2e6dac2e8c6d60731b60648201526084015b60405180910390fd5b60008251116200019f5760405162461bcd60e51b815260206004820152601a60248201527f5061796d656e7453706c69747465723a206e6f20706179656573000000000000604482015260640162000143565b60005b82518110156200020b57620001f6838281518110620001c557620001c56200082e565b6020026020010151838381518110620001e257620001e26200082e565b60200260200101516200023660201b60201c565b8062000202816200085a565b915050620001a2565b50505062000228620002226200042460201b60201c565b62000428565b505060326080525062000892565b6001600160a01b038216620002a35760405162461bcd60e51b815260206004820152602c60248201527f5061796d656e7453706c69747465723a206163636f756e74206973207468652060448201526b7a65726f206164647265737360a01b606482015260840162000143565b60008111620002f55760405162461bcd60e51b815260206004820152601d60248201527f5061796d656e7453706c69747465723a20736861726573206172652030000000604482015260640162000143565b6001600160a01b0382166000908152600e602052604090205415620003715760405162461bcd60e51b815260206004820152602b60248201527f5061796d656e7453706c69747465723a206163636f756e7420616c726561647960448201526a206861732073686172657360a81b606482015260840162000143565b60108054600181019091557f1b6847dc741a1b0cd08d278845f9d819d87b734759afb55fe2de5cb82a9ae6720180546001600160a01b0319166001600160a01b0384169081179091556000908152600e60205260409020819055600c54620003db90829062000876565b600c55604080516001600160a01b0384168152602081018390527f40c340f65e17194d14ddddb073d3c9f888e3cb52b5aae0c6c7706b4fbc905fac910160405180910390a15050565b3390565b601380546001600160a01b038381166001600160a01b0319831681179093556040519116919082907f8be0079c531659141344cd1fd0a4f28419497f9722a3daafe3b4186f6b6457e090600090a35050565b828054828255906000526020600020908101928215620004bd579160200282015b82811115620004bd578251829060ff169055916020019190600101906200049b565b50620004cb929150620004cf565b5090565b5b80821115620004cb5760008155600101620004d0565b634e487b7160e01b600052604160045260246000fd5b604051601f8201601f191681016001600160401b0381118282101715620005275762000527620004e6565b604052919050565b600082601f8301126200054157600080fd5b81516001600160401b038111156200055d576200055d620004e6565b602062000573601f8301601f19168201620004fc565b82815285828487010111156200058857600080fd5b60005b83811015620005a85785810183015182820184015282016200058b565b506000928101909101919091529392505050565b600080600060608486031215620005d257600080fd5b83516001600160401b0380821115620005ea57600080fd5b620005f8878388016200052f565b94506020915081860151818111156200061057600080fd5b6200061e888289016200052f565b9450506040860151818111156200063457600080fd5b8601601f810188136200064657600080fd5b8051828111156200065b576200065b620004e6565b8060051b92506200066e848401620004fc565b818152928201840192848101908a8511156200068957600080fd5b928501925b84841015620006c357835192506001600160a01b0383168314620006b25760008081fd5b82825292850192908501906200068e565b8096505050505050509250925092565b600181811c90821680620006e857607f821691505b6020821081036200070957634e487b7160e01b600052602260045260246000fd5b50919050565b601f8211156200075d57600081815260208120601f850160051c81016020861015620007385750805b601f850160051c820191505b81811015620007595782815560010162000744565b5050505b505050565b81516001600160401b038111156200077e576200077e620004e6565b62000796816200078f8454620006d3565b846200070f565b602080601f831160018114620007ce5760008415620007b55750858301515b600019600386901b1c1916600185901b17855562000759565b600085815260208120601f198616915b82811015620007ff57888601518255948401946001909101908401620007de565b50858210156200081e5787850151600019600388901b60f8161c191681555b5050505050600190811b01905550565b634e487b7160e01b600052603260045260246000fd5b634e487b7160e01b600052601160045260246000fd5b6000600182016200086f576200086f62000844565b5060010190565b808201808211156200088c576200088c62000844565b92915050565b60805161352d620008ae6000396000611224015261352d6000f3fe60806040526004361061026e5760003560e01c80636352211e11610153578063a22cb465116100cb578063ce7c2ac21161007f578063e33b7de311610064578063e33b7de314610762578063e985e9c514610777578063f2fde38b146107c057600080fd5b8063ce7c2ac2146106f6578063d79779b21461072c57600080fd5b8063b88d4fde116100b0578063b88d4fde14610696578063c45ac050146106b6578063c87b56dd146106d657600080fd5b8063a22cb46514610656578063a3f8eace1461067657600080fd5b80638da5cb5b116101225780639852595c116101075780639852595c146105f857806398d5fdca1461062e578063a0712d681461064357600080fd5b80638da5cb5b146105c557806395d89b41146105e357600080fd5b80636352211e1461055057806370a0823114610570578063715018a6146105905780638b83209b146105a557600080fd5b80632f745c59116101e657806348b75044116101b55780634f6ccce71161019a5780634f6ccce7146104fb57806355f804b31461051b5780635be7fde81461053b57600080fd5b806348b75044146104c65780634c0f38c2146104e657600080fd5b80632f745c591461042b5780633a98ef391461044b578063406072a91461046057806342842e0e146104a657600080fd5b806318160ddd1161023d57806323b872dd1161022257806323b872dd146103ac5780632a55205a146103cc5780632b54ef8e1461040b57600080fd5b806318160ddd1461036d578063191655871461038c57600080fd5b806301ffc9a7146102bc57806306fdde03146102f1578063081812fc14610313578063095ea7b31461034b57600080fd5b366102b7577f6ef95f06320e7a25a04a175ca677b7052bdd97131872c2192525a629f51be77033604080516001600160a01b0390921682523460208301520160405180910390a1005b600080fd5b3480156102c857600080fd5b506102dc6102d7366004612cb2565b6107e0565b60405190151581526020015b60405180910390f35b3480156102fd57600080fd5b506103066107f1565b6040516102e89190612d3d565b34801561031f57600080fd5b5061033361032e366004612d50565b610883565b6040516001600160a01b0390911681526020016102e8565b34801561035757600080fd5b5061036b610366366004612d7e565b6108aa565b005b34801561037957600080fd5b506008545b6040519081526020016102e8565b34801561039857600080fd5b5061036b6103a7366004612daa565b6109e0565b3480156103b857600080fd5b5061036b6103c7366004612dc7565b610b73565b3480156103d857600080fd5b506103ec6103e7366004612e08565b610bfa565b604080516001600160a01b0390931683526020830191909152016102e8565b34801561041757600080fd5b5061036b610426366004612f0d565b610cd7565b34801561043757600080fd5b5061037e610446366004612d7e565b610d02565b34801561045757600080fd5b50600c5461037e565b34801561046c57600080fd5b5061037e61047b366004612f5d565b6001600160a01b03918216600090815260126020908152604080832093909416825291909152205490565b3480156104b257600080fd5b5061036b6104c1366004612dc7565b610daa565b3480156104d257600080fd5b5061036b6104e1366004612f5d565b610dc5565b3480156104f257600080fd5b5060145461037e565b34801561050757600080fd5b5061037e610516366004612d50565b610f82565b34801561052757600080fd5b5061036b610536366004612f96565b611026565b34801561054757600080fd5b5061036b61103e565b34801561055c57600080fd5b5061033361056b366004612d50565b61106b565b34801561057c57600080fd5b5061037e61058b366004612daa565b6110d0565b34801561059c57600080fd5b5061036b61116a565b3480156105b157600080fd5b506103336105c0366004612d50565b61117e565b3480156105d157600080fd5b506013546001600160a01b0316610333565b3480156105ef57600080fd5b506103066111ae565b34801561060457600080fd5b5061037e610613366004612daa565b6001600160a01b03166000908152600f602052604090205490565b34801561063a57600080fd5b5060175461037e565b61036b610651366004612d50565b6111bd565b34801561066257600080fd5b5061036b610671366004612fd9565b611364565b34801561068257600080fd5b5061037e610691366004612daa565b61136f565b3480156106a257600080fd5b5061036b6106b1366004613007565b6113b7565b3480156106c257600080fd5b5061037e6106d1366004612f5d565b611445565b3480156106e257600080fd5b506103066106f1366004612d50565b611529565b34801561070257600080fd5b5061037e610711366004612daa565b6001600160a01b03166000908152600e602052604090205490565b34801561073857600080fd5b5061037e610747366004612daa565b6001600160a01b031660009081526011602052604090205490565b34801561076e57600080fd5b50600d5461037e565b34801561078357600080fd5b506102dc610792366004612f5d565b6001600160a01b03918216600090815260056020908152604080832093909416825291909152205460ff1690565b3480156107cc57600080fd5b5061036b6107db366004612daa565b6115c2565b60006107eb8261164f565b92915050565b60606000805461080090613087565b80601f016020809104026020016040519081016040528092919081815260200182805461082c90613087565b80156108795780601f1061084e57610100808354040283529160200191610879565b820191906000526020600020905b81548152906001019060200180831161085c57829003601f168201915b5050505050905090565b600061088e826116a5565b506000908152600460205260409020546001600160a01b031690565b60006108b58261106b565b9050806001600160a01b0316836001600160a01b0316036109435760405162461bcd60e51b815260206004820152602160248201527f4552433732313a20617070726f76616c20746f2063757272656e74206f776e6560448201527f720000000000000000000000000000000000000000000000000000000000000060648201526084015b60405180910390fd5b336001600160a01b038216148061095f575061095f8133610792565b6109d15760405162461bcd60e51b815260206004820152603d60248201527f4552433732313a20617070726f76652063616c6c6572206973206e6f7420746f60448201527f6b656e206f776e6572206f7220617070726f76656420666f7220616c6c000000606482015260840161093a565b6109db8383611709565b505050565b6001600160a01b0381166000908152600e6020526040902054610a6b5760405162461bcd60e51b815260206004820152602660248201527f5061796d656e7453706c69747465723a206163636f756e7420686173206e6f2060448201527f7368617265730000000000000000000000000000000000000000000000000000606482015260840161093a565b6000610a768261136f565b905080600003610aee5760405162461bcd60e51b815260206004820152602b60248201527f5061796d656e7453706c69747465723a206163636f756e74206973206e6f742060448201527f647565207061796d656e74000000000000000000000000000000000000000000606482015260840161093a565b80600d6000828254610b009190613109565b90915550506001600160a01b0382166000908152600f60205260409020805482019055610b2d828261178f565b604080516001600160a01b0384168152602081018390527fdf20fd1e76bc69d672e4814fafb2c449bba3a5369d8359adf9e05e6fde87b056910160405180910390a15050565b610b7d33826118a8565b610bef5760405162461bcd60e51b815260206004820152602d60248201527f4552433732313a2063616c6c6572206973206e6f7420746f6b656e206f776e6560448201527f72206f7220617070726f76656400000000000000000000000000000000000000606482015260840161093a565b6109db838383611926565b6000828152600b602090815260408083208151808301909252546001600160a01b038116808352740100000000000000000000000000000000000000009091046bffffffffffffffffffffffff16928201929092528291610c9b575060408051808201909152600a546001600160a01b03811682527401000000000000000000000000000000000000000090046bffffffffffffffffffffffff1660208201525b602081015160009061271090610cbf906bffffffffffffffffffffffff168761311c565b610cc99190613133565b915196919550909350505050565b610cdf611b92565b601483905560178290556015610cf582826131bc565b506109db306101f4611bec565b6000610d0d836110d0565b8210610d815760405162461bcd60e51b815260206004820152602b60248201527f455243373231456e756d657261626c653a206f776e657220696e646578206f7560448201527f74206f6620626f756e6473000000000000000000000000000000000000000000606482015260840161093a565b506001600160a01b03919091166000908152600660209081526040808320938352929052205490565b6109db838383604051806020016040528060008152506113b7565b6001600160a01b0381166000908152600e6020526040902054610e505760405162461bcd60e51b815260206004820152602660248201527f5061796d656e7453706c69747465723a206163636f756e7420686173206e6f2060448201527f7368617265730000000000000000000000000000000000000000000000000000606482015260840161093a565b6000610e5c8383611445565b905080600003610ed45760405162461bcd60e51b815260206004820152602b60248201527f5061796d656e7453706c69747465723a206163636f756e74206973206e6f742060448201527f647565207061796d656e74000000000000000000000000000000000000000000606482015260840161093a565b6001600160a01b03831660009081526011602052604081208054839290610efc908490613109565b90915550506001600160a01b038084166000908152601260209081526040808320938616835292905220805482019055610f37838383611d17565b604080516001600160a01b038481168252602082018490528516917f3be5b7a71e84ed12875d241991c70855ac5817d847039e17a9d895c1ceb0f18a910160405180910390a2505050565b6000610f8d60085490565b82106110015760405162461bcd60e51b815260206004820152602c60248201527f455243373231456e756d657261626c653a20676c6f62616c20696e646578206f60448201527f7574206f6620626f756e64730000000000000000000000000000000000000000606482015260840161093a565b60088281548110611014576110146132d6565b90600052602060002001549050919050565b61102e611b92565b601561103a82826131bc565b5050565b60005b6002811015611068576110566103a78261117e565b8061106081613305565b915050611041565b50565b6000818152600260205260408120546001600160a01b0316806107eb5760405162461bcd60e51b815260206004820152601860248201527f4552433732313a20696e76616c696420746f6b656e2049440000000000000000604482015260640161093a565b60006001600160a01b03821661114e5760405162461bcd60e51b815260206004820152602960248201527f4552433732313a2061646472657373207a65726f206973206e6f74206120766160448201527f6c6964206f776e65720000000000000000000000000000000000000000000000606482015260840161093a565b506001600160a01b031660009081526003602052604090205490565b611172611b92565b61117c6000611d97565b565b600060108281548110611193576111936132d6565b6000918252602090912001546001600160a01b031692915050565b60606001805461080090613087565b601454816111ca60085490565b6111d49190613109565b11156112225760405162461bcd60e51b815260206004820152600860248201527f536f6c64206f7574000000000000000000000000000000000000000000000000604482015260640161093a565b7f000000000000000000000000000000000000000000000000000000000000000060ff168111156112955760405162461bcd60e51b815260206004820152601660248201527f4d617820353020706572207472616e73616374696f6e00000000000000000000604482015260640161093a565b6017546112a2908261311c565b3410156112f15760405162461bcd60e51b815260206004820152601060248201527f4e6f7420656e6f7567682066756e647300000000000000000000000000000000604482015260640161093a565b6000805b8281101561132a576016549150611310601680546001019055565b61131a3383611e01565b61132381613305565b90506112f5565b5060405181815233907f0f6798a560793a54c3bcfe86a93cde1e73087d944c0ea20544137d41213968859060200160405180910390a25050565b61103a338383611e1b565b60008061137b600d5490565b6113859047613109565b90506113b083826113ab866001600160a01b03166000908152600f602052604090205490565b611f07565b9392505050565b6113c133836118a8565b6114335760405162461bcd60e51b815260206004820152602d60248201527f4552433732313a2063616c6c6572206973206e6f7420746f6b656e206f776e6560448201527f72206f7220617070726f76656400000000000000000000000000000000000000606482015260840161093a565b61143f84848484611f45565b50505050565b6001600160a01b03821660009081526011602052604081205481906040517f70a082310000000000000000000000000000000000000000000000000000000081523060048201526001600160a01b038616906370a0823190602401602060405180830381865afa1580156114bd573d6000803e3d6000fd5b505050506040513d601f19601f820116820180604052508101906114e1919061333d565b6114eb9190613109565b6001600160a01b038086166000908152601260209081526040808320938816835292905220549091506115219084908390611f07565b949350505050565b6000818152600260205260409020546060906001600160a01b03166115905760405162461bcd60e51b815260206004820152601f60248201527f55524920717565727920666f72206e6f6e6578697374656e7420746f6b656e00604482015260640161093a565b601561159b83611fce565b6040516020016115ac929190613356565b6040516020818303038152906040529050919050565b6115ca611b92565b6001600160a01b0381166116465760405162461bcd60e51b815260206004820152602660248201527f4f776e61626c653a206e6577206f776e657220697320746865207a65726f206160448201527f6464726573730000000000000000000000000000000000000000000000000000606482015260840161093a565b61106881611d97565b60007fffffffff0000000000000000000000000000000000000000000000000000000082167f2a55205a0000000000000000000000000000000000000000000000000000000014806107eb57506107eb8261208c565b6000818152600260205260409020546001600160a01b03166110685760405162461bcd60e51b815260206004820152601860248201527f4552433732313a20696e76616c696420746f6b656e2049440000000000000000604482015260640161093a565b600081815260046020526040902080547fffffffffffffffffffffffff0000000000000000000000000000000000000000166001600160a01b03841690811790915581906117568261106b565b6001600160a01b03167f8c5be1e5ebec7d5bd14f71427d1e84f3dd0314c0f7b2291e5b200ac8c7c3b92560405160405180910390a45050565b804710156117df5760405162461bcd60e51b815260206004820152601d60248201527f416464726573733a20696e73756666696369656e742062616c616e6365000000604482015260640161093a565b6000826001600160a01b03168260405160006040518083038185875af1925050503d806000811461182c576040519150601f19603f3d011682016040523d82523d6000602084013e611831565b606091505b50509050806109db5760405162461bcd60e51b815260206004820152603a60248201527f416464726573733a20756e61626c6520746f2073656e642076616c75652c207260448201527f6563697069656e74206d61792068617665207265766572746564000000000000606482015260840161093a565b6000806118b48361106b565b9050806001600160a01b0316846001600160a01b031614806118fb57506001600160a01b0380821660009081526005602090815260408083209388168352929052205460ff165b806115215750836001600160a01b031661191484610883565b6001600160a01b031614949350505050565b826001600160a01b03166119398261106b565b6001600160a01b0316146119b55760405162461bcd60e51b815260206004820152602560248201527f4552433732313a207472616e736665722066726f6d20696e636f72726563742060448201527f6f776e6572000000000000000000000000000000000000000000000000000000606482015260840161093a565b6001600160a01b038216611a305760405162461bcd60e51b8152602060048201526024808201527f4552433732313a207472616e7366657220746f20746865207a65726f2061646460448201527f7265737300000000000000000000000000000000000000000000000000000000606482015260840161093a565b611a3d83838360016120e2565b826001600160a01b0316611a508261106b565b6001600160a01b031614611acc5760405162461bcd60e51b815260206004820152602560248201527f4552433732313a207472616e736665722066726f6d20696e636f72726563742060448201527f6f776e6572000000000000000000000000000000000000000000000000000000606482015260840161093a565b600081815260046020908152604080832080547fffffffffffffffffffffffff00000000000000000000000000000000000000009081169091556001600160a01b038781168086526003855283862080547fffffffffffffffffffffffffffffffffffffffffffffffffffffffffffffffff01905590871680865283862080546001019055868652600290945282852080549092168417909155905184937fddf252ad1be2c89b69c2b068fc378daa952ba7f163c4a11628f55a4df523b3ef91a4505050565b6013546001600160a01b0316331461117c5760405162461bcd60e51b815260206004820181905260248201527f4f776e61626c653a2063616c6c6572206973206e6f7420746865206f776e6572604482015260640161093a565b6127106bffffffffffffffffffffffff82161115611c725760405162461bcd60e51b815260206004820152602a60248201527f455243323938313a20726f79616c7479206665652077696c6c2065786365656460448201527f2073616c65507269636500000000000000000000000000000000000000000000606482015260840161093a565b6001600160a01b038216611cc85760405162461bcd60e51b815260206004820152601960248201527f455243323938313a20696e76616c696420726563656976657200000000000000604482015260640161093a565b604080518082019091526001600160a01b039092168083526bffffffffffffffffffffffff90911660209092018290527401000000000000000000000000000000000000000090910217600a55565b604080516001600160a01b038416602482015260448082018490528251808303909101815260649091019091526020810180517bffffffffffffffffffffffffffffffffffffffffffffffffffffffff167fa9059cbb000000000000000000000000000000000000000000000000000000001790526109db90849061222a565b601380546001600160a01b038381167fffffffffffffffffffffffff0000000000000000000000000000000000000000831681179093556040519116919082907f8be0079c531659141344cd1fd0a4f28419497f9722a3daafe3b4186f6b6457e090600090a35050565b61103a82826040518060200160405280600081525061230f565b816001600160a01b0316836001600160a01b031603611e7c5760405162461bcd60e51b815260206004820152601960248201527f4552433732313a20617070726f766520746f2063616c6c657200000000000000604482015260640161093a565b6001600160a01b0383811660008181526005602090815260408083209487168084529482529182902080547fffffffffffffffffffffffffffffffffffffffffffffffffffffffffffffff001686151590811790915591519182527f17307eab39ab6107e8899845ad3d59bd9653f200f220920489ca2b5937696c31910160405180910390a3505050565b600c546001600160a01b0384166000908152600e602052604081205490918391611f31908661311c565b611f3b9190613133565b6115219190613423565b611f50848484611926565b611f5c84848484612398565b61143f5760405162461bcd60e51b815260206004820152603260248201527f4552433732313a207472616e7366657220746f206e6f6e20455243373231526560448201527f63656976657220696d706c656d656e7465720000000000000000000000000000606482015260840161093a565b60606000611fdb83612557565b600101905060008167ffffffffffffffff811115611ffb57611ffb612e2a565b6040519080825280601f01601f191660200182016040528015612025576020820181803683370190505b5090508181016020015b7fffffffffffffffffffffffffffffffffffffffffffffffffffffffffffffffff017f3031323334353637383961626364656600000000000000000000000000000000600a86061a8153600a850494508461202f57509392505050565b60007fffffffff0000000000000000000000000000000000000000000000000000000082167f780e9d630000000000000000000000000000000000000000000000000000000014806107eb57506107eb82612639565b6120ee8484848461271c565b60018111156121655760405162461bcd60e51b815260206004820152603560248201527f455243373231456e756d657261626c653a20636f6e736563757469766520747260448201527f616e7366657273206e6f7420737570706f727465640000000000000000000000606482015260840161093a565b816001600160a01b0385166121c1576121bc81600880546000838152600960205260408120829055600182018355919091527ff3f7a9fe364faab93b216da50a3214154f22a0a2b415b23a84c8169e8b636ee30155565b6121e4565b836001600160a01b0316856001600160a01b0316146121e4576121e485826127a4565b6001600160a01b038416612200576121fb81612841565b612223565b846001600160a01b0316846001600160a01b0316146122235761222384826128f0565b5050505050565b600061227f826040518060400160405280602081526020017f5361666545524332303a206c6f772d6c6576656c2063616c6c206661696c6564815250856001600160a01b03166129349092919063ffffffff16565b8051909150156109db578080602001905181019061229d9190613436565b6109db5760405162461bcd60e51b815260206004820152602a60248201527f5361666545524332303a204552433230206f7065726174696f6e20646964206e60448201527f6f74207375636365656400000000000000000000000000000000000000000000606482015260840161093a565b6123198383612943565b6123266000848484612398565b6109db5760405162461bcd60e51b815260206004820152603260248201527f4552433732313a207472616e7366657220746f206e6f6e20455243373231526560448201527f63656976657220696d706c656d656e7465720000000000000000000000000000606482015260840161093a565b60006001600160a01b0384163b1561254c576040517f150b7a020000000000000000000000000000000000000000000000000000000081526001600160a01b0385169063150b7a02906123f5903390899088908890600401613453565b6020604051808303816000875af192505050801561244e575060408051601f3d9081017fffffffffffffffffffffffffffffffffffffffffffffffffffffffffffffffe016820190925261244b9181019061348f565b60015b612501573d80801561247c576040519150601f19603f3d011682016040523d82523d6000602084013e612481565b606091505b5080516000036124f95760405162461bcd60e51b815260206004820152603260248201527f4552433732313a207472616e7366657220746f206e6f6e20455243373231526560448201527f63656976657220696d706c656d656e7465720000000000000000000000000000606482015260840161093a565b805181602001fd5b7fffffffff00000000000000000000000000000000000000000000000000000000167f150b7a0200000000000000000000000000000000000000000000000000000000149050611521565b506001949350505050565b6000807a184f03e93ff9f4daa797ed6e38ed64bf6a1f01000000000000000083106125a0577a184f03e93ff9f4daa797ed6e38ed64bf6a1f010000000000000000830492506040015b6d04ee2d6d415b85acef810000000083106125cc576d04ee2d6d415b85acef8100000000830492506020015b662386f26fc1000083106125ea57662386f26fc10000830492506010015b6305f5e1008310612602576305f5e100830492506008015b612710831061261657612710830492506004015b60648310612628576064830492506002015b600a83106107eb5760010192915050565b60007fffffffff0000000000000000000000000000000000000000000000000000000082167f80ac58cd0000000000000000000000000000000000000000000000000000000014806126cc57507fffffffff0000000000000000000000000000000000000000000000000000000082167f5b5e139f00000000000000000000000000000000000000000000000000000000145b806107eb57507f01ffc9a7000000000000000000000000000000000000000000000000000000007fffffffff000000000000000000000000000000000000000000000000000000008316146107eb565b600181111561143f576001600160a01b03841615612762576001600160a01b0384166000908152600360205260408120805483929061275c908490613423565b90915550505b6001600160a01b0383161561143f576001600160a01b03831660009081526003602052604081208054839290612799908490613109565b909155505050505050565b600060016127b1846110d0565b6127bb9190613423565b60008381526007602052604090205490915080821461280e576001600160a01b03841660009081526006602090815260408083208584528252808320548484528184208190558352600790915290208190555b5060009182526007602090815260408084208490556001600160a01b039094168352600681528383209183525290812055565b60085460009061285390600190613423565b6000838152600960205260408120546008805493945090928490811061287b5761287b6132d6565b90600052602060002001549050806008838154811061289c5761289c6132d6565b60009182526020808320909101929092558281526009909152604080822084905585825281205560088054806128d4576128d46134ac565b6001900381819060005260206000200160009055905550505050565b60006128fb836110d0565b6001600160a01b039093166000908152600660209081526040808320868452825280832085905593825260079052919091209190915550565b60606115218484600085612af4565b6001600160a01b0382166129995760405162461bcd60e51b815260206004820181905260248201527f4552433732313a206d696e7420746f20746865207a65726f2061646472657373604482015260640161093a565b6000818152600260205260409020546001600160a01b0316156129fe5760405162461bcd60e51b815260206004820152601c60248201527f4552433732313a20746f6b656e20616c7265616479206d696e74656400000000604482015260640161093a565b612a0c6000838360016120e2565b6000818152600260205260409020546001600160a01b031615612a715760405162461bcd60e51b815260206004820152601c60248201527f4552433732313a20746f6b656e20616c7265616479206d696e74656400000000604482015260640161093a565b6001600160a01b038216600081815260036020908152604080832080546001019055848352600290915280822080547fffffffffffffffffffffffff0000000000000000000000000000000000000000168417905551839291907fddf252ad1be2c89b69c2b068fc378daa952ba7f163c4a11628f55a4df523b3ef908290a45050565b606082471015612b6c5760405162461bcd60e51b815260206004820152602660248201527f416464726573733a20696e73756666696369656e742062616c616e636520666f60448201527f722063616c6c0000000000000000000000000000000000000000000000000000606482015260840161093a565b600080866001600160a01b03168587604051612b8891906134db565b60006040518083038185875af1925050503d8060008114612bc5576040519150601f19603f3d011682016040523d82523d6000602084013e612bca565b606091505b5091509150612bdb87838387612be6565b979650505050505050565b60608315612c55578251600003612c4e576001600160a01b0385163b612c4e5760405162461bcd60e51b815260206004820152601d60248201527f416464726573733a2063616c6c20746f206e6f6e2d636f6e7472616374000000604482015260640161093a565b5081611521565b6115218383815115612c6a5781518083602001fd5b8060405162461bcd60e51b815260040161093a9190612d3d565b7fffffffff000000000000000000000000000000000000000000000000000000008116811461106857600080fd5b600060208284031215612cc457600080fd5b81356113b081612c84565b60005b83811015612cea578181015183820152602001612cd2565b50506000910152565b60008151808452612d0b816020860160208601612ccf565b601f017fffffffffffffffffffffffffffffffffffffffffffffffffffffffffffffffe0169290920160200192915050565b6020815260006113b06020830184612cf3565b600060208284031215612d6257600080fd5b5035919050565b6001600160a01b038116811461106857600080fd5b60008060408385031215612d9157600080fd5b8235612d9c81612d69565b946020939093013593505050565b600060208284031215612dbc57600080fd5b81356113b081612d69565b600080600060608486031215612ddc57600080fd5b8335612de781612d69565b92506020840135612df781612d69565b929592945050506040919091013590565b60008060408385031215612e1b57600080fd5b50508035926020909101359150565b7f4e487b7100000000000000000000000000000000000000000000000000000000600052604160045260246000fd5b600067ffffffffffffffff80841115612e7457612e74612e2a565b604051601f85017fffffffffffffffffffffffffffffffffffffffffffffffffffffffffffffffe0908116603f01168101908282118183101715612eba57612eba612e2a565b81604052809350858152868686011115612ed357600080fd5b858560208301376000602087830101525050509392505050565b600082601f830112612efe57600080fd5b6113b083833560208501612e59565b600080600060608486031215612f2257600080fd5b8335925060208401359150604084013567ffffffffffffffff811115612f4757600080fd5b612f5386828701612eed565b9150509250925092565b60008060408385031215612f7057600080fd5b8235612f7b81612d69565b91506020830135612f8b81612d69565b809150509250929050565b600060208284031215612fa857600080fd5b813567ffffffffffffffff811115612fbf57600080fd5b61152184828501612eed565b801515811461106857600080fd5b60008060408385031215612fec57600080fd5b8235612ff781612d69565b91506020830135612f8b81612fcb565b6000806000806080858703121561301d57600080fd5b843561302881612d69565b9350602085013561303881612d69565b925060408501359150606085013567ffffffffffffffff81111561305b57600080fd5b8501601f8101871361306c57600080fd5b61307b87823560208401612e59565b91505092959194509250565b600181811c9082168061309b57607f821691505b6020821081036130d4577f4e487b7100000000000000000000000000000000000000000000000000000000600052602260045260246000fd5b50919050565b7f4e487b7100000000000000000000000000000000000000000000000000000000600052601160045260246000fd5b808201808211156107eb576107eb6130da565b80820281158282048414176107eb576107eb6130da565b600082613169577f4e487b7100000000000000000000000000000000000000000000000000000000600052601260045260246000fd5b500490565b601f8211156109db57600081815260208120601f850160051c810160208610156131955750805b601f850160051c820191505b818110156131b4578281556001016131a1565b505050505050565b815167ffffffffffffffff8111156131d6576131d6612e2a565b6131ea816131e48454613087565b8461316e565b602080601f83116001811461323d57600084156132075750858301515b7fffffffffffffffffffffffffffffffffffffffffffffffffffffffffffffffff600386901b1c1916600185901b1785556131b4565b6000858152602081207fffffffffffffffffffffffffffffffffffffffffffffffffffffffffffffffe08616915b8281101561328a5788860151825594840194600190910190840161326b565b50858210156132c657878501517fffffffffffffffffffffffffffffffffffffffffffffffffffffffffffffffff600388901b60f8161c191681555b5050505050600190811b01905550565b7f4e487b7100000000000000000000000000000000000000000000000000000000600052603260045260246000fd5b60007fffffffffffffffffffffffffffffffffffffffffffffffffffffffffffffffff8203613336576133366130da565b5060010190565b60006020828403121561334f57600080fd5b5051919050565b600080845461336481613087565b6001828116801561337c57600181146133af576133de565b7fffffffffffffffffffffffffffffffffffffffffffffffffffffffffffffff00841687528215158302870194506133de565b8860005260208060002060005b858110156133d55781548a8201529084019082016133bc565b50505082870194505b5050505083516133f2818360208801612ccf565b7f2e6a736f6e0000000000000000000000000000000000000000000000000000009101908152600501949350505050565b818103818111156107eb576107eb6130da565b60006020828403121561344857600080fd5b81516113b081612fcb565b60006001600160a01b038087168352808616602084015250836040830152608060608301526134856080830184612cf3565b9695505050505050565b6000602082840312156134a157600080fd5b81516113b081612c84565b7f4e487b7100000000000000000000000000000000000000000000000000000000600052603160045260246000fd5b600082516134ed818460208701612ccf565b919091019291505056fea2646970667358221220d8e8c59d2c5125b112e447b2234ffad8ec0cd6a791047891a7019573b284dbd664736f6c63430008110033",
  "devdoc": {
    "kind": "dev",
    "methods": {
      "approve(address,uint256)": {
        "details": "See {IERC721-approve}."
      },
      "balanceOf(address)": {
        "details": "See {IERC721-balanceOf}."
      },
      "getApproved(uint256)": {
        "details": "See {IERC721-getApproved}."
      },
      "isApprovedForAll(address,address)": {
        "details": "See {IERC721-isApprovedForAll}."
      },
      "name()": {
        "details": "See {IERC721Metadata-name}."
      },
      "owner()": {
        "details": "Returns the address of the current owner."
      },
      "ownerOf(uint256)": {
        "details": "See {IERC721-ownerOf}."
      },
      "payee(uint256)": {
        "details": "Getter for the address of the payee number `index`."
      },
      "releasable(address)": {
        "details": "Getter for the amount of payee's releasable Ether."
      },
      "releasable(address,address)": {
        "details": "Getter for the amount of payee's releasable `token` tokens. `token` should be the address of an IERC20 contract."
      },
      "release(address)": {
        "details": "Triggers a transfer to `account` of the amount of Ether they are owed, according to their percentage of the total shares and their previous withdrawals."
      },
      "release(address,address)": {
        "details": "Triggers a transfer to `account` of the amount of `token` tokens they are owed, according to their percentage of the total shares and their previous withdrawals. `token` must be the address of an IERC20 contract."
      },
      "released(address)": {
        "details": "Getter for the amount of Ether already released to a payee."
      },
      "released(address,address)": {
        "details": "Getter for the amount of `token` tokens already released to a payee. `token` should be the address of an IERC20 contract."
      },
      "renounceOwnership()": {
        "details": "Leaves the contract without owner. It will not be possible to call `onlyOwner` functions anymore. Can only be called by the current owner. NOTE: Renouncing ownership will leave the contract without an owner, thereby removing any functionality that is only available to the owner."
      },
      "royaltyInfo(uint256,uint256)": {
        "details": "Returns how much royalty is owed and to whom, based on a sale price that may be denominated in any unit of exchange. The royalty amount is denominated and should be paid in that same unit of exchange."
      },
      "safeTransferFrom(address,address,uint256)": {
        "details": "See {IERC721-safeTransferFrom}."
      },
      "safeTransferFrom(address,address,uint256,bytes)": {
        "details": "See {IERC721-safeTransferFrom}."
      },
      "setApprovalForAll(address,bool)": {
        "details": "See {IERC721-setApprovalForAll}."
      },
      "shares(address)": {
        "details": "Getter for the amount of shares held by an account."
      },
      "symbol()": {
        "details": "See {IERC721Metadata-symbol}."
      },
      "tokenByIndex(uint256)": {
        "details": "See {IERC721Enumerable-tokenByIndex}."
      },
      "tokenOfOwnerByIndex(address,uint256)": {
        "details": "See {IERC721Enumerable-tokenOfOwnerByIndex}."
      },
      "totalReleased()": {
        "details": "Getter for the total amount of Ether already released."
      },
      "totalReleased(address)": {
        "details": "Getter for the total amount of `token` already released. `token` should be the address of an IERC20 contract."
      },
      "totalShares()": {
        "details": "Getter for the total shares held by payees."
      },
      "totalSupply()": {
        "details": "See {IERC721Enumerable-totalSupply}."
      },
      "transferFrom(address,address,uint256)": {
        "details": "See {IERC721-transferFrom}."
      },
      "transferOwnership(address)": {
        "details": "Transfers ownership of the contract to a new account (`newOwner`). Can only be called by the current owner."
      }
    },
    "version": 1
  },
  "userdoc": {
    "kind": "user",
    "methods": {},
    "version": 1
  },
  "storageLayout": {
    "storage": [
      {
        "astId": 1025,
        "contract": "contracts/Collection.sol:Collection",
        "label": "_name",
        "offset": 0,
        "slot": "0",
        "type": "t_string_storage"
      },
      {
        "astId": 1027,
        "contract": "contracts/Collection.sol:Collection",
        "label": "_symbol",
        "offset": 0,
        "slot": "1",
        "type": "t_string_storage"
      },
      {
        "astId": 1031,
        "contract": "contracts/Collection.sol:Collection",
        "label": "_owners",
        "offset": 0,
        "slot": "2",
        "type": "t_mapping(t_uint256,t_address)"
      },
      {
        "astId": 1035,
        "contract": "contracts/Collection.sol:Collection",
        "label": "_balances",
        "offset": 0,
        "slot": "3",
        "type": "t_mapping(t_address,t_uint256)"
      },
      {
        "astId": 1039,
        "contract": "contracts/Collection.sol:Collection",
        "label": "_tokenApprovals",
        "offset": 0,
        "slot": "4",
        "type": "t_mapping(t_uint256,t_address)"
      },
      {
        "astId": 1045,
        "contract": "contracts/Collection.sol:Collection",
        "label": "_operatorApprovals",
        "offset": 0,
        "slot": "5",
        "type": "t_mapping(t_address,t_mapping(t_address,t_bool))"
      },
      {
        "astId": 2093,
        "contract": "contracts/Collection.sol:Collection",
        "label": "_ownedTokens",
        "offset": 0,
        "slot": "6",
        "type": "t_mapping(t_address,t_mapping(t_uint256,t_uint256))"
      },
      {
        "astId": 2097,
        "contract": "contracts/Collection.sol:Collection",
        "label": "_ownedTokensIndex",
        "offset": 0,
        "slot": "7",
        "type": "t_mapping(t_uint256,t_uint256)"
      },
      {
        "astId": 2100,
        "contract": "contracts/Collection.sol:Collection",
        "label": "_allTokens",
        "offset": 0,
        "slot": "8",
        "type": "t_array(t_uint256)dyn_storage"
      },
      {
        "astId": 2104,
        "contract": "contracts/Collection.sol:Collection",
        "label": "_allTokensIndex",
        "offset": 0,
        "slot": "9",
        "type": "t_mapping(t_uint256,t_uint256)"
      },
      {
        "astId": 2507,
        "contract": "contracts/Collection.sol:Collection",
        "label": "_defaultRoyaltyInfo",
        "offset": 0,
        "slot": "10",
        "type": "t_struct(RoyaltyInfo)2504_storage"
      },
      {
        "astId": 2512,
        "contract": "contracts/Collection.sol:Collection",
        "label": "_tokenRoyaltyInfo",
        "offset": 0,
        "slot": "11",
        "type": "t_mapping(t_uint256,t_struct(RoyaltyInfo)2504_storage)"
      },
      {
        "astId": 149,
        "contract": "contracts/Collection.sol:Collection",
        "label": "_totalShares",
        "offset": 0,
        "slot": "12",
        "type": "t_uint256"
      },
      {
        "astId": 151,
        "contract": "contracts/Collection.sol:Collection",
        "label": "_totalReleased",
        "offset": 0,
        "slot": "13",
        "type": "t_uint256"
      },
      {
        "astId": 155,
        "contract": "contracts/Collection.sol:Collection",
        "label": "_shares",
        "offset": 0,
        "slot": "14",
        "type": "t_mapping(t_address,t_uint256)"
      },
      {
        "astId": 159,
        "contract": "contracts/Collection.sol:Collection",
        "label": "_released",
        "offset": 0,
        "slot": "15",
        "type": "t_mapping(t_address,t_uint256)"
      },
      {
        "astId": 162,
        "contract": "contracts/Collection.sol:Collection",
        "label": "_payees",
        "offset": 0,
        "slot": "16",
        "type": "t_array(t_address)dyn_storage"
      },
      {
        "astId": 167,
        "contract": "contracts/Collection.sol:Collection",
        "label": "_erc20TotalReleased",
        "offset": 0,
        "slot": "17",
        "type": "t_mapping(t_contract(IERC20)682,t_uint256)"
      },
      {
        "astId": 174,
        "contract": "contracts/Collection.sol:Collection",
        "label": "_erc20Released",
        "offset": 0,
        "slot": "18",
        "type": "t_mapping(t_contract(IERC20)682,t_mapping(t_address,t_uint256))"
      },
      {
        "astId": 7,
        "contract": "contracts/Collection.sol:Collection",
        "label": "_owner",
        "offset": 0,
        "slot": "19",
        "type": "t_address"
      },
      {
        "astId": 4216,
        "contract": "contracts/Collection.sol:Collection",
        "label": "maxSupply",
        "offset": 0,
        "slot": "20",
        "type": "t_uint256"
      },
      {
        "astId": 4218,
        "contract": "contracts/Collection.sol:Collection",
        "label": "baseURI",
        "offset": 0,
        "slot": "21",
        "type": "t_string_storage"
      },
      {
        "astId": 4221,
        "contract": "contracts/Collection.sol:Collection",
        "label": "_tokenIds",
        "offset": 0,
        "slot": "22",
        "type": "t_struct(Counter)3046_storage"
      },
      {
        "astId": 4223,
        "contract": "contracts/Collection.sol:Collection",
        "label": "price",
        "offset": 0,
        "slot": "23",
        "type": "t_uint256"
      },
      {
        "astId": 4229,
        "contract": "contracts/Collection.sol:Collection",
        "label": "_teamShares",
        "offset": 0,
        "slot": "24",
        "type": "t_array(t_uint256)dyn_storage"
      }
    ],
    "types": {
      "t_address": {
        "encoding": "inplace",
        "label": "address",
        "numberOfBytes": "20"
      },
      "t_array(t_address)dyn_storage": {
        "base": "t_address",
        "encoding": "dynamic_array",
        "label": "address[]",
        "numberOfBytes": "32"
      },
      "t_array(t_uint256)dyn_storage": {
        "base": "t_uint256",
        "encoding": "dynamic_array",
        "label": "uint256[]",
        "numberOfBytes": "32"
      },
      "t_bool": {
        "encoding": "inplace",
        "label": "bool",
        "numberOfBytes": "1"
      },
      "t_contract(IERC20)682": {
        "encoding": "inplace",
        "label": "contract IERC20",
        "numberOfBytes": "20"
      },
      "t_mapping(t_address,t_bool)": {
        "encoding": "mapping",
        "key": "t_address",
        "label": "mapping(address => bool)",
        "numberOfBytes": "32",
        "value": "t_bool"
      },
      "t_mapping(t_address,t_mapping(t_address,t_bool))": {
        "encoding": "mapping",
        "key": "t_address",
        "label": "mapping(address => mapping(address => bool))",
        "numberOfBytes": "32",
        "value": "t_mapping(t_address,t_bool)"
      },
      "t_mapping(t_address,t_mapping(t_uint256,t_uint256))": {
        "encoding": "mapping",
        "key": "t_address",
        "label": "mapping(address => mapping(uint256 => uint256))",
        "numberOfBytes": "32",
        "value": "t_mapping(t_uint256,t_uint256)"
      },
      "t_mapping(t_address,t_uint256)": {
        "encoding": "mapping",
        "key": "t_address",
        "label": "mapping(address => uint256)",
        "numberOfBytes": "32",
        "value": "t_uint256"
      },
      "t_mapping(t_contract(IERC20)682,t_mapping(t_address,t_uint256))": {
        "encoding": "mapping",
        "key": "t_contract(IERC20)682",
        "label": "mapping(contract IERC20 => mapping(address => uint256))",
        "numberOfBytes": "32",
        "value": "t_mapping(t_address,t_uint256)"
      },
      "t_mapping(t_contract(IERC20)682,t_uint256)": {
        "encoding": "mapping",
        "key": "t_contract(IERC20)682",
        "label": "mapping(contract IERC20 => uint256)",
        "numberOfBytes": "32",
        "value": "t_uint256"
      },
      "t_mapping(t_uint256,t_address)": {
        "encoding": "mapping",
        "key": "t_uint256",
        "label": "mapping(uint256 => address)",
        "numberOfBytes": "32",
        "value": "t_address"
      },
      "t_mapping(t_uint256,t_struct(RoyaltyInfo)2504_storage)": {
        "encoding": "mapping",
        "key": "t_uint256",
        "label": "mapping(uint256 => struct ERC2981.RoyaltyInfo)",
        "numberOfBytes": "32",
        "value": "t_struct(RoyaltyInfo)2504_storage"
      },
      "t_mapping(t_uint256,t_uint256)": {
        "encoding": "mapping",
        "key": "t_uint256",
        "label": "mapping(uint256 => uint256)",
        "numberOfBytes": "32",
        "value": "t_uint256"
      },
      "t_string_storage": {
        "encoding": "bytes",
        "label": "string",
        "numberOfBytes": "32"
      },
      "t_struct(Counter)3046_storage": {
        "encoding": "inplace",
        "label": "struct Counters.Counter",
        "members": [
          {
            "astId": 3045,
            "contract": "contracts/Collection.sol:Collection",
            "label": "_value",
            "offset": 0,
            "slot": "0",
            "type": "t_uint256"
          }
        ],
        "numberOfBytes": "32"
      },
      "t_struct(RoyaltyInfo)2504_storage": {
        "encoding": "inplace",
        "label": "struct ERC2981.RoyaltyInfo",
        "members": [
          {
            "astId": 2501,
            "contract": "contracts/Collection.sol:Collection",
            "label": "receiver",
            "offset": 0,
            "slot": "0",
            "type": "t_address"
          },
          {
            "astId": 2503,
            "contract": "contracts/Collection.sol:Collection",
            "label": "royaltyFraction",
            "offset": 20,
            "slot": "0",
            "type": "t_uint96"
          }
        ],
        "numberOfBytes": "32"
      },
      "t_uint256": {
        "encoding": "inplace",
        "label": "uint256",
        "numberOfBytes": "32"
      },
      "t_uint96": {
        "encoding": "inplace",
        "label": "uint96",
        "numberOfBytes": "12"
      }
    }
  }
}