{
  "address": "0x5FbDB2315678afecb367f032d93F642f64180aa3",
  "abi": [
    {
      "anonymous": false,
      "inputs": [
        {
          "indexed": true,
          "internalType": "address",
          "name": "previousOwner",
          "type": "address"
        },
        {
          "indexed": true,
          "internalType": "address",
          "name": "newOwner",
          "type": "address"
        }
      ],
      "name": "OwnershipTransferred",
      "type": "event"
    },
    {
      "anonymous": false,
      "inputs": [
        {
          "indexed": false,
          "internalType": "uint256",
          "name": "proposalId",
          "type": "uint256"
        }
      ],
      "name": "ProposalRegistered",
      "type": "event"
    },
    {
      "anonymous": false,
      "inputs": [
        {
          "indexed": false,
          "internalType": "address",
          "name": "voter",
          "type": "address"
        },
        {
          "indexed": false,
          "internalType": "uint8",
          "name": "proposalId",
          "type": "uint8"
        }
      ],
      "name": "Voted",
      "type": "event"
    },
    {
      "anonymous": false,
      "inputs": [
        {
          "indexed": false,
          "internalType": "address",
          "name": "voterAddress",
          "type": "address"
        }
      ],
      "name": "VoterRegistered",
      "type": "event"
    },
    {
      "anonymous": false,
      "inputs": [
        {
          "indexed": false,
          "internalType": "enum Voting.WorkflowStatus",
          "name": "previousStatus",
          "type": "uint8"
        },
        {
          "indexed": false,
          "internalType": "enum Voting.WorkflowStatus",
          "name": "newStatus",
          "type": "uint8"
        }
      ],
      "name": "WorkflowStatusChange",
      "type": "event"
    },
    {
      "inputs": [
        {
          "internalType": "string",
          "name": "_desc",
          "type": "string"
        }
      ],
      "name": "addProposal",
      "outputs": [],
      "stateMutability": "nonpayable",
      "type": "function"
    },
    {
      "inputs": [
        {
          "internalType": "address",
          "name": "_addr",
          "type": "address"
        }
      ],
      "name": "addVoter",
      "outputs": [],
      "stateMutability": "nonpayable",
      "type": "function"
    },
    {
      "inputs": [],
      "name": "endProposalsRegistering",
      "outputs": [],
      "stateMutability": "nonpayable",
      "type": "function"
    },
    {
      "inputs": [],
      "name": "endVotingSession",
      "outputs": [],
      "stateMutability": "nonpayable",
      "type": "function"
    },
    {
      "inputs": [
        {
          "internalType": "uint8",
          "name": "_id",
          "type": "uint8"
        }
      ],
      "name": "getOneProposal",
      "outputs": [
        {
          "components": [
            {
              "internalType": "string",
              "name": "description",
              "type": "string"
            },
            {
              "internalType": "uint256",
              "name": "voteCount",
              "type": "uint256"
            }
          ],
          "internalType": "struct Voting.Proposal",
          "name": "",
          "type": "tuple"
        }
      ],
      "stateMutability": "view",
      "type": "function"
    },
    {
      "inputs": [
        {
          "internalType": "address",
          "name": "_addr",
          "type": "address"
        }
      ],
      "name": "getVoter",
      "outputs": [
        {
          "components": [
            {
              "internalType": "bool",
              "name": "isRegistered",
              "type": "bool"
            },
            {
              "internalType": "bool",
              "name": "hasVoted",
              "type": "bool"
            },
            {
              "internalType": "uint256",
              "name": "votedProposalId",
              "type": "uint256"
            }
          ],
          "internalType": "struct Voting.Voter",
          "name": "",
          "type": "tuple"
        }
      ],
      "stateMutability": "view",
      "type": "function"
    },
    {
      "inputs": [],
      "name": "owner",
      "outputs": [
        {
          "internalType": "address",
          "name": "",
          "type": "address"
        }
      ],
      "stateMutability": "view",
      "type": "function"
    },
    {
      "inputs": [],
      "name": "renounceOwnership",
      "outputs": [],
      "stateMutability": "nonpayable",
      "type": "function"
    },
    {
      "inputs": [
        {
          "internalType": "uint8",
          "name": "_id",
          "type": "uint8"
        }
      ],
      "name": "setVote",
      "outputs": [],
      "stateMutability": "nonpayable",
      "type": "function"
    },
    {
      "inputs": [],
      "name": "startProposalsRegistering",
      "outputs": [],
      "stateMutability": "nonpayable",
      "type": "function"
    },
    {
      "inputs": [],
      "name": "startVotingSession",
      "outputs": [],
      "stateMutability": "nonpayable",
      "type": "function"
    },
    {
      "inputs": [],
      "name": "tallyVotes",
      "outputs": [],
      "stateMutability": "nonpayable",
      "type": "function"
    },
    {
      "inputs": [
        {
          "internalType": "address",
          "name": "newOwner",
          "type": "address"
        }
      ],
      "name": "transferOwnership",
      "outputs": [],
      "stateMutability": "nonpayable",
      "type": "function"
    },
    {
      "inputs": [],
      "name": "winningProposalID",
      "outputs": [
        {
          "internalType": "uint256",
          "name": "",
          "type": "uint256"
        }
      ],
      "stateMutability": "view",
      "type": "function"
    },
    {
      "inputs": [],
      "name": "workflowStatus",
      "outputs": [
        {
          "internalType": "enum Voting.WorkflowStatus",
          "name": "",
          "type": "uint8"
        }
      ],
      "stateMutability": "view",
      "type": "function"
    }
  ],
  "transactionHash": "0x2d55a2746fbcc860ffb44cc72d217cf74850b833d477d4133f7919743300193a",
  "args": [],
  "numDeployments": 1,
  "solcInputHash": "47daa46c97b5e37a96c0c1ed81554934",
  "bytecode": "0x608060405234801561001057600080fd5b5061001a3361001f565b61006f565b600080546001600160a01b038381166001600160a01b0319831681178455604051919092169283917f8be0079c531659141344cd1fd0a4f28419497f9722a3daafe3b4186f6b6457e09190a35050565b6114348061007e6000396000f3fe608060405234801561001057600080fd5b50600436106100f55760003560e01c8063bdc0143111610097578063ee74c67811610066578063ee74c678146101ee578063f2fde38b146101f6578063f4ab9adf14610209578063f6c28b3b1461021c57600080fd5b8063bdc014311461018e578063c7038a4e146101a5578063c88af42f146101ad578063d4f50f98146101b557600080fd5b80638da5cb5b116100d35780638da5cb5b1461011f57806391e9b21f1461014c578063a1edffa21461016c578063a7bfab161461018657600080fd5b80632fdae3c5146100fa578063378a21781461010f578063715018a614610117575b600080fd5b61010d61010836600461110f565b61022f565b005b61010d61048b565b61010d6105ab565b60005460405173ffffffffffffffffffffffffffffffffffffffff90911681526020015b60405180910390f35b61015f61015a366004611181565b6105bf565b60405161014391906111ab565b6002546101799060ff1681565b6040516101439190611299565b61010d6106fc565b61019760015481565b604051908152602001610143565b61010d6107b6565b61010d610932565b6101c86101c33660046112ad565b610a04565b604080518251151581526020808401511515908201529181015190820152606001610143565b61010d610ad8565b61010d6102043660046112ad565b610b84565b61010d6102173660046112ad565b610c21565b61010d61022a366004611181565b610d6c565b336000908152610202602052604090205460ff166102945760405162461bcd60e51b815260206004820152600b60248201527f4e6f74206120766f74657200000000000000000000000000000000000000000060448201526064015b60405180910390fd5b600160025460ff1660058111156102ad576102ad61122f565b146102fa5760405162461bcd60e51b815260206004820152601a60248201527f50726f706f73616c732073657373696f6e206e6f74206f70656e000000000000604482015260640161028b565b806103475760405162461bcd60e51b815260206004820152601360248201527f4d697373696e67206465736372697074696f6e00000000000000000000000000604482015260640161028b565b60ff610201541061039a5760405162461bcd60e51b815260206004820152601560248201527f4d61782070726f706f73616c7320726561636865640000000000000000000000604482015260640161028b565b60408051808201909152606081526000602082015282828080601f01602080910402602001604051908101604052809392919081815260200183838082843760009201919091525050509082525061020154819060039060ff8110610401576104016112e3565b600202016000820151816000019080519060200190610421929190611076565b50602082015181600101559050506102016000815461043f90611341565b90915550610201547f92e393e9b54e2f801d3ea4beb0c5e71a21cc34a5d34b77d0fb8a3aa1650dc18f9061047590600190611379565b60405190815260200160405180910390a1505050565b610493610f9a565b600460025460ff1660058111156104ac576104ac61122f565b146104f95760405162461bcd60e51b815260206004820152601760248201527f54616c6c7920766f7465732063616e74206265206e6f77000000000000000000604482015260640161028b565b6000805b610201548110156105585760038260ff811061051b5761051b6112e3565b600202016001015460038260ff8110610536576105366112e3565b60020201600101541115610548578091505b61055181611341565b90506104fd565b5060018190556002805460ff191660059081179091556040517f0a97a4ee45751e2abf3e4fc8946939630b11b371ea8ae39ccdc3056e98f5cc3f916105a09160049190611390565b60405180910390a150565b6105b3610f9a565b6105bd6000611001565b565b604080518082019091526060815260006020820152336000908152610202602052604090205460ff166106345760405162461bcd60e51b815260206004820152600b60248201527f4e6f74206120766f746572000000000000000000000000000000000000000000604482015260640161028b565b60038260ff1660ff811061064a5761064a6112e3565b60020201604051806040016040529081600082018054610669906113ab565b80601f0160208091040260200160405190810160405280929190818152602001828054610695906113ab565b80156106e25780601f106106b7576101008083540402835291602001916106e2565b820191906000526020600020905b8154815290600101906020018083116106c557829003601f168201915b505050505081526020016001820154815250509050919050565b610704610f9a565b600360025460ff16600581111561071d5761071d61122f565b1461076a5760405162461bcd60e51b815260206004820152601660248201527f456e6420766f74696e672063616e74206265206e6f7700000000000000000000604482015260640161028b565b6002805460ff191660049081179091556040517f0a97a4ee45751e2abf3e4fc8946939630b11b371ea8ae39ccdc3056e98f5cc3f916107ac9160039190611390565b60405180910390a1565b6107be610f9a565b600060025460ff1660058111156107d7576107d761122f565b1461084a5760405162461bcd60e51b815260206004820152602160248201527f5265676973746572696e672070726f706f73616c732063616e74206265206e6f60448201527f7700000000000000000000000000000000000000000000000000000000000000606482015260840161028b565b6002805460ff191660011790556040805180820182526060815260006020808301919091528251808401909352600783527f47454e45534953000000000000000000000000000000000000000000000000009083015290815261020154819060039060ff81106108bc576108bc6112e3565b6002020160008201518160000190805190602001906108dc929190611076565b5060208201518160010155905050610201600081546108fa90611341565b909155506040517f0a97a4ee45751e2abf3e4fc8946939630b11b371ea8ae39ccdc3056e98f5cc3f906105a090600090600190611390565b61093a610f9a565b600160025460ff1660058111156109535761095361122f565b146109c65760405162461bcd60e51b815260206004820152602560248201527f456e64207265676973746572696e672070726f706f73616c732063616e74206260448201527f65206e6f77000000000000000000000000000000000000000000000000000000606482015260840161028b565b6002805460ff1916811781556040517f0a97a4ee45751e2abf3e4fc8946939630b11b371ea8ae39ccdc3056e98f5cc3f916107ac9160019190611390565b60408051606081018252600080825260208083018290528284018290523382526102029052919091205460ff16610a7d5760405162461bcd60e51b815260206004820152600b60248201527f4e6f74206120766f746572000000000000000000000000000000000000000000604482015260640161028b565b5073ffffffffffffffffffffffffffffffffffffffff16600090815261020260209081526040918290208251606081018452815460ff8082161515835261010090910416151592810192909252600101549181019190915290565b610ae0610f9a565b6002805460ff166005811115610af857610af861122f565b14610b455760405162461bcd60e51b815260206004820152601260248201527f566f74696e672063616e74206265206e6f770000000000000000000000000000604482015260640161028b565b6002805460ff1916600390811782556040517f0a97a4ee45751e2abf3e4fc8946939630b11b371ea8ae39ccdc3056e98f5cc3f926107ac929091611390565b610b8c610f9a565b73ffffffffffffffffffffffffffffffffffffffff8116610c155760405162461bcd60e51b815260206004820152602660248201527f4f776e61626c653a206e6577206f776e657220697320746865207a65726f206160448201527f6464726573730000000000000000000000000000000000000000000000000000606482015260840161028b565b610c1e81611001565b50565b610c29610f9a565b600060025460ff166005811115610c4257610c4261122f565b14610c8f5760405162461bcd60e51b815260206004820152601c60248201527f566f7465727320726567697374726174696f6e206e6f74206f70656e00000000604482015260640161028b565b73ffffffffffffffffffffffffffffffffffffffff81166000908152610202602052604090205460ff161515600103610d0a5760405162461bcd60e51b815260206004820152601260248201527f416c726561647920726567697374657265640000000000000000000000000000604482015260640161028b565b73ffffffffffffffffffffffffffffffffffffffff811660008181526102026020908152604091829020805460ff1916600117905590519182527fb6be2187d059cc2a55fe29e0e503b566e1e0f8c8780096e185429350acffd3dd91016105a0565b336000908152610202602052604090205460ff16610dcc5760405162461bcd60e51b815260206004820152600b60248201527f4e6f74206120766f746572000000000000000000000000000000000000000000604482015260640161028b565b600360025460ff166005811115610de557610de561122f565b14610e325760405162461bcd60e51b815260206004820152600f60248201527f566f74696e67206e6f74206f70656e0000000000000000000000000000000000604482015260640161028b565b3360009081526102026020526040902054610100900460ff161515600103610e9c5760405162461bcd60e51b815260206004820152600d60248201527f416c726561647920766f74656400000000000000000000000000000000000000604482015260640161028b565b610201548160ff1610610ef15760405162461bcd60e51b815260206004820152601060248201527f4d697373696e672070726f706f73616c00000000000000000000000000000000604482015260640161028b565b3360009081526102026020526040902060ff8083166001830181905582547fffffffffffffffffffffffffffffffffffffffffffffffffffffffffffff00ff1661010017909255600391908110610f4a57610f4a6112e3565b6002020160010160008154610f5e90611341565b909155506040805133815260ff831660208201527f14075e33dffdc00c1fcaf75d0f86d667170be57fb566b12b41b499e5fa53b12591016105a0565b60005473ffffffffffffffffffffffffffffffffffffffff1633146105bd5760405162461bcd60e51b815260206004820181905260248201527f4f776e61626c653a2063616c6c6572206973206e6f7420746865206f776e6572604482015260640161028b565b6000805473ffffffffffffffffffffffffffffffffffffffff8381167fffffffffffffffffffffffff0000000000000000000000000000000000000000831681178455604051919092169283917f8be0079c531659141344cd1fd0a4f28419497f9722a3daafe3b4186f6b6457e09190a35050565b828054611082906113ab565b90600052602060002090601f0160209004810192826110a457600085556110ea565b82601f106110bd57805160ff19168380011785556110ea565b828001600101855582156110ea579182015b828111156110ea5782518255916020019190600101906110cf565b506110f69291506110fa565b5090565b5b808211156110f657600081556001016110fb565b6000806020838503121561112257600080fd5b823567ffffffffffffffff8082111561113a57600080fd5b818501915085601f83011261114e57600080fd5b81358181111561115d57600080fd5b86602082850101111561116f57600080fd5b60209290920196919550909350505050565b60006020828403121561119357600080fd5b813560ff811681146111a457600080fd5b9392505050565b600060208083528351604082850152805180606086015260005b818110156111e1578281018401518682016080015283016111c5565b818111156111f3576000608083880101525b50949091015160408401525050601f919091017fffffffffffffffffffffffffffffffffffffffffffffffffffffffffffffffe0160160800190565b7f4e487b7100000000000000000000000000000000000000000000000000000000600052602160045260246000fd5b60068110611295577f4e487b7100000000000000000000000000000000000000000000000000000000600052602160045260246000fd5b9052565b602081016112a7828461125e565b92915050565b6000602082840312156112bf57600080fd5b813573ffffffffffffffffffffffffffffffffffffffff811681146111a457600080fd5b7f4e487b7100000000000000000000000000000000000000000000000000000000600052603260045260246000fd5b7f4e487b7100000000000000000000000000000000000000000000000000000000600052601160045260246000fd5b60007fffffffffffffffffffffffffffffffffffffffffffffffffffffffffffffffff820361137257611372611312565b5060010190565b60008282101561138b5761138b611312565b500390565b6040810161139e828561125e565b6111a4602083018461125e565b600181811c908216806113bf57607f821691505b6020821081036113f8577f4e487b7100000000000000000000000000000000000000000000000000000000600052602260045260246000fd5b5091905056fea2646970667358221220953ddb3e524345fad5b97d11370fdf35f58846668112a17f6b155cee1682549264736f6c634300080d0033",
  "devdoc": {
    "author": "Flavia Gallois",
    "kind": "dev",
    "methods": {
      "addProposal(string)": {
        "details": "Only the registered voters can use this method",
        "params": {
          "_desc": "The description of the proposal made by the voter"
        }
      },
      "addVoter(address)": {
        "details": "Only the owner of the contract can use this method",
        "params": {
          "_addr": "The address of the voter to register"
        }
      },
      "endProposalsRegistering()": {
        "details": "Only the owner of the contract can use this method"
      },
      "endVotingSession()": {
        "details": "Only the owner of the contract can use this method"
      },
      "getOneProposal(uint8)": {
        "details": "Only the registered voters can use this method",
        "params": {
          "_id": "The identifier of a specific proposal"
        },
        "returns": {
          "_0": "Proposal which contains the description of the proposal and the number of votes it got so far"
        }
      },
      "getVoter(address)": {
        "details": "Only the registered voters can use this method",
        "params": {
          "_addr": "Address of the voter we look the information for"
        },
        "returns": {
          "_0": "Voter which contains the vote, registration status & voting status of a voter"
        }
      },
      "owner()": {
        "details": "Returns the address of the current owner."
      },
      "renounceOwnership()": {
        "details": "Leaves the contract without owner. It will not be possible to call `onlyOwner` functions anymore. Can only be called by the current owner. NOTE: Renouncing ownership will leave the contract without an owner, thereby removing any functionality that is only available to the owner."
      },
      "setVote(uint8)": {
        "details": "Only the registered voters can use this method",
        "params": {
          "_id": "The identifier of the chosen proposal"
        }
      },
      "startProposalsRegistering()": {
        "details": "Only the owner of the contract can use this method"
      },
      "startVotingSession()": {
        "details": "Only the owner of the contract can use this method"
      },
      "tallyVotes()": {
        "details": "Only the owner of the contract can use this method. Size limit of proposalsArray avoid DOS risk."
      },
      "transferOwnership(address)": {
        "details": "Transfers ownership of the contract to a new account (`newOwner`). Can only be called by the current owner."
      }
    },
    "title": "A simple voting contract",
    "version": 1
  },
  "userdoc": {
    "kind": "user",
    "methods": {
      "addProposal(string)": {
        "notice": "Add a proposal to the list of proposals voted"
      },
      "addVoter(address)": {
        "notice": "Add an address in the list of voters"
      },
      "endProposalsRegistering()": {
        "notice": "End the proposals registration phase"
      },
      "endVotingSession()": {
        "notice": "End the voting session phase"
      },
      "getOneProposal(uint8)": {
        "notice": "Get the information of a proposal"
      },
      "getVoter(address)": {
        "notice": "Get the information of a voter identified by his address."
      },
      "setVote(uint8)": {
        "notice": "Vote for a proposal"
      },
      "startProposalsRegistering()": {
        "notice": "Start the proposals registration phase"
      },
      "startVotingSession()": {
        "notice": "Start the voting session phase after the proposal registration ended"
      },
      "tallyVotes()": {
        "notice": "Calculate the winning proposal after the vote phase ended"
      }
    },
    "notice": "You can use this contract to organize a vote, for a small organization, in order to choose a proposal among several proposals (limited number) made by registered voters",
    "version": 1
  },
  "storageLayout": {
    "storage": [
      {
        "astId": 7,
        "contract": "contracts/Voting.sol:Voting",
        "label": "_owner",
        "offset": 0,
        "slot": "0",
        "type": "t_address"
      },
      {
        "astId": 142,
        "contract": "contracts/Voting.sol:Voting",
        "label": "winningProposalID",
        "offset": 0,
        "slot": "1",
        "type": "t_uint256"
      },
      {
        "astId": 164,
        "contract": "contracts/Voting.sol:Voting",
        "label": "workflowStatus",
        "offset": 0,
        "slot": "2",
        "type": "t_enum(WorkflowStatus)161"
      },
      {
        "astId": 169,
        "contract": "contracts/Voting.sol:Voting",
        "label": "proposalsArray",
        "offset": 0,
        "slot": "3",
        "type": "t_array(t_struct(Proposal)154_storage)255_storage"
      },
      {
        "astId": 171,
        "contract": "contracts/Voting.sol:Voting",
        "label": "proposalsLength",
        "offset": 0,
        "slot": "513",
        "type": "t_uint256"
      },
      {
        "astId": 176,
        "contract": "contracts/Voting.sol:Voting",
        "label": "voters",
        "offset": 0,
        "slot": "514",
        "type": "t_mapping(t_address,t_struct(Voter)149_storage)"
      }
    ],
    "types": {
      "t_address": {
        "encoding": "inplace",
        "label": "address",
        "numberOfBytes": "20"
      },
      "t_array(t_struct(Proposal)154_storage)255_storage": {
        "base": "t_struct(Proposal)154_storage",
        "encoding": "inplace",
        "label": "struct Voting.Proposal[255]",
        "numberOfBytes": "16320"
      },
      "t_bool": {
        "encoding": "inplace",
        "label": "bool",
        "numberOfBytes": "1"
      },
      "t_enum(WorkflowStatus)161": {
        "encoding": "inplace",
        "label": "enum Voting.WorkflowStatus",
        "numberOfBytes": "1"
      },
      "t_mapping(t_address,t_struct(Voter)149_storage)": {
        "encoding": "mapping",
        "key": "t_address",
        "label": "mapping(address => struct Voting.Voter)",
        "numberOfBytes": "32",
        "value": "t_struct(Voter)149_storage"
      },
      "t_string_storage": {
        "encoding": "bytes",
        "label": "string",
        "numberOfBytes": "32"
      },
      "t_struct(Proposal)154_storage": {
        "encoding": "inplace",
        "label": "struct Voting.Proposal",
        "members": [
          {
            "astId": 151,
            "contract": "contracts/Voting.sol:Voting",
            "label": "description",
            "offset": 0,
            "slot": "0",
            "type": "t_string_storage"
          },
          {
            "astId": 153,
            "contract": "contracts/Voting.sol:Voting",
            "label": "voteCount",
            "offset": 0,
            "slot": "1",
            "type": "t_uint256"
          }
        ],
        "numberOfBytes": "64"
      },
      "t_struct(Voter)149_storage": {
        "encoding": "inplace",
        "label": "struct Voting.Voter",
        "members": [
          {
            "astId": 144,
            "contract": "contracts/Voting.sol:Voting",
            "label": "isRegistered",
            "offset": 0,
            "slot": "0",
            "type": "t_bool"
          },
          {
            "astId": 146,
            "contract": "contracts/Voting.sol:Voting",
            "label": "hasVoted",
            "offset": 1,
            "slot": "0",
            "type": "t_bool"
          },
          {
            "astId": 148,
            "contract": "contracts/Voting.sol:Voting",
            "label": "votedProposalId",
            "offset": 0,
            "slot": "1",
            "type": "t_uint256"
          }
        ],
        "numberOfBytes": "64"
      },
      "t_uint256": {
        "encoding": "inplace",
        "label": "uint256",
        "numberOfBytes": "32"
      }
    }
  }
}